S02B0000433A5C55736572735C6E786131373134315C446F63756D656E74735C4D43555870726573736F494478
S3152025000000D8272001042520B504252031BC25200C
S31520250010B1042520B1042520B104252000000000A7
S31520250020000000000000000000000000BD0425207F
S31520250030B104252000000000C1042520C504252063
S31520250040C9042520CD042520D1042520D504252005
S31520250050D9042520DD042520E1042520E5042520B5
S31520250060E9042520ED042520F1042520F504252065
S31520250070F9042520FD042520010525200505252013
S3152025008009052520B1042520B1042520B1042520E4
S31520250090D5BE252011052520150525201905252020
S315202500A01D05252021052520250525202905252051
S315202500B02D05252031052520350525203905252001
S315202500C03D052520410525204505252049052520B1
S315202500D04D05252051052520550525205905252061
S315202500E05D05252061052520650525206905252011
S315202500F06D052520710525207505252079052520C1
S315202501007D05252081052520B1042520B10425201E
S31520250110B1042520B1042520B1042520B1042520AC
S31520250120B1042520B1042520B1042520B10425209C
S31520250130B1042520B1042520B1042520B10425208C
S31520250140B1042520B1042520B1042520B10425207C
S31520250150B1042520B1042520B1042520B10425206C
S31520250160B1042520B1042520B1042520B10425205C
S3152025017085052520890525208D05252091052520E0
S3152025018095052520990525209D052520B104252081
S31520250190B1042520B1042520B1042520B10425202C
S315202501A0B1042520B1042520B1042520B10425201C
S315202501B0B1042520B1042520B1042520B10425200C
S315202501C0B1042520A1052520B1042520B10425200B
S315202501D0B1042520B1042520B1042520B1042520EC
S315202501E0B10425208DE52520B1042520B10425201F
S315202501F0B1042520B1042520A5052520A9052520DE
S31520250200B1042520B1042520B1042520B1042520BB
S31520250210B1042520B1042520B1042520B1042520AB
S31520250220B1042520B1042520B1042520B10425209B
S31520250230B1042520B1042520B1042520B10425208B
S31520250240B1042520B1042520AD052520B10525207D
S31520250250B1042520B5052520B9052520B10425205D
S31520250260C9C22520BD052520C1052520C505252052
S31520250270C9052520CD052520D1052520B1042520F4
S31520250280B1042520B1042520B1042520B10425203B
S31520250290B1042520B1042520B1042520B10425202B
S315202502A0B1042520B1042520B1042520B10425201B
S315202502B0B1042520B1042520B1042520B10425200B
S315202502C0B1042520B1042520B1042520B1042520FB
S315202502D0B1042520B1042520B1042520B1042520EB
S315202502E0B1042520B1042520B1042520B1042520DB
S315202502F0B1042520B1042520B1042520B1042520CB
S31520250300B1042520B1042520B1042520B1042520BA
S31520250310B1042520B1042520B1042520B1042520AA
S31520250320B1042520B1042520B1042520B10425209A
S31520250330B1042520B1042520B1042520B10425208A
S31520250340B1042520B1042520B1042520B10425207A
S31520250350B1042520B1042520B1042520B10425206A
S31520250360B1042520B1042520D5052520D90525200C
S31520250370B1042520B1042520B1042520B10425204A
S31520250380B1042520B1042520DD052520E1052520DC
S31520250390E5052520E9052520B1042520B1042520BC
S315202503A0ED052520F1052520B1042520B10425209C
S315202503B0B1042520B1042520B1042520B10425200A
S315202503C0B1042520B1042520B1042520B1042520FA
S315202503D0B1042520B1042520B1042520B1042520EA
S315202503E0B1042520B1042520B1042520B1042520DA
S315202503F0B1042520B1042520B1042520FFFFFFFFC8
S3152025040072B61248124988604FF000024FF0000359
S315202504104FF000044FF000054FF000064FF000077F
S31520250420B846B946BA46BB46BC460A4885460A4812
S3152025043080470A4880470A48804762B64FF0000021
S315202504404FF00001074A9047FEE7000000002520CF
S3152025045000ED00E000D8272081D62520D11725209C
S315202504603D182520B5BC252072B60A480A490160C3
S315202504700A6882F30888094880470949094A0A4BA8
S315202504809A42BEBF51F8040B42F8040BF8E762B630
S315202504900648804708ED00E00000252081D6252046
S315202504A0FC40262000002720F00B2720B5BC252040
S315202504B0FFF7FEBF4F4800474F4800474F480047A4
S315202504C04F4800474F4800474F4800474F48004769
S315202504D04F4800474F4800474F4800474F48004759
S315202504E04F4800474F4800474F4800474F48004749
S315202504F04F4800474F4800474F4800474F48004739
S315202505004F4800474F4800474F4800474F48004728
S315202505104F4800474F4800474F4800474F48004718
S315202505204F4800474F4800474F4800474F48004708
S315202505304F4800474F4800474F4800474F480047F8
S315202505404F4800474F4800474F4800474F480047E8
S315202505504F4800474F4800474F4800474F480047D8
S315202505604F4800474F4800474F4800474F480047C8
S315202505704F4800474F4800474F4800474F480047B8
S315202505804F4800474F4800474F4800474F480047A8
S315202505904F4800474F4800474F4800474F48004798
S315202505A04F4800474F4800474F4800474F48004788
S315202505B04F4800474F4800474F4800474F48004778
S315202505C04F4800474F4800474F4800474F48004768
S315202505D04F4800474F4800474F4800474F48004758
S315202505E04F4800474F4800474F4800474F48004748
S315202505F04F480047B504252031BC2520BD0425209C
S31520250600C1042520C5042520B1042520B104252093
S31520250610B1042520B1042520B1042520B1042520A7
S31520250620B1042520B1042520B1042520B104252097
S31520250630B1042520B1042520B1042520B104252087
S31520250640B1042520B1042520B1042520F9D3252060
S3152025065019D4252039D4252059D4252079D42520C7
S3152025066099D42520B9D42520D9D42520F9D42520B7
S3152025067019D5252039D5252059D52520B10425203C
S31520250680B1042520B1042520B1042520B104252037
S31520250690B10425205DD1252071D1252085D1252080
S315202506A099D12520ADD12520B1042520B104252099
S315202506B0B1042520B1042520B1042520B104252007
S315202506C0B1042520B1042520B1042520B1042520F7
S315202506D0B1042520B1042520B1042520B1042520E7
S315202506E0B1042520B1042520B1042520B1042520D7
S315202506F0B10425204161252059612520B1042520D5
S31520250700B1042520B1042520B1042520B1042520B6
S31520250710B1042520B1042520B1042520B1042520A6
S31520250720B1042520B1042520B1042520B104252096
S31520250730B1042520002A01D101207047F0B41F4697
S31520250740034603242340002B09D00424E31A0170F1
S3152025075001300824E141013A26D0013BF7D1042A6C
S315202507601ADB13D0002F11D00C460D460E46102A23
S3152025077002DB72C0103AFAE70C2A02DB32C00C3AA9
S31520250780FAE7082A02DB12C0083AFAE7042A03DB2D
S3152025079001600430043AF9E7002A05D001700130BA
S315202507A00824E141013AF7D1F0BC00207047C04624
S315202507B053B94AB9002908BF00281CBF4FF0FF317D
S315202507C04FF0FF3000F074B9ADF1080C6DE904CE79
S315202507D000F006F8DDF804E0DDE9022304B07047D1
S315202507E02DE9F047089D04468E46002B4DD18A4299
S315202507F0944669D9B2FA82F252B101FA02F3C2F1CC
S31520250800200120FA01F10CFA02FC41EA030E94405C
S315202508104FEA1C48210CBEFBF8F61FFA8CF708FB7D
S3152025082016E341EA034306FB07F199420AD91CEB55
S31520250830030306F1FF3080F01F81994240F21C8187
S31520250840023E63445B1AA4B2B3FBF8F008FB1033CF
S3152025085044EA034400FB07F7A7420AD91CEB040404
S3152025086000F1FF3380F00A81A74240F207816444D4
S31520250870023840EA0640E41B00261DB1D440002359
S31520250880C5E900433146BDE8F0878B4209D9002DBD
S3152025089000F0EF800026C5E9000130463146BDE847
S315202508A0F087B3FA83F6002E4AD18B4202D38242B1
S315202508B000F2F980841A61EB030301209E46002D60
S315202508C0E0D0C5E9004EDDE702B9FFDEB2FA82F2B5
S315202508D0002A40F09280A1EB0C014FEA1C471FFA13
S315202508E08CFE0126200CB1FBF7F307FB131140EAFA
S315202508F001410EFB03F0884208D91CEB010103F1C7
S31520250900FF3802D2884200F2CB804346091AA4B288
S31520250910B1FBF7F007FB101144EA01440EFB00FE5C
S31520250920A64508D91CEB040400F1FF3102D2A645C1
S3152025093000F2BB800846A4EB0E0440EA03409CE760
S31520250940C6F12007B34022FA07FC4CEA030C20FA0D
S3152025095007F401FA06F31C43F9404FEA1C4900FA2D
S3152025096006F3B1FBF9F8200C1FFA8CFE09FB1811AA
S3152025097040EA014108FB0EF0884202FA06F20BD91D
S315202509801CEB010108F1FF3A80F08880884240F26D
S315202509908580A8F102086144091AA4B2B1FBF9F0B1
S315202509A009FB101144EA014100FB0EFE8E4508D9AC
S315202509B01CEB010100F1FF346CD28E456AD9023831
S315202509C0614440EA0840A0FB0294A1EB0E01A14216
S315202509D0C846A64656D353D05DB1B3EB080261EB84
S315202509E00E0101FA07F722FA06F3F1401F43C5E95E
S315202509F0007100263146BDE8F087C2F12003D84094
S31520250A000CFA02FC21FA03F3914001434FEA1C47D5
S31520250A101FFA8CFEB3FBF7F007FB10360B0C43EAC7
S31520250A20064300FB0EF69E4204FA02F408D91CEB77
S31520250A30030300F1FF382FD29E422DD90238634475
S31520250A409B1B89B2B3FBF7F607FB163341EA034115
S31520250A5006FB0EF38B4208D91CEB010106F1FF3864
S31520250A6016D28B4214D9023E6144C91A46EA00465B
S31520250A7038E72E46284605E70646E3E61846F8E6ED
S31520250A804B45A9D2B9EB020864EB0C0E0138A3E736
S31520250A904646EAE7204694E74046D1E7D0467BE717
S31520250AA0023B614432E7304609E76444023842E78F
S31520250AB0704700BF000000000238002138B5C4B2B7
S31520250AC02DED028B204611F0F6FE302105462046D7
S31520250AD011F0F1FE202108EE100A204611F0EBFE3A
S31520250AE007EE900AB8EE488B05F07F03B8EE675BD4
S31520250AF0012006EE103AC5F3426585EE087B00FAFD
S31520250B0005F5B8EEC66BBDEC028B37EE066B9FED71
S31520250B10087B26EE076B07EE905AB8EEE77B86EE26
S31520250B20075BFCEEC57B17EE900A38BDAFF3008038
S31520250B300000000060E376412DE9F04F0F46016E57
S31520250B4016463B4AC1F3C26185B0032E0546515C44
S31520250B50B3FBF1F24FF00003019244D101242EA1DB
S31520250B60D1E90001FFF724FE019A80468946002314
S31520250B702BA1D1E90001FFF71BFE8346B845019A33
S31520250B8079F100033FD22B4B0134FF214FF0FF395A
S31520250B90A4FB034A4FF00008019102930023204627
S31520250BA051460392FFF704FEB842039A71F10003DA
S31520250BB006D3C31B994582BF99468346CDF8048023
S31520250BC008F10108B8F5807F06D0029BE4184AF182
S31520250BD0000AB9F1000FE1D128463246019911F0D4
S31520250BE00EFF584615E010A1D1E90001FFF7E0FDDB
S31520250BF0019A8046894600230F483B210024FFF78A
S31520250C00D7FD8346BAE728463246002111F0F7FE5E
S31520250C10404605B0BDE8F08F0094357700000000EA
S31520250C2000CA64D63B00000000CA9A3B000000009B
S31520250C30AF40262000CA9A3B0000CA9A2DE9F04FDC
S31520250C400D4689B01F46CB09490004460393002348
S31520250C5001F01E010592079341EAD51A002800F0D6
S31520250C60FA8083684FEA8A1803EB8A1393F838604B
S31520250C7016F0010600F0F18090F89630A3B907F515
S31520250C807F5307A83F33B3F5804F2CBF4FEA9339BF
S31520250C904FF0010912F06AF894F894C0CC4507D292
S31520250CA00226079812F067F8304609B0BDE8F08F7E
S31520250CB04FF00009D4F810E004EB8A01CB46DEF884
S31520250CC00020B7F5804F02983B460192724628BFF1
S31520250CD04FF480430497BBF1000F08BF1046DDF87B
S31520250CE004E00CF1FF3CFF1A02904FF001005FFA59
S31520250CF08CFC10604FF00000506005985844906099
S31520250D00906800F5805020F47F6020F00F00D06099
S31520250D10D06800F580501061106900F5805050612B
S31520250D20506900F580509061506863F31E405060ED
S31520250D30D069D2F808A063F31E30CAF30B0AD06116
S31520250D4020F0004020F47F6020F00F0040EA0A00C2
S31520250D50D06103D1506840F40040506050684FF070
S31520250D60800A9B446AF307005060486D00283BD0D3
S31520250D7002604A65002FA2D1019A84F894C0226187
S31520250D8015F00F021CD10399D1B1A16801EB0800FA
S31520250D9090F83800800713D5049888B1C88E9842D4
S31520250DA00ED951F80800C0F30A40B3FBF0FC00FB2E
S31520250DB01C332BB951F8083067F35D7341F8083099
S31520250DC0ED08012305F01005154303FA05F5B9F1BC
S31520250DD0000F21D16368D3F8B0212A4208D007987D
S31520250DE0002611F0C8FF5FE7B1464A614A65C1E78B
S31520250DF0D3F8402142F48042C3F84021D3F8B811D4
S31520250E00D3F840215204F3D5D3F840210D4222F4BC
S31520250E108042C3F84021E2D1A3689844029BC8F8B2
S31520250E2008300023C8F80C30BFF34F8F0C4A63686F
S31520250E30C3F8B051D3F8B8112942D0D1013A03D1FC
S31520250E40079811F098FF2FE7D3F8BC112942C6D170
S31520250E50C3F8B051EEE7032626E7012624E700BF8F
S31520250E60809698002DE9FF4702EB4109002641EAA5
S31520250E70C211054600EB8908DFF8B4A04FEA891987
S31520250E80D8F81440CFB224F01F04CDE9016614B951
S31520250E9004B0BDE8F087019B3BB9A368A28B03EA82
S31520250EA00A03C2F30B021343019363681A0638D447
S31520250EB0E2696168C2F31233029AC1F30E415B1AC5
S31520250EC01344D8F854200293D8F8143093422BD1C2
S31520250ED0C8F814600122C8F85460AB684B449A6060
S31520250EE0DE6063681B0404D4D8F8143033F01F035E
S31520250EF009D101A928688DF80C708DF80D600EF0A2
S31520250F0073FCCDE901662B696660236095F89430DC
S31520250F102C61013385F89430D8F8144024F01F0429
S31520250F20B5E74FF0FF33CCE71B68C8F81430D8E770
S31520250F3000F0FFFF2E4BF7B5861E0093A3F58043C1
S31520250F4017460193F3B2012B4BD82A4A15781DB1A2
S31520250F505378002B47D101250124DFF8A0C02B4645
S31520250F6054559C24244A0CEB452C04FB0524C4F813
S31520250F700CC084F8970002A8DFF884C000EB86060B
S31520250F800CEBC525A56056F8085CD5F840016560AB
S31520250F9040F00200C5F84001D5F8404114F002047E
S31520250FA0FAD19C20D5F82461434306F01F0C16F070
S31520250FB0180F02EB030080F895C016D0D150D5F82E
S31520250FC0A83123F00303C5F8A831D5F8A83143F075
S31520250FD00203C5F8A8310DF0B1FD3860204603B0CF
S31520250FE0F0BD0620FBE70320F9E70120F7E700BF40
S31520250FF0000043407CC427202824272000202720A2
S3152025100000102720E8B1104B984213D10F4B002210
S315202510101A7043680020C3F84801D3F8402122F0EE
S315202510200102C3F84021D3F8402142F00202C3F839
S31520251030402170479C33984202BF044B00225A70A8
S31520251040E7E70320704700BF282427207CC42720D4
S315202510502DE9F04F4FEAD10801F00F034C0085B05A
S3152025106008F01008002604F01E040F4648EA03035C
S315202510704FF0010844EAD114054608FA03F80096EC
S31520251080002800F08780684611F070FE4FF0FF3368
S315202510900FFA84FE019605EB84040293626922F0F9
S315202510A01F0213469BB99B461E46DFF8EC909C46AD
S315202510B0AAB9BBF1000F00D00193AB6803EB8E1EB6
S315202510C00123CEF808300023CEF80C3051E0D97F05
S315202510D041F08001D9771B6823F01F03E2E792F9B7
S315202510E01F00002841DA5068000627D443B99168A5
S315202510F04FF0010B938B01EA0901C3F30B030B4335
S315202511006069616D88422BD1C4F814C0C4F854C0D7
S315202511105068010427D4606930F01F0108BF0126D5
S315202511202869C2F804C010602A6195F894200132F6
S3152025113085F89420626922F01F02B9E76868D0F8FD
S31520251140B4A14AEA080AC0F8B4A1D0F8B4A11AEA8B
S31520251150080FFAD1D0F8B8A11AEA080FEFD1C5E7BA
S3152025116000686061D4E70126DAE7BBF1000F00D0DD
S315202511700193009811F0FFFD46B1002601A92868A4
S315202511808DF80C708DF80D600EF02EFB304605B0CF
S31520251190BDE8F08F0326F9E700F0FFFF4B682DE920
S315202511A0F04101338AB04FF0000406460F4690469B
S315202511B08DF80F40CDE9044400F0D7801AB90520D3
S315202511C00AB0BDE8F081956806210DF10F020EF0D3
S315202511D0E1FB397A002900F08B807B68082BEED13C
S315202511E03A68002AEBD053886B809388AB80D388C6
S315202511F0EB8050786870127812F01C0F2A7004D074
S31520251200214630460EF0A8FBD9E712F060011CD105
S315202512100C280FD90520059B1BB1049B002B08BF45
S31520251220052005AB024629463046009304AB0EF031
S3152025123039FAC5E74E4B53F82040002CEAD005ABAA
S3152025124004AA29464046A047E5E7002B2FD01206BB
S315202512502DD420291CD1002201213046069507921E
S3152025126006AA8DF8241008930EF0BFFD089B05933A
S31520251270079B04930028CDD1EB880021059A30467B
S31520251280934238BF0593DDE904230EF023FB97E728
S315202512904029BFD1002213213046069507920122E7
S315202512A008938DF8242006AA0EF0CEFDDEE7202908
S315202512B00FD10022012130460695079206AA8DF8E0
S315202512C0241008930EF091FD089B0593079B049304
S315202512D0A1E740299ED10022132130460695079263
S315202512E0012208938DF8242006AA0EF0ADFDEBE702
S315202512F09DF80F30032B0AD16B78052B7FF45FAF32
S3152025130005AB04AA294640460EF045F958E77A68E2
S31520251310002A3FF454AFEB88002B3FF450AF95F9C4
S3152025132000002B780028FFF64AAF03F06003202B18
S315202513300BD13B6830468DF824100121089206AA48
S31520251340079306950EF051FD6BE7402B0BD13B6895
S3152025135030468DF824101321089206AA0793069560
S315202513600EF072FD5DE705205BE7204628E700BFE6
S315202513701431262070B5124B86B08026054603AA41
S31520251380ADF80660CDE90331402301A9ADF8043037
S315202513900123ADF808300EF0A1FA044660B98DF880
S315202513A0060003AA01A928460EF098FA044618B184
S315202513B0314628460EF0B1FA204606B070BD00BF4C
S315202513C09D1125202DE9F743064689469046002A74
S315202513D066D00023364F01A8019311F0C7FC3D683E
S315202513E01DB197F8CD30B34207D0D7F8D030019824
S315202513F05BB197F89D31B34254D10126019811F05E
S31520251400BAFC304603B0BDE8F083003D18BF012560
S31520251410D02404FB057484F8CD6011F0ACFC0023A0
S31520251420C4F808902246994684F8CD6084F8CC30B5
S3152025143084F8CF30013382F81490102BC2E9039912
S3152025144002F10C02F6D1B31E012B10D901A8CDF835
S31520251450049011F08BFCD023019806265D437B1939
S3152025146047F8059083F8CD9011F085FCC9E7114BF7
S315202514703046224621466360D023C8F8004003FB28
S3152025148005756B681B689847064628B120460EF0D9
S3152025149001FAC8F80090B4E7022385F8CE30B0E7E4
S315202514A00326AEE7002DB3D0022611F064FCA8E76B
S315202514B060252720483126202DE9F043037F87B054
S315202514C004461BB9012007B0BDE8F083426892681F
S315202514D051799942F6D31268002AF3D003F10053A5
S315202514E00C27013B02EBC30612F8335000239D42FD
S315202514F0E8D907FB03F270688118825C032A49D153
S315202515000D7A00239D423BD80026CB786377002E83
S31520251510D8D000250120DFF880802F46DFF87C9063
S31520251520A6603379AB42CED90623B1688DF80870EB
S315202515306B430135CA1810798DF80900CB5C2068D4
S315202515408DF80630DB0951886FF00103ADF80410BC
S3152025155001A9527818BFE3608DF8072003AA19BF81
S3152025156084F823702761636184F824700ABFA761F4
S31520251570CDF80C90CDF80C8004940EF0AFF9D0E779
S315202515801A01486800EB0316805CA27F9042BCD0E6
S315202515900133B7E70133AAE759FA252039FA252059
S315202515A070B50A4C0E46154623685BB9214600F0D0
S315202515B077F830B923683BB1FF2366602077A37778
S315202515C02C6070BD0220FCE70320FAE700272720A0
S315202515D073B50024054601A80E46019411F0C6FBD5
S315202515E00A4B1A68954209D01A690198954204D062
S315202515F011F0C1FB042002B070BD012403EB0413B6
S315202516000198336011F0B7FB0020F4E7282727201F
S3152025161073B50024054601A80E46019411F0A6FBB4
S315202516200C4B1A6812B19A7BAA420BD01A6912B1B1
S315202516309A7FAA4205D0019811F09DFB042002B07D
S3152025164070BD012403EB04130198336011F093FB3D
S315202516500020F4E72827272037B50024054601A8AA
S31520251660019411F083FB0D4A136813B1937BAB428A
S3152025167009D0136913B1937FAB420DD0019811F090
S315202516807AFB03B030BD23460021180102EB031354
S31520251690115059609973F1E70123F5E7282727206B
S315202516A0002337B5044601A801930D4611F05EFBAC
S315202516B00B4A136813B1917BA1420AD0136913B142
S315202516C0927FA24205D0019811F055FB042003B044
S315202516D030BD01982B6011F04EFB0020F7E700BFA7
S315202516E0282727202DE9F34705460C469046002A2C
S315202516F060D000295ED04B68002B5BD00023314F6C
S3152025170001A8019311F032FB3B6813B1BA7BAA429B
S3152025171005D03A69019852B1BA7FAA424CD1012403
S31520251720019811F028FB204602B0BDE8F087003B42
S3152025173018BF0123244A07EB03164FEA031902EBA8
S31520251740C303B573B36011F016FB746032461F4987
S315202517502846FFF737FE044638B157F809000EF01C
S3152025176099F82846FFF778FFDDE782464FF00C09E2
S3152025177073685FFA8AF11A7A8A4217D909FB01F723
S31520251780196839448B681B79012B03D10A1D2846F4
S31520251790FFF706FF7368196839448B681B7913B9D7
S315202517A00A1D284698470AF1010AE1E73368C8F851
S315202517B00030B8E70424B6E7002BBBD0022411F06D
S315202517C0DAFAB0E7282727204827272049FE25208B
S315202517D0114B124A12499A60124B994209D1124A43
S315202517E00021124B9B1A73B91149124A521A72B902
S315202517F07047114AD21A002AF1D013F8010B013A63
S3152025180001F8010BF7E7013B02F8011BEBE7013A4B
S3152025181001F8013BEBE700BF00ED00E000002520A5
S3152025182000002720FC4026200010272010C727202F
S3152025183000C8272000C82720EC4C2620114B4FF026
S31520251840FF32C3F88020C3F88420C3F88820C3F844
S315202518508C20C3F89020C3F89420C3F89820C3F889
S315202518609C20C3F88021C3F88421C3F88821C3F896
S315202518708C21C3F89021C3F89421C3F89821C3F865
S315202518809C21704700E100E038B5084D04462846DE
S3152025189011F06CFA236801332360286811F06BFA5E
S315202518A02368002BFCD1012038BD00BF58272720CF
S315202518B038B5064D0446284611F058FA2368013BCB
S315202518C023602868BDE8384011F055BA58272720C7
S315202518D0014811F04BBA00BF58272720014B18681D
S315202518E011F049BA58272720013910B507292FD8AD
S315202518F0DFE801F004162E22222E22145368013BFE
S3152025190003330BD8134B18688369002B06DD90F813
S315202519101A34012B02D11830FFF7CAFF002018E010
S3152025192053685A1E0332F9D80A4A1068C36101231F
S31520251930143000F8083CEFE7064C002120681430C7
S315202519400EF0DBFA2068002118300EF0D6FAE5E7EE
S31520251950052010BD5C272720012938B50C460FD137
S31520251960084D4FF47E73286880F81A1400F120025A
S31520251970022180680EF01EFA2B6883F81B4438BD99
S315202519800020FCE75C27272059B9074B0221186838
S315202519904FF47E7380F81C2400F1200280680EF017
S315202519A009BA0020704700BF5C272720014B186005
S315202519B0002070475C272720024B18600023836070
S315202519C0184670475C272720087A20B9034B0B60D9
S315202519D04C234B6070470520704700BFEB0A272014
S315202519E0024B00200B6012234B607047D90A272013
S315202519F0087A20B9034B0B6029234B6070470520B5
S31520251A00704700BFB00A2720887A0E4B10B520B91B
S31520251A101A685B680A604B6010BD9B680C891A8919
S31520251A2094420CD103280AD81A6800B25B6852F86A
S31520251A30202053F8203000200A604B60ECE7052053
S31520251A40EAE700BF440027200229174B17481849E3
S31520251A5030B516D10322F82483F82020DC7783F8A5
S31520251A60212083F8272083F8264083F828204FF441
S31520251A707E73438003814FF400734B800B810020B6
S31520251A8030BD40220025012483F82050DA7783F8BB
S31520251A90214083F8275083F8262083F82840428042
S31520251AA002814A800A81EAE7B00A2720980A272058
S31520251AB0A40A2720F8B5044608B90420F8BDC0781D
S31520251AC000F0F003B02BF8D110F00F06F5D12378CE
S31520251AD02F2B4FEA1315F0D860680AF0BBF800289B
S31520251AE0EBD0AB016068803300EBD300DF080AF02A
S31520251AF0B1F80028E1D0084D20233A46616805F142
S31520251B000C00AB6011F0D1F9637830462F6003F0D5
S31520251B1003036B60D2E700BF64272720F7B50D4660
S31520251B200446A0B199B10B4F5822002107F12C0666
S31520251B30304611F0C8F93846009533467A6850F86C
S31520251B400C1B00F033F900B9266003B0F0BD042044
S31520251B50FBE700BF64272720194BD3F8D82F03F599
S31520251B608033C2F30332F0B50132D3F8BC4F0025BA
S31520251B706B0024FA03F313F0030304D001359542B1
S31520251B80F6D30120F0BD0E4A841C05EB0030012634
S31520251B9052F83470000107F00F0700F180441044F5
S31520251BA0BE40FF2200F5853004F58A04C4F8043AA0
S31520251BB0C66083601846C4F8042A0D60E2E700BF94
S31520251BC000004440120200EB014102F470622DE927
S31520251BD0F04142EA0343069A01F585341343C4F8B6
S31520251BE0E43107F003FB054612480E4607F00CFBA9
S31520251BF007468846D4F8EC31C3F38133012B08D028
S31520251C00D4F8EC3113F4704F14BF01200020BDE821
S31520251C10F08107F0EBFA0A4657EA08010346E9D090
S31520251C205B1B62EB0602BB4272EB0803E2D305205F
S31520251C30EDE700BFA08601002DE9F347DFF87C807C
S31520251C4005460E461746D8F8D84F4FF0000A08EB1A
S31520251C500049C4F3090401340523002229461748DF
S31520251C6000935346FFF7AEFFE8B909F58532D2F83A
S31520251C70EC31C3F38113032B08D1D2F8EC3103F0D1
S31520251C800F03B34215D00AF1010A09E073B90123DE
S31520251C9032462946404600935346FFF793FF10B90F
S31520251CA05445D9D8012002B0BDE8F087012BEAD1C9
S31520251CB0F6E75445F6D9C7F800A0F4E700004440D6
S31520251CC02DE9F843054607F091FA064635480F468D
S31520251CD0354C07F099FA80468946D5F8D43F9A0798
S31520251CE003D5D5F8D43FDB0709D5A36805EB0343F0
S31520251CF003F580335B69C3F30903002B3FD1D4E970
S31520251D0004324FF00008C3E90088E3681A60BFF360
S31520251D104F8FBFF36F8FA368012205EB034303F58E
S31520251D208033DA6107F062FA064640460F4607F009
S31520251D306BFA81468846A36805EB034303F5803372
S31520251D40DB6BC3F309035BB907F050FA59EA08029E
S31520251D50F1D0831B61EB07014B4571EB0803EAD3D1
S31520251D60236962691968914217D00120A36805EB7A
S31520251D700345012305F580356B63BDE8F88307F018
S31520251D8035FA58EA0902A8D0831B61EB070143459A
S31520251D9071EB0903A1D30520E8E75868003818BF59
S31520251DA00120E3E7A0860100E82727202DE9F04F2B
S31520251DB087B0AE4D91461F46109A0023AC4E8846D5
S31520251DC013608246AB60AB4BC5E90063002800F063
S31520251DD09781002F00F0948121F00803102B02D043
S31520251DE0202940F08D81B9F1030F00F2898148F22F
S31520251DF010033361BFF36F8FBFF34F8F9E49A868BA
S31520251E00FFF7AAFE044600287BD10A1DA868296A61
S31520251E10FFF712FF0446002873D19849A868FFF7D3
S31520251E209BFE044600286CD10A1DA868A96AFFF7DF
S31520251E3003FF0446002864D1D6F8DC1F4FF48063BF
S31520251E406A6AC1F3024103FA01F1514301F52011D2
S31520251E5001F5007C01F5807001F11002E960C5F8D5
S31520251E601CC06861D6F8DC6F2A61C6F3024603FAE0
S31520251E7006F6EB6A73432E6803F52013AB61736868
S31520251E80AD6813F4002F05F1010C4FEA0545CDE980
S31520251E900414CDE9022438D022460B4606EB0C4CF9
S31520251EA07419CCE9002304F58034029BC4E9082360
S31520251EB03544012305F58035EB60EB626B6D43F0E8
S31520251EC001036B65D6F8C036DA0731D46C4B01F59C
S31520251ED09271884227D1D6F80036304643F480536E
S31520251EE0C6F80036FFF7ECFE044650B9D6F8C036BC
S31520251EF0DB0703D5D6F8C0365D0019D4D6F8C0360B
S31520251F000124204607B0BDE8F08F06EB0C4CDDE911
S31520251F100434CCE900347319DDE902BC03F580339A
S31520251F20C3E908BCC4E753F8042B40F8042BD0E7B3
S31520251F304E4D6B685A69120A02F00B010B2903D004
S31520251F4002F00F020D2ADBD1A9F10202012A66D958
S31520251F505A6812F4005240F0A480914511D01A688F
S31520251F609105CDD45A6B9205CAD45A6809F003092E
S31520251F7042F400525A60DA6B22F0030242EA090241
S31520251F80DA6342465146A869002410F08EFFA968D7
S31520251F902E688B1C56F83320AB6A03EB013302F0EF
S31520251FA00F01012206EB03138A40214603F58030D3
S31520251FB003F58533C0F8044ADA6008F130029C60BF
S31520251FC04BF208030292C0F8043AE86910F07BFF29
S31520251FD06B692C49029A51F8040B18510434242C88
S31520251FE0F9D118691FFA88F1274C83F80A802040F1
S31520251FF002920843996918612140A869586190B2CF
S31520252000014330469961E969D961FFF759FE029A5C
S315202520100446002849D00023109A136071E7DA6B0D
S31520252020140795D41A68D0073FF56AAF5A6BD1079E
S315202520303FF566AFDA6C120728D4DA6B42F0040234
S31520252040DA63BFF34F8FBFF36F8F5A6842F48052FE
S315202520505A60DA6B1407FCD5DA6B42F01002DA6384
S31520252060DA6B10077FF54CAF72E700BFE8272720EC
S31520252070000044400000C940082827201028272092
S3152025208084312620603126200000FFFF1D4A5A660E
S31520252090DA6C42F00802DA64DA6C16073FF530AFBF
S315202520A0CBE7DA6B02F0030257E7812308F13806DE
S315202520B0F87107F108003B704123BE70FB7066233B
S315202520C087F806803B7155237B71330A7B7003275E
S315202520D0E96910F0EAFE109B1E6023462E680097BC
S315202520E030462A6AA968FFF76DFD00287FF409AFD7
S315202520F000972346AA6A3046A968FFF763FD00E7BD
S315202521000424FEE666617341014B03600020704777
S3152025211015212520436A5A8959688282DA68023A26
S315202521204260064A914206D11B7A012B03D8044BDD
S3152025213003600020704742F27570704753544D5006
S3152025214009FF25207FB5B0F85A200446144E1301E1
S31520252150316803F470638D6843EA1223426AD0E915
S315202521601701A8470546B8B933681B699847054618
S3152025217090B904F11C001022616A019009F060F8DB
S3152025218003A9019809F072F8039B626E9A420ABF49
S31520252190044B42F27A752360284604B070BD00BFF1
S315202521A0700927209DFF2520F7B500F11C0604463A
S315202521B0416A102230461A4F09F042F8B4F85A20BF
S315202521C039681301E06D8D68102103F4706343EAA5
S315202521D01223626AA847054648B9E36D1033E3659D
S315202521E0236E103B102B236604D90E4B23602846DD
S315202521F003B0F0BD0BB10C4BF8E73B681B6998473C
S3152025220005460028F3D101A9304609F02FF8626E3C
S31520252210019B9A4201D1054BE8E742F27A75E6E71A
S3152025222070092720A9212520452125209DFF252008
S31520252230D0E90132934208D99B1A82664360044B22
S315202522400360012383600020704742F2787070472F
S315202522509DFF252010B504461C3010F0C8FA044AE7
S31520252260216E0020034B102998BF1346236010BDED
S3152025227045212520A9212520034B1B68D0E91812A5
S31520252280DB68C06D184700BF70092720B0F85A3083
S315202522901A0113F0010F02F4706242EA132214BFC9
S315202522A008230423042A05D100F16002C16D0248C2
S315202522B006F0D6BD0420704700C0CA40B0F85A3073
S315202522C09A071BD41A0102F4706242EA1322DB070D
S315202522D00ED5B2F5807F09D040F201139A4203D05C
S315202522E0092A0BD100F09ABE03F094BC02F096BBC6
S315202522F0034B1B68D0E917019B69184704207047B3
S315202523007009272013B50446B0F85A00030103F4B3
S31520252310706343EA1020092805D1E06D02B0BDE897
S3152025232010400DF0F8BE030A012B0FD101A900F0AC
S3152025233051FF48B9064B1421019A9B68E06D01FB94
S3152025234002331B691B69984702B010BD0420FBE7A1
S315202523507009272010B5054C70220021204610F043
S31520252360B2FD034B0020236010BD00BF2C2827205B
S315202523700921252009480A4BC268436232B10369DF
S315202523809A4208D00133036103681847836E002BD0
S31520252390FAD0013B83660020704700BF2C282720D2
S315202523A0182827202DE9F041002407460E46104DF2
S315202523B0A046B44201D1002009E02B69C3F11003C0
S315202523C02344A3420CD0A64203D142F27D70BDE818
S315202523D0F0812A69511C2961395D0134A954F0E718
S315202523E0C5F81080FFF7C6FF0028E2D0EFE700BF2B
S315202523F018282720214B1B6870B51B69984750B98B
S315202524001F4C94F85930042B22D1E56D284609F026
S3152025241021FC08B9042070BDB4F85A30194E13F0A2
S31520252420020F09D1002009F0ADFC33685BB9606E37
S31520252430A84742F27E70EEE7206E306009F022FC36
S315202524400028E7D0EEE783F3088883F30988EEE7AB
S31520252450082B0FD1022009F095FCBFF34F8F0A498F
S315202524600A4BCA6802F4E0621343CB60BFF34F8F51
S3152025247000BFFDE742F27B70CDE700BF700927201C
S315202524802C2827209C28272000ED00E00400FA058B
S3152025249038B50B4BDB681D6905F1800420460DF008
S315202524A0DEFD20B9D5F88020064B9A4204D0342269
S315202524B0FF21204610F007FD10F076FC002038BDC0
S315202524C0700927206B63666770B5244EFFF7E0FFFA
S315202524D0234A0025F3681C69224B6572C4E900232B
S315202524E045F201436381204B43F0010398471F4B57
S315202524F00121013072692072E560C4E911131C4B54
S3152025250023671C4B63671C4BA3671C4BE36752F859
S315202525102500D0B91A4BD3F80029E264D3F810390F
S31520252520236573685A6819680132A162521A596956
S3152025253062639A69E1620132521AA2639A6ADB6A58
S31520252540226301339B1AE36370BD94F890300635D8
S3152025255003421EBFE3681843E060D8E770092720A9
S315202525600008024B00020150BC312620DFEF150062
S3152025257000002520EC4C262000002720FFD72720E9
S3152025258000C0CA402DE9F043884689B01B4E7468A1
S315202525901CB9042009B0BDE8F0833368834220D0D6
S315202525A00836F4E7012502AF0294A946736801A9E6
S315202525B028460194984790B9019B7B606B1E09FAA2
S315202525C003F2029B1343029301350437062DEDD1E1
S315202525D0182202A9404610F068FC0020DAE77C6024
S315202525E0F2E71822002102A810F06DFC694600208A
S315202525F0A047009C002CD5D02046CBE7AC392620F9
S31520252600F7B51E46344B15460138DA680F46146948
S31520252610042200921E285AD8DFE800F011105959B5
S3152025262059592A59592C2E35591C24393C4359593F
S315202526305959594749595959595953000C340194CF
S315202526400EB1009B3360002D44D0019B00202B60CA
S3152025265003B0F0BD022901D92834F0E70A3704EB67
S315202526608704ECE7022901D93434E8E70D37F6E764
S315202526704834E4E74434E2E7D86943695B699847F7
S31520252680164B186004E0102370340093D7E7144BBB
S315202526900193D5E70BF0DEFE0038104B18BF01203D
S315202526A0EFE708234C340093C9E70834C7E7B43449
S315202526B038462146FFF766FF0028C9D118230093FF
S315202526C0BDE76A4601A907480BF048FFB8E742F659
S315202526D03C00BDE72846BBE770092720702927201F
S315202526E08800272000C0CA40074BD3F84824511C10
S315202526F01A44C3F8481482F80002D3F8482402F075
S315202527003F02C3F84824704774292720034B01220A
S3152025271083F85224002283F85024704774292720D1
S31520252720054B0A46DB69196910B44C6801461846DB
S3152025273023465DF8044B1847700927202DE9F04FCD
S3152025274089B004460D46164606F050FDCDE904010E
S31520252750BFF36F8F4FF47A70704306F055FD83468D
S315202527608A46DDE90423CDE906236319224D039301
S31520252770039B9C4203D1002009B0BDE8F08F06F0CB
S3152025278035FDCDE90601DDE90601DDE90423DDE98F
S315202527900689DDE90467CDE90023B04579EB0703F2
S315202527A020D3009BC21A019B61EB03035BEA0A0136
S315202527B003D05A4573EB0A031CD2D5F84C34D5F8E9
S315202527C048249342D4D05A1C2B4493F80032C5F87A
S315202527D04C2404F8013BD5F84C3403F03F03C5F8C7
S315202527E04C34C5E7DDE90601DDE90467821B61EB8B
S315202527F00703DBE70520BFE7742927205A2307B5DA
S3152025280001228DF804300221054B8DF8050001A8FB
S3152025281083F85124FFF784FF03B05DF804FB00BF3E
S3152025282074292720084B93F850242AB10022A12069
S3152025283083F85024FFF7E2BF93F8520418B1A3205A
S3152025284083F85224F6E77047742927202DE9F3418A
S31520252850164698460F46002951D0B2F5007F4ED808
S31520252860FFF7E0FF044600283ED1264D95F8513442
S315202528700BB185F851045A2385F84032B8F1000F5B
S3152025288036D1A42385F84132A5F8426226B13246AF
S3152025289039461D4810F009FB1B49881F0DF0E6FB1C
S315202528A0B11DA5F844021948FFF73AFF0446D8B9C1
S315202528B0164E01A80DF0F4FB0446A8B99DF805305F
S315202528C003F15F02D2B2022A19D8A32B12D0A22B4A
S315202528D00AD1B5F8421230460631FFF721FF60B9F5
S315202528E09DF80530A22BE4D0204602B0BDE8F08124
S315202528F0A523C7E742F21274F6E70446F4E7042433
S31520252900F2E700BF74292720BA2B2720B42B2720AE
S315202529100F4B93F8502413B504462AB193F8512426
S3152025292012B193F852347BB94AF25A73022201A97D
S315202529302046ADF8043023695B6898472369082229
S3152025294004495B682046984742F2137002B010BDB1
S3152025295074292720303226202DE9F043154685B0C7
S315202529601F460E46002974D0002A72D000233A4CE1
S31520252970136084F85134FFF755FF8146E8B9002FB7
S31520252980DFF8D88014BFA527A4274FF4007200218D
S31520252990204610F098FA02A80DF082FB814648B908
S315202529A09DF80930A62B0CD1D8F81C00FFF7B0FFCF
S315202529B000283AD0002381462B60484605B0BDE83D
S315202529C0F083BB422FD1ADF804001422022101A8A1
S315202529D0FFF7B4FEBDF804300028EBD1B3F5007F10
S315202529E0ADF804004FF014024FF0020128BF4FF432
S315202529F0007301A8ADF80A30FFF7A0FEBDF8043014
S31520252A00ADF80C300028D5D1BDF80A206AB101468B
S31520252A10204610F058FABDF80A100A2220464A43C5
S31520252A20FFF78CFEC4E70120C4E7214602A80DF056
S31520252A301DFBBDF80C30834203D0A220FFF7DEFE16
S31520252A40A3E7012384F85034BDF80A3034602B607F
S31520252A50B3E74FF00409B0E774292720700927200A
S31520252A60064BD3F81834012B05D0022B14BF002092
S31520252A704FF0C04070474FF0405070478C002720BC
S31520252A802DE9F0410546ADF5816D0C46144FDFF84D
S31520252A9054800CB901201CE0B4F5806F264602AA85
S31520252AA0414628BF4FF48066FFF7DAFF2B1AD7F861
S31520252AB0180400960FF0A1F90023B10802AA99421D
S31520252AC002D1A41B3544E4E752F8040B013004D087
S31520252AD000200DF5816DBDE8F0810133EFE700BFBC
S31520252AE08C002720C82D2720F8B5234D0C462B787A
S31520252AF0002B3ED02149D1F8C4717A1EC7F1000C8E
S31520252B00131900EA0C061C1804EA0C04FFF7A8FF83
S31520252B10321AD5F81804A41B23460FF02BF905469F
S31520252B2028BB17494B69DB0312D5002F10DD06F08C
S31520252B301F033B44BFF34F8F32463344C1F85C22F3
S31520252B402032981A0028F9DCBFF34F8FBFF36F8FF9
S31520252B500C4BDB681B695B6C012B08D12146304663
S31520252B60FFF78EFF44F68A63002808BF1D462846B0
S31520252B70F8BD42F2DD75FAE78C002720C82D2720DF
S31520252B8000ED00E07009272037B5094D04462B783E
S31520252B9053B1FFF765FF0091231A0649D5F8180486
S31520252BA00FF02BF903B030BD42F2DD70FAE700BFF6
S31520252BB08C002720C82D27202DE9F043154FADF26F
S31520252BC00C4D05460C46A7F11008DFF84C9024B984
S31520252BD001200DF20C4DBDE8F083B4F5806F264615
S31520252BE002AA494628BF4FF48066FFF739FF2B1ADC
S31520252BF00096D8F818040FF000F93246394602A86F
S31520252C0010F043F918B9A41B35443744DFE70020D3
S31520252C10DFE700BF9C002720C82D272070B52B4C29
S31520252C2063780BB9002070BD0023294D6370D5F834
S31520252C30C021A368934206D004F11000D21AFF21A1
S31520252C40184410F040F9D5F8C0116068FFF718FF31
S31520252C5018B9607042F2DB70E5E76268FFF700FF7E
S31520252C60D4F818641B4B121A194930460EF05EFE0D
S31520252C7000236370A3600028D5D117494B69DB0350
S31520252C8014D5D5F8C001002810DD636803F01F028E
S31520252C900244BFF34F8F1A44C1F85C322033D01A31
S31520252CA00028F9DCBFF34F8FBFF36F8F0B4BDB6803
S31520252CB01B695B6C012BB5D1D5F8C0116068FFF770
S31520252CC07BFF0028AED144F68A60ACE78C0027200E
S31520252CD0C82D27209C00272000ED00E070092720FD
S31520252CE02DE9F047214C06460D461746237833B164
S31520252CF0DFF87C9004F110082DB9284601E042F230
S31520252D00DD70BDE8F087637813BBD9F8C031013B68
S31520252D10334027D10122C4E901636270A068394670
S31520252D20D9F8C021431993422CBFA2EB000AAA4603
S31520252D3040445246564410F0B8F8A368D9F8C02125
S31520252D4057445344A5EB0A059342A360D4D104E006
S31520252D50D4E9012313449E42E0D0FFF75FFF0028E4
S31520252D60CAD0CEE744F68960CBE700BF8C00272062
S31520252D70C82D2720124B1B7873B504460D46019284
S31520252D80DBB121F003060644B44206D115F0030132
S31520252D900CD1FFF743FF02B070BD01AA04212046BE
S31520252DA0FFF79EFF0028F6D10434EDE701AA204639
S31520252DB0FFF796FF0028ECD0EDE742F2DD70EAE733
S31520252DC08C00272043884CF69072014623F00F036A
S31520252DD09BB293422DE9F041ADF5007D10D10368D4
S31520252DE0C3F313035A1E012A3AD8664A0020D2F87D
S31520252DF018148B4202D0C2F818341070002421E012
S31520252E00C37803F0F003C02B21D15E4B02465E49E1
S31520252E10D3F8180406F0CAFC044698B9594D002360
S31520252E205949D5F818042B700EF06CFD044648B97F
S31520252E30D5F818040FF0C5FA0BF096F9044608B90B
S31520252E4001232B7020460DF5007DBDE8F081036812
S31520252E504E4A934206D1DFF82C8198F8003053B993
S31520252E600424EFE74A4A9342FAD14FF400724648A2
S31520252E7010F01BF8D2E7444D28460FF02AFA0746CC
S31520252E80002854D04FF40072294668466E4610F025
S31520252E900CF82B6C2946D8F8180423F004032B6448
S31520252EA0D5F8C0315B08C5F8C031D5F8C4315B08E3
S31520252EB0C5F8C431D5F8D0315B08C5F8D0310EF028
S31520252EC021FD002848D1FFF7CBFD4FF4007100F5F1
S31520252ED08060FFF7D5FD002851D095F8CA317BB102
S31520252EE06B46294900221E4648780232023303F8CA
S31520252EF0020CB2F5007F11F8020B03F8010CF3D171
S31520252F00FFF7AEFD32464FF4007100F58060FFF7DE
S31520252F10E7FE044668B14FF400734FF480621A49E0
S31520252F20D8F818040EF026FF002F8BD012E02E4657
S31520252F30C9E7FFF773FE044640B1FFF791FDD5F8A3
S31520252F40C41100F58060FFF7CFFDEDE7002F3FF494
S31520252F5055AF2746AE4205D04FF4007231460A4872
S31520252F600FF0A3FF0849D8F818040EF0CBFC044629
S31520252F7000287FF467AF002F3FF440AF62E742F287
S31520252F80DB74D1E78C002720C82D27200F0000F0E1
S31520252F904643464208B5002931D010282FD8DFE8E8
S31520252FA000F00913162125292E2E2E2E2E2E2E2ED5
S31520252FB02E2E3000174B1A7842F2DD73002A08BFD1
S31520252FC018460860002008BDFFF74AFDF9E7124A92
S31520252FD0D2E914300344906DD26D034413449B0AE1
S31520252FE00B60EFE70C4BD3F8C031F9E70A4BD3F842
S31520252FF0C431F5E7084BD3F8D031002BF0D1042086
S31520253000E1E7054AD2E914300344906DD26D034495
S315202530101344E5E78C002720C82D272073B5134EAA
S31520253020337803B3FFF71CFD01A905461020FFF7CA
S31520253030B1FF0446A0B90E49D6F818040EF0D8FCDF
S315202530400C4B0446DB681B695B6C012B08D1019967
S315202530502846FFF715FD44F68A63002808BF1C4637
S31520253060204602B070BD42F2DD74F9E78C00272098
S31520253070C82D272070092720014B1878704700BFB7
S315202530808C00272010B5034C206810B180470023DB
S31520253090236010BDCC2F272010B5034C206810B1F6
S315202530A080470023236010BDC82F272038B5094D1A
S315202530B06C68206918B9AC6823692BB938BD0368B3
S315202530C003B198471434F4E71B6803B198471434A1
S315202530D0F2E700BF7009272010B512B10F4B5B68A8
S315202530E0136041B13AB113682BB11C6834B95C68B9
S315202530F034B91C6924B942F2D8700BE084420AD827
S315202531005C68844207D30138014442F2D8708C4248
S3152025311028BF002010BD1433E2E700BF7009272001
S3152025312070B513B1134CA4681C6011B10BB11C6882
S3152025313014B942F2D87019E0256845B9666836B9BA
S31520253140A66826B9E66816B92669002EF1D09542D5
S315202531500DD1D4E9025241184FF00003A5FB0252A6
S3152025316043EB03068D42B241E3D3184670BD143492
S31520253170DAE700BF70092720D3B5174606461A4633
S315202531800C4611B312F4706FC3F3032305D0012B1C
S3152025319010D042F2D87002B0D0BD01AAFFF79CFF0D
S315202531A00028F8D1019B1B695B683A4621463046A3
S315202531B09847F0E701ABFFF7B3FF0028EBD1019B3A
S315202531C0034A1B6999691160EEE70846E3E700BFC4
S315202531D0C82F272030B539B1084B00229B681BB153
S315202531E01C680CB11D690DB9042003E0844202D167
S315202531F000200A6030BD01321433F0E770092720FC
S3152025320001390B181049CA6870B512694C68D2E97C
S315202532101C1526688E4205D0A84205D88B4203D395
S3152025322001200EE0A942F7D16469D2E91E12A142F6
S3152025323001D1914206D0904204D899428CBF0020D4
S31520253240012070BD0020FCE770092720F7B5174619
S3152025325005461A460C4600293CD012F4706FC3F356
S31520253260032304D0012B1ED042F2D87019E0FFF794
S31520253270C7FF06460028F7D101AA21462846FFF78B
S315202532802BFF70B9019B3A46214628461B699B6828
S315202532909847114B20B9019A126912691A6000E0E4
S315202532A01E6003B0F0BD01ABFFF73AFF0028F8D129
S315202532B0019B2846094A1B6999699B6811603A46EC
S315202532C021469847044B18B9019A12695269E5E7B0
S315202532D00022E3E70846E4E7CC2F2720C82F27201E
S315202532E00246084612F4706FC2F3032310B405D0A4
S315202532F0012B0DD004205DF8044B70470E4B5B68DF
S3152025330019690029F6D0DC6894420FD01433F7E7E3
S31520253310094B9B68143353F8041C0029EAD053F82B
S31520253320144C14339442F6D10B6902E08B69002B99
S31520253330E0D05DF8044B184770092720034B002061
S3152025334083F8100383F80903704700BFD02F272061
S315202533502DE9F04105460C461646DFF83C800D4FF3
S3152025336014B90120BDE8F08101232A464146384675
S3152025337004F028FE034650B9074A52F8041BB142E9
S3152025338005D10433B3F5007FF7D1013CE8E70020CA
S31520253390E8E700BFD02F2720F43227202DE9F74F45
S315202533A0254E80460D46914696F80833002B3FD06C
S315202533B0C0F30804470A4FF0000BDFF880A01DB99B
S315202533C0284603B0BDE8F08F96F8093333B1D6F8F1
S315202533D00C339F4202D35A1C974226D301233A46C1
S315202533E05146304686F809B304F0ECFD0028E8D18D
S315202533F00123C6F80C7386F809332B190AEB040129
S315202534004846B3F5007F8CBFC4F500722A46019243
S315202534100FF04BFD019A1444AD1A9144B4F5007F63
S3152025342024BFA4F500740137C9E7A8EB4324E4E7B4
S3152025343042F2DD70C5E700BFD02F2720F4322720A2
S3152025344010B5254C20460DF014FE00283DD1D4F884
S315202534501433B3F5007F0CD094F8B012C3F500725F
S315202534601E4801294FF0FF31184418BF00210FF0BF
S315202534702AFD94F8B02200230121D4F81803012A25
S315202534804FF0FF3284F8103318BF0022FFF760FF74
S31520253490F0B10123D4F8182310490F4804F014FE5F
S315202534A090B90123D4F818230D490B4804F08AFD39
S315202534B050B94FF400720A4908480FF0E6FC42F24B
S315202534C0DF73002818BF184610BD42F2E070FBE7CF
S315202534D042F2DB70F8E700BFD02F2720F4342720CF
S315202534E0F43227202DE9F74FDFF8B4B007460D46ED
S315202534F090469BF80833002B4ED0C0F30804460A85
S31520253500DFF8A0904FF0010A0DB9284611E09BF867
S3152025351010331BB984B142F2DE700AE0DBF818338A
S315202535209E4202D35A1C96422BD3FFF789FF0028A9
S31520253530F0D003B0BDE8F08FCBE9C5468BF810A3B4
S315202535402B19414609EB0400B3F5007F8CBFC4F542
S3152025355000722A4601920FF0A8FC019ADBF8143353
S315202535601444AD1A13449044B4F5007FCBF8143394
S31520253570CAD3FFF765FF0028DBD1A4F500740136F1
S31520253580C2E7A7EB4324DBF81433A342D8D0FFF7B1
S3152025359057FF0028CDD1B7E742F2DD70C9E700BF36
S315202535A0D02F2720F4342720034B93F8100308B176
S315202535B0FFF746BF704700BFD02F272070B5134E83
S315202535C005460C4696F80833BBB130460DF051FD1D
S315202535D0B0B9C4B16A1ED6F8E002D6F8FC12224448
S315202535E0B5FBF0F5B2FBF0F23046B2FBF1F2B5FBB6
S315202535F0F1F1BDE8704004F0EDBD42F2DD7070BDFD
S3152025360042F2E070FBE72046F9E700BFD02F2720BE
S31520253610104B93F80023072A19D8DFE802F004096E
S3152025362009180C0F1215D3F8E432036000207047D1
S31520253630D3F8E832F9E7D3F8EC32F6E7D3F8F032C7
S31520253640F3E7D3F8F432F0E7D3F8F832EDE70420A0
S31520253650704700BFD02F272013B5044601A8FFF7B2
S31520253660D7FF48B9054A019BD2F8E022A3FB0232AF
S315202536709B0A43EA8253236002B010BDD02F272010
S31520253680F0B587B0064608F0E5FA08B904241CE00B
S31520253690F01D08F0DFFA0028F8D0F37803F0F002C1
S315202536A0B02A6DD1944D95F80823002AEED0C3F380
S315202536B0030703F00F03012BE8D883B93046FEF71D
S315202536C0F9F9044620B185F81C73204607B0F0BDCC
S315202536D0B368C5F82033012385F81C33F5E795F81B
S315202536E01C33002BD2D0337813F00F03CED101A86B
S315202536F00193FFF7B1FF04460028E6D1019B03A9D4
S3152025370002A8D5F8E072B3F5800FD5F8206384BFDB
S315202537104FF0FF330193FEF701FA04460028D4D152
S31520253720039B019AF118914221D87A1E324221D142
S3152025373095F8B022B3FBF7F1012A07FB11334FF099
S31520253740FF3218BF0022002B18BF0131B6FBF7F038
S31520253750FFF7FEFD88B13046DDE90221FFF7C2FEDF
S3152025376004460028B1D1FFF71FFF0446ADE742F2F4
S31520253770D874AAE742F2DE74A7E742F2DB74A4E7FF
S31520253780C02A83D15C4D4FF44972002128460FF07B
S315202537909AFB337903F00F03012B0BD9022B7FF4E8
S315202537A075AF564B0C202B6009F0C4F9544BD3F832
S315202537B0803D07E0534B0C202B6009F0BBF9504B7D
S315202537C0D3F8003DDBB229680133B0FBF3F04E4B2D
S315202537D068601A68914204BF002283F8D42040F2FB
S315202537E0FF13A5F804330223A5F802337378C3F310
S315202537F0031385F82C307378C3F3030385F82D300E
S31520253800B379B279C3F3C00385F83830B379C3F3D6
S31520253810C01385F83930F37903F00303022B65D0DD
S31520253820032B66D0012B14BF44F6206342F2107376
S3152025383012F0100F40F6C411C2F380022B6341F219
S31520253840883318BF0B462C486B6385F83A200DF034
S3152025385000FC044600287FF438AFF178264801F08D
S3152025386007010DF00EFC044600287FF42EAF01A893
S31520253870FFF7CEFE044600287FF427AF02A940F2A3
S315202538802110FFF7A7FC044600287FF41EAF029AD5
S3152025389014211E4B01FB0233D5F8E022DA60019A6A
S315202538A09A603378DA071DD5B278CDF81100C2F3A0
S315202538B00101C2F3021210488DF80F10C3F301112E
S315202538C08DF80D20C3F38002C3F3C0038DF80E10A7
S315202538D003A98DF80C208DF810300DF00FFC00284B
S315202538E07FF443AF012385F80833EEE641F288338A
S315202538F09EE740F6C4139BE7D02F272000C04140E2
S315202539000010CC4000804140F436272094092720FA
S3152025391013B50E4C94F8083393B120460DF0A9FB28
S3152025392088B901A8FFF774FE40B9D4F8FC320146C0
S31520253930019A2046B2FBF3F204F04CFC02B010BDEE
S3152025394042F2DD70FAE742F2E070F7E7D02F272022
S3152025395013B540F2FF13144CA4F804330223204652
S31520253960A4F802330FF03EFAD0B920460DF071FBAC
S31520253970C0B9694640F22110FFF72CFC80B901A871
S31520253980FFF746FE60B9009A1421084B01FB023346
S31520253990D4F8E022DA60019A9A60012384F8083364
S315202539A002B010BD0023F9E7D02F27209409272020
S315202539B0E1B105281AD8DFE800F0030E11191914EC
S315202539C00B4B93F8082342F2DD73002A08BF1846CD
S315202539D00860002070470020086070470846FFF7DA
S315202539E03BBE034BD3F8E0320B60F2E70420704749
S315202539F0D02F2720034B002083F8DC0083F8D50021
S31520253A00704700BFF43627202DE9F04105460C46A0
S31520253A101646DFF83C800D4F14B90120BDE8F0810C
S31520253A2001232A464146384604F080FE034650B9EE
S31520253A30074A52F8041BB14205D10433B3F5007F5A
S31520253A40F7D1013CE8E70020E8E700BFF436272038
S31520253A50E43727202DE9F74F254E80460D469146FA
S31520253A6096F8D430002B3FD0C0F30804470A4FF0F0
S31520253A70000BDFF880A01DB9284603B0BDE8F08FDE
S31520253A8096F8D53033B1D6F8D8309F4202D35A1C72
S31520253A90974226D301233A465146304686F8D5B055
S31520253AA004F044FE0028E8D10123C6F8D87086F80C
S31520253AB0D5302B190AEB04014846B3F5007F8CBF78
S31520253AC0C4F500722A4601920FF0EFF9019A1444A3
S31520253AD0AD1A9144B4F5007F24BFA4F500740137AF
S31520253AE0C9E7A8EB4324E4E742F2DD70C5E700BF2A
S31520253AF0F4362720E437272010B5214C20460DF013
S31520253B00C4FCB8BBD4F8E030B3F5007F09D0B4F8AF
S31520253B10BE10C3F500721B4841F3000118440FF06F
S31520253B20D2F9B4F8BE2000230121D4F8E40042F3CB
S31520253B30000284F8DC30FFF767FFF0B10123D4F8C3
S31520253B40E42010490E4804F065FE90B90123D4F8E7
S31520253B50E4200D490A4804F0E9FD50B94FF40072D6
S31520253B60094908480FF091F942F2DF73002818BF5A
S31520253B70184610BD42F2E070FBE742F2DB70F8E70B
S31520253B80F4362720E4392720E43727202DE9F74F57
S31520253B90304D07460E46904695F8D430002B55D005
S31520253BA0C0F308044FEA502BDFF8AC904FF0010AFA
S31520253BB00EB9304611E095F8DC301BB984B142F2B6
S31520253BC0DE700AE0D5F8E4309B4502D15A1C934293
S31520253BD02CD3FFF791FF0028F0D003B0BDE8F08F56
S31520253BE0C5E9384B85F8DCA03319414609EB040095
S31520253BF0B3F5007F8CBFC4F50072324601920FF0D3
S31520253C0054F9019AD5F8E0301444B61A1344904451
S31520253C10B4F5007FC5F8E03016D3FFF76DFF0028F1
S31520253C20DBD1A4F500740BF101030BE0A7EB4324AC
S31520253C30D5F8E0200193A242D6D0FFF75DFF0028D4
S31520253C40CBD1019B9B46B3E75B46FBE742F2DD7072
S31520253C50C3E700BFF4362720E4392720034B93F802
S31520253C60DC0008B1FFF748BF704700BFF436272090
S31520253C7013B5104C20460FF0B7F8B8B920460DF0ED
S31520253C8020FCA8B901A94FF49070FFF7A3FA68B9CB
S31520253C90019A1421084B01FB0233D4F8CC20DA6093
S31520253CA0D4F8C8209A60012384F8D43002B010BDF8
S31520253CB00023F9E7F43627209409272070B50F4EDF
S31520253CC005460C4696F8D43083B130460DF0DDFBFB
S31520253CD078B98CB1690A013D30462C44C1F10102DF
S31520253CE002EB5422BDE8704004F00CBE42F2DD7092
S31520253CF070BD42F2E070FBE72046F9E7F43627202F
S31520253D0010B50D4C94F8D43083B120460DF0BDFB6B
S31520253D10014670B92046D4E93223BDE81040A2FBDE
S31520253D200323520A42EAC35204F0ECBD42F2DD7067
S31520253D3010BD42F2E070FBE7F4362720F7B505469D
S31520253D4007F088FF08B904201BE0E81C07F082FF4E
S31520253D500028F8D0EB7803F0F002B02A5FD1754E13
S31520253D6096F8D420002AEED0C3F3030403F00F03DC
S31520253D70012BE8D873B92846FDF79CFE18B186F89D
S31520253D80E84003B0F0BDAB68C6F8EC30012386F8D1
S31520253D90E830F6E796F8E830002BD4D02B781B07A9
S31520253DA0D1D101A96846D6F8EC70D6E93245A5FBCE
S31520253DB00443A40A44EA8354B4F5800F88BF4FF000
S31520253DC0FF34FDF7ABFE0028DBD1019BFA18A24272
S31520253DD01CD86A1E3A421CD1B6F8BE20B3FBF5F193
S31520253DE005FB113342F30002B7FBF5F0002B18BF74
S31520253DF00131FFF709FE78B13846DDE90021FFF7C5
S31520253E00C5FE0028BDD1FFF729FFBAE742F2D870B3
S31520253E10B7E742F2DE70B4E742F2DB70B1E7D02A8B
S31520253E2091D1444CF022002120460FF04CF82B78D6
S31520253E3003F00F03012B0AD9022B84D13E4B0C20EC
S31520253E40236008F077FE3D4BD3F8803D07E03C4BB9
S31520253E500C20236008F06EFE384BD3F8003DDBB2EC
S31520253E6021680133B0FBF3F0364B60601A68914226
S31520253E7004BF002283F808236B78C3F3021384F842
S31520253E802C306B78C3F3000384F82D30AB78EA7891
S31520253E90C3F3C00302F0030284F83830AB78022A34
S31520253EA0C3F3C01384F83930AB783AD0032A3BD0F4
S31520253EB0012A14BF44F6206242F2107213F0100F25
S31520253EC040F6C411226341F2883218BF0A4613F000
S31520253ED0600F1848626318BFC3F341136A780CBF75
S31520253EE001235B00C2F3420223645201E2630DF0F3
S31520253EF0E8FAE0B901A94FF49070FFF76BF900288D
S31520253F007FF43FAF019A14210F4B01FB0233D4F8DE
S31520253F10CC20DA60D4F8C8209A60012384F8D430DE
S31520253F202FE741F28832C9E740F6C412C6E70023B7
S31520253F30F4E700BFF436272000C041400010CC40CE
S31520253F4000804140D02F27209409272011B305280A
S31520253F5020D8DFE800F0030E111F1F1B0E4B93F808
S31520253F60D42042F2DD73002A08BF184608600020B7
S31520253F707047002008607047074AD2E93232A3FBF2
S31520253F8002329B0A43EA82530B60F0E7024BD3F8B1
S31520253F90CC30F9E704207047F43627200A4B002237
S31520253FA0D3F8A831B0FBF3F0084B1969203310B5A7
S31520253FB0914201D1002010BD53F8044B844201D0F3
S31520253FC00132F5E70120F6E724802720047C2720E7
S31520253FD000280D4A0D4B08BF134610B50C4640F256
S31520253FE01C4108BF4FF47F7162689A420AD1A368A3
S31520253FF0012B07D1201D0CF028F923681B1A5842BE
S31520254000584110BD0020FCE74243464E54424244C7
S3152025401013B54FF4807001A9FFF7DCF878B9019B19
S315202540201421084A01FB03220749D1F8A031D36080
S31520254030D1E96B43D1F8A81163434B43936002B072
S3152025404010BD00BF9409272024802720064A1369FE
S31520254050FF2B07D8591C0833116142F8230001226A
S31520254060024B5A70704700BF047C2720E43B27204B
S3152025407010B5094C4FF48062FF2120460EF023FF10
S31520254080064A01234FF47F71201DC4E901230CF034
S31520254090DCF8206010BD00BF248027204243464EF1
S315202540A0064A014692F8E0312BB9054883704360CC
S315202540B0044BC2F8E431044802F0AABF2480272005
S315202540C0E45B2720E63B2720248127202DE9F0477E
S315202540D0154F0D461446D7F8A01102EB050897F87B
S315202540E0E031B0FBF1F62BB9104A93705360104B93
S315202540F0C7F8E431DFF83C90444502D30020BDE8DB
S31520254100F087D7F8A031224631464846AB4228BF0C
S315202541102B469A4602F0DAFF0028F0D15444A5EB27
S315202541200A050136E8E700BF24802720E45B2720FF
S31520254130E63B2720248127202DE9F74F44480023D5
S31520254140444D00F58046D5F8A011F26834698A4297
S31520254150D5F8A8713372D5E96B9807D002F50053A7
S315202541608A1AFF21083318440EF0ADFE0122214676
S3152025417039480CF02FFCD5F8A011384A04FB01F05C
S31520254180FFF7A4FF18B9002003B0BDE8F08F09FB7F
S3152025419008F3DFF8CCA0DFF8C0900093B4FBF7F046
S315202541A0FFF754FF7369471C01337361009B9F42B8
S315202541B002D342F2D870E7E7D5F8A88107FB08F1A4
S315202541C008460191FFF7EAFE019928BB4846B4FB2C
S315202541D0F8FB08FB1B4B0BF10102A4EB0B080CF09B
S315202541E0F9FBF0B9ABEB040B01998B440BEB0803D8
S315202541F044450193D5F8A03116D8184A194603FB0C
S3152025420004F0FFF763FF0028BDD042F2DB73984206
S3152025421007D03846FFF71AFF7369013701337361D3
S31520254220C4E742F2DB70AFE752464146484602F0E4
S31520254230ABFD0028E9D1D5F8A0115246019848436F
S31520254240FFF744FF0028E0D108F10108CEE700BF9B
S31520254250E43B27202480272024812720EC5B272048
S31520254260E63B27202DE9F74F0F469146002A75D0A4
S31520254270404A1378002B73D0DFF8FCA0DAF8A0810A
S31520254280DAF84030B0FBF8F59D426CD302F580462E
S31520254290DAF8A82108FB1504736902FB03550FB923
S315202542A038464DE0336996F808B0AB4222D1BBF1AA
S315202542B0000F1FD0F368A3424BD13B1904F50050BC
S315202542C04946434500F108002A4B8CBFA8EB040B31
S315202542D0BB4618445A465C440EF0E7FDF368A045D4
S315202542E0A7EB0B075B44D9449CBFA4EB08040135F7
S315202542F0F360D4E7DAF8A811B5FBF1F0BBF1000F8E
S3152025430003D0B3FBF1F3984216D00191DAE96B324B
S31520254310534383422AD92846FFF740FE019920B1E7
S3152025432073690D4401337361B9E7BBF1000F03D1DE
S315202543304CB145F2D12003E0FFF7FEFE0028F7D049
S3152025434003B0BDE8F08F4FF00103C6E9034533726C
S31520254350B3E7FFF7F1FE0028F2D1A0E70420EFE727
S3152025436042F2DD70ECE745F2E320E9E742F2D87028
S31520254370E6E700BFE43B272024802720024B187A36
S3152025438008B1FFF7D9BE7047E47B27202DE9F74FE3
S315202543900E460092002A65D0DFF8E09099F8003085
S315202543A0002B61D0DFF8D88009F5804B09F5005A16
S315202543B0D8F8A071DBF81430D8F8A821B0FBF7F58A
S315202543C007FB150402FB03551EB9304603B0BDE88D
S315202543D0F08FDAF804309AF80200AB4200D158BBA8
S315202543E0D8F8A821B5FBF2F118B1B3FBF2F399421F
S315202543F011D00192D8E96B3043438B4237D92846D1
S31520254400FFF7CCFD019A30B1DBF814301544013382
S31520254410CBF81430D8E70023164A294616488AF8B9
S315202544200230D8F8A03102F0AFFC0028CED10123E6
S31520254430CAF804508AF802303319A11C0098BB42C9
S3152025444049448CBF3A1B324601920EF02EFD019A25
S31520254450009B1444B61A1344A74200939CBFE41B21
S315202544600135B1E70420B1E742F2DD70AEE742F22D
S31520254470D870ABE7E63B272024812720E43B27205D
S31520254480248027202DE9F74F064601920D464FF425
S3152025449000520021154898460EF015FD002E4FF0A6
S315202544A0000BDFF84CA00CBF4FF480694FF48469CC
S315202544B00E4F019B9B4501D1012412E0DAF8A0017C
S315202544C03A4649466843FFF761FF044618B14544F5
S315202544D00BF1010BEDE739463046FFF779FD00282C
S315202544E0F5D0204603B0BDE8F08F00BFE63B272058
S315202544F02480272073B509F0A1FF20283ED1204D01
S31520254500FFF7B6FD05F580700AF0B0FA044690BB94
S3152025451005F5807002F0DCF9044660BB01A96846E2
S315202545200AF0C0F921462046DDE90023FFF7AAFF38
S31520254530044600BB134E4FF48062284631460EF0C2
S31520254540B4FC05F5807002F0C3F9044698B9E968EC
S315202545500120DDE90023FFF795FF044658B94FF4DE
S315202545608462314608480EF0A0FC012306F8023C59
S31520254570FFF74EFD0446204602B070BD0124FAE71A
S3152025458024802720E63B2720047C27202DE9F04F71
S315202545903D4C85B08046B4F81290B4F810A0B9F1F8
S315202545A0010F85BFD4F8A8310AFB09F70123B7FBEC
S315202545B0F3F3019368B3354E40F21C41E56845F285
S315202545C0E22BD4F8A821301DB5FBF2F70BF03DFEE2
S315202545D04FF4846330600293002126E0D4F8A001AD
S315202545E03A464FF480617043FFF7D0FE00283BD131
S315202545F04FF48062594638460EF047FCA0BB01355C
S3152025460056444D45EAD34FF0000B584605B0BDE834
S31520254610F08F064605461E4FDFF86CB0F1E7C81920
S315202546200391FFF73DFD03990131019B9942F6D16F
S3152025463000274F45E9D2D4F8A0013246029968438E
S31520254640FFF744FD50B1D4F8A801B5FBF0F0FFF7EC
S3152025465027FD5846013755448346EAE7B8F1010F29
S3152025466004BF0C4B5870F5E74FF47F710A480BF0C1
S31520254670ECFD00274FF48063034E3D4645F2E12BA2
S3152025468020600293A8E700BF24802720047C2720CA
S31520254690E63B2720E43B2720288027202DE9F843C1
S315202546A0254E3378002B3CD000293FD0DFF88C804F
S315202546B0441ED8F8A0510C44D8F8A821B0FBF5F70C
S315202546C0B4FBF5F4B7FBF2F7B4FBF2F4C7F101031B
S315202546D01C44D8F84030B3FBF2F39F4228D301255A
S315202546E0D8E96B2302FB03F944B97378DBB10120A2
S315202546F0BDE8F843FFF74ABF013C10E04F45F4D209
S31520254700D8F8A8017843FFF749FC40B93846FFF782
S31520254710C7FC05460028EFD03846FFF797FC01371A
S31520254720E2E742F2DD752846BDE8F8830D46FAE72D
S3152025473045F2E325F7E700BFE43B27202480272001
S3152025474008B5074B587810B10120FFF71FFF054BF9
S315202547500022A3F500511A725A618A7008BD00BF3E
S31520254760E43B2720E47B27202DE9F7430446804692
S3152025477007F070FA08B90420ECE004F2FF3007F0C0
S3152025478069FA0028F7D021460020FFF721FC70B1D1
S315202547909C4B002221469C481A704FF480620EF0CD
S315202547A084FB9A4802F094F8002877D0D2E0E37863
S315202547B003F0F002D02A40F0B7802379A67918078E
S315202547C014BF03F00F0701276378310714BF06F0BE
S315202547D00F0601269A07627814BF03F003030123E7
S315202547E063F301026379012B627038BF012363715C
S315202547F023785B0700F0FA80082E00F2FA80814B99
S315202548000022814D1A70FFF733FC05F580700AF0DA
S315202548102DF9002840F09E800623A5F85C0185F811
S31520254820090105F5807085F80C312378C3F3020339
S3152025483085F852312378C3F3C00385F820312378B0
S31520254840C3F30213013385F853316378C3F3010388
S31520254850DB0085F821316378C3F3021385F83031DF
S31520254860A378C3F3000385F85531A378C3F3400312
S3152025487085F8563102F02CF800286BD16379294624
S31520254880D5F8A8C107FB03F25200864234D10CFB8A
S3152025489003F36F822B827B436E61EB605A4901209D
S315202548A00B8A4A8AC968FFF7EDFD002800F0978014
S315202548B0574C4FF48462FF21012520460EF003FB39
S315202548C0544B40F21C41201DC4E9013500232361A8
S315202548D00BF0BBFC20602846FFF758FE002839D16F
S315202548E00020FFF753FEA8BB464B01221A7003B0C2
S315202548F0BDE8F043FFF78CBB20B1B8F80620B8F801
S3152025490004402244B8F80A40083108F104089442A4
S3152025491072D3B8F804E004FB0CF401300CFB0EFE30
S315202549208C63C1F83CE0B0E7B02A68D1354D2A78AA
S31520254930002A3FF420AFC3F3030603F00F03012B10
S315202549403FF619AF05F5804563B92046FDF7B2F840
S3152025495018B12E7603B0BDE8F083A368EB61012359
S315202549602B769BE72B7E002B3FF405AF237803F090
S315202549700F03072B3FF6FFAE234E083301A96846C2
S3152025498056F8338006EBC303D6F8A071D3F80490E6
S31520254990EC69FDF7C3F80028DCD1019B2344B3FB42
S315202549A0F7F39945FFF4E7AE07FB08447B1E234220
S315202549B07FF4E1AE012206F58070B4FBF7F10CF009
S315202549C009F848B92046DDE90021FFF74BFC0028E8
S315202549D0C0D1FFF7D3FCE7E642F2DB70BAE74FF406
S315202549E084620D490A480EF060FA79E745F2E420FB
S315202549F0B0E745F2E520ADE745F2E620AAE745F200
S31520254A00E020A7E7E43B2720248027202481272090
S31520254A10047C272054424244E63B27202DE9F041B9
S31520254A20154FDFF85880D7E96B365E4398F8003066
S31520254A30F3B942F2DD742046BDE8F081D7F8A80106
S31520254A406843FFF7ABFA38B92846FFF729FB044612
S31520254A5010B12846FFF7FAFA0135B542EED198F876
S31520254A600130002BE7D00120BDE8F041FFF78EBDB0
S31520254A7000250124F1E700BF24802720E43B2720B9
S31520254A80002939D0102837D8DFE800F00913162356
S31520254A903627363636363636363636362E00174BC2
S31520254AA01A7842F2DD73002A08BF184608600020CE
S31520254AB07047002008607047114AD2E96B034343AB
S31520254AC0D2F8A801D2F8A021434353439B0A0B6071
S31520254AD0EDE70B4BD3F8A031F9E7094AD2F8A831EF
S31520254AE0D2F8A0215343F2E7054AD2E96B03434383
S31520254AF0D2F8A8014343F3E704207047E43B272057
S31520254B00248027200020014B98607047A804272061
S31520254B102DE9F047234B8CB0234E804693F8187405
S31520254B208A4693F81994144605AD0FCE0FC596E8F7
S31520254B30070085E807001022002101A80EF0C3F9F9
S31520254B404FF48013049344B901223846494609F087
S31520254B50CBFB00200CB0BDE8F087032C01D1002229
S31520254B60F3E7012C18D1CDF808800CABCDF80CA095
S31520254B7003EB870401A954F81C0C08F0A1F9B0F51C
S31520254B80C87FF7D00028E5D038460022494609F0C7
S31520254B90ABFB42F6CD10DDE7022C08BFCDF804800D
S31520254BA0E3E700BFA8042720D82E26200B4611464A
S31520254BB0044A127812B11A4601F0DCBB42F2DD70A6
S31520254BC0704700BFA804272030B5134CADF20C4DF5
S31520254BD00023A268EAB1656804F10C0101922846F2
S31520254BE0C4E9013301F0E2FB80B9019A02A92846DE
S31520254BF001F0C0FB50B9019A02A904F10C000EF070
S31520254C0044F942F2DF73002818BF18460DF20C4DE1
S31520254C1030BD1046FAE700BFA80427202DE9F84322
S31520254C201D4D06460C4690462B7893B3D5F8287409
S31520254C30B7F5806F28BF4FF480670CB9204626E04C
S31520254C40D5E9012050EA02031AD16E60021997424E
S31520254C5038BFA7EB000900F10C0028BFA146284440
S31520254C60404503D04A4641460EF01FF9AB68C84455
S31520254C704E44A4EB09044B449F42AB60DDD102E0B0
S31520254C800244B242E2D0FFF79FFF0028D5D0BDE8E7
S31520254C90F88342F2DD70FAE7A80427200B4B1B7810
S31520254CA070B505460E4673B101F0BEFB044640B9E4
S31520254CB0314628460BF0DCFA42F2DF73002808BF7E
S31520254CC01C46204670BD42F2DD74FAE7A80427204B
S31520254CD02DE9F04391B0054606F0BCFF08B904201E
S31520254CE020E105F12B0006F0B5FF0028F7D0EB785B
S31520254CF003F0F002C02A40F00081B14C2C2200217D
S31520254D0004F582600EF0DFF8AE4BAF4AC4F81034B6
S31520254D104FF48033AD49C4F81434AD4BC4F8303440
S31520254D2040F20563A4F834342B7803F00F0352F8A8
S31520254D302330A84AC4F828342B781B0952F8233067
S31520254D406A78C4F82C3402F00F0251F822106A78BA
S31520254D50C4F82414C2F303101209012A18D0022AF2
S31520254D602FD000226020B1F1807F84F8202484F87A
S31520254D70380433D81822B3F5803F84F821244FF000
S31520254D80420284F836241FD3D82384F8373407E003
S31520254D90B1F5803F84F820040CD8102384F82134DB
S31520254DA0AB781B09013B042B4CD8DFE803F02E43B7
S31520254DB045474900B1F1807F01D81823EEE7202306
S31520254DC0ECE784F82004EBE7B3F5805F01D12023B7
S31520254DD0DBE7B3F5004FE3D15223D6E72021B3F500
S31520254DE0803F84F8362484F821144FF0120184F864
S31520254DF031144FF0130184F8321401D3DC23C4E790
S31520254E00B3F5805FCCD12123BFE7012384F818345D
S31520254E10AB78C3F3030203F00F03022B03D0032B36
S31520254E2001D0012B10D184F81924EB781A070FD13C
S31520254E30694B17E00223E9E70323E7E70423E5E7A0
S31520254E400523E3E70023E1E7002384F81934ECE77B
S31520254E502B7903F00F03022B4BD0032B4BD0012BA1
S31520254E60E6D15E4BC4F81C34554E4FF000085C4DF8
S31520254E7001AC96F8187406F58360D6F81C9486F846
S31520254E80008009F053FA38460DF07CFF38465549FF
S31520254E9009F040FA0FCD0FC495E8070084E80700EE
S31520254EA0202241460DEB02000EF00DF8082308A915
S31520254EB04C4A09934C4BCDF82090ADF828808DF897
S31520254EC02A80B3FBF9F3CDE90B330D9302230E93F9
S31520254ED010AB03EB870757F83C0C07F07BFFD6F87A
S31520254EE00C1406F5846001F009FAD8B9012333702C
S31520254EF018E03E4BB6E73E4BB4E7B02A50D1304CAE
S31520254F002278002A3FF4EBAEC3F3030603F00F0302
S31520254F10012B3FF6E4AE7BB92846FCF7CBFD20B125
S31520254F2084F83C6411B0BDE8F083AB68C4F84034FE
S31520254F30012384F83C34F5E794F83C34002B3FF4E0
S31520254F40CEAE2B781B077FF4CAAE08A901A8D4F8C4
S31520254F502464D4F82854D4F84044FCF7DFFD0028EF
S31520254F60E0D1089B23449E4217D36B1E234211D1A1
S31520254F70294620460BF07CF948B1019A2046089906
S31520254F80FFF74CFE0028CDD1FFF71EFECAE742F2D9
S31520254F90DB70C7E742F2DE70C4E742F2D870C1E77C
S31520254FA02A68084B9A427FF49AAE2C220021114872
S31520254FB00DF089FF2C2229460E480DF076FF53E762
S31520254FC0A80427206B7365632C092720EC08272046
S31520254FD00102030444092720002D310180969800DB
S31520254FE0D82E2620005A620200CA9A3B404B4C00F6
S31520254FF080841E00B808272038B50A4D2B7873B132
S3152025500001F058FA044640B9D5F824140BF030F9A6
S3152025501042F2DF73002808BF1C46204638BD42F2DF
S31520255020DD74FAE7A804272059B3102829D8DFE804
S3152025503000F009131B162028282828282828282860
S3152025504028282400104B1A7842F2DD73002A08BF3F
S3152025505018460860002070470020086070470A4BD4
S31520255060D3F828340B60F5E7074BD3F824349B0A6D
S31520255070F8E7054BD3F82C34F4E7034BD3F824343F
S31520255080F0E70420704700BFA8042720084B0022FC
S315202550901969203310B5914201D1002010BD53F84E
S315202550A0044B844201D00132F5E70120F6E700BF03
S315202550B058A427202DE9F347DFF8648006460C46B9
S315202550C0174608F58079DFF854A01CB9204602B08A
S315202550D0BDE8F087D8F8C0523B4632464946A54218
S315202550E04FF0010028BF254600950DF03CF80028F5
S315202550F0EDD10A4B32464946012000950CF031FF69
S315202551000028E4D12A46514638460DF0BEFE18B968
S315202551102F44641B0136D8E70120D8E73884272079
S3152025512078A827200246024901200CF0BABF00BFE5
S3152025513078A927202DE9F84F204C0026B4F812808F
S31520255140B4F81090D4F8C87209FB08F5E368B5FBC6
S31520255150F7F5B3FBF7F7B0B20136854214D8184ECA
S3152025516040F21C414FF0000B44F62967301DDFF82D
S3152025517054A00BF0A2F8E56830601FFA8BF398450A
S3152025518006D83846BDE8F88F3844FFF7CBFFE2E747
S3152025519032464FF484612846FFF78CFF48B1D4F870
S315202551A0C802B5FBF0F0FFF7BDFF4D440BF1010B0F
S315202551B0E3E707468AF80100F7E700BF78A8272006
S315202551C058A427202884272010B5074C607808B1B5
S315202551D0FFF7B0FF054A0023A2F5805113765362C7
S315202551E00B74237310BD00BF2884272028A42720CD
S315202551F0064A1369FF2B07D8591C0833116142F833
S3152025520023000122024B5A70704700BF58A427203D
S31520255210288427202DE9F041224F04460D463B7848
S31520255220BBB3D9B37A68204B012AD3F8C8020FD04D
S31520255230D3F8C012B4FBF1F2013C2544B5FBF1F5B8
S31520255240B2FBF0F2B5FBF0F1C2F1010514460D448F
S315202552501A6CB2FBF0F2A24222D8D3F8DC820426BD
S315202552600DB1A04505D87B78ABB1BDE8F041FFF758
S3152025527061BF2046FFF70AFF38B92046FFF752FFC0
S31520255280064620B12046FFF7B3FF0134E8E7013D66
S31520255290FBE742F2DD763046BDE8F0810E46FAE799
S315202552A00426F8E72884272078A827202DE9F74300
S315202552B0DFF83C8005460C46164608F580791CB94C
S315202552C0204603B0BDE8F083D8F8C07233462A4677
S315202552D04946A7424FF0010028BF274600970CF0E4
S315202552E040FE0028EDD13E44E41B0135E7E700BF0B
S315202552F078A82720F8B50E4B044645180D4FD3F828
S31520255300C06220463A4631460134FFF7CFFF034691
S3152025531060B90849B34203D3AC42F2D10120F8BD86
S3152025532051F8042B013201D10433F3E70020F6E7A7
S3152025533078A82720388427202DE9F74F3D4ADFF8FE
S31520255340FC8002F50056D8F8C032F169356A9942B3
S315202553504FF000034FF00101284618BF137333760B
S31520255360FFF7C8FF20B942F2DB7003B0BDE8F08F06
S31520255370314A2846F169FFF79DFE08B90020F4E752
S31520255380D8F8C802DFF8B8A0DFF8ACB0B5FBF0F046
S31520255390FFF72EFF736A471C01337362D8F8DC3278
S315202553A00093009B9F4202D342F2D870DDE7384610
S315202553B0FFF76CFE28BBD8F8C832B5FBF3F403FB00
S315202553C014547B43611CA5EB040918460193FFF76A
S315202553D091FF0028C7D0641B019B1C444D4504EB37
S315202553E00903D8F8C01211D85A461846FFF762FE87
S315202553F00028C3D042F2DB739842B4D03846FFF753
S31520255400F7FE736A013701337362CAE75246484667
S315202554100193FFF74BFF0028ECD1019B5246D8F884
S31520255420C0121846FFF746FE0028E3D109F10109E7
S31520255430D4E700BF288427204094272078A8272032
S31520255440388427202DE9F04F85B006468A460192D5
S31520255450002A00F0CB80664F3B78002B00F0C380D6
S315202554607A68DFF898B1012ADBF8C09255D1387BC6
S3152025547098B9DBF8DC12B14240F2B880DBF8C84295
S3152025548007F500513A7374435A4A0876BE60064694
S3152025549009FB04A11160042515E0B968DBF8C802CB
S315202554A009FB01F2DFF84C814243521AD8F8001045
S315202554B0324491421BD10425B2FBF9F409FB14266B
S315202554C05244C8F80020DBF84020A2420BD8DFF84A
S315202554D03081DBF8C812D8F8242001FB0244BAF122
S315202554E0000F1FD15DB9284605B0BDE8F08F07F519
