S0170000666C6173686C6F616465725F636D372E7372656322
S3152025000010D52720E12926207B042520B50C26205E
S315202500107B0425207B0425207B0425200000000049
S315202500200000000000000000000000007B042520C1
S315202500307B042520000000007B0425207B04252029
S31520250040092A2620112A2620192A2620212A262051
S31520250050292A2620312A2620392A2620412A2620C1
S31520250060492A2620512A2620592A2620612A262031
S31520250070692A2620712A2620792A2620812A2620A1
S31520250080892A2620333E2620333E2620333E262007
S31520250090B5232620912A2620992A2620A12A2620DC
S315202500A0A92A2620B12A2620B92A2620C12A262071
S315202500B0C92A2620D12A2620D92A2620E12A2620E1
S315202500C0E92A2620F12A2620F92A2620012B262050
S315202500D0092B2620112B2620192B2620212B2620BD
S315202500E0292B2620312B2620392B2620412B26202D
S315202500F0492B2620512B2620592B2620612B26209D
S31520250100692B2620712B2620333E2620333E26207A
S31520250110333E2620333E2620333E2620333E2620B8
S31520250120333E2620333E2620333E2620333E2620A8
S31520250130333E2620333E2620333E2620333E262098
S31520250140333E2620333E2620333E2620333E262088
S31520250150333E2620333E2620333E2620333E262078
S31520250160333E2620333E2620333E2620333E262068
S31520250170792B2620812B2620892B2620912B26205C
S31520250180992B2620A12B2620A92B2620333E262037
S31520250190333E2620333E2620333E2620333E262038
S315202501A0333E2620333E2620333E2620333E262028
S315202501B0333E2620333E2620333E2620333E262018
S315202501C0333E2620B12B2620333E2620333E26209D
S315202501D0333E2620333E2620333E2620333E2620F8
S315202501E0333E262089172520333E2620333E2620BA
S315202501F0333E2620333E2620B92B2620C12B2620EA
S31520250200333E2620333E2620333E2620333E2620C7
S31520250210333E2620333E2620333E2620333E2620B7
S31520250220333E2620333E2620333E2620333E2620A7
S31520250230333E2620333E2620333E2620333E262097
S31520250240333E2620333E2620C92B2620D12B262079
S31520250250333E2620D92B2620E12B2620333E262049
S315202502605B3D2620E92B2620F12B2620F92B26203F
S31520250270012C2620092C2620112C2620333E26200B
S31520250280333E2620333E2620333E2620333E262047
S31520250290333E2620333E2620333E2620333E262037
S315202502A0333E2620333E2620333E2620333E262027
S315202502B0333E2620333E2620333E2620333E262017
S315202502C0333E2620333E2620333E2620333E262007
S315202502D0333E2620333E2620333E2620333E2620F7
S315202502E0333E2620333E2620333E2620333E2620E7
S315202502F0333E2620333E2620333E2620333E2620D7
S31520250300333E2620333E2620333E2620333E2620C6
S31520250310333E2620333E2620333E2620333E2620B6
S31520250320333E2620333E2620333E2620333E2620A6
S31520250330333E2620333E2620333E2620333E262096
S31520250340333E2620333E2620333E2620333E262086
S31520250350333E2620333E2620333E2620333E262076
S31520250360333E2620333E2620192C2620212C2620B6
S31520250370333E2620333E2620333E2620333E262056
S31520250380333E2620333E2620292C2620312C262076
S31520250390392C2620412C2620333E2620333E262046
S315202503A0492C2620512C2620333E2620333E262016
S315202503B0333E2620333E2620333E2620333E262016
S315202503C0333E2620333E2620333E2620333E262006
S315202503D0333E2620333E2620333E2620333E2620F6
S315202503E0333E2620333E2620333E2620333E2620E6
S315202503F0333E2620333E2620333E2620FFFFFFFF91
S31520250400002A01D101207047F0B41F460346032454
S315202504102340002B09D00424E31A01700130082437
S31520250420E141521E26D05B1EF7D1042A1ADB13D0B2
S31520250430002F11D00C460D460E46102A02DB72C01F
S31520250440103AFAE70C2A02DB32C00C3AFAE7082AD8
S3152025045002DB12C0083AFAE7042A03DB01600430DE
S31520250460121FF9E7002A05D0017001300824E14141
S31520250470521EF7D1F0BC00207047FEE741212520EA
S31520250480000000008921252000000000CF222520FC
S31520250490D52425201D222520CB232520B9252520F9
S315202504A0000000000000000000000000C3212520D8
S315202504B00000000099212520CB232520D92525207C
S315202504C0000000003726252000000000F7202520E3
S315202504D000000000F3212520000000000000000078
S315202504E0000000005B262520000000007D26252013
S315202504F000000000A9262520D524252009222520EF
S315202505000000000000000000000000003922252000
S31520250510912325200000000000000000B927252072
S31520250520A723252000000000B71DC1046E3B8209A4
S31520250530D926430DDC7604136B6BC517B24D861A67
S315202505400550471EB8ED08260FF0C922D6D68A2F84
S3152025055061CB4B2B649B0C35D386CD310AA08E3CA3
S31520250560BDBD4F3870DB114CC7C6D0481EE093451C
S31520250570A9FD5241ACAD155F1BB0D45BC2969756EB
S31520250580758B5652C836196A7F2BD86EA60D9B6356
S3152025059011105A6714401D79A35DDC7D7A7B9F70E7
S315202505A0CD665E74E0B6239857ABE29C8E8DA191DD
S315202505B0399060953CC0278B8BDDE68F52FBA58233
S315202505C0E5E66486585B2BBEEF46EABA3660A9B7C0
S315202505D0817D68B3842D2FAD3330EEA9EA16ADA4DF
S315202505E05D0B6CA0906D32D42770F3D0FE56B0DD0E
S315202505F0494B71D94C1B36C7FB06F7C32220B4CEEF
S31520250600953D75CA28803AF29F9DFBF646BBB8FBD9
S31520250610F1A679FFF4F63EE143EBFFE59ACDBCE85A
S315202506202DD07DEC77708634C06D4730194B043D2F
S31520250630AE56C539AB0682271C1B4323C53D002E46
S315202506407220C12ACF9D8E1278804F16A1A60C1B0B
S3152025065016BBCD1F13EB8A01A4F64B057DD00808C2
S31520250660CACDC90C07AB9778B0B6567C699015715B
S31520250670DE8DD475DBDD936B6CC0526FB5E61162CA
S3152025068002FBD066BF469F5E085B5E5AD17D1D570D
S315202506906660DC5363309B4DD42D5A490D0B194486
S315202506A0BA16D84097C6A5AC20DB64A8F9FD27A5A0
S315202506B04EE0E6A14BB0A1BFFCAD60BB258B23B692
S315202506C09296E2B22F2BAD8A98366C8E41102F83C7
S315202506D0F60DEE87F35DA9994440689D9D662B907E
S315202506E02A7BEA94E71DB4E0500075E4892636E98D
S315202506F03E3BF7ED3B6BB0F38C7671F7555032FACE
S31520250700E24DF3FE5FF0BCC6E8ED7DC231CB3ECF90
S3152025071086D6FFCB8386B8D5349B79D1EDBD3ADCF9
S315202507205AA0FBD8EEE00C6959FDCD6D80DB8E6095
S3152025073037C64F643296087A858BC97E5CAD8A7317
S31520250740EBB04B77560D044FE110C54B3836864610
S315202507508F2B47428A7B005C3D66C158E4408255F3
S31520250760535D43519E3B1D252926DC21F0009F2CD8
S31520250770471D5E28424D1936F550D8322C769B3F9B
S315202507809B6B5A3B26D6150391CBD40748ED970A62
S31520250790FFF0560EFAA011104DBDD014949B931937
S315202507A02386521D0E562FF1B94BEEF5606DADF809
S315202507B0D7706CFCD2202BE2653DEAE6BC1BA9EB63
S315202507C00B0668EFB6BB27D701A6E6D3D880A5DECC
S315202507D06F9D64DA6ACD23C4DDD0E2C004F6A1CDAF
S315202507E0B3EB60C97E8D3EBDC990FFB910B6BCB4AA
S315202507F0A7AB7DB0A2FB3AAE15E6FBAACCC0B8A71F
S315202508007BDD79A3C660369B717DF79FA85BB49265
S315202508101F4675961A163288AD0BF38C742DB0812A
S31520250820C330718599908A5D2E8D4B59F7AB085427
S3152025083040B6C95045E68E4EF2FB4F4A2BDD0C4776
S315202508409CC0CD43217D827B9660437F4F46007297
S31520250850F85BC176FD0B86684A16476C9330046192
S31520250860242DC565E94B9B115E565A158770191897
S31520250870306DD81C353D9F0282205E065B061D0BFA
S31520250880EC1BDC0F51A69337E6BB52333F9D113E19
S315202508908880D03A8DD097243ACD5620E3EB152D56
S315202508A054F6D4297926A9C5CE3B68C1171D2BCC4C
S315202508B0A000EAC8A550ADD6124D6CD2CB6B2FDF42
S315202508C07C76EEDBC1CBA1E376D660E7AFF023EAD3
S315202508D018EDE2EE1DBDA5F0AAA064F4738627F9CE
S315202508E0C49BE6FD09FDB889BEE0798D67C63A80A9
S315202508F0D0DBFB84D58BBC9A62967D9EBBB03E937E
S315202509000CADFF97B110B0AF060D71ABDF2B32A61C
S315202509106836F3A26D66B4BCDA7B75B8035D36B549
S31520250920B440F7B109000000B52E252001010000AD
S31520250930CB372520000100005B4225201001000031
S31520250940C14B252020010000CF572520210100005D
S31520250950E151252000000000000000006F01000065
S3152025096065090000700137016D0138016E012E02DF
S3152025097071012F0172013001730131017401320198
S315202509806C0133016B0134016A0135016901360198
S3152025099067080000660900006D0138010000000087
S315202509A0680800006C0133016B0134016A013501A9
S315202509B0690136010000000000000000000000004B
S315202509C0000000000C0000000C0000000C000000B8
S315202509D008000000510300000000000052033700E4
S315202509E04F03380050032E0153032F0054033000A4
S315202509F055033100560332004E0333004D03340090
S31520250A004C0335004B033600000000000000000093
S31520250A10000000000000000000000000000000008B
S31520250A20000000000000000000000000000000007B
S31520250A300000000000000000000000000300000068
S31520250A400300000003000000070000003504000015
S31520250A500000000034043D00330400003604000065
S31520250A603704390038043A0039043B003A043C005F
S31520250A703B0400003C0400003D0400003E04000029
S31520250A8032040000000000003304000000000000AE
S31520250A9031040000300400002F0400002E0400003D
S31520250AA02D0400002C0400002B0400002A0400003D
S31520250AB0290400000C0000000C0000000C0000009A
S31520250AC008000000630600000000000064063D01C2
S31520250AD000000000000000006506390166063A017F
S31520250AE067063B0168063C01000000000000000067
S31520250AF000000000000000000000000000000000AB
S31520250B00000000000000000000000000000000009A
S31520250B10000000000000000000000000000000008A
S31520250B200000000000000000000000000C0000006E
S31520250B300C0000000C000000080000000000071033
S31520250B400608050807060604070405040404060204
S31520250B500000020D02080206020502040203020312
S31520250B6002030202000007080604050407030602FD
S31520250B7007020502040206010000020602040203FA
S31520250B800203020202020202020202015A04180884
S31520250B900830FF2400000000000000005A0518092F
S31520250BA00831FF2500000000000000005A06180A1B
S31520250BB00832FF260000000000000000000000008B
S31520250BC00000000000000000000000009F04032410
S31520250BD00000000000000000000000009F076007BD
S31520250BE0200B042700000000000000009F87608757
S31520250BF0208B04A700000000000000005A041808D6
S31520250C000830FF2400000000000000005A06180ABC
S31520250C10FF26000000000000000000005A07180BE0
S31520250C20FF27000000000000000000005A06188A51
S31520250C30FFA6000000000000000000005A07208BB8
S31520250C40FFA7000000000000000000005B292520EA
S31520250C507F2B2520A32B2520252C2520BD2C252083
S31520250C60A32D25205F292520000000007F2E252065
S31520250C707F2B2520832E2520912E2520BD2C252012
S31520250C80A92E25205F292520000000000205030026
S31520250C9007160F1C02050300140F09180205030069
S31520250CA00F18090D02050300140F09180205030064
S31520250CB018090B11020503001018090D020503005A
S31520250CC010180B0902050300140F0A180205030044
S31520250CD00910180A020503001018090D020503003C
S31520250CE01018090D020503000F181A0D0205030019
S31520250CF01018090D020503001018090D0205030019
S31520250D00101813140205030010181A1C02050300D7
S31520250D1010181A1C020503001018131402050300C7
S31520250D2010181314020503001018131402050300C6
S31520250D3011090C0F0205030011090C0F02050300EA
S31520250D401018090D020503001018090D02050300C8
S31520250D50140F0D18020503001018090D02050300AE
S31520250D601018090D020503001018090D02050300A8
S31520250D701018090D020503001018090D0205030098
S31520250D801018090D020503001018090D0205030088
S31520250D901018090D020503001018090D0205030078
S31520250DA01018090D02050300140F0D18020503005E
S31520250DB0140F0D18020503001018090D020503004E
S31520250DC01018090D020503001018090D0205030048
S31520250DD01018090D02050300140F0D18020503002E
S31520250DE0140F0D18020503001318090D020503001B
S31520250DF01318090D020503001318090D0205030012
S31520250E001318090D02050300140F131802050300F4
S31520250E10140F1318020503001018090D02050300E7
S31520250E201018090D02050300171A180B02050300D1
S31520250E30171A180B02050300171A180B02050300AB
S31520250E40171A180B02050300171A180B020503009B
S31520250E50171A180B02050300171A180B020503008B
S31520250E600C0A1807020503000C0A180702050300B9
S31520250E7018101A0D0205030018101A0D0205030075
S31520250E80140F1A18020503001A0F130D0205030065
S31520250E901A13180D020503001A13180D020503004F
S31520250EA01A13180D02050300140F1A18020503003C
S31520250EB0090B0F1C02050300090C111C0205030052
S31520250EC0090C111C02050300090A111C0205030041
S31520250ED0090A111C020503000C0F0A1C0205030032
S31520250EE00C0F0A1C020503000C0F0A1C0205030021
S31520250EF00C0F121C020503000C091218020503000B
S31520250F000D01121A0000000000C0124000001340F7
S31520250F10004013400080134000C0134000001440B9
S31520250F2000C0C5400000C6400040C6400080C640DF
S31520250F3000C0C6400000C7400000CA4000800042CD
S31520250F4000C000420000000000C007400000084005
S31520250F50004008400080084000C0084000000940A5
S31520250F60004009400080094000C0094000000A4091
S31520250F700040C2400080C240000000000A00000058
S31520250F800C0000000D0000000F00000014000000DA
S31520250F901A0000001E000000230000002800000083
S31520250FA02D00000034000000370000003C00000022
S31520250FB0460000005000000000010001000040010D
S31520250FC0C0000000800180000000C0014000000014
S31520250FD0000200000000C0004001000080008001C2
S31520250FE000004000C00100000000000200000001B2
S31520250FF0C0004000400180004000800140004000A4
S31520251000C00100004000C0000001400080004001D2
S3152025101040004000800140000000C0014000C00083
S31520251020C00080000001800080004801400080002B
S3152025103080010000800080000001800040004001E2
S315202510408000000080018000C0008000C0000001D3
S315202510504000C00040010000C0008000C000C00044
S3152025106040000001C00000004001C0008000800033
S315202510700001C000400000010001000000014000E1
S31520251080C000000100000001000180004000400151
S31520251090C000000040014000800040010000C00043
S315202510A040014000400080018000000080010000B2
S315202510B08000800140000000C00100004000C001E2
S315202510C00000000000020000090080B0080CC014B2
S315202510D06655100000000000100000F000000000FA
S315202510E0400000F80000000008000D87090080B0A8
S315202510F00800A012040302010807060504045082ED
S31520251100010000A204008810010000000010508272
S31520251110D9222620572326207123262000000000A9
S3152025112000000000A323262065602520AD5D25200F
S31520251130075E2520F15E25202D5F25203D5F252074
S31520251140895E2520F54C2520EF4F25208950252001
S3152025115059512520534D25203B5125204D512520BC
S31520251160A551252000555603590C0F5A5A0F0C59AF
S3152025117003565500653033663C696A3F3F6A693CAC
S3152025118066333065663330653F6A693C3C696A3F1C
S3152025119065303366035655005A0F0C59590C0F5A8C
S315202511A000555603693C3F6A30656633336665309C
S315202511B06A3F3C690C595A0F55000356560300556C
S315202511C00F5A590C0F5A590C5603005555000356DC
S315202511D00C595A0F6A3F3C6933666530306566334C
S315202511E0693C3F6A6A3F3C693366653030656633BC
S315202511F0693C3F6A0F5A590C56030055550003562C
S315202512000C595A0F0C595A0F55000356560300559B
S315202512100F5A590C693C3F6A30656633336665300B
S315202512206A3F3C69035655005A0F0C59590C0F5ADB
S3152025123000555603663330653F6A693C3C696A3FEB
S3152025124065303366653033663C696A3F3F6A693C5B
S315202512506633306500555603590C0F5A5A0F0C59CB
S3152025126003565500FD3D2620053E2620113E2620E7
S31520251270213E26200000000000000000000000007E
S315202512800000000001000000010000007317252042
S31520251290101125202011252040142520100000007E
S315202512A00000000000000000D014252000000000CA
S315202512B0E0142520000000000000000000000000AA
S315202512C0000000000000000000000000E123262089
S315202512D011242620CF2426209F252620943E2720EC
S315202512E00E480F49006B884202D10020C043704723
S315202512F00C480D49C069884207D10C48008CC00589
S3152025130001D5032070470220704709480949006BFB
S31520251310884201D1012070470020704700612100B5
S315202513200020287340B72200024A10680049C84089
S31520251330C08F210005E0137879532520EF552520E8
S315202513408956252059572520B75325203B57252013
S315202513504D57252095572520000000000000000028
S3152025136000000000000000040804080001210621D1
S31520251370212100000204020400011003211021006E
S31520251380000204020200011003211021000001039E
S315202513900102000110032110210000010201010094
S315202513A00110032110210000010201010001100373
S315202513B02110210000000000000000000000000090
S315202513C04D4943524F4E2020202020205350414E18
S315202513D053494F4E2020202053414D53554E4720CB
S315202513E02020202057494E424F4E44202020202081
S315202513F048594E495820202020202020544F5348F4
S3152025140049424120202020204D4143524F4E4958C4
S315202514102020202000000000000000000000000001
S31520251420D13B2520313F2520234025202F4125200E
S31520251430553C252025422520374225200000000021
S31520251440952626209B262620852726201D282620CC
S315202514509926262029282620752626201D4725201B
S3152025146027472520414725200F482520B9482520CF
S31520251470BD4725200000000000000000B12F2520B3
S31520251480DD3325200D352520E336252089302520D9
S31520251490A5362520B736252000000000191D262033
S315202514A0A11D262000000000A11D262000000000E9
S315202514B0391E2620811E2620000000002F1F2620CB
S315202514C0791F2620D31F2620112026204520262099
S315202514D0D5392620E13A26208D3B2620F33B26208A
S315202514E0013C2620253C2620A93C2620413D262098
S315202514F0513D2620553D26200000000038B50446BE
S315202515005A4D0020A865C5E90E00C5E91000C5E994
S315202515101200E865564800F0EFF8C5E91401204683
S315202515200FF2B901BDE8344000F03CB900F050B9BE
S31520251530F8B50C464D4EB16D072904BFF26D904284
S3152025154049D1002106EB8102491C536815685B1B8E
S315202515500329D361F6D3756AF76972693169B36947
S31520251560511AB1629A1A64235D43F262B5FBF7F7E5
S315202515703C3F0E2F10D2376AB5FBF7F5403D052D9A
S315202515800AD85943B1FBF2F2813A0A2A3EBFB1FB6A
S31520251590F7F181390A2902D3FFF7B0FF1BE000F0C6
S315202515A013FA0546C5EB0515D6E90E23D6E910010E
S315202515B082184FF49666B5FBF2F00A250A2368436E
S315202515C04FF49662B0FBF6F6761D0020B6FBF3F3B4
S315202515D053432360F2BD0120F2BD00002DE9F843D7
S315202515E0224E074600F07EF8B26D0446D6E91259FA
S315202515F08846521C651BD6E9140168EB090949451D
S3152025160002D82CBFA8420122012AB26506D0042A77
S315202516100AD0052A10D0072A11D01AE0C6E90C4887
S31520251620C6E90E48F76514E0D6E90E01201A68EBBF
S315202516300101C6E90E010CE0C6E9104809E0D6E904
S315202516401001201A68EB0101C6E91001384600F081
S31520251650BFF8B26D06EB8203D6E90C01271A43F8AB
S31520251660047CC6E91248BDE8F18300000024272022
S315202516708038010010B531480168CA0705D40123F1
S315202516800360BFF34F8FBFF36F8F00202C4908606F
S315202516902C484FF0FF310022016101238261C3616D
S315202516A0846944F004048461826942F001028261DE
S315202516B00160C360836000F087F9C0002249B0FB32
S315202516C0F1F000B90120214A906010BD1D48002166
S315202516D081618160016101601948026842F0020238
S315202516E00260704781B01A480168426800920098C6
S315202516F001B0C943C043704714498A68A2FB00013B
S31520251700C00840EA4170C908704738B50446FFF736
S31520251710E9FF00F00BF8241841EBD505FFF7E2FF8A
S31520251720A942FBD301D8A042F8D331BD074A9368F5
S31520251730A3FB0445E40844EA45747047C067CC40BA
S3152025174000800D4000810D4040420F006024272057
S31520251750E0800D400901020002D4284881547047B3
S31520251760274B02F00F021A4402F8041C704700F09A
S31520251770BFB919B1022905D002D3704700F05ABA4C
S3152025178000F004BA00F026BA10B51E4C2068C00118
S3152025179007D51D49496821B1012088474FF0807119
S315202517A0216010BD10B5184B184C596004221821FC
S315202517B02046FFF7DCFF63690121692043F080730A
S315202517C06361FFF7C7FF4FF400701149086010BD0C
S315202517D080B54FF400700F490860BFF34F8FBFF3D4
S315202517E06F8F00216920FFF7B5FF002218210748B2
S315202517F0FFF7BDFF00200449486001BD00E400E055
S3152025180018ED00E0184013408C3E27200040134059
S315202518100CE100E08CE100E06D496E480A68C2F3D0
S31520251820800101B16C487047002800D070472DE90A
S31520251830F8436A4C67482060654F3A6801214FF482
S315202518400178674E40F20249C2F3011501FA05F5E2
S31520251850092D28BF012500F0AEFB60B138686D0043
S31520251860C0F3C000002807BF5E48C6F800805E4842
S31520251870C6F8009017E03868C0F3C00080B1C6F8D6
S3152025188000905A480168C1F38000002819BF58499D
S31520251890B1FBF5F0574AB2FBF5F02060BDE8F183A0
S315202518A0C6F800804F48B0FBF5F0F6E7F8B5524C60
S315202518B0524D20684FF00041514E40F002002060E5
S315202518C0A963286B20F080402863296B41F4404189
S315202518D02963286B40F4C0102863316841F4001130
S315202518E031603768FFF798FF3A4927F0E077884235
S315202518F00CBF47F4400747F0A0773760306840F49F
S31520251900405030606420FFF700FF31684FF4803067
S3152025191041F040013160B0602A6B002022F08042E0
S315202519202A63286021680120490849002160F2BDE3
S315202519302AE0000007284FF4A0614FF4E0624FF417
S31520251940C06316D8DFE800F0040609150D0C0F1222
S315202519500F200FE019460E200CE019460B2009E032
S315202519601146042006E01146032003E019460220ED
S3152025197000E007200143234801607047012000E04D
S3152025198000202149086070472048016801F0FF00A2
S31520251990090A01F00701891E052904D8DFE801F087
S315202519A00507090B0D0F0B490AE00E4908E01849D2
S315202519B006E00D4904E0174902E0174900E01749DA
S315202519C0401CB1FBF0F07047DEE715487047000054
S315202519D0A0C9CA4000366E0100F82401280C27200C
S315202519E0800CCC400084D71700389C1C70C8CA4070
S315202519F00065CD1D001E7C29400143400040434003
S31520251A00A04043400002CC402064CC400001CC407D
S31520251A100024F40000C2EB0B00A4781F40DCB31190
S31520251A2000B4C404704730B4002513E050F8042BC5
S31520251A30D30744BFA9F101039A18091F042942F89F
S31520251A40045BFAD213468C0744BF15809B1CC90715
S31520251A5048BF1D7050F8041B0029E7D130BC7047BC
S31520251A60F8B504460D46164600201A4951F8202079
S31520251A70A24202D0401C1028F8D30E2880F00F80D1
S31520251A8035A1085C8A280AD0400113490A58D3076C
S31520251A9005D401270F50BFF34F8FBFF36F8F012733
S31520251AA0AF406269F9430A406261307818B96368A4
S31520251AB01940616007E072782946204600F00EF825
S31520251AC063681F436760B27829462046BDE8F840FB
S31520251AD00EE00000040F25200060CC40012303FAE8
S31520251AE001F184300AB941607047016070470000D2
S31520251AF0F0B5C369012404FA01F5AB431029C36166
S31520251B0032BF00F10C0300F11003103949000326DA
S31520251B108E40F743521E042A1DD8DFE802F003071C
S31520251B200D151900186807401F60F0BD1A688C40EE
S31520251B3017403C431C60F0BD1C68022505FA01F1BF
S31520251B40274039431960F0BD186806431E60F0BD4D
S31520251B50C1690D43C561F0BD8A33333333333333FE
S31520251B60333333333333000010B5039C01F00F0193
S31520251B70240104F010042143016002B1136010BD35
S31520251B80009808B101990160704700003EB500BF55
S31520251B903DA302AA1C68182102943348FFF760FF4B
S31520251BA00021324C324D019100950023002205213A
S31520251BB02046FFF7D9FF2F4800230168002221F46C
S31520251BC0807101600C200190052100952046FFF7A4
S31520251BD0D7FF37BD2DE9FE43274CDFF8A090284EA9
S31520251BE000270197002300964A4600212046FFF725
S31520251BF0BBFF0020DFF88C801C4F01901C4D002355
S31520251C000095424600213846FFF7AEFF0E21009665
S31520251C10019100234A4600212046FFF7B1FF0E20D9
S31520251C20002301904246009500213846FFF7A8FF5C
S31520251C30BDE8F783E0B500201149019000230091E6
S31520251C400E4A00210C48FFF78FFF094A00230092F0
S31520251C500C4A019300210548FFF786FF08480221F3
S31520251C600160416007BD00000040134070810E4091
S31520251C70B4830E40AC400E406C810E4020860E402B
S31520251C80B0830E401C860E400000000010B5400192
S31520251C90DFF83C23145801F0010304F00104A34284
S31520251CA006D001F001011150BFF34F8FBFF36F8F7F
S31520251CB010BD0000F0B5C74A00211160C64B0C2483
S31520251CC000251C6000F1080655605C6091600C219A
S31520251CD09C600024D5600C25D960002114610C2434
S31520251CE01D61002551615C6195619C61D561BB4D66
S31520251CF0DC613178BA4C21B1012904BF717E1029C6
S31520251D0018D100260C27966700219F670C26D167B8
S31520251D100027DE672F60266069600C216660002615
S31520251D20AF600C27A1600021EE60E760296127615D
S31520251D306961676100260C27D6640021DF640C269D
S31520251D40116504271E6591659E650C2629622762E5
S31520251D509164A4499E6490F83000A34E401E032822
S31520251D6017D8DFE800F0110C0702002151640C2258
S31520251D705A64F0BD02200C23B0608B60F0BD022290
S31520251D800C2072604860F0BD02230C2233600A6065
S31520251D90F0BD00200C2168626162F0BD401E03283B
S31520251DA092494FF0805311D8DFE800F00208030B43
S31520251DB08F4901F1840042B1436070474FF40033C7
S31520251DC0F7E74FF480338B49F3E70360704748B133
S31520251DD0052807D2884A40F2092102EBC01000F5D2
S31520251DE0A853196070470000F0B50078834B8449C5
S31520251DF0844A7E4C844D854E401E032860D8DFE8D4
S31520251E0000F00219314700240B25146000260D60A9
S31520251E100124D6600520CD601C6096608D605060BB
S31520251E2073484D60416841F080514160026842F017
S31520251E30805244E006200C25506506264D650C204B
S31520251E401666012508665D610525D665C8659565ED
S31520251E508865606840F400306060216841F400316F
S31520251E602160F0BD09200C2790678F67D067CF6743
S31520251E7001211963306005202F6070606F606268CC
S31520251E8042F080526260206840F080502060F0BD8C
S31520251E9009210C22B1640920AA640C21F0640122AF
S31520251EA0E9641A6405223065524829657265696593
S31520251EB0416841F480314160026842F480320260F3
S31520251EC0F0BD002070475249FF200A68120912F0FA
S31520251ED00F0206D0921E092A05D90A3A032A04D9C1
S31520251EE070470120704708207047022070477047A9
S31520251EF070B50020FFF798FC4649474B0868C0F384
S31520251F0005412D290BD3BFF34F8FD868434900F4BC
S31520251F10E0600843D860BFF34F8F00BFFDE706205A
S31520251F203F4A414340F624453E4854183E4AA18817
S31520251F301B6800EB81203D49C3F30B13AB420ED022
S31520251F4000264FF000551660638855619B025B1E5F
S31520251F50536023886FF0604404EB832404E0344BDC
S31520251F60344C136054605361946191620121D0628F
S31520251F707320BDE8704089E66FF00101732085E660
S31520251F802D490868C0F3031048B92C4A08691368F7
S31520251F90C0F3400003F002031843012801D1002095
S31520251FA0704708691168400800F00100490801F0CA
S31520251FB0010108437047184840F624410068C0F3BC
S31520251FC00B10884201D10120704700207047000060
S31520251FD00060CC4010800E4054820E4090800E40EA
S31520251FE0D4820E40B8830E4074810E400080134063
S31520251FF00040134000C013400000CC40D4850E403D
S31520252000C0830E407C810E4040840E40FC810E40CC
S315202520100840C04070CCCA4000ED00E00400FA0517
S31520252020B80F2520FFFF3720640627200000202013
S315202520300000FE1FFFFF0120D0C8CA4060C9CA4044
S31520252040DFF8681800200A69D36818607047F8B544
S31520252050DFF858680024F0698DF800404569002D81
S3152025206047D03169C9680F68012F31D06C6801F1D5
S3152025207008020023091DA04704001FBF42F2127043
S31520252080844242F213718C4233D13069C2689168F9
S3152025209000292ED0546823781D0007D0162B05DA63
S315202520A0806800EBC305A5F1080000E00020002884
S315202520B010631CBF0268002A03D0204600249047BF
S315202520C013E042F210741946204600F005FB10E075
S315202520D0086B58B1416811B16846884704460CB14A
S315202520E0002003E09DF8000000B101203169CA686F
S315202520F010602046F2BD0178002000F0EDFADFF8C9
S31520252100AC27D06941690A699047022000F0E4FB93
S31520252110BFF34F8FDFF89817DFF898070A6802F480
S31520252120E06202430A60BFF34F8F00BFFDE7DFF869
S315202521307C0724210269D36803F10C0000F0F8BB43
S3152025214010B50446606809380AD0F7380ED0401EE7
S3152025215009D00F380DD0103811D0401E0CD011E0E3
S3152025216000F05FFE0FE001F00BFB0CE002F02DF8EE
S3152025217009E002F065FB06E003F014F803E003F01E
S3152025218009FB00E0042045E0DFF8203770B500F094
S315202521901DFAAE69B04715E210B50446FFF7C7FF0D
S315202521A0DFF8080762680169C8680821026180F896
S315202521B020102178002000F08FFABDE8104003F08A
S315202521C059BD7CB5DFF8E4460022E56801920092E8
S315202521D0816840686B46AE6801AAC0B2B0472269BD
S315202521E00021D3681961009A0199920800F07AFA9C
S315202521F073BDDFF8B82638B5D36804466068A1686C
S31520252200DD68C0B2A84724E210B50446A1686068F7
S3152025221003F03DFF2178BDE810405DE210B5044668
S31520252220FFF785FFDFF88406E2680169042300F0BD
S315202522305EF821780020EEE77CB5DFF87046064665
S31520252240FFF775FF21691320DFF86C56CA6882F8D7
S3152025225020002169F068CA6882F82100F068A8B9AB
S31520252260B06821280DD26860716829602269D168F5
S315202522700022086105F108004861002081F8212007
S3152025228000E00420317800F027FA73BD01A900204B
S3152025229000912A686968019005F1280305F108004F
S315202522A004F0A5F818B9019909B1592901D30021B6
S315202522B001912269019B0124D16805F128020B6130
S315202522C04A6181F82140019900F027FA73BD10B59E
S315202522D00446FFF72CFFDFF8D405E26801690323BE
S315202522E000F005F8A1680020BDE8104023E2C86863
S315202522F08261A16801616268426180F82030704759
S3152025230038B50446DFF8A45528690021C0684161FF
S31520252310016190F82000042804D129680A6990478C
S3152025232004B90446002C01BF2869C16891F82020EC
S31520252330152A12D14A6ADFF88405012A04D18A6A28
S31520252340C96A04F068FA07E0052A06D14FF49E618A
S3152025235000F5007004F00FFB04462868416988477C
S3152025236004B904462869C168204691F8201000F052
S31520252370B3F942F21270844201BF2969CA6892F8DC
S315202523802000082803D1BDE8314003F0B6BC31BD75
S31520252390DFF818150A69D36893F82110002908BF94
S315202523A000F013B896E0DFF804150A69D36893F888
S315202523B02110002908BF00F008B8012908BF00F020
S315202523C089B800210170002070472DE9FE43064675
S315202523D0DFF8D8743869C068016929B90022002038
S315202523E03270FFF78DFF72E0012101233170D0F87D
S315202523F018900569D0F8148000206A460090F8695F
S3152025240001A94469D4F804C0E04704000AD0F86934
S315202524104169CA6890472046FFF772FF00210020B0
S31520252420317055E0009830B942F21270FFF768FFF7
S31520252430002030704CE0A842396988BF2846009094
S31520252440C86890F82010082912D10199C160009AF0
S31520252450C2610099019803F017FC044642F27D706B
S3152025246084421CBF42F274718C4217D1002415E098
S315202524701329404618BF152906D1009A019904F03B
S31520252480CBFA0098804409E03C68019A00994B468E
S31520252490D4F808C0E04700990446884400982D1AA8
S315202524A005D12046FFF72CFF002131700FE04CB1D6
S315202524B0F8694169CA6890472046FFF721FF002021
S315202524C0307004E03969C9680D61C1F8148000208F
S315202524D0BDE8FE832DE9F84F0746DFF8D06330693E
S315202524E0C068016929B9002200203A70FFF708FF44
S315202524F05FE00121DFF8C8A3397082690092D0F800
S3152025250010804569C46890F820B0F06941694A6908
S3152025251090478146C14588BFC146BCB14A4621461A
S31520252520504604F079FAF069A8EB090401234A46B6
S315202525305146D0F81480D8F808C0E0470CB10028B9
S3152025254033D0FFF7DDFE0020387032E0BBF1030FD4
S3152025255009EB050418D128463568009B524649467D
S31520252560D5F804C02546E0475FEA000BDBD0F069A5
S315202525700123002251464469A568A8475846FFF7F6
S31520252580BFFE0020387015E032692946D06890F8BC
S315202525902030152B05D14A46504604F03DFA2546CE
S315202525A0C1E7BBF1130FF6D0F9E73069C06804619E
S315202525B045610020BDE8F28FBC4B70B500F006F8CA
S315202525C0EE68B0472178BDE8704085E01D68044651
S315202525D0E268A168606870472DE9F0410546B94F44
S315202525E06E68D5F80880E8680024386018B104F0AC
S315202525F04DFA00B90424304604F031FA00B90424F2
S315202526002978204600F068F89CB97E60002000F0E5
S3152025261063F9C7F80880386818B180F3088880F3ED
S3152025262009887968404688470020BDE8F04100F0B2
S3152025263053B9BDE8F08138B50446606804F00FFA31
S3152025264008B9042005E06568012000F045F9A06851
S31520252650A8472178BDE834403EE038B5044604F045
S3152025266006FBA368616804F10C02974804F038FB41
S31520252670054604F0FFFA21782846EBE73EB50021EA
S315202526800446CDE9001104F0F2FAA36861686A468A
S315202526908D4804F06CFB054604F0ECFAA2686946E1
S315202526A0284600F05AF837BD38B504461025FFF7D9
S315202526B03EFD7E48A2680169C9680A6163684B6147
S315202526C081F820500069E168C268002082F821102F
S315202526D0A168BDE8344069E03EB5002400F031F814
S315202526E0A0231EE070B5002588B0A7248DF80150BB
S315202526F08DF800400026551C01908DF8026000209B
S315202527008DF803506C4605E004EB800551F8203002
S31520252710401CAB609042F7D33BE03EB500F010F865
S31520252720B3238DF800300023029144690C22694693
S31520252730A568A84737BD3EB500F002F8A323F0E7E4
S31520252740012401908DF8014002248DF80340574C31
S31520252750E06900258DF80250704770B5002588B0B0
S315202527608DF80150AF24002602258DF800408DF8DE
S3152025277002608DF80350019050B99DF8030002920E
S3152025278000EB920403A88DF8034004F045F900E0F8
S31520252790029646489DF80320C06900236946446968
S315202527A09200121DA568A84708B070BD3EB5FFF753
S315202527B0C7FFB023B5E70000FEB53C4E0546306978
S315202527C000246968019400940227C268062982F8A4
S315202527D021703A4F68D8DFE801F0040A2C32363AC0
S315202527E0500003F0F4FF2978FFF776FFF7BDE86858
S315202527F0112807D304243069C1682046096900F0C9
S3152025280065F8F7BDFFF793FC31691520CA6882F86C
S3152025281020003069E968C0680161476180F8214058
S3152025282030696968C0684162AA688262E968C162BE
S31520252830E1E7AA68E968002003F0EDFFD3E7A86859
S3152025284004F041F8CFE7A86804F05BF8CBE7FFF75B
S315202528506EFC31691520CA684FF49E6182F82000E6
S31520252860306907F50072C0680161426180F8214010
S3152025287031696868CA685062BDE7FFF758FC694622
S3152025288001A804F065F80400B5D131691520012386
S31520252890CA6882F8200030690099C0680161019ACA
S315202528A0426180F82130A6E704209CE710002720E6
S315202528B00CED00E00400FA05842F272094282720F4
S315202528C0A02427200430272000C0CA403EB5FFF784
S315202528D037FFB52325E70000012870B504461DD00E
S315202528E00025114E05E07018C168896801B1884711
S315202528F06D1C1821694370580028F4D174B904F049
S31520252900B6F9FEF7E3FE04F097FA0020074908609A
S315202529100120FEF789FFFFF72FFB62B6BFF36F8FE6
S31520252920BFF34F8F70BD00BF8412252008ED00E030
S31520252930002204F09FBA0000DFF84C06D0F81814C0
S31520252940012902D0022903D005E04FF040507047D7
S315202529504FF0C040704700207047012070472DE971
S31520252960F04FADF5017D0746042404F078F80028BC
S315202529701ED007F2FF1004F072F8002818D0386808
S31520252980DFF8045640F6F94305F5836601460A0D18
S315202529909A420ED1C1F31300421E012A08D8326865
S315202529A0C1F31301914202D0306000202870002403
S315202529B0D7E0090F0C2908D130683A4605F21C4183
S315202529C004F054FF0400F3D146E0DFF8C015884211
S315202529D037D128780028EBD005F21C4005F21C4873
S315202529E006F0E6F8009005F2DC57E0B144464FF4B0
S315202529F00072214601A804F00FF8706C0DF1040829
S31520252A0020F00400706439684908396078684008E0
S31520252A1078603969490839613068214604F044FAD5
S31520252A20002840F08F8030684FF48069DFF860A554
S31520252A30DFF860B5012844D002280CBF5846484601
S31520252A4040E0DFF8542590420ED14FF400723946E6
S31520252A5005F21C4003F0E0FF002005F21C412870FA
S31520252A60306804F021FA04007BD1306806F00BFD8E
S31520252A706946102000F01EFA002871D1DFF81C15B2
S31520252A80012048643268012A05D0022A0CBF4FF05E
S31520252A90C040002001E04FF04050C8630246009810
S31520252AA001238B658218521E00980A640A6DB0F19F
S31520252AB0806F88BF4FF080608018401E48652B7038
S31520252AC04FE050464FF4007100F0CFF8002835D05E
S31520252AD0B87A80B1002001AB291801F21C414A7829
S31520252AE001AC04441A54801C0978B0F5007F617026
S31520252AF0F2D30DF104083068012804D002280CBF32
S31520252B005846484600E0504642464FF4007100F0AC
S31520252B1048F8040007D000F029F84FF400714846FC
S31520252B2000F016FA0CE000F0C9F8040008D000F0F1
S31520252B301DF87968484600F034F901E042F2DB7445
S31520252B40009870B1DFF85844A04505D04FF400729F
S31520252B504146204603F060FF3068214604F0A4F95B
S31520252B60044620460DF5017DBDE8F08F3068012805
S31520252B7003D0022802D1D9467047D146704738B5A9
S31520252B8015460C46DFF80024117811B942F2DD707E
S31520252B9032BD00F0D7F9014622462846BDE8384001
S31520252BA0E6E12DE9F8430546DFF8DC7338780C464F
S31520252BB0914618B942F2DD70BDE8F28384B3787860
S31520252BC068B9D7F8DC15491E0D4202D044F689602E
S31520252BD0F2E7012000217870B9607D6004E0B868AD
S31520252BE079680818A84216D1B868D7F8DC854946E9
S31520252BF02218424534BF2646A8EB000638443246DD
S31520252C001030751903F008FFB868A41BB144301895
S31520252C104045B860D2D100F051F80028CED0CBE778
S31520252C200020C9E776B50D460646DFF85C130878F9
S31520252C3010B942F2DD7076BDAC08A40005F0030577
S31520252C4007E001AA04213046FFF7ABFF60B9361D00
S31520252C50241F002CF5D12DB101AA29463046FFF790
S31520252C60A0FF08B900F02AF876BD70B5ADF5806DC0
S31520252C7005460C4601E0A41B7519DCB14FF4806688
S31520252C80B4F5806F284698BF264600F05BF90146A5
S31520252C903246684600F06CF96846002100E0491C5A
S31520252CA0B1EB960FE7D250F8042B12F1010FF6D08F
S31520252CB0002000E001200DF5806D70BD2DE9F04145
S31520252CC0B14E00257078ADF5806D002864D0D6F8F4
S31520252CD0DC45B0687570A04206D0211A06F110038E
S31520252CE0FF22184406F090FC70682146FFF7BDFFA9
S31520252CF018B9707042F2DB704FE0706800F022F947
S31520252D000246D6F8180406F1100306F21C4104F0F3
S31520252D10CCF905460020002D7070B0603CD1A14825
S31520252D200268D10313D5D6F8DC15726800290EDD85
S31520252D3002F01F004118BFF34F8F9B4B1A6020329C
S31520252D4020390029FADCBFF34F8FBFF36F8F00F0B0
S31520252D5062F821D1D6F8DC4506F11008766802E01E
S31520252D60E41BBE19B844BCB14FF48067B4F5806F17
S31520252D70304698BF274600F0E5F801463A4668468C
S31520252D8000F0F6F83A464146684606F047FC002804
S31520252D90E6D044F68A6000E028460DF5806DBDE82C
S31520252DA0F08170B50446784A107810B942F2DD7064
S31520252DB070BDD2F8E055684200EA04060C19644233
S31520252DC004406442A41B2146304600F0C1F808BBC6
S31520252DD074480168CA0311D5002D31460EDD01F050
S31520252DE01F004519BFF34F8F6F4A11602031203DB3
S31520252DF0002DFADCBFF34F8FBFF36F8F00F00BF852
S31520252E0007D121463046FFF730FF10B944F68A60B0
S31520252E1070BD002070BD6548C1680A69506C0128BF
S31520252E2070471FB5584C207810B942F2DD7024E042
S31520252E3001A9012000F03EF8F8B96946102000F0D6
S31520252E4039F8D0B902A9042000F034F8A8B9D4F865
S31520252E50180404F21C4104F07EF90446FFF7DBFF33
S31520252E6007D100990198FFF700FF10B944F68A602B
S31520252E7003E0002C14BF2046002004B010BD0020FE
S31520252E80704710B500F00BF8BDE81040C01A88E64B
S31520252E9010B500F004F8BDE81040C01AC2E63F4B35
S31520252EA0DC6B1B6D201870473C4AD36B126D1818A6
S31520252EB0801A76E7002930B537D0334A02F5836460
S31520252EC002F2DC5360B1012813D002281DD0032835
S31520252ED020D0042821D0052821D0102822D024E04E
S31520252EE01078002814BF002042F2DD7008600020EB
S31520252EF030BD2068012805D0022814BF00204FF0B8
S31520252F00C040F3E74FF04050F0E700F010F8AD0A47
S31520252F100D60ECE71B680B60E9E75868E6E718695A
S31520252F2018B1E3E700F003F8F2E7042030BD656D1C
S31520252F30A36DE26D206E5D19551945197047124806
S31520252F400078704710B50446FFF7F6FC201A10BD09
S31520252F5038B50C460C4DFFF7F5FF0246234605F2FC
S31520252F601C41D5F8180401B0BDE8304005F0ADBCAC
S31520252F701CB5009202460B46034CD4F8180404F2DD
S31520252F801C4105F0DEFC16BD480027200F0000F069
S31520252F90000400300004006046434642640627208C
S31520252FA06404272014ED00E05CEF00E010002720C4
S31520252FB02DE9FE43FEF787FF022849D1DFF8E84BA6
S31520252FC042F230102518284606F04CFB002859D108
S31520252FD0284600F088FD002854D1694601A806F028
S31520252FE02DFB0027009EDDF80480B94601E07F1CD5
S31520252FF0B144B8B240452BD204F110024FF480617A
S31520253000484600F020FD002802BF6069DFF89C1B9A
S31520253010884204BFA269012AE9D14FF4806104F1CF
S31520253020100000F072FD0028E1D042F2300026186B
S315202530304FF4806204F11001304603F0EDFC28465A
S3152025304000F051FDF0B9304600F08FFC10B119E0A3
S31520253050012017E0012002A9207040F2011002F07C
S31520253060CBFF78B9029A142042F2F023DFF8401BD1
S315202530704243E01804681144CC60C2698068424303
S315202530808A600020BDE8FE832DE9FE4F04240546EF
S3152025309003F0E5FC00282E4605D006F2FF363046FD
S315202530A003F0DDFC002800F096812A68DFF8F86A0F
S315202530B042F22801771842F2F02342F27008100FC7
S315202530C00C2806EB0309DFF8E4AA4FF4806B40F0C1
S315202530D0BD80002D0ED002F00F02D21E082A3FD227
S315202530E042F2300059463044FFF722FC686803F047
S315202530F0B6FC002870D06868083003F0B0FC00289C
S315202531006AD06A6842F230103118012006F0ACFDEB
S31520253110040061D12868C0F3032000281CBF01289C
S3152025312000207060286800F00F02921E082A53D8C6
S31520253130C0F30353032BC0F303600CD8DFE803F059
S3152025314009070402202308E04FF4807305E0802335
S3152025315003E0402301E0202B3ED300283CD0052840
S315202531603AD23B830121788313FB00FCC7F80CA0B8
S3152025317039610146C7F814C00020FA610DE0BCF874
S3152025318008C006EBC00B0EFB0AFA401CC344CBF83D
S3152025319000A00EFB0CFECBF804E0904214D205EBE2
S315202531A0800CD9F808E030B9B3FBFEFB01FB0BFBFD
S315202531B04FEA4B0B04E0BCF806A0BCF804B0D34478
S315202531C0BCF80AA0DA45DAD242F234004FF47F71F0
S315202531D0304400F0A7FCB860002C62D10020307066
S315202531E042F23011701800F07EFC040059D1DFF828
S315202531F0C459284600F0B9FBC8B1DFF8BC49FF22DF
S315202532004FF48461204603F031FEDFF8B009012111
S3152025321060600022A16040F21C412261201D00F041
S3152025322081FC2060284600F0CDFB040039D17D8B1A
S315202532303C8BD9F808104FF0000A44F62968D34666
S3152025324005FB04F0B0FBF1F100916BE0696851456F
S315202532500FD15946284600F058FC002821D00020B9
S3152025326042F2300330705A462946F01803F0D4FB33
S31520253270B6E70B2815D10420002D1CBF317800294F
S315202532800ED0C2F3036101290CD049B9284606F090
S3152025329059FE002803BFAA687A60012100213970CA
S315202532A0044698E039780029FAD0297801F00F01CB
S315202532B00829F5D206EBC1006946D9F800507E6863
S315202532C040444468D0F8008001A806F074FE002802
S315202532D005FB0868E4D100983618B6FBF5F084423C
S315202532E038BF42F2D870DBD3691E18EA010F18BF02
S315202532F042F2DE70D4D1B8FBF5F40121204600F048
S3152025330013FB10B942F2DB70CAE7019A00992046D1
S3152025331000F0B5FB0028C3D100F0C4F9C0E70AF1B7
S31520253320010AA344AA4538D242F23000371806F1BD
S3152025333010024FF48061584600F085FB40B94FF4C2
S315202533408062394606F1100006F068F90028E6D095
S315202533504FF0000BDDF800A004E058460BF1010BD9
S3152025336000F0CEFBD345F8D34FF0000AD346AA4525
S3152025337015D23A464FF48061584600F080FB002846
S315202533800FBF4FF00008D9F80800BBFBF0F000F07E
S31520253390B7FB0AF1010AA344E9E74FF000085FEAE3
S315202533A0080418D101206946307040F2011002F038
S315202533B023FE04000FD100991420DFF8F427D9F82D
S315202533C00030414355180832EB60D9F81C60D9F8EE
S315202533D00800464356502046BDE8FE8F2DE9FE4F70
S315202533E093460425BBF1000F0346884605D0DFF812
S315202533F0B867307810B942F2DD757BE0726842F203
S31520253400F02177183968012A019119D1307B50B9D5
S31520253410F9698B426ED2B868B36032734FF0000AD1
S315202534204343009312E0B068BA68424301FB023356
S315202534301B1A0198B3FBF1F1009100FB113304E02F
S31520253440B3FBF1F001FB103300909A46684642F211
S31520253450240900F09BFB41F21001741814E006F1B3
S31520253460100000EB0A012A46584603F0D5FA0199A1
S31520253470AA44A8EB0508AB448A4504D3009AAAEBAF
S31520253480010A521C00920025B8F1000F0CD12EE01E
S31520253490084600F058FBD8B156F809000099401C7B
S315202534A046F809006D1800956268009920788A42A9
S315202534B000D110BBBD68B1FBF5F118B1B2FBF5F013
S315202534C0814205D0F8698142E2D342F2D8750FE0D0
S315202534D0009D00202070396806F11002284600F04C
S315202534E0B2FA10B9012121706560050005D00DB10C
S315202534F0002030732846BDE8FE8F019908EB0A0285
S3152025350091422CBF4546A1EB0A05A8E72DE9F84FA0
S3152025351093460424BBF1000F05D0DFF88C763A7844
S3152025352012B942F2DD749AE08946796842F2F0238F
S3152025353042F21806FA58BD1901290646904640D169
S31520253540387BA0B9DFF87806C1698E42EBD20022F6
S3152025355001232A7092463B73DFF86826BE60806871
S3152025356046430096314608FB019111602FE03B44E6
S31520253570B8689968414302FB0162DFF84816121A9A
S31520253580B2FBF8F008FB102A00900868824213D077
S31520253590287818B100F054F904005ED1012042F2B2
S315202535A0F02238733A44BE60906831464FF0000ABF
S315202535B04143009108FB01F24A44DFF808160A60C8
S315202535C005E0B6FBF8F008FB10660090B246009899
S315202535D0A96D884243D3684600F0D8FA24E0002016
S315202535E0012268600099A9602A7009EB0A008045A6
S315202535F007EB0A0041F218035946184434BFA8EBB5
S315202536000A044C462246A24403F006FA6868A9EB2A
S315202536100409A3442018C245686004D30099AAEB5F
S31520253620080A491C00910024B9F1000F06D113E0A0
S31520253630E868401CE860009976180096A9680098E5
S315202536402C7881420ED16CB169685145CDD000F0D8
S31520253650F7F80028F2D004460CB10020387320460E
S31520253660BDE8F28F42F2F0223A449668B0FBF6F096
S315202536701CB1B1FBF6F188420AD0D169884202D322
S3152025368042F2D874E9E700F05EFA0028D0D11CB1C1
S3152025369000F0D6F80400DFD1BAF1000F9FD044F60A
S315202536A02A64DAE7DFF8202500201178002918BFBB
S315202536B000F0C6B8704738B5DFF8EC4400206178AD
S315202536C021B142F23000204400F07CF942F2180163
S315202536D02144002241F210050A706255CA602273E0
S315202536E032BD2DE9F8430D46DFF8BC74397804241C
S315202536F011B942F2DD7432E00DB900242FE07B6842
S3152025370042F2F0213944CE698A68012B08BF8146C9
S315202537100DD00968B0FBF1F82818401EB0FBF1F052
S31520253720B8FBF2F9B0FBF2F5A5EB09056D1C42F2C3
S3152025373070017B58B3FBF2F2914507D20FE048463C
S3152025374000F0D0F904000DD16D1EC14675B97878E3
S3152025375028B142F23001781800F034F90446204683
S31520253760BDE8F283484600F0FFF9C146B145EED2C1
S31520253770484609F1010800F0E6F90028DFD0F4E7EC
S3152025378070B5DFF82444207810B942F2DD7070BD7B
S3152025379042F20C300025265800E06D1CB5420AD28F
S315202537A0284600F0D0F90028F7D1284600F0A8F9B8
S315202537B00028F2D070BD607828B142F23001601819
S315202537C000F000F900B9002070BD002930B52DD0B4
S315202537D0DFF8D42342F2F023134402F5065450B1E0
S315202537E0012811D0022811D0032814D0052815D058
S315202537F0102818D01AE01078002814BF002042F28D
S31520253800DD700860002030BD0020FAE700F010F8B2
S31520253810ED0A0D60F6E71B680B60F3E71A689868D2
S3152025382042430A60EEE700F003F8F2E7042030BDB4
S3152025383025686368A268E0685D195519451970479A
S315202538402DE9F84FDFF8604342F2180042F2F021C5
S31520253850251866186A68336842F2DB789A421CBFB7
S3152025386000202073D5F808A000222A700121504671
S3152025387000F05AF890B3696841F21802224450465E
S3152025388000F0FDF800284DD0B068BAFBF0F7384691
S315202538907F1C00F069F9E968F0690090491CE96008
S315202538A006E0384600F060F9E8687F1C401CE86091
S315202538B000998F4234D2384600F045F90028F3D1B5
S315202538C0B068BAFBF0FB00FB0BFB00FB07F9AAEB64
S315202538D00B01491C484600F027F828B9404621E027
S315202538E00BF1010B09F10109D34531680ED204F1FB
S315202538F01002584600F0A7F870B9316804F1100275
S31520253900484600F0BCF80028EAD005E041F2180028
S315202539102218484600F0B3F820B14045C1D101E030
S3152025392042F2D870BDE8F28FF8B506469E4D42F292
S31520253930F0200C462F5800E0641EA4B105F1100294
S3152025394039463046761C00F07EF850B905F110012F
S3152025395000E0001DB842EFD251F8042B12F1010FD9
S31520253960F7D00020F2BD0120F2BD2DE9F041924C81
S3152025397000216160458A068A0027D0F80C8001E05F
S315202539807F1CB044B8B2A84219D2082817DA224695
S315202539904FF48461404600F056F8002802BF60683F
S315202539A08649884204BFA268012AE9D14FF4846159
S315202539B0204600F0AAF80028E2D0002000E00120C9
S315202539C0BDE8F0812DE9F84F814644F62966B9F8F8
S315202539D01280B9F810A0D9F8C802D9F80C200025EC
S315202539E008FB0AF1B2FBF0F4B1FBF0F703E000196E
S315202539F06D1C00F085F8A8B2B842F8D36E4F40F278
S31520253A001C41381D002500F08DF83860D9F80CB0FA
S31520253A10654C12E0607000260DE03A464FF484612D
S31520253A20584600F02CF80028F4D0D9F8C802BBFB5C
S31520253A30F0F000F065F86D1CD344A8B24045ECD3D0
S31520253A403046BDE8F28F2DE9F84305460C46164645
S31520253A5042F2F029DFF8508102E0F619E41B6D1CAD
S31520253A605CB158F8097032462846A74228BF274612
S31520253A70394600F03CF80028EFD0BDE8F2832DE941
S31520253A80FC4781460D46924642F2F027464E13E0E4
S31520253A9006F110022146484600F029F85FEA00087B
S31520253AA01DD1224606F11001504605F0B7FDA0B9D5
S31520253AB0A2442D1B09F101098DB1F45942F230108A
S31520253AC053464A46AC4228BF2C463118009401203D
S31520253AD006F02AF80028DBD002E0012000E0404647
S31520253AE0BDE8F6870CE00146012005F007BF80B525
S31520253AF01346009102463549012005F011FF02BDE6
S31520253B0002463249012005F0B1BF10B50446091FEA
S31520253B10201D00F007F82268904201D1012010BD12
S31520253B20002010BD3EB504460D4601A806F062FAD2
S31520253B302A46214601A806F063FA694601A806F019
S31520253B4074FA00983EBD30B51B4A0021136900E062
S31520253B50491C994206D202EB8104256A8542F7D172
S31520253B60012030BD002030BD13490A69B2F5807F7A
S31520253B700AD201EB8202106208690B4A401C0861B1
S31520253B80012151700020704701207047064942F2D5
S31520253B90240330B5CC5842F2F8250268495901FB51
S31520253BA004220260002030BD349527204243464E0C
S31520253BB0F006272064B5272064B92720544242449D
S31520253BC024B8272084BD27204CB5272064B6272056
S31520253BD03EB5FEF778F9202801D001203EBD00F01C
S31520253BE049FDDFF8144B44F220102518284606F007
S31520253BF015FB70BB284606F07FFE50BB694601A8FB
S31520253C0006F02AFA009B019A0021002000F042FCAA
S31520253C10F8B944F220004FF48062A11C204402F01A
S31520253C20FBFE284606F068FE98B9009B019A44F2C9
S31520253C302C002158012000F02DFC50B94FF4846228
S31520253C40A11CDFF8B80A02F0E7FE0120207000F05B
S31520253C502AFD3EBD2DE9FE4F0446254602F0FFFEF0
S31520253C60002805D005F2FF35284602F0F8FE002863
S31520253C7000F04A81DFF8805A44F2180044F22011D8
S31520253C802E1805EB010B2146002000F0E8FB98B302
S31520253C90002044F2200328704FF480622146E8183C
S31520253CA002F0BAFE584606F027FE002821D1338B8E
S31520253CB0728B71690120DFF8444A4FF4846700F03E
S31520253CC0E9FB002800F02581FF223946204603F00E
S31520253CD0CDF8DFF82C0A012160600022A16040F290
S31520253CE01C412261201D00F0B4FC206000F098FACA
S31520253CF0002840F01B8111E1226844F2C01144F2CC
S31520253D00600905EB0108100F0D2840F0AC8060688E
S31520253D104FF4807110F00F0F14BF00F00F0A4FF0EB
S31520253D20010AC0F3034000281ABF6068C0F3034781
S31520253D300127C2F30120002822F4407214BF000275
S31520253D400846104320606068C0F30720002803D06A
S31520253D506068C0F307210902626822F47F42114375
S31520253D606160207810F00700D8BF45F2E42070DD89
S31520253D70082F88BF45F2E5206BD80020287000F053
S31520253D8079FC584606F04AFA002862D144F2721088
S31520253D902844002144F229128172A91806230022DB
S31520253DA0CB70C2720A70227802F00702027023684D
S31520253DB0C3F3C002CA752268C2F30212521C42708E
S31520253DC023681B0ADA0002F018020A76216844F2D3
S31520253DD05012090B01F00701A95423681B0C03F087
S31520253DE00103C3702168490C01F001010171584670
S31520253DF006F082FD00282CD16168D8F80800C1F389
S31520253E0007231AFB03F3C1F3072200FB02FC00203C
S31520253E105B0011E0B1F808E005EBC002D8F808B040
S31520253E20401C4A440BFB0EFEC2F804E04989D8F80B
S31520253E3008E00EFB01F11160B8420BD204EB80019C
S31520253E4010B1CA888B889B184A899A42E2D245F2B4
S31520253E50E6206BE0A6F818C00CFB0AF0A6F81AA0F7
S31520253E607061F76123E70B2850D10420002C1CBF55
S31520253E70297800295AD0C2F3036101290DD00029BA
S31520253E8054D1204606F05EF810B1002131704DE060
S31520253E90A06801227060327009E73178002945D063
S31520253EA0207800F00F0008282ED205EBC0006946A1
S31520253EB04844D8F80090D6F804800768446801A8B5
S31520253EC006F079F809FB0787D8B900988044B8FB0E
S31520253ED0F9F0844218D3A9F101010F4214D1012208
S31520253EE05846B7FBF9F107F02FF910B142F2DB70EE
S31520253EF01CE0019A0099384600F093F808B900F09D
S31520253F0091F90028C8D011E004200FE045F2E020E1
S31520253F100CE03A46A91C204602F07EFD002000F042
S31520253F20E7FA18B90120287000F0BDFBBDE8FE8F01
S31520253F302DE9F84F5FEA0208DFF8BC6744F2C01284
S31520253F40054606EB02073C68009408BF0420B5FB0E
S31520253F50F4F904FB19555AD0327812B942F2DD709C
S31520253F6055E044F21403BA68F45802FB04990C462A
S31520253F7010E0B01C41195246404602F04DFD009AEC
S31520253F805544A4EB0A04D044954224BFAD1A09F121
S31520253F9001090020002C42F2040A0AD137E04846BE
S31520253FA000F042FBF0B144F21400D9443158491CA3
S31520253FB0315056F80A1042F20200305C494500D1AC
S31520253FC038BBD7F808B0B9FBFBF218B1B1FBFBF02B
S31520253FD0824207D0F868396948438242DFD342F2C4
S31520253FE0D87014E042F2020B00203B6806F80B003D
S31520253FF044F2201CB21C494606EB0C0006F017FE9F
S3152025400020B9012146F80A9006F80B1008B1BDE81B
S31520254010F28F0098621990422CBFA246A0EB050A82
S31520254020A7E72DE9F84F5FEA02080746DFF8C856C5
S3152025403044F2C012AC58009408BF0420A146B7FB11
S31520254040F9F904FB19774DD02A7812B942F2DD7099
S3152025405048E044F20803EE18B26D914538BF45F283
S31520254060E3203FD344F2C0142C19F368A2688A466C
S3152025407002FB039922E0002001217060C6F80890F2
S31520254080317000980AEB070242F208034146904216
S3152025409034BFC41B5446E81922461844E71902F0B2
S315202540A0BBFC7168AAEB040AA04461187160009ACA
S315202540B0974224BFBF1A09F101090020BAF1000F42
S315202540C004D10FE0F068D944401CF060B0683478FC
S315202540D0484509D144B17068B842D2D000F009F9D3
S315202540E00028F3D0BDE8F28F44F2C0116A18D2F821
S315202540F008B0B9FBFBF11CB1B0FBFBF081420DD01A
S31520254100D06812695043814202D342F2D870E9E73A
S31520254110484600F089FA0028D4D11CB100F0E9F8E8
S315202541200028DFD1002FA6D045F2D120DAE72DE9C8
S31520254130F047DFF8C47544F2C0157C193A7826690C
S31520254140E3684FF001085E4312B942F2DD702AE09A
S3152025415009B9002027E02368A268B0FBF3F50818E3
S31520254160401E44F26001B5FBF2FAB0FBF3F07B5812
S31520254170B0FBF2F5A5EB0A056D1CB3FBF2F29245D1
S315202541800AD245F2E3200EE0504600F05EF95FEABA
S3152025419000080AD16D1ECA465DB9787810B100F09F
S315202541A03FF880464046BDE8F087504600F092FA13
S315202541B0CA46B245F1D2A0680AF1010900FB0AF0E8
S315202541C000F032FA0028DFD0F2E744F2C8122DE9B2
S315202541D0F041DFF824654FF00108B7183078BC6820
S315202541E0796800254C4388B942F2DD7016E0386897
S315202541F0684300F019FA40B9284600F026F95FEA07
S3152025420000081CBF284600F065FA6D1CA542EED392
S31520254210707810B100F004F880464046BDE8F0815C
S31520254220012065E1DFF8DC2400201178002918BF5C
S3152025423000F05FB8704738B5DFF8BC4400206178B8
S3152025424009B1FFF7EDFF44F208012144002242F28D
S3152025425002050A706255CA6032BD002930B52BD0B9
S31520254260DFF8942444F2C013D41850B1012811D074
S31520254270022811D0032814D0052815D0102818D0A7
S315202542801AE01078002814BF002042F2DD7008605D
S31520254290002030BD0020FAE700F010F8AD0A0D60A9
S315202542A0F6E723680B60F3E7A268206842430A6095
S315202542B0EEE700F003F8F2E7042030BD2569E36830
S315202542C0A26820685D43554345437047DFF8281487
S315202542D001F584421078002800D0704710B50023B8
S315202542E042F2020442F204000B550B50891C516000
S315202542F010BD2DE9FE4FDFF8004444F2080044F2B4
S31520254300C01125186618D5F808A03369F068B26853
S31520254310434301930020287068683168BAFBF2F878
S31520254320884207D042F20803091A2344FF2218445B
S3152025433005F06AF944F2201301225146E01842F28B
S31520254340DB7B06F001FF90BB306842F2080162183C
S31520254350014600FB0AF000F052F800284DD04046D1
S3152025436008F1010800F0B6F9E86805E0404600F0B6
S31520254370B1F9E86808F10108401CE86001998845EB
S3152025438039D2B76807FB08F9484600F04DF90028C9
S31520254390EFD1BAFBF7F0474344F220102044494693
S315202543A00090AAEB0702521C06F0CEFE20B15846F5
S315202543B023E07F1C09F10109574533680FD2009860
S315202543C0A21C394606F033FC88B93068A21C014662
S315202543D000FB09F000F013F80028EAD007E042F2A6
S315202543E00800221803FB0AF0194600F008F820B128
S315202543F05845BBD101E042F2D870BDE8FE8F2DE9A4
S31520254400F047904644F2C015BB4E08EB0109725978
S315202544100C46B0FBF2FAFFF759FF384603E0B844BD
S31520254420E41B0AF1010AC8450DD2775944F220101A
S31520254430424651463044BC4238BF27463B4606F0C5
S3152025444019FD0028EBD0BDE8F08710B50446FFF707
S315202544503DFF2146AC48BDE8104006F01BBE10B5F1
S315202544600C4620B9A94A201D4FF47F7103E0A44AA2
S31520254470201D40F21C416368934204BFA268012A8D
S3152025448006D100F0E6F82168884201D1012010BD29
S31520254490002010BD2DE9F04782460F46964D9146C0
S315202544A098464FF40051A81C06F094FE5FEA0A00B0
S315202544B00CBF4FF480644FF48464002601E0474402
S315202544C0761C4E4512D244F2C010AA1C28582146E5
S315202544D07843FFF72DFD0028F1D1A91C5046FFF77B
S315202544E0BEFF0028EBD00020BDE8F0870120FBE7A2
S315202544F02DE9F04F804E44F2200285B0B5186B8AFF
S315202545000193019A2C8A012A029408D923465343DA
S3152025451044F2C01232449468B3FBF4F901E04FF01B
S31520254520010900288DF8000035D10027B846C24656
S31520254530DDF804B0029C02E008F10108A244D84522
S3152025454016D244F2C013B21CF0584FF4806100FBFA
S315202545500AF0FFF7EDFC38B94FF480622946B01CE6
S3152025456005F05CF80028E7D0CDF804B0012701E056
S31520254570CDF804B00294002F4FF0000AD04645F21C
S31520254580E12404954FF4806B48D044F224024FF45D
S315202545907F71B01810E044F2C0103044D5F80C8055
S315202545A08168564D45F2E22404954FF4846BB8FB79
S315202545B0F1FA40F21C41281D00F04BF82860002511
S315202545C004E005EB0A006D1CFFF73FFF4D45F8D3A8
S315202545D044F2C010304403900027DDF80490029D54
S315202545E0DDF810A04F451BD2039852465946006840
S315202545F000FB08F0FFF703FF38B99DF800000128D6
S3152025460004BF00217170002405E003988168B8FB5A
S31520254610F1F0FFF71AFF7F1CA844E3E7002000E00E
S31520254620204605B0BDE8F08F70B5394B01461C688C
S31520254630324B00220020B1FBF4F11C6900E0521C0C
S31520254640A24205D203EB82052E6AB142F7D101207B
S3152025465070BD3EB504460D4601A805F0CBFC2A467D
S31520254660214601A805F0CCFC694601A805F0DDFC0C
S3152025467000983EBD70B5204C44F22003E518FF2254
S315202546804FF48061284602F0F1FB204E012344F2A7
S3152025469024006E60AB604FF47F712044FFF7D9FF6D
S315202546A02860002070BD1CB569464FF4807001F046
S315202546B0A3FC70B9009A142016494243164803686C
S315202546C00A44D3600469C16880684C434443946096
S315202546D0002016BD09490A69B2F5807F0AD201EB69
S315202546E0820210620869044A401C08610121517022
S315202546F0002070470120704780482720A08C27203E
S315202547005442424488882720A08927204243464E62
S31520254710488A2720F0062720408A27200020DFF8F0
S3152025472070158860704710B51346DFF864452278E2
S3152025473002B998E00A461946BDE8104006F07ABD2A
S315202547402DE9F8438046DFF8485528780C469146CA
S31520254750D5F8287418B942F2DD70BDE8F283B7F58D
S31520254760806F88BF4FF4806734B3A86869680028AE
S3152025477004BF0029C5F8048002D04118414516D129
S3152025478021188F422CBF26463E1A284400F10C01BB
S31520254790894504D0324649460C3002F03DF9A868B1
S315202547A0A41BB144B0443018B842A860DCD100F02F
S315202547B005F80028D8D0D0E70020CEE7F8B5DFF8D1
S315202547C0D064ADF5806DB5680024DDB17768746059
S315202547D0B4602A4606F10C01384606F0ABFD0400E6
S315202547E010D12A466946384606F024FD040009D10B
S315202547F02A46694606F10C0004F010FF10B142F254
S31520254800DF7000E020460DF5806D01B0F0BD38B58E
S315202548100D460446DFF87814087810B942F2DD7083
S3152025482032BD2946204606F01DFD40B9294620469B
S3152025483000F01CF810B942F2DF7032BD002032BDDF
S3152025484010B5DFF84C44207800B90CE006F04BFD76
S3152025485040B9D4F8241400F009F810B942F2DF70D3
S3152025486010BD002010BD42F2DD7010BD70B5ADF52E
S31520254870806D05460C4601E0A41B7519C4B14FF47D
S315202548808066B4F5806F6946284698BF2646324607
S3152025489006F0D0FC6846002100E0491CB1EB960FB6
S315202548A0EAD250F8042B12F1010FF6D0002000E0B1
S315202548B001200DF5806D70BD2DE9F04D8EB0044695
S315202548C0042502F0CCF8002804D004F12B0002F0B0
S315202548D0C6F8002800F070812068DFF8B48308F533
S315202548E0826A08F20C4608F58667DFF8A8B3000F1A
S315202548F00C2840F0AC802C215046FEF719F8C6F836
S3152025490004B04FF48030B0600121022239707A70CC
S31520254910032305210622BB70DFF87C03FD70397140
S315202549207A71237803F00F0300EB8301CA6DF261B8
S315202549302168C1F3031100EB8102136C33622168D0
S31520254940C1F3032150F82100DFF85013B061226806
S31520254950120B02F00F02012A04D0022A1AD10220B4
S31520254960307505E0B0F5803F32750ED8102070756C
S315202549702068000D00F00F00401E032840D8DFE8F0
S3152025498000F03D3B390204203BE088422CBF202005
S315202549901820ECE7002060223075F8793A72B36941
S315202549A08B4214D2182142227175BA71316AB1F51A
S315202549B0803F02D3D820F871DAE7B1F5805F08BFAA
S315202549C02020F8D0B1F5004FF5D15220F3E720214C
S315202549D012227175132300217A70BB70B971316A41
S315202549E0B1F5803F28BFDC20E5D2B1F5805FE2D145
S315202549F02120E0E7032004E0022002E0012000E058
S31520254A00002030732068000C00F00F00012806D006
S31520254A1004D3032803D038BF022000D30020707387
S31520254A202068C0F3036078B1217901F00F010129AF
S31520254A3008D009D3032901D002D305E0984804E0FC
S31520254A40984802E0984800E0984830616AE00B28AB
S31520254A5022685CD10420002C1CBF98F80010002960
S31520254A600BD0C2F3036101290DD0002905D120469B
S31520254A7005F068FA10B1002139739EE0A06801225D
S31520254A8038613A7341E0397B0029F6D0227812F035
S31520254A900F0FF2D1002101200491039104A900F0E2
S31520254AA08FF880BB03A9102000F08AF858BB01A9EE
S31520254AB0032000F085F830BB3C69049D694602A891
S31520254AC005F079FA6519F0B9009903986418A0427A
S31520254AD038BF42F2D87070D30198401E054218BFC0
S31520254AE042F2DE7069D101992846FFF7BFFE10B93B
S31520254AF042F2DB7061E0029A00992846FFF720FEF4
S31520254B0008B9FFF75BFE002857D1002554E05A4502
S31520254B1052D12C215046FDF70BFF2C2221465046FB
S31520254B2001F07AFF0020624D88F80000347B376932
S31520254B3008F58360FDF758F92046FCF773FF2946CB
S31520254B402046FDF744F907A85CA11C2201F064FF45
S31520254B501C216846FDF7ECFE00970821009B019154
S31520254B6054490022ADF80820B1FBF3F38DF80A202D
S31520254B700A46039313460099B2FBF1F1009A049154
S31520254B8002218DF818106946B3FBF2F20592002210
S31520254B9007AB8DF81920ADF81A2053F824002A469C
S31520254BA006F038FD316808F5846006F017FB050008
S31520254BB004BF012088F8000028460EB0BDE8F08DF8
S31520254BC021B3334A02F2244350B1012811D00228B9
S31520254BD014D003280FD0042814D0102814D015E07B
S31520254BE01078002814BF002042F2DD7008600020CE
S31520254BF070470020FAE75A680A60F8E71B689B0A7F
S31520254C000B60F4E79868F1E71A68F5E70420704702
S31520254C102DE9F043074628488BB088461646047862
S31520254C20457804A82CA11C2201F0F6FEE946002091
S31520254C3000210022002389E80F004FF480100390DD
S31520254C400EB9012201E0032E05D129462046FDF77E
S31520254C50A5F8002019E0012E08BF019702D0022EC3
S31520254C6008BF0097CDF8088004A8694650F8240087
S31520254C7006F033FEB0F5C87FF6D030B1002229469E
S31520254C802046FDF78BF842F6CD100BB0BDE8F08314
S31520254C90E40727206B736563700727200100000131
S31520254CA080841E00404B4C0080969800002D3101B3
S31520254CB0005A620200CA9A3BFC0B272000000000FE
S31520254CC0004011400080114000C0114000001240D4
S31520254CD000C0C2400000C340000000000040114033
S31520254CE00080114000C011400000124000C0C24083
S31520254CF00000C3403EB5DFF81C4640F2FF1104F5FF
S31520254D0038750222A98420466A8407F0F1F8F8B975
S31520254D10204608F0D3F8C0B901A940F2211001F0A8
S31520254D206BF9A8B96946204600F006FB80B9019B98
S31520254D301421DFF8E4252D684B43D118CD60009A40
S31520254D408A60012184F808133EBD002384F80833A0
S31520254D503EBDF0B585B0044601F081FE002803D07E
S31520254D60E01D01F07CFE002800F0DC802268DFF8BB
S31520254D70A45505F2023605F52C77100F0B2878D188
S31520254D800420002C1CBFB17900290FD0C2F3036162
S31520254D9001290DD051B9204605F0D4F8002803BFA6
S31520254DA0A268C5F8202301210021B17605B0F0BDE2
S31520254DB0B17E0029FAD0227812F00F0FF6D10021E4
S31520254DC001200491029104A900F00AFA0028EDD1C8
S31520254DD002A9022000F004FA0028E7D10298DFF87C
S31520254DE03C154FF0FF34884201A928BF029405209F
S31520254DF000F0F6F90028D9D1D5F82063049D694617
S31520254E0003A805F0D8F875190028CFD1009902985E
S31520254E107618B04238BF42F2D870C7D30198401EC3
S31520254E20054218BF42F2DE70C0D13878019B012891
S31520254E30084601990246B0FBF1F1019818BF0024D6
S31520254E4000FB11221000224618BF01204118B5FB70
S31520254E50F3F000F03AFA10B942F2DB70A6E7039A8E
S31520254E600099284600F010F900289FD100F065F911
S31520254E709CE70C2856D14FF449712846FDF758FD55
S31520254E80207910F00F0002D0022841D04AD2DFF82F
S31520254E9090140C20296008F0EDFADFF88824116893
S31520254EA001F0FF01491CB0FBF1F06860DFF87804BA
S31520254EB029680268914204BF002380F8D43040F245
S31520254EC0FF10022170803180206805F12C01020B0C
S31520254ED0000A02F00F0200F00F000A704870606881
S31520254EE0C20C02F001020A7341F28832C30D000E6C
S31520254EF000F0030003F0010301284B7340F6C41389
S31520254F0012D002D3032814D011D344F6206011E001
S31520254F10DFF8180428600C2008F0ACFADFF8101406
S31520254F200968BDE7042041E742F2107002E01046E9
S31520254F3000E0184648606068C0F3005000B11A4664
S31520254F408A606068800C00F001008873284607F087
S31520254F50B5FF0028E7D121682846090E01F007016B
S31520254F6007F0C4FF0028DED104A9284600F0E4F97D
S31520254F700028D8D103A940F2211001F03DF80028B8
S31520254F80D1D1039B1421DFF890233F6B4B43D118B6
S31520254F90CF60049A8A602768F90725D509216846AE
S31520254FA0FDF7C6FC390C01F00301C7F301108DF876
S31520254FB003108DF8020021680A0D02F007028DF8EC
S31520254FC0012028468B08C90801F0010103F00103B9
S31520254FD08DF8041000218DF8051069468DF80030CE
S31520254FE008F036F9002801D10121B171DEE62DE937
S31520254FF0F84FDFF82093824609F542760C4630781D
S31520255000904618B942F2DD70BDE8F28F4FEA5A254F
S3152025501009F54970AAEB45254FEA5A2700900FE056
S3152025502000985A46A4EB0B044119404601F0F4FC9E
S315202550305D44B5F5007FD84424BFA5F500757F1CB2
S3152025504004B3707878B1706887420CD3411C8F429F
S3152025505009D2AAEB40256019B0F5007F94BFA34657
S31520255060C5F5007BDCE700200099707001233A46C0
S31520255070484607F05CFF002802BF01207070776044
S31520255080E9D0C1E70020BFE72DE9F84FDFF8848274
S3152025509008F542773B7813B942F2DD704BE082461C
S315202550A04FEA5A24AAEB44244FEA5A250E4691461E
S315202550B002E0A4F500746D1C002E3BD0387A90B101
S315202550C0386985420CD3411C8D4209D2AAEB40244E
S315202550D0F868A04210D000F0B0F80028EED02AE0DB
S315202550E000F0ABF838BB14B142F2DE7023E0002085
S315202550F00121F8603D6139723019B0F5007F08EB42
S315202551000400494600F2245094BFB346C4F5007BDB
S315202551105A465C4401F080FCF968B4F5007FA6EB7D
S315202551200B06D9445944F960C6D300F086F80028E1
S31520255130BFD000E00020BDE8F28F764A002092F805
S315202551401013002918BF00F078B870477948002138
S31520255150C17101700020704770B506466D4D95F8D2
S3152025516008030C4610B942F2DD7070BD284607F0BB
S31520255170B5FE10B142F2E07070BD94B105F53870D8
S31520255180A419C1690068641EB4FBF0F2B2FBF1F2E2
S31520255190B6FBF0F0B0FBF1F12846BDE8704007F0EC
S315202551A0BBBF70BD38B55B4C04F53F75287B10B960
S315202551B042F2DD7032BD204607F090FE10B142F254
S315202551C0E07032BD6946204600F0B6F838B9009819
S315202551D02968B0FBF1F20021204607F09DFF32BD5C
S315202551E038B50C0027D04B4D30B101280ED00228DA
S315202551F00ED005281BD01EE095F80803002814BFDD
S31520255200002042F2DD702060002032BD0020FAE722
S315202552106946284600F090F80028F6D1009AD5F858
S31520255220E012A1FB0201800A40EA8150EBE7D5F87E
S31520255230E0222260E8E7042032BDF8B5354C204629
S3152025524007F04CFE10B142F2E070F2BD04F544752C
S3152025525004F2245668684FF0FF37B0F5007F0AD050
S3152025526094F8B0120129C0F5007130440CBF3A4696
S31520255270002204F0C9F994F8B01200202870A868F5
S31520255280012918BF00273A46012100F01EF810B93A
S3152025529042F2DB70F2BDAA6801233146204607F08B
S315202552A0B4FE88B9AA6804F54977012339462046EC
S315202552B007F03DFE40B94FF400723946304604F0DA
S315202552C0ADF908B142F2DF70F2BD2DE9F843114E52
S315202552D005460C46904606F5497900E0E41BB4B10F
S315202552E0012C2A46494630468CBF012727463B4670
S315202552F007F01DFE48B9494600E0001DB0EB472FB3
S31520255300ECD251F8042B4245F7D0002000E00120AD
S31520255310BDE8F28368372720F006272001004000C4
S3152025532000804140001DCC40EC3F272000C0414055
S31520255330801DCC40713A272010B5024602F53972D8
S31520255340137F0020072B14D8DFE803F00406061365
S31520255350090B0D10126807E054680C6010BD926881
S3152025536002E0D36803E012690A6010BD53690B6019
S3152025537010BD042010BD000038B5DFF8784520463D
S3152025538006F00FFFB0B92046C83408F0B2FF78B929
S3152025539000F028F970B9009B1421DFF85C25656893
S315202553A04B43D118CD6022688A600121217332BDF5
S315202553B00023237332BDF0B585B0044601F04FFB9B
S315202553C0002803D0E01C01F04AFB002800F0D380FA
S315202553D02768DFF8205505F1C806380F0B2840F039
S315202553E07A800420002C1CBF317B002911D0C7F3DD
S315202553F00361012905F1E8060CD0002909D12046AB
S3152025540004F0A0FD002803BFA268726001210021B7
S315202554103170E5E031780029FBD0227812F00F0F84
S31520255420F7D1002101200491029104A900F0CFF99A
S315202554300028EED102A9022000F0C9F90028E8D1DA
S315202554400298DFF8B8144FF0FF34884201A928BF07
S315202554500294052000F0BBF90028DAD17768049E4E
S31520255460694603A804F0A7FDBE19002828D100996E
S3152025547002987F18B84238BF42F2D87020D30198B7
S31520255480401E064218BF42F2DE7019D195F8BE009D
S31520255490019BC10700980199B0FBF1F102460198BD
S315202554A058BF002400FB11221000224618BF0120D8
S315202554B04118B6FBF3F000F0F7F910B942F2DB708C
S315202554C08EE0039A0099304600F0DEF8002801D1B7
S315202554D000F033F984E00D284DD1F0212846FDF73B
S315202554E027FA17F00F0702D0022F3BD043D2DFF839
S315202554F0100428600C2007F0BDFFDFF80814096882
