S0170000696C65645F626C696E6B795F636D372E7372656321
S315300004004643464200040156000000000103030043
S3153000041000000000000000000000000000000000A6
S315300004200000000000000000000000000000000096
S315300004300000000000000000000000000000000086
S31530000440100000000104070000000000000000005A
S315300004500000000100000000000000000000000065
S315300004600000000000000000000000000000000056
S315300004700000000000000000000000000000000046
S31530000480EB04180A001E04320426000000000000A7
S315300004900000000000000000000000000000000026
S315300004A00000000000000000000000000000000016
S315300004B00000000000000000000000000000000006
S315300004C000000000000000000000000000000000F6
S315300004D000000000000000000000000000000000E6
S315300004E000000000000000000000000000000000D6
S315300004F000000000000000000000000000000000C6
S3153000050000000000000000000000000000000000B5
S3153000051000000000000000000000000000000000A5
S315300005200000000000000000000000000000000095
S315300005300000000000000000000000000000000085
S315300005400000000000000000000000000000000075
S315300005500000000000000000000000000000000065
S315300005600000000000000000000000000000000055
S315300005700000000000000000000000000000000045
S315300005800000000000000000000000000000000035
S315300005900000000000000000000000000000000025
S315300005A00000000000000000000000000000000015
S315300005B00000000000000000000000000000000005
S315300005C000010000001000000100000000000000E3
S315300005D000000400000000000000000000000000E1
S315300005E000000000000000000000000000000000D5
S315300005F000000000000000000000000000000000C5
S31530001000D10020416961003000000000000000007E
S3153000101020100030001000300000000000000000FA
S31530001020000000300000000100000000FFFFFFFF5D
S315300020000000042069610030333A00304B3E003026
S31530002010833E0030A75B00300162003000000000D4
S315300020200000000000000000000000002B620030BD
S315300020303762003000000000D1640030FB5E0030B3
S31530002040596200306162003069620030716200307E
S3153000205079620030816200308962003091620030EE
S3153000206099620030A1620030A9620030B16200305E
S31530002070B9620030C1620030C9620030D1620030CE
S31530002080D9620030C9640030C9640030C964003098
S31530002090E1620030E9620030F1620030F96200300E
S315300020A0016300300963003011630030196300307A
S315300020B021630030296300303163003039630030EA
S315300020C0416300304963003051630030596300305A
S315300020D061630030696300307163003079630030CA
S315300020E0816300308963003091630030996300303A
S315300020F0A1630030A9630030B1630030B9630030AA
S31530002100C1630030C9630030C9640030C96400302F
S31530002110C9640030C9640030C9640030C964003015
S31530002120C9640030C9640030C9640030C964003005
S31530002130C9640030C9640030C9640030C9640030F5
S31530002140C9640030C9640030C9640030C9640030E5
S31530002150C9640030C9640030C9640030C9640030D5
S31530002160C9640030C9640030C9640030D1630030BE
S31530002170D9630030E1630030E9630030F163003049
S31530002180F96300300164003009640030C9640030FE
S31530002190C9640030C9640030C9640030C964003095
S315300021A0C9640030C9640030C9640030C964003085
S315300021B0C9640030C9640030C9640030C964003075
S315300021C0C964003011640030C9640030C96400301D
S315300021D0C9640030C9640030C9640030C964003055
S315300021E0C9640030C9640030C9640030C964003045
S315300021F0C9640030C964003019640030216400308D
S31530002200C9640030C9640030C9640030C964003024
S31530002210C9640030C9640030C9640030C964003014
S31530002220C9640030C9640030C9640030C964003004
S31530002230C9640030C9640030C9640030C9640030F4
S31530002240C9640030C964003029640030316400301C
S31530002250C96400303964003041640030C9640030EC
S31530002260C96400304964003051640030596400302C
S31530002270616400306964003071640030C9640030D4
S31530002280C9640030C9640030C9640030C9640030A4
S31530002290C9640030C9640030C9640030C964003094
S315300022A0C9640030C9640030C9640030C964003084
S315300022B0C9640030C9640030C9640030C964003074
S315300022C0C9640030C9640030C9640030C964003064
S315300022D0C9640030C9640030C9640030C964003054
S315300022E0C9640030C9640030C9640030C964003044
S315300022F0C9640030C9640030C9640030C964003034
S31530002300C9640030C9640030C9640030C964003023
S31530002310C9640030C9640030C9640030C964003013
S31530002320C9640030C9640030C9640030C964003003
S31530002330C9640030C9640030C9640030C9640030F3
S31530002340C9640030C9640030C9640030C9640030E3
S31530002350C9640030C9640030C9640030C9640030D3
S3153000236079640030816400308964003091640030D3
S31530002370C9640030C9640030C9640030C9640030B3
S31530002380C9640030C964003099640030A1640030FB
S31530002390A9640030B1640030C9640030C9640030CB
S315300023A0B9640030C1640030C9640030C96400309B
S315300023B0C9640030C9640030C9640030C964003073
S315300023C0C9640030C9640030C9640030C964003063
S315300023D0C9640030C9640030C9640030C964003053
S315300023E0C9640030C9640030C9640030C964003043
S315300023F0C9640030C9640030C9640030FFFFFFFF94
S31530002400DFF88017C0010858C0F302207047DFF8A4
S315300024107417C001085800F0FF00401C70470000D8
S3153000242070B50446FFF7ECFFDFF86457214605EB3D
S31530002430C101085C00F0E2FC06462046FFF7E7FFE4
S31530002440B6FBF0F4002C08D140F6C40205F51E7137
S3153000245003A000F0A5FDAFF30080204670BD00005C
S3153000246066726571000000000020D9E770B5044639
S3153000247060686838692808D3DFF80C07792200F1DC
S31530002480540100F08DFDAFF30080DFF80057286867
S31530002490800421D560682968014001F0FF0100F011
S315300024A0FF00814218D12078C0032968014001F429
S315300024B0C03100F4C03081420ED12868400403D4C4
S315300024C0286840F480402860286840002FD5286866
S315300024D020F08040286070BDDFF8D40600F06CFD37
S315300024E02E6826F0005616F4C04F04D026F4C046A7
S315300024F046F080462E60606860F30706207860F309
S31530002500D03646F0804646F400562E60BFF34F8FE5
S31530002510BFF36F8FDFF8F4161E2000F041FE2868F7
S315300025208000FCD526F0804646F480462E6070BD8D
S3153000253038B50446DFF8D0562868000222D5002C7C
S3153000254011D0207A296A090401D400280BD0616899
S315300025500A88120442EAC0324888C0F30E000243A9
S31530002560286A82420ED12868800403D4286840F451
S3153000257000502860286840004BD5286820F08040FD
S31530002580286031BDDFF8280600F016FD286B60F0B4
S315300025907F3028632968DFF87806014205D0DFF8F6
S315300025A07406014041F080412960002C11D0207A18
S315300025B000280ED0606800280BD0206820F04040FC
S315300025C0286660680188408840EA014040F400404F
S315300025D02862DFF880062860DFF8304621461E2064
S315300025E000F0DEFDDFF8740628602146FA2000F0A0
S315300025F0D7FDDFF86C06286028688000FCD5DFF848
S3153000260064062860DFF860062860286B20F080308A
S31530002610286331BD2DE9F84380460E46174600251E
S315300026202C46B946B9F1240FC0F209804FF49A729C
S31530002630DFF8D01539A000F0B3FCAFF30080B9F164
S315300026400C0F08DA40F23512DFF8B81539A000F071
S31530002650A7FCAFF30080B8F1020F03D0B8F1030F37
S3153000266007D00BE0DFF8040600F1500500F1300426
S315300026700DE0DFF8F84504F1100508E040F24312AA
S31530002680DFF88015A8A000F08BFCAFF30080F000D7
S315300026903F218140D5F800C001EA0C0C2CFA00FC31
S315300026A0802282402B6813404FF0080E2EFA06FE29
S315300026B023FA0EF35B1E9B41DB43DB0FBC4501D196
S315300026C0002B28D040238340D5F800E003EA0E0ED5
S315300026D0CDF800E0D5F800C042EA0C0CC5F800C0D1
S315300026E0D5F800C02CEA01012960296807F03F07B8
S315300026F007FA00F0084328602068022101FA06F63E
S3153000270046402660286820EA02022A600098296836
S3153000271019408842FAD0BDE8F183000066726163E1
S31530002720203C3D202875696E74385F7429333555E1
S315300027300000000066726163203E3D202875696E98
S3153000274074385F742931325500000000F8B50646FA
S315300027500D4600273C4602280CD003280AD0DFF865
S31530002760280440F2631200F15401B43000F018FC32
S31530002770AFF30080022E02D0032E0AD013E0DFF82A
S31530002780F004046C3F21E80081400C40DFF8E4742B
S3153000279012E0DFF8DC0404683F21E80081400C4099
S315300027A0DFF8D47408E040F27312DFF858145EA0F4
S315300027B000F0F6FBAFF30080ED00EC400C2C08D2B5
S315300027C04FF4BC72DFF83C140DA000F0E9FBAFF318
S315300027D00080242CC0F0098040F27912DFF82414EE
S315300027E00DA000F0DDFBAFF30080002C05D0B7FB69
S315300027F0F4F000EBC0014800F2BD0020F2BD00004D
S3153000280066726163203E3D202875696E7433325F8F
S31530002810742931325500000066726163203C3D20D8
S315300028202875696E7433325F74293335550000006C
S3153000283038B5DFF82445206880020ED5206880043C
S3153000284003D4206840F4005020602068400028D52A
S31530002850206820F08040206031BDDFF8540300F05E
S31530002860ABFB206A60F07F302062DFF87C052060A9
S31530002870DFF8985329461E2000F092FCDFF86C05ED
S31530002880206029461E2000F08BFCDFF864052060AE
S3153000289020688000FCD5DFF85C052060DFF858053D
S315300028A0206031BD80B5052834D8DFE800F0030F4D
S315300028B0131F2B2FDFF8D4020029016802D041F410
S315300028C0003101E021F40031016001BD0120BDE895
S315300028D004403AE0DFF8B4020029016C02D041F43A
S315300028E0803101E021F48031016401BDDFF89C02C2
S315300028F00029016902D041F4803101E021F48031B0
S31530002900016101BD0220BDE804401EE00320BDE8A0
S3153000291004401AE040F20122DFF8E8124BA000F042
S315300029203FFBAFF3008001BD300000000A0002D04B
S315300029304FF4005200E00022002901D0042100E0CB
S31530002940082142F4804200F0A5BD002901D00421BF
S3153000295000E008214FF4803200F09CBD002901D000
S31530002960042100E008214FF4800200F093BD0029D5
S3153000297001D0042100E008214FF4005200F08ABD56
S3153000298038B504460D460121FFF7F1FFDFF8C812CE
S31530002990284600F005FC00212046BDE83440E6E735
S315300029A0002901D0042100E008214FF4004200F054
S315300029B071BD002901D0042100E008214FF4004206
S315300029C000F068BDF8B504460E4617461D46012888
S315300029D002D00021FFF7AAFF0798002809D04288C5
S315300029E0008842EA004242F400421021204600F0BC
S315300029F051FD069A3021204600F04CFD3A46202102
S31530002A00204600F047FD002000907F2332460146E5
S31530002A10204600F047FD2046012808D019200090B6
S31530002A204FF060632A460021204600F03BFD01212D
S31530002A302046FFF793FFDFF82012642000F0B0FB4A
S31530002A4001212046BDE8F44070E700003000000068
S31530002A50DFF800150028086803D120F480400860AC
S31530002A60704740F4804008607047DFF8E81400286B
S31530002A70086803D120F400500860704740F40050D5
S31530002A800860704780B50020FFF7EFFF0120FFF7A1
S31530002A90DFFF00210220FFF78CFF00210220FFF725
S31530002AA045FF00210220FFF77BFF00210220BDE811
S31530002AB0044053E7DFF8A8140028086803D120F44F
S31530002AC080400860704740F4804008607047DFF807
S31530002AD090140028086803D120F40050086070472D
S31530002AE040F40050086070477CB5054600263048F3
S31530002AF000F062FADFF86844206800F02020B0F178
S31530002B00202F00D1012601210320FFF71EFF002EC2
S31530002B1011D00020FFF7DBFF0120FFF7CBFF0021AC
S31530002B200320FFF746FF00210320FFF7FFFE0021B9
S31530002B300320FFF713FF0120FFF7C9FF287C002889
S31530002B4002D0E868002800D100200190A8680090E3
S31530002B506B786A6829780320FFF734FFE121032078
S31530002B60FFF70EFF20688000FCD501210320FFF718
S31530002B7020FF0020FFF79EFF00210320BDE87C40A8
S31530002B80E3E600000000CC40C05800300042C840A8
S31530002B9064540030DFF8D0130028086803D120F4DD
S31530002BA080400860704740F48040086070470000FD
S31530002BB00040C840DFF8B0130028086803D120F081
S31530002BC000700860704740F0007008607047DFF8AA
S31530002BD098130028086803D120F080600860704799
S31530002BE040F0806008607047DFF87C130028086882
S31530002BF003D120F400500860704740F4005008605C
S31530002C0070470000145900304042C84000CA9A3B11
S31530002C1000208000FFDF7FFF80B50020FFF7E4FF54
S31530002C200020FFF7C7FF0020FFF7D1FF0120FFF795
S31530002C30B1FF00210120FFF7BCFE00210120FFF784
S31530002C4075FE00210120FFF7ABFE00210120BDE813
S31530002C50044083E60800004000CA9A3B08088040DA
S31530002C600800804008208040082080002042C8406C
S31530002C703042C84000A4781F00389C1C10B504466A
S31530002C803021042000F00AFC20F4A060210002D19B
S31530002C9040F4807003E0012C01D140F4806002469C
S31530002CA030210420BDE8104000F0F4BB38B52DEDDE
S31530002CB0048B044604280DD005280BD0DFF8A40277
S31530002CC04FF4AC6200F1540100F5A47000F068F9DD
S31530002CD0AFF300802046042801D1022000E0032013
S31530002CE0002100F0DBFBC0F3426500F07F0008EE08
S31530002CF0100A2046042801D1022000E003203021AA
S31530002D0000F0CCFB00EE100AB8EE409B042C01D14B
S31530002D10022000E00320202100F0C0FB00EE100A64
S31530002D20B8EE400BB8EE481B80EE090B31EE000BC7
S31530002D309FED892B20EE020B012000FA05F501EEFE
S31530002D40105AB8EE411B80EE010BBCEEC00B10EEF4
S31530002D50100ABDEC048B32BD1042C84010B50024B9
S31530002D6005282AD8DFE800F00316191C1F24DFF8DF
S31530002D700002016801F0FF010068C0F3C130DFF8DE
S31530002D80F4210123401C03FA00F04000B2FBF0F4BA
S31530002D904C431BE0DFF8E04118E0DFF8E04115E096
S31530002DA0DFF8DC4112E00420FFF780FF04460DE037
S31530002DB00520FFF77BFF044608E040F2AA52DFF811
S31530002DC0AC1163A000F0ECF8AFF30080002C09D111
S31530002DD040F2AD52DFF894110FF2B81000F0E0F87F
S31530002DE0AFF30080204610BD100000401008204090
S31530002DF010002040182020401820200010B5002454
S31530002E001E2800F28380DFE800F010131916191916
S31530002E101C1C2121262C32383E3E43494F555B61DE
S31530002E2061666C737378787D7D00DFF8584176E0A3
S31530002E30DFF8544173E0DFF8544170E0DFF8344195
S31530002E406DE02046FFF78AFF044668E00220FFF770
S31530002E5085FF044663E021460220FFF777FC0446EF
S31530002E605DE001210220FFF771FC044657E00221A4
S31530002E700846FFF76BFC044651E003210220FFF7BA
S31530002E8065FC04464BE00320FFF768FF044646E046
S31530002E900320FFF763FF0446640840E02146032021
S31530002EA0FFF754FC04463AE001210320FFF74EFCBD
S31530002EB0044634E002210320FFF748FC04462EE0A6
S31530002EC003210846FFF742FC044628E00120FFF7BD
S31530002ED045FF044623E00120FFF740FF044664081F
S31530002EE01DE00120FFF73AFF0521B0FBF1F416E0B3
S31530002EF00420FFF733FF044611E00520FFF72EFFCD
S31530002F0004460CE0FFF7B0FA044608E040F21962D6
S31530002F10DFF858100EA000F043F8AFF30080002C15
S31530002F2009D140F21C62DFF844100FF2680000F05D
S31530002F3037F8AFF30080204610BDDFF85400016843
S31530002F40490849000160016941F00101016170479A
S31530002F50300000000043C8400000000060E37641C6
S31530002F605043C840C0580030C042C84014590030A1
S31530002F700042C84000366E0100CA9A3B00A4781F52
S31530002F8000389C1C0024F400006CDC020084D71747
S31530002F905040C8406672657120213D2030554C0046
S31530002FA080B513460A460146024800F032FB00BEA1
S31530002FB0FDE700BF3C61003038B5044640F20515E8
S31530002FC00021084600F06AFAA8420FD02A460021AE
S31530002FD0084600F05FFADFF8B411012000F0E0F89F
S31530002FE0D4F8700540F01000C4F8700531BD38B51E
S31530002FF00446DFF898510029D4F810051AD120F08C
S315300030000500C4F8100529464FF47A7000F0C8F868
S31530003010D4F8100520F02000C4F8100529464FF4E6
S315300030207A7000F0BDF8D4F8100520F40020C4F80A
S31530003030100531BD40084000C4F8100529464FF44C
S315300030407A7000F0ADF8D4F8100540F40020C4F8DA
S31530003050100529464FF47A7000F0A2F8D4F810051E
S3153000306040F02000C4F8100529464FF47A7000F07D
S3153000307097F8D4F8100540F00400C4F8100531BDB7
S3153000308038B50446DFF804510029D4F830051AD093
S3153000309040F40030C4F8300529464FF47A7000F019
S315300030A07FF8D4F8300540F48020C4F8300529463E
S315300030B04FF47A7000F074F8D4F8300520F004003C
S315300030C0C4F8300531BD40F00400C4F83005294657
S315300030D04FF47A7000F064F8D4F8300520F480208C
S315300030E0C4F8300529464FF47A7000F059F8D4F810
S315300030F0300520F40030C4F8300531BD002A3DD00B
S31530003100002903D0022927D014D3704700F5AA60CE
S3153000311001684908490041F002010160016921F462
S31530003120E05141F0807141F48061016101694901EA
S315300031302AD4FBE700F5AA60016889088900016096
S31530003140016921F4E05141F0807141F4006101617F
S315300031500169490118D4FBE700F5AA6001688908BE
S3153000316089000160016921F4E05141F0807141F438
S31530003170805101610169490106D4FBE700F5AA6176
S315300031800A69034802400A617047000000CA9A3B48
S31530003190FFE3FFFE0046401E0028FCD170470000CA
S315300031A0002800D1704738B5A1FB00010F4A002333
S315300031B000F05AFA04460D46002001218D420AD30A
S315300031C001D8844207D3C522DFF8241009A0FFF7BF
S315300031D0E7FEAFF30080204629460322002300F0A5
S315300031E043FA4000BDE83240D4E7000040420F00C9
S315300031F0D4600030636F756E74203C3D2030786645
S3153000320066666666666666550000000030B4062857
S315300032101AD8DFE810F007002A005B009100C600DC
S31530003220F30014019648974C002921680FD021F4F9
S31530003230803121602168090A52EA01222260236125
S31530003240016881F480310160002030BC704741F460
S31530003250803121602168090A52EA01222260016820
S3153000326081F480310160206AEFE78648002916D064
S31530003270046B04F40074016B21F480310163016B3B
S31530003280090A52EA012202630364016B81F48071F8
S315300032900163016B01F40071A142FAD0D4E7036BEC
S315300032A003F40073016B41F480310163016B090A49
S315300032B052EA01220263016B81F480710163016B72
S315300032C001F400719942FAD0006DBEE76D480029CD
S315300032D01AD0046E04F40074016E21F48031016654
S315300032E0016E090A52EA012202660367016E81F411
S315300032F080710166016E01F40071A142FAD0016E4F
S3153000330021F4803101669FE7036E03F40073016E8A
S3153000331041F480310166016E090A52EA01220266E1
S31530003320016E81F480710166016E01F4007199427B
S31530003330FAD05548006888E7534800291AD00469FE
S3153000334004F40074016921F4803101610169090ACC
S3153000335052EA012202610362016981F480710161DE
S31530003360016901F40071A142FAD0016921F480317A
S31530003370016169E7036903F40073016941F480313F
S3153000338001610169090A52EA01220261016981F487
S3153000339080710161016901F400719942FAD0006BC4
S315300033A053E73A4C0029216801F40071206812D0A5
S315300033B020F4803020602068000A52EA0022226021
S315300033C02361206880F480702060206800F40070EB
S315300033D08842FAD038E740F4803020602068000A0E
S315300033E052EA00222260206880F4807020602068D3
S315300033F000F400708842FAD0206A26E7224C244D29
S315300034000029206C0DD020F480302064206C000A16
S3153000341052EA002222642365286880F4004028603E
S3153000342012E740F480302064206C000A52EA002211
S315300034302264286880F400402860206F05E7104831
S31530003440114C0029216C0DD021F480312164216C7E
S31530003450090A52EA012222642365016F81F00101D3
S315300034600167F1E641F480312164216C090A52EAA0
S3153000347001222264016F81F001010167206EE4E6CA
S315300034800045C8402048C840A048C8402049C840E8
S315300034900044C84013460A460121B7E60A460023CF
S315300034A01946B3E62DE9F04104460D4616461F4649
S315300034B0DDF81880FFF7F2FFB84306FA08F63E400B
S315300034C00643324629462046BDE8F041E2E730B4AD
S315300034D0002513E050F8042BD30744BFA9F10103AC
S315300034E09A18091F042942F8045BFAD213468C074E
S315300034F044BF15809B1CC90748BF1D7050F8041B7C
S315300035000029E7D130BC704710B50C460028FDD0F5
S31530003510002C03D04E4B596A002901D1002010BD32
S315300035202246014603F11C0000F028FA002801D09B
S315300035304FF0FF34204610BD2DE9F04104460D46CC
S3153000354016461F464FF000080FE02968481C8028B1
S3153000355004D32046FFF7D8FF002028602868265479
S315300035602868401C286008F10108B845EDDBBDE845
S31530003570F08100002DE9F04188B006460F46154629
S31530003580984600244FEA0D0033A1102200F00EFABF
S31530003590CDF8008001978DF80E608DF8185048F6FA
S315300035A04170ADF81A0043F221502946012902D163
S315300035B06946079108E0022901D1044604E003294F
S315300035C001D1044600E0044684421ED0204D00223C
S315300035D02021281D00F02EFA05F10800686004A9A4
S315300035E000F080F90028FDD1287805F11C016868C3
S315300035F000F091F90028FDD105F12001686800F04E
S31530003600A0F90400FED168686862204608B0BDE8BB
S31530003610F0810EB430B5A0B0044600252A4680218C
S31530003620684600F007FA0A48406A00280AD023A9FB
S31530003630084B6A46204600F0E8FA01466846FFF72E
S3153000364063FF0546284620B030BC5DF810FB00000D
S315300036500400002039350030000000000000000072
S315300036600000010100000000BBBBE1B1B2F5803FB4
S3153000367080F07E80022A1ED98C46B1FBF2F102FB25
S3153000368011C31B0443EA1043B3FBF2FC02FB1C33A9
S3153000369080B240EA0343B3FBF2F002FB103240EA59
S315300036A00C4000237047022A05D98446B0FBF2F05D
S315300036B002FB10C270474AB105D100F00102490839
S315300036C05FEA3000704700220023704700F076BB77
S315300036D00B000200002100207047904271EB030C72
S315300036E0F6D3B3F5803F2FD2F0B5B3FA83F7B1FAFC
S315300036F081F4A7F10F0E3D1B5340CEF1200602FA9E
S315300037000EF2F3415340B5F10F0746D80F3C2C4427
S315300037104140C4F12006A040F1414140B1FBF3F6EF
S3153000372003FB1611A2FB0645001BA94102D2761EE9
S315300037308018594180EA010221FA0EF362FA0EF23C
S3153000374000215A403046F0BD30B4B1FBF3FC03FBE8
S315300037501C11A2FB0C45001BA94103D2ACF1010C94
S315300037608018594130BC02460B46604600217047EE
S31530003770B2F1807F65D3F0B5B2FA82F7B1FA81F44F
S31530003780C7F10F063D1B22FA06F307F1110EF2417F
S3153000379020355A40B5F10F07B8D94140C4F120065B
S315300037A0A040F1414140B1FBF3FC03FB1C11A2FBED
S315300037B00C45001BA94103D2BCF1010C80185941BC
S315300037C00F2F12D30F3FC90341EA5041B1FBF3F635
S315300037D003FB1611A2FB0645D4EBC030A94102D239
S315300037E0761E8018594146EACC3C07B34140C7F1B2
S315300037F02006B840F1414140B1FBF3F603FB161108
S31530003800A2FB0645001BA94102D2761E80185941FB
S3153000381080EA010221FA0EF3C7F1200462FA0EF2B1
S315300038200CFA07F05A402CFA04F13043F0BD80EA26
S31530003830010221FA0EF3002162FA0EF260465A4076
S31530003840F0BD8C46B1FBF2F102FB11C31B0243EA19
S315300038501063B3FBF2FC02FB1C331B024CEA002064
S3153000386043EA1063B3FBF2FC02FB1C331B024CEA47
S31530003870002043EA1063B3FBF2FC02FB1C331B024D
S315300038804CEA002043EA1063B3FBF2FC02FB1C3225
S315300038904CEA002000237047EFF3108072B6704771
S315300038A080F31088704710B511461A4643F22153FB
S315300038B00478012C03D10C3000F08CFA03461846FC
S315300038C010BD18B413460028FDD00029FDD0002BBA
S315300038D0FDD00468002CFDD00A460146204601B0D2
S315300038E010BCE0E770B505460C0043F22156FED019
S315300038F0002DFDD00022142100F074FA207A2870B1
S31530003900207A012805D1E16805F10C0000F057FA5C
S315300039100646304670BD38B505460C46002DFDD0FE
S31530003920002CFDD0FFF7B8FFA968491CA960FFF746
S31530003930B7FF00220421204600F054FA256000200B
S3153000394032BDF8B505460C460026002DFDD0002CBC
S31530003950FDD0FFF7A1FF07466868002802D043F282
S31530003960225606E06C6032460421204600F03AFAD0
S3153000397025603846FFF794FF3046F2BDA1E730B4F4
S315300039800EE00268436802440830DC0744BFA9F100
S315300039900104E31852F8045B43F8045B091FF9D1BC
S315300039A050F8041B0029ECD130BC7047103A07D3CD
S315300039B030B4B1E83810103AA0E83810F9D230BC3B
S315300039C0530724BFB1E80810A0E8081044BF51F8E7
S315300039D0043B40F8043BD20724BF31F8022B20F8D1
S315300039E0022B44BF0B7803707047121F17D35B004E
S315300039F009D151F8043B20F8023B1B0C121F20F86A
S31530003A00023BF6D20BE051F8043B00F8013B1B0AAF
S31530003A1020F8023B1B0C121F00F8013BF3D238BFD3
S31530003A20121D521E24BF11F8013B00F8013BF8D895
S31530003A307047FEE762F30F2262F31F4200B500BF04
S31530003A40130096469446103928BFA0E80C50FAD891
S31530003A505FEA417C28BF0CC048BF40F8042BC90739
S31530003A6028BF20F8022B48BF00F8012B00BD30B428
S31530003A7001460020024605E000EB8004184600EBC4
S31530003A804400303813000AD10C68631C0B601B7875
S31530003A90A3F130050A2DEFD30C600122F2E730BCDA
S31530003AA0704730B40146062000220B685C1C25782E
S31530003AB02E2D13D11046234605E000EB8005204617
S31530003AC000EB45003038140008D113F8014FA4F14B
S31530003AD030050A2DF1D35B1E0122F4E70B6030BCB2
S31530003AE07047014600200A466F2A05D0622A03D065
S31530003AF0702A01D0752900D1012070470146002077
S31530003B000A46642A01D0692900D101207047F8B5E8
S31530003B100B46069C079D089E099F9B1A2022394614
S31530003B203046A84705E0012314F8012939463046C6
S31530003B30A84720780028F6D1F1BDF8B50B46069C8B
S31530003B40079D089E099F9B1A202239463046A84772
S31530003B5005E0012314F8012939463046A847207874
S31530003B600028F6D1F1BD014600200A46662A01D06A
S31530003B70462900D101207047014600200A46782A9E
S31530003B8001D0582900D101207047016811F8012F62
S31530003B90682AFBD06C2AF9D0491E0160704701466D
S31530003BA06F2901D108207047622901D10220704760
S31530003BB0702801D1102070470A20704770B4039CDA
S31530003BC00022154600F8015B096800290FD1302123
S31530003BD00170012017E0612502E02500FBD0412568
S31530003BE00A3D69180D46314600F8015B521C002922
S31530003BF008D0B1FBF3F603FB16110A29EDD23031AA
S31530003C000D46F0E7104670BC70472DE9F24191B091
S31530003C1015461E46002105910691049006E00123C3
S31530003C2005A92846B0470498401C049004980278A9
S31530003C30002A39D010462528F1D1012411A904A82B
S31530003C40FFF715FF0746002211A904A8FFF729FF41
S31530003C5004A8FFF79AFF0498401C049090F800805F
S31530003C604046FFF74BFF012822D111980068119981
S31530003C70091D11910790204600900A23024607A994
S31530003C8008A8FFF79BFF05A903910295019608A99D
S31530003C90014400910023024639461846FFF737FFA4
S31530003CA00498401C0490C1E7059812B0BDE8F08135
S31530003CB04046FFF758FF012806D11198C01D20F065
S31530003CC0070008301190EBE74046FFF755FF012813
S31530003CD01FD1B8F1780F00D10024119800681199DE
S31530003CE0091D11910690204600901023002206A946
S31530003CF008A8FFF763FF05A903910295019608A965
S31530003D00014400912346024639460020FFF715FF4D
S31530003D10C6E74046FFF7E5FE01281ED11198006838
S31530003D201199091D119106904046FFF738FF21463B
S31530003D3000910346002206A908A8FFF73FFF05A910
S31530003D4003910295019608A9014400910023024689
S31530003D5039461846FFF7DBFEA2E7404663280BD10B
S31530003D60119800681199091D119123460246D2B265
S31530003D7005A92846B04793E7732819D111980468E6
S31530003D80001D1190002C8BD0204600F05FF83F1AB2
S31530003D903B46202205A92846B047207800283FF424
S31530003DA07FAF012314F8012B05A92846B047F4E765
S31530003DB02346424605A92846B04771E7704780B585
S31530003DC00029FDD00028FDD000F0A4F80028FDD150
S31530003DD0002002BD0028FDD00029FDD0002AFDD0EC
S31530003DE000F0D8B862F30F2262F31F42401810F089
S31530003DF0030308D0C91A1FD3DB0748BF00F8012DCB
S31530003E0028BF20F8022D130030B414461546103959
S31530003E1028BF20E93C00FAD8490728BF20E90C0022
S31530003E2048BF40F8042D890028BF20F8022D48BF2E
S31530003E3000F8012D30BC7047C91818BF00F8012DA5
S31530003E40CB0728BF00F8012D7047FEE700F10103CC
S31530003E50810704D010F8011B820781B1FAD10268BC
S31530003E60A2F10131914311F0803104BF50F8042F93
S31530003E70F6E709BAB1FA81F100EBD100401CC01A5D
S31530003E807047FEE7002801D10020704742F6AF7038
S31530003E90704730B585B00C460025684600F01EFAEE
S31530003EA060680090207A8DF80400607A8DF80700FB
S31530003EB0A07A401E8041C043C00F8DF81100E07AD1
S31530003EC0401E8041C043C00F8DF81000207B401E3D
S31530003ED08041C043C00F8DF80A00607B401E804190
S31530003EE0C043C00F8DF80B0001208DF80E008DF801
S31530003EF00F00226869464048A37B50F8230000F043
S31530003F00CFF8002802D0FFF7BDFF0546284605B09A
S31530003F1030BD000070B504460D46374E002C08D132
S31530003F204FF4057206F1340134A0FFF739F8AFF3D8
S31530003F300080002D40F0098040F2152206F1340150
S31530003F4031A0FFF72DF8AFF30080A87B0D2809D3F9
S31530003F5040F2162206F1340106F19400FFF720F8FC
S31530003F60AFF30080A87B56F82000002809D140F234
S31530003F70172206F1340106F1E000FFF711F8AFF32E
S31530003F80008029462046FFF784FF010001D1A97B36
S31530003F90217070BDF8B506460D461446164F002EF4
S31530003FA040F0098040F26F2207F1340113A0FEF78A
S31530003FB0F7FFAFF30080002D40F009804FF41C72FC
S31530003FC007F1340113A0FEF7EBFFAFF30080002CAE
S31530003FD040F0098040F2712207F1340110A0FEF75B
S31530003FE0DFFFAFF3008022462946307857F82000AD
S31530003FF000F0A0F90020F2BDD05C00303020213D29
S315300040002068616E646C65003020213D20636F6EE0
S31530004010666967003020213D2064617461000000CC
S315300040206C656E677468203E2030550010B44001D0
S31530004030DFF8482301F00103145804F00104A342C9
S3153000404006D001F001011150BFF34F8FBFF36F8FD0
S3153000405010BC70470121E9E7816841F002018160B7
S31530004060816821F002018160704710B5002400E0BC
S31530004070641C0D2C05D2DFF8081351F82410814248
S31530004080F6D10D2C09D3DFF8F8027B2200F174014A
S315300040903430FEF785FFAFF30080204610BD0000B8
S315300040A02DE9F84306460C461546002C08D1F22277
S315300040B0DFF8D0120FF27020FEF772FFAFF30080F8
S315300040C02068002807D1F322DFF8B81278A0FEF76F
S315300040D067FFAFF30080207A042809DDDFF8A002FD
S315300040E0F52200F17401D830FEF75AFFAFF30080A5
S315300040F0607A04280ADDDFF88802F62200F17401BE
S3153000410000F58070FEF74CFFAFF300800027206883
S31530004110B84639464FF0040EAC460D4628E089467F
S315300041201146A9EB01011CE00CEB8C035B0002FB92
S3153000413001F9B3FBF9F35B1D4FF00A09B3FBF9F351
S3153000414099461FFA89F9B9F1000F00D10123994632
S315300041501FFA89F909FB02F2BCFBF2F29142DED278
S31530004160511A884202D30846F0461D460EF1010E1A
S3153000417021687246D2B2202AD6D96422B1FBF2F136
S3153000418001EB4101814202D240F221578DE03046A7
S31530004190FFF76BFF4DA1085CFFF75CFF3046FFF77A
S315300041A05BFF31695FFA88F8A8F10400042801D270
S315300041B041F40031DFF8F4010140A8F101084FEA7B
S315300041C0086808F0F85848EA0101ADB2C5F30C05A5
S315300041D00D433561306920F000503061B169DFF848
S315300041E0E401014020790246E37B1B0203F4E063DD
S315300041F01A43A37B9B0003F004031A4311436279ED
S31530004200012A07D1002802D021F4006106E041F4EA
S31530004210006103E0002801D041F01001B16130693E
S3153000422020F40050E179490301F40051084330612C
S31530004230607A217A41EA0041F162B06A40F0880042
S31530004240B062B06A40F44040B062DFF8B401716ADF
S31530004250627B120102F01002237B5B0103F0200324
S315300042601A4311437162A17A012903D1716A41F06F
S3153000427008017162E17A012903D1716A41F00101C5
S315300042807162A179012901D1DFF8D401716908433E
S315300042907061B069217C012901D140F40020617C34
S315300042A0012901D140F48020B0613846BDE8F2835F
S315300042B03055203C20636F6E6669672D3E626175AE
S315300042C064526174655F4270730000008A565758B5
S315300042D0595A5B5C5D5E5F606100000010B504009A
S315300042E040F0098040F20622DFF878110EA0FEF782
S315300042F057FEAFF30080002214212046FFF79AFBC9
S315300043004FF4E1302060002020716071A071E071BF
S3153000431020726072A072E07260732073A073E073D3
S315300043202074607410BD00003020213D20636F6E14
S315300043306669670070B506460D461446002D10D1E5
S3153000434040F29632DFF81C1109A0FEF729FEAFF3D2
S31530004350008006E070690002FCD515F8010BF061AB
S31530004360641E002CF6D170694002FCD5002070BD69
S315300043703020213D20646174610000000060CC4033
S31530004380A85B00301C5C003080B5374A516837482E
S31530004390526B9047BFF34F8F01BD80B5324A91685B
S315300043A03348526B9047BFF34F8F01BD00E0FFE0BB
S315300043B080B52D4AD1682F48526B9047BFF34F8F47
S315300043C001BD0000E8F8FFFF80B5274A11692A4889
S315300043D0526B9047BFF34F8F01BD80B5224A51696A
S315300043E02648526B9047BFF34F8F01BD80B51E4AAA
S315300043F091692348526B9047BFF34F8F01BD000040
S3153000440000C01FC080B5184AD1691E48526B90470C
S31530004410BFF34F8F01BD80B5134A116A1A48526BEC
S315300044209047BFF34F8F01BD80B50F4A516A174889
S31530004430526B9047BFF34F8F01BD80B50A4A916AE0
S315300044401348526B9047BFF34F8F01BD80B5064A74
S31530004450D16A1048526B9047BFF34F8F01BD0000B1
S3153000446000C01FE01C5C00302C00002000C007405C
S3153000447000000840004008400080084000C0084066
S3153000448000000940004009400080094000C0094052
S3153000449000000A400040C240DFF86C19C0010858DD
S315300044A0C0F302207047DFF86019C001085800F0E9
S315300044B0FF00401C704738B505460C0009D140F660
S315300044C06F02DFF848190FF67810FEF769FDAFF383
S315300044D000802078002801D0000600E000206178B6
S315300044E0090201F4E061A278521E02F0FF02114384
S315300044F00843DFF81419ED014851BFF34F8FBFF36E
S315300045006F8F31BD70B50446FFF7C6FFDFF800592F
S31530004510214605EBC101085CFEF770FC06462046D5
S31530004520FFF7C1FFB6FBF0F4002C09D140F6C40208
S3153000453005F51E710FF61010FEF732FDAFF3008051
S31530004540204670BDDFF8CC180028086803D040F04C
S3153000455002000860704720F0020008607047DFF8FC
S31530004560B4180028086803D040F08070086070479F
S3153000457020F0807008607047DFF89C1800280868C3
S3153000458003D040F002000860704720F00200086057
S31530004590704710B40B46082B07DD8168890802F096
S315300045A0030252EA8102826021E0072B07DB416871
S315300045B0890802F0030252EA8102426017E0042BB6
S315300045C004680ADB03238B4024EA030302F0030268
S315300045D002FA01F11943016009E007238B4024EA0E
S315300045E0030302F0070202FA01F11943016010BC1D
S315300045F0704710B4C468DFF824381C40890201F4CF
S31530004600806121431143C16010BC7047426922F07A
S3153000461000524261426822F4F852090201F4F8511C
S315300046201143416081680029FCD570471CB50022D2
S3153000463003216846FFF7FEF9DFF8E447204600F02D
S315300046401BFCDFF8E0070168DFF8DC27914209D16F
S31530004650006900F0FF000B2804D116212046FFF731
S31530004660D5FF03E015212046FFF7D0FFDFF8BC4722
S31530004670DFF8BC070068C0F30010002805D101221E
S3153000468000212046FEF73AFD04E00022114620467E
S31530004690FEF734FD01212046FEF7A9FC0121204614
S315300046A0FEF7EEFC0220FEF7E9FADFF8880701682C
S315300046B041F002010160FEF740FC0120FFF75CFF8C
S315300046C00120FFF73FFF0120FFF749FF206A40F046
S315300046D014002062206A4000FCD500208DF80100CD
S315300046E001208DF8020069460020FFF7E4FE002025
S315300046F08DF8010001208DF8020069460820FFF789
S31530004700DAFE0FF24C70FDF7B1FE01210846FEF7D6
S31530004710C9F8FEF781FA0FF24070FDF709FF1B2248
S3153000472000210220FDF776FF102201210220FDF73D
S3153000473071FF182202210846FDF76CFF2022032163
S315300047400220FDF767FFFEF773F80D2200210320E4
S31530004750FDF760FF112201210320FDF75BFF2022C8
S3153000476002210320FDF756FF162203210846FDF7E6
S3153000477051FF01210420FEF795F8FEF783F90FF279
S31530004780E460FEF7B1F904208DF8010001208DF8C0
S31530004790020069460020FFF78EFE04208DF80100E6
S315300047A002208DF802006946FFF785FE06208DF857
S315300047B0010003208DF8020069460420FFF77BFED6
S315300047C000208DF8010001208DF802006946052091
S315300047D0FFF771FE07208DF8010004208DF80200E6
S315300047E069460620FFF767FE00208DF80100F020AD
S315300047F08DF8020069460820FFF75DFE00208DF82F
S31530004800010001208DF8020069460920FFF753FEAA
S3153000481000208DF8010001208DF8020069460A203B
S31530004820FFF749FE00208DF8010001208DF80200C7
S3153000483069460B20FFF73FFE00208DF8010001206E
S315300048408DF8020069460C20FFF735FE00208DF802
S31530004850010001208DF8020069460D20FFF72BFE7E
S3153000486000208DF8010001208DF8020069460E20E7
S31530004870FFF721FE00208DF8010001208DF802009F
S3153000488069460F20FFF717FE00208DF80100012042
S315300048908DF8020069461020FFF70DFE00208DF8D6
S315300048A0010001208DF8020069461120FFF703FE52
S315300048B000208DF8010001208DF802006946122093
S315300048C0FFF7F9FD00208DF8010001208DF8020078
S315300048D069461320FFF7EFFD00208DF80100012017
S315300048E08DF8020069461520FFF7E5FD00208DF8AA
S315300048F0010001208DF8020069461620FFF7DBFD26
S3153000490000208DF8010001208DF80200694617203D
S31530004910FFF7D1FD00208DF8010001208DF802004F
S3153000492069461820FFF7C7FD06208DF801001620CE
S315300049308DF8020069461920FFF7BDFD06208DF877
S31530004940010016208DF8020069461A20FFF7B3FDE4
S3153000495000208DF8010001208DF8020069461B20E9
S31530004960FFF7A9FD00208DF8010001208DF8020027
S3153000497069461C20FFF79FFD00208DF801000120BD
S315300049808DF8020069461D20FFF795FD00208DF851
S31530004990010001208DF8020069461E20FFF78BFDCD
S315300049A000208DF8010001208DF8020069461F2095
S315300049B0FFF781FD00208DF8010001208DF80200FF
S315300049C069462020FFF777FD00208DF80100012091
S315300049D08DF8020069462120FFF76DFD00208DF825
S315300049E0010001208DF8020069462220FFF763FDA1
S315300049F000208DF8010001208DF802006946232041
S31530004A00FFF759FD00208DF8010001208DF80200D6
S31530004A1069462420FFF74FFD00208DF80100012064
S31530004A208DF8020069462520FFF745FD00208DF8F8
S31530004A30010001208DF8020069462620FFF73BFD74
S31530004A4000208DF8010001208DF8020069462720EC
S31530004A50FFF731FD00208DF8010001208DF80200AE
S31530004A6069462820FFF727FD00208DF80100012038
S31530004A708DF8020069462920FFF71DFD00208DF8CC
S31530004A80010001208DF8020069462A20FFF713FD48
S31530004A9000208DF8010001208DF8020069462B2098
S31530004AA0FFF709FD00208DF8010001208DF8020086
S31530004AB069462C20FFF7FFFC00208DF8010001200D
S31530004AC08DF8020069462D20FFF7F5FC00208DF8A1
S31530004AD0010001208DF8020069462E20FFF7EBFC1D
S31530004AE000208DF8010001208DF8020069462F2044
S31530004AF0FFF7E1FC00208DF8010001208DF802005F
S31530004B0069463020FFF7D7FC00208DF801000120E0
S31530004B108DF8020069463120FFF7CDFC00208DF874
S31530004B20010001208DF8020069463220FFF7C3FCF0
S31530004B3000208DF8010001208DF8020069463320EF
S31530004B40FFF7B9FC00208DF8010001208DF8020036
S31530004B5069463420FFF7AFFC00208DF801000120B4
S31530004B608DF8020069463520FFF7A5FC00208DF848
S31530004B70010001208DF8020069463620FFF79BFCC4
S31530004B8000208DF8010001208DF80200694637209B
S31530004B90FFF791FC00208DF8010001208DF802000E
S31530004BA069463820FFF787FC00208DF80100012088
S31530004BB08DF8020069463920FFF77DFC00208DF81C
S31530004BC0010001208DF8020069463A20FFF773FC98
S31530004BD000208DF8010001208DF8020069463B2047
S31530004BE0FFF769FC00208DF8010001208DF80200E6
S31530004BF069463C20FFF75FFC00208DF8010001205C
S31530004C008DF8020069463D20FFF755FC00208DF8EF
S31530004C10010001208DF8020069463E20FFF74BFC6B
S31530004C2000208DF8010001208DF8020069463F20F2
S31530004C30FFF741FC00208DF8010001208DF80200BD
S31530004C4069464020FFF737FC00208DF8010001202F
S31530004C508DF8020069464120FFF72DFC00208DF8C3
S31530004C60010001208DF8020069464220FFF723FC3F
S31530004C7000208DF8010001208DF80200694643209E
S31530004C80FFF719FC07208DF8010002208DF802008D
S31530004C9069464420FFF70FFC00208DF80100012003
S31530004CA08DF8020069464520FFF705FC00208DF897
S31530004CB0010001208DF8020069464620FFF7FBFB14
S31530004CC000208DF8010001208DF80200694647204A
S31530004CD0FFF7F1FB00208DF8010001208DF802006E
S31530004CE069464820FFF7E7FB00208DF801000120D8
S31530004CF08DF8020069464920FFF7DDFB00208DF86C
S31530004D00010001208DF8020069464A20FFF7D3FBE7
S31530004D1000208DF8010001208DF8020069464B20F5
S31530004D20FFF7C9FB00208DF8010001208DF8020045
S31530004D3069464C20FFF7BFFB00208DF801000120AB
S31530004D408DF8020069464D20FFF7B5FB00208DF83F
S31530004D50010001208DF8020069464E20FFF7ABFBBB
S31530004D60354C002211462046FFF713FC032211462C
S31530004D702046FFF70EFC002206212046FFF709FCED
S31530004D80002208212046FFF704FC00220A21204693
S31530004D90FFF7FFFB002211462046FFF72AFC206969
S31530004DA020F00200206160694008400040F00400B5
S31530004DB06061606920F002006061A06920F0020045
S31530004DC0A061A06940084000A061A06D4008400085
S31530004DD0A065E06D40084000E065206E4008400068
S31530004DE02066606E400840006066A06E4008400055
S31530004DF0A066E06E40084000E0660020FFF782FBC8
S31530004E000E49086013BD00000000CC400454003049
S31530004E108C5100301040C8405040C84000FBFFFF66
S31530004E200080CA4000C9CA406959AC570040C840E2
S31530004E3070C8CA40C040C84000400E400000002044
S31530004E40636F6E6669670000667265710000000008
S31530004E5000000000A6000000FFFFFF0F000000006A
S31530004E6000000000290000000100000000A60E002E
S31530004E70000000000000000082680D490A40826090
S31530004E80C16821F01001C160C16841F00801C160FC
S31530004E90016921F4606141F420610161416921F4C5
S31530004EA0C0114161416941F4802141617047000080
S31530004EB0FEFFFFFB0205030007160F1C0205030069
S31530004EC0140F0918020503000F18090D0205030017
S31530004ED0140F09180205030018090B110205030007
S31530004EE01018090D0205030010180B0902050300FE
S31530004EF0140F0A18020503000910180A02050300E8
S31530004F001018090D020503001018090D02050300DB
S31530004F100F181A0D020503001018090D02050300BB
S31530004F201018090D020503001018131402050300AA
S31530004F3010181A1C0205030010181A1C020503006B
S31530004F401018131402050300101813140205030079
S31530004F50101813140205030011090C0F0205030083
S31530004F6011090C0F020503001018090D0205030084
S31530004F701018090D02050300140F0D180205030061
S31530004F801018090D020503001018090D020503005B
S31530004F901018090D020503001018090D020503004B
S31530004FA01018090D020503001018090D020503003B
S31530004FB01018090D020503001018090D020503002B
S31530004FC01018090D020503001018090D020503001B
S31530004FD0140F0D1802050300140F0D1802050300F7
S31530004FE01018090D020503001018090D02050300FB
S31530004FF01018090D020503001018090D02050300EB
S31530005000140F0D1802050300140F0D1802050300C6
S315300050101318090D020503001318090D02050300C4
S315300050201318090D020503001318090D02050300B4
S31530005030140F131802050300140F1318020503008A
S315300050401018090D020503001018090D020503009A
S31530005050171A180B02050300171A180B020503005E
S31530005060171A180B02050300171A180B020503004E
S31530005070171A180B02050300171A180B020503003E
S31530005080171A180B020503000C0A1807020503004D
S315300050900C0A18070205030018101A0D0205030042
S315300050A018101A0D02050300140F1A180205030012
S315300050B01A0F130D020503001A13180D020503000B
S315300050C01A13180D020503001A13180D02050300F2
S315300050D0140F1A1802050300090B0F1C02050300F2
S315300050E0090C111C02050300090C111C02050300F2
S315300050F0090A111C02050300090A111C02050300E6
S315300051000C0F0A1C020503000C0F0A1C02050300D3
S315300051100C0F0A1C020503000C0F121C02050300BB
S315300051200C091218020503000D01121A443A5C727A
S3153000513065735F636869705F692E6D7872745F63DB
S315300051406D375C53444B5F322E31302E305F4D49D4
S315300051504D585254313137302D45564B5F494445C1
S315300051605F414C4C5C646576696365735C4D494D53
S31530005170585254313137365C647269766572735C75
S3153000518066736C5F636C6F636B2E68000205030099
S3153000519007160F1C02050300140F09180205030039
S315300051A00F18090D02050300140F09180205030034
S315300051B018090B11020503001018090D020503002A
S315300051C010180B0902050300140F0A180205030014
S315300051D00910180A020503001018090D020503000C
S315300051E01018090D020503000F181A0D02050300E9
S315300051F01018090D020503001018090D02050300E9
S31530005200101813140205030010181A1C02050300A7
S3153000521010181A1C02050300101813140205030097
S315300052201018131402050300101813140205030096
S3153000523011090C0F0205030011090C0F02050300BA
S315300052401018090D020503001018090D0205030098
S31530005250140F0D18020503001018090D020503007E
S315300052601018090D020503001018090D0205030078
S315300052701018090D020503001018090D0205030068
S315300052801018090D020503001018090D0205030058
S315300052901018090D020503001018090D0205030048
S315300052A01018090D02050300140F0D18020503002E
S315300052B0140F0D18020503001018090D020503001E
S315300052C01018090D020503001018090D0205030018
S315300052D01018090D02050300140F0D1802050300FE
S315300052E0140F0D18020503001318090D02050300EB
S315300052F01318090D020503001318090D02050300E2
S315300053001318090D02050300140F131802050300C4
S31530005310140F1318020503001018090D02050300B7
S315300053201018090D02050300171A180B02050300A1
S31530005330171A180B02050300171A180B020503007B
S31530005340171A180B02050300171A180B020503006B
S31530005350171A180B02050300171A180B020503005B
S315300053600C0A1807020503000C0A18070205030089
S3153000537018101A0D0205030018101A0D0205030045
S31530005380140F1A18020503001A0F130D0205030035
S315300053901A13180D020503001A13180D020503001F
S315300053A01A13180D02050300140F1A18020503000C
S315300053B0090B0F1C02050300090C111C0205030022
S315300053C0090C111C02050300090A111C0205030011
S315300053D0090A111C020503000C0F0A1C0205030002
S315300053E00C0F0A1C020503000C0F0A1C02050300F1
S315300053F00C0F121C020503000C09121802050300DB
S315300054000D01121A443A5C7265735F636869705FA6
S31530005410692E6D7872745F636D375C53444B5F32BF
S315300054202E31302E305F4D494D5852543131373050
S315300054302D45564B5F4944455F414C4C5C6465761F
S31530005440696365735C4D494D585254313137365C1A
S31530005450647269766572735C66736C5F636C6F6376
S315300054606B2E68000205030007160F1C02050300A9
S31530005470140F0918020503000F18090D0205030061
S31530005480140F09180205030018090B110205030051
S315300054901018090D0205030010180B090205030048
S315300054A0140F0A18020503000910180A0205030032
S315300054B01018090D020503001018090D0205030026
S315300054C00F181A0D020503001018090D0205030006
S315300054D01018090D020503001018131402050300F5
S315300054E010181A1C0205030010181A1C02050300B6
S315300054F010181314020503001018131402050300C4
S31530005500101813140205030011090C0F02050300CD
S3153000551011090C0F020503001018090D02050300CE
S315300055201018090D02050300140F0D1802050300AB
S315300055301018090D020503001018090D02050300A5
S315300055401018090D020503001018090D0205030095
S315300055501018090D020503001018090D0205030085
S315300055601018090D020503001018090D0205030075
S315300055701018090D020503001018090D0205030065
S31530005580140F0D1802050300140F0D180205030041
S315300055901018090D020503001018090D0205030045
S315300055A01018090D020503001018090D0205030035
S315300055B0140F0D1802050300140F0D180205030011
S315300055C01318090D020503001318090D020503000F
S315300055D01318090D020503001318090D02050300FF
S315300055E0140F131802050300140F131802050300D5
S315300055F01018090D020503001018090D02050300E5
S31530005600171A180B02050300171A180B02050300A8
S31530005610171A180B02050300171A180B0205030098
S31530005620171A180B02050300171A180B0205030088
S31530005630171A180B020503000C0A18070205030097
S315300056400C0A18070205030018101A0D020503008C
S3153000565018101A0D02050300140F1A18020503005C
S315300056601A0F130D020503001A13180D0205030055
S315300056701A13180D020503001A13180D020503003C
S31530005680140F1A1802050300090B0F1C020503003C
S31530005690090C111C02050300090C111C020503003C
S315300056A0090A111C02050300090A111C0205030030
S315300056B00C0F0A1C020503000C0F0A1C020503001E
S315300056C00C0F0A1C020503000C0F121C0205030006
S315300056D00C091218020503000D01121A443A5C72C5
S315300056E065735F636869705F692E6D7872745F6326
S315300056F06D375C53444B5F322E31302E305F4D491F
S315300057004D585254313137302D45564B5F4944450B
S315300057105F414C4C5C646576696365735C4D494D9D
S31530005720585254313137365C647269766572735CBF
S3153000573066736C5F636C6F636B2E680010B44001E8
S31530005740364A01F00103145804F00104A34206D08E
S3153000575001F001011150BFF34F8FBFF36F8F10BCB3
S3153000576070470121EAE75FE010B5002400E0641CD1
S31530005770102C04D22A4951F824108142F7D1102C2A
S3153000578008D32748392200F17C014030FDF708FC68
S31530005790AFF30080204610BDF8B504460D461646D8
S315300057A0FFF7E2FF0E2805D241A1085C8A2801D016
S315300057B0FFF7D7FF0127AF40F943606908406061C2
S315300057C03078002803D160680140616007E0727864
S315300057D02946204600F00AF8606807436760B278C9
S315300057E029462046BDE8F840BDE7000070B50446BE
S315300057F00D461646202D06D371220A4929A0FDF7FB
S31530005800CFFBAFF30080012000FA05F504F18400E8
S31530005810002E01D1456070BD056070BD0060CC4082
S31530005820DC5D0030585E003030B4012404FA01F5F6
S31530005830C369AB43C361102902D200F10C0302E005
S3153000584000F110031039521E042A29D8DFE802F07D
S31530005850030A131E25001A68032448008440A24315
S315300058601A601DE048001968032282409143844043
S315300058700C431C6014E048001968032282409143AF
S31530005880022202FA00F00843186009E01A6803247D
S315300058904800844022431A6002E0C1690D43C56165
S315300058A030BC704770696E203C20333255000000A2
S315300058B08A33333333333333333333333333000091
S315300058C028636F6E6669672D3E6C6F6F70446976BC
S315300058D069646572203C3D202875696E7433325F89
S315300058E07429323038292026262028636F6E66695F
S315300058F0672D3E6C6F6F7044697669646572203EC1
S315300059003D202875696E7433325F742931303429FD
S3153000591000000000443A5C7265735F636869705FCB
S31530005920692E6D7872745F636D375C53444B5F32AA
S315300059302E31302E305F4D494D585254313137303B
S315300059402D45564B5F4944455F414C4C5C6465760A
S31530005950696365735C4D494D585254313137365C05
S31530005960647269766572735C66736C5F636C6F6361
S315300059706B2E630028706C6C203D3D206B434C4F82
S31530005980434B5F506C6C5379733229207C7C2028D2
S31530005990706C6C203D3D206B434C4F434B5F506CDD
S315300059A06C537973332900002866726571496E4DE0
S315300059B0687A203C3D2072656646726571292026DC
S315300059C026202866726571496E4D687A203E3D20E4
S315300059D0313536554C2900002866726571496E4D51
S315300059E0687A203C3D2072656646726571292026AC
S315300059F026202866726571496E4D687A203E2032BF
S31530005A0030554C290000000028706C6C203D3D203C
S31530005A106B434C4F434B5F506C6C417564696F29D7
S31530005A20207C7C2028706C6C203D3D206B434C4F95
S31530005A30434B5F506C6C566964656F2900000000FB
S31530005A4030B44E49486F40F4700048674C4A10886D
S31530005A50400704D513884FF6FB7003401380494A3C
S31530005A601088400704D513884FF6FB700340138027
S31530005A7045480268920402D5444A426005E04CF239
S31530005A80205242604DF6281242604FF6FF72826015
S31530005A90036823F0800343F0200303603C48036827
S31530005AA09B0402D5394B436005E04CF220534360EA
S31530005AB04DF6281343608260026822F0800242F07D
S31530005AC02002026033480268D20703D502685208C2
S31530005AD0520002600868800315D40868800312D427
S31530005AE0BFF34F8FBFF36F8F00202B4A1060BFF389
S31530005AF04F8FBFF36F8F086840F400300860BFF3F4
S31530005B004F8FBFF36F8F0868C00325D40868C00372
S31530005B1022D400200867BFF34F8FCA6EC2F34E33CC
S31530005B201D4DC2F3C90443F6E07000EA431040EA63
S31530005B30847028612046441E0028F4D11846431E3E
S31530005B400028EED1BFF34F8F086840F480300860EC
S31530005B50BFF34F8FBFF36F8F1048026822F40052A5
S31530005B600260086840F010000860BFF34F8FBFF343
S31530005B706F8F30BC00F016B80000000014ED00E066
S31530005B8000000340004003400080034020C528D970
S31530005B900000C14010E000E050EF00E070400E40E1
S31530005BA0704700007047FEE70000000000C0074065
S31530005BB000000840004008400080084000C008400F
S31530005BC000000940004009400080094000C00940FB
S31530005BD000000A400040C2400080C240696E7374C3
S31530005BE0616E6365203C202873697A656F66287319
S31530005BF05F6C7075617274426173657329202F20F2
S31530005C0073697A656F662828735F6C707561727414
S31530005C104261736573295B305D292900443A5C72B1
S31530005C2065735F636869705F692E6D7872745F63E0
S31530005C306D375C53444B5F322E31302E305F4D49D9
S31530005C404D585254313137302D45564B5F494445C6
S31530005C505F414C4C5C646576696365735C4D494D58
S31530005C60585254313137365C647269766572735C7A
S31530005C7066736C5F6C70756172742E630000000021
S31530005C802875696E74385F7429283429203E3D2082
S31530005C90636F6E6669672D3E74784669666F5761C5
S31530005CA07465726D61726B002875696E74385F74D5
S31530005CB029283429203E3D20636F6E6669672D3E64
S31530005CC072784669666F57617465726D61726B0082
S31530005CD00000000000C007400000084000400840B7
S31530005CE00080084000C008400000094000400940DC
S31530005CF00080094000C0094000000A400040C24010
S31530005D000080C240443A5C7265735F636869705F55
S31530005D10692E6D7872745F636D375C53444B5F32B6
S31530005D202E31302E305F4D494D5852543131373047
S31530005D302D45564B5F4944455F414C4C5C636F6D16
S31530005D40706F6E656E74735C756172745C66736C5D
S31530005D505F616461707465725F6C70756172742EA8
S31530005D6063000000636F6E6669672D3E696E7374FB
S31530005D70616E6365203C202873697A656F66287387
S31530005D805F4C7075617274416461707465724261A2
S31530005D90736529202F2073697A656F66284C5055B4
S31530005DA04152545F54797065202A29290000000039
S31530005DB03020213D20735F4C70756172744164618F
S31530005DC070746572426173655B636F6E6669672D69
S31530005DD03E696E7374616E63655D0000000000009D
S31530005DE000C01240000013400040134000801340B2
S31530005DF000C013400000144000C0C5400000C6403B
S31530005E000040C6400080C64000C0C6400000C740C3
S31530005E100000CA400080004200C00042696E7374C0
S31530005E20616E6365203C202873697A656F662873D6
S31530005E305F6770696F426173657329202F207369BC
S31530005E407A656F662828735F6770696F426173651C
S31530005E5073295B305D292900443A5C7265735F6350
S31530005E606869705F692E6D7872745F636D375C53E5
S31530005E70444B5F322E31302E305F4D494D5852549F
S31530005E80313137302D45564B5F4944455F414C4C97
S31530005E905C646576696365735C4D494D585254311F
S31530005EA03137365C647269766572735C66736C5FC3
S31530005EB06770696F2E6300000901020002D42A4818
S31530005EC081547047294802F00F02104400F8041C30
S31530005ED0704710B5401EB0F1807F01D3012010BD50
S31530005EE0234C60600F214FF0FF30FFF7E5FF0020B5
S31530005EF0A06007202060002010BD1E4908680028D9
S31530005F0002D00868401E086070471A490860086861
S31530005F100028FCD1704710B500F05EF8FEF786FB1E
S31530005F2000F0C3F8FFF73CFE134800684FF47A716F
S31530005F30B0FBF1F0FFF7CDFF0028104C06D0FEE79E
S31530005F4000220321FFF752FC00202070C820FFF703
S31530005F50DCFF0B4821780029F2D101220321FFF71B
S31530005F6045FC01202070F1E700E400E018ED00E088
S31530005F7010E000E0640000200000002068000020EF
S31530005F800040C64010B44001294A01F001031458BC
S31530005F9004F00104A34206D001F001011150BFF311
S31530005FA04F8FBFF36F8F10BC70470121EAE710B4F3
S31530005FB0029C01F00F01240104F01004214301601A
S31530005FC0002A00D0136010BC70470098002801D01A
S31530005FD001990160704700003EB53120FFF7E5FFBB
S31530005FE019A00068029002AA03211248FFF7D4FBD9
S31530005FF0002001901048009000231A460A210F48CD
S31530006000FFF7D5FF0E4C0F4D00200190009503464B
S31530006010024603212046FFF7CAFF02200190009571
S3153000602000231A4603212046FFF7CFFF37BD000075
S315300060300060CC400040C64060830E401C810E405C
S3153000604030820E4074840E40010000001D49C001AC
S315300060500858C0F3022070471A49C001085800F0AA
S31530006060FF00401C7047000070B50446FFF7EEFF96
S31530006070154D214605EBC101085CFCF7BFFE06460F
S315300060802046FFF7E9FFB6FBF0F4002C40F009801C
S3153000609040F6C40205F51E710CA0FCF781FFAFF384
S315300060A00080204670BD1920DEE780B5FFF7FBFF84
S315300060B0034601224FF4E1311046BDE80050FDF7AA
S315300060C059BA00000000CC40B44E0030667265719B
S315300060D000000000443A5C7265735F636869705F04
S315300060E0692E6D7872745F636D375C53444B5F32E3
S315300060F02E31302E305F4D494D5852543131373074
S315300061002D45564B5F4944455F414C4C5C64657642
S31530006110696365735C4D494D585254313137365C3D
S31530006120647269766572735C66736C5F636F6D6D8E
S315300061306F6E5F61726D2E630000000041535345F0
S315300061405254204552524F52202220257320223A53
S315300061502066696C652022257322204C696E652085
S3153000616022256422200A000072B6054805490160DE
S315300061700A6882F308880448804762B603480047B5
S3153000618008ED00E000200030415A00304D6200300A
S3153000619010B5074979441831064C7C44163404E06E
S315300061A00A68081D114488470146A142F8D110BD3E
S315300061B02C0000004C0000004EF68851CEF2000153
S315300061C0086840F470000860BFF34F8FBFF36F8FDD
S315300061D04FF00070E1EE100A70470000F3D2FFFF77
S315300061E068000000040000200000000093D7FFFF85
S315300061F004000000D802000000000020000000006B
S31530006200FEE7000000F00DF8002801D0FFF7C0FFD0
S31530006210AFF300800020AFF30080FFF77CFE00F084
S3153000622002F80120704700F001B8FEE7074638460D
S3153000623000F002F8FBE7FEE780B5AFF30080024AD4
S3153000624011001820ABBEFBE726000200AFF300803A
S31530006250FFF7B2FFFFF7D6FF00480047C9640030AA
S3153000626000480047C964003000480047C964003020
S3153000627000480047C964003000480047C964003010
S3153000628000480047C964003000480047C964003000
S3153000629000480047C964003000480047C9640030F0
S315300062A000480047C964003000480047C9640030E0
S315300062B000480047C964003000480047C9640030D0
S315300062C000480047C964003000480047C9640030C0
S315300062D000480047C964003000480047C9640030B0
S315300062E00048004789430030004800479B43003050
S315300062F000480047B143003000480047C9430030EA
S3153000630000480047DB43003000480047ED4300308B
S315300063100048004705440030004800471744003025
S315300063200048004729440030004800473B440030CD
S31530006330004800474D44003000480047C9640030EB
S3153000634000480047C964003000480047C96400303F
S3153000635000480047C964003000480047C96400302F
S3153000636000480047C964003000480047C96400301F
S3153000637000480047C964003000480047C96400300F
S3153000638000480047C964003000480047C9640030FF
S3153000639000480047C964003000480047C9640030EF
S315300063A000480047C964003000480047C9640030DF
S315300063B000480047C964003000480047C9640030CF
S315300063C000480047C964003000480047C9640030BF
S315300063D000480047C964003000480047C9640030AF
S315300063E000480047C964003000480047C96400309F
S315300063F000480047C964003000480047C96400308F
S3153000640000480047C964003000480047C96400307E
S3153000641000480047C964003000480047C96400306E
S3153000642000480047C964003000480047C96400305E
S3153000643000480047C964003000480047C96400304E
S3153000644000480047C964003000480047C96400303E
S3153000645000480047C964003000480047C96400302E
S3153000646000480047C964003000480047C96400301E
S3153000647000480047C964003000480047C96400300E
S3153000648000480047C964003000480047C9640030FE
S3153000649000480047C964003000480047C9640030EE
S315300064A000480047C964003000480047C9640030DE
S315300064B000480047C964003000480047C9640030CE
S315300064C000480047C9640030FFF7FEBF00A4781FBC
S307300064D0FEE7AF
S7053000616900
