:1000000000000320B51500004D1600007716000013
:10001000831600007D1800007F180000000000001B
:100020000000000000000000000000008118000037
:100030008318000000000000851800000511000072
:10004000651700006D170000751700007D17000090
:10005000851700008D170000951700009D17000000
:10006000A5170000AD170000B5170000BD17000070
:10007000C5170000CD170000D5170000DD170000E0
:10008000E5170000751800007518000075180000CD
:10009000751800007518000075180000751800002C
:1000A000ED170000F5170000FD170000051800000F
:1000B0000D180000151800001D180000251800007C
:1000C0002D180000351800003D18000075180000BC
:1000D00075180000751800007518000075180000EC
:1000E00075180000751800007518000075180000DC
:1000F00075180000751800007518000075180000CC
:1001000075180000751800007518000075180000BB
:1001100075180000751800007518000075180000AB
:10012000751800007518000075180000751800009B
:10013000751800007518000075180000751800008B
:1001400075180000451800007518000075180000AB
:1001500075180000751800004D1800007518000093
:10016000751800007518000055180000751800007B
:10017000751800007518000075180000751800004B
:10018000751800005D180000751800007518000053
:10019000751800007518000075180000751800002B
:1001A000751800007518000075180000651800002B
:1001B000751800007518000075180000751800000B
:1001C00075180000751800007518000075180000FB
:1001D0006D180000751800007518000075180000F3
:1001E00075180000751800007518000075180000DB
:1001F00075180000751800007518000075180000CB
:1002000075180000751800007518000075180000BA
:1002100075180000751800007518000075180000AA
:10022000751800007518000075180000751800009A
:10023000751800007518000075180000751800008A
:10024000751800007518000075180000751800007A
:10025000751800007518000075180000751800006A
:10026000751800007518000075180000751800005A
:10027000751800007518000075180000751800004A
:10028000751800007518000075180000751800003A
:10029000751800007518000075180000751800002A
:1002A000751800007518000075180000751800001A
:1002B000751800007518000075180000751800000A
:1002C00075180000751800007518000075180000FA
:1002D00075180000751800007518000075180000EA
:1002E00075180000751800007518000075180000DA
:1002F00075180000751800007518000075180000CA
:1003000075180000751800007518000075180000B9
:1003100075180000751800007518000075180000A9
:100320007518000075180000751800007518000099
:100330007518000075180000751800007518000089
:100340007518000075180000751800007518000079
:100350007518000075180000751800007518000069
:100360007518000075180000751800007518000059
:100370007518000075180000751800007518000049
:100380007518000075180000751800007518000039
:100390007518000075180000751800007518000029
:1003A0007518000075180000751800007518000019
:1003B0007518000075180000751800007518000009
:10040000FFFFFFFFFFFFFFFFFFFFFFFFFE3DFFFFBF
:1004100030B40300002000252A00D2B2002A19D1EE
:100420001A68521C1A601A68127814002200D2B29C
:10043000302A09DB2200D2B23A2A05DA0A225043D6
:1004400050FA84F03038E7E71A68521E1A60012229
:100450001500E1E730BC7047F0B403001D680620CA
:1004600000246D1C2E782E2E1BD100263000002675
:1004700034002600F6B2002E14D16D1C2E78370001
:10048000FFB2302F09DB3700FFB23A2F05DA0A2717
:10049000F6B207FB00603038EBE76D1E01273C0029
:1004A000E7E76D1E1D60F0BC7047010000200A00E8
:1004B000D2B26F2A0BD00A00D2B2622A07D00A0049
:1004C000D2B2702A03D00A00D2B2752A01D1012219
:1004D00010007047010000200A00D2B2642A03D045
:1004E0000A00D2B2692A01D10122100070472DE919
:1004F000F84F04000D0016001F00DDF82880DDF81D
:100500002C90DDF830A0DDF834B0AB1B202259462A
:100510005046C84798F80000002808D0012398F8F2
:10052000002059465046C847B8F10108F2E7BDE837
:10053000F18F2DE9F84F04000D0016001F00DDF8C3
:100540002880DDF82C90DDF830A0DDF834B0AB1B4E
:10055000202259465046C84798F80000002808D085
:10056000012398F8002059465046C847B8F10108C1
:10057000F2E7BDE8F18F010000200A00D2B2662A3E
:1005800003D00A00D2B2462A01D1012210007047DE
:10059000010000200A00D2B2782A03D00A00D2B2A9
:1005A000582A01D101221000704701000800C0B292
:1005B0006F2801D108200CE00800C0B2622801D1E8
:1005C000022006E00800C0B2702801D1102000E02F
:1005D0000A20C0B270472DE9F84F84460D00140080
:1005E0000A9E0020E2465FF0000B8AF800B01AF184
:1005F000010A002C28D0D5F800B05946002905D1B1
:100600005FF0300B8AF800B0401C46E0002944D06F
:1006100091FBF3FBDE4603FB1E1BBBF1000F09D56C
:100620005F467FEA0708CDF80080DDF8008018F10A
:10063000310802E0D84618F1300871468AF8008087
:100640001AF1010A401CE1E7D5F800B05A46002A29
:1006500005D15FF0300B8AF800B0401C1DE0002A85
:100660001BD0B2FBF3FBD94603FB192BBBF10A0FDE
:1006700002D25F46303709E03700FFB2002F01D0C9
:10068000412700E061270A3F17EB0B074A468AF82B
:1006900000701AF1010A401CE1E7BDE8F28F2DE974
:1006A000F34F95B093461E005FF000085FF000091D
:1006B000002005905FF0000A002006901598049035
:1006C00004980078002801D10598F4E00498007897
:1006D00007003800C0B2252809D001233A00D2B261
:1006E00005A95846B0470498401C0490E8E701204B
:1006F000050016A904A8FFF78BFE0790002216A993
:1007000004A8FFF7A9FE0A900498401C04900498DE
:10071000007807003800C0B2FFF7DCFE012820D1C6
:10072000169800681699091D169108902800C0B205
:1007300000900A23012208A90BA8FFF74CFF81466D
:100740000BA84844804605A80390CDF808B0019650
:10075000CDF8008000234A4607990020FFF7C7FE26
:10076000A5E03800C0B2FFF706FF01280BD11698AC
:10077000C01D30F007001690169890ED000B1698EB
:100780000830169093E03800C0B2FFF701FF01284F
:1007900027D13800C0B2782801D100200500169872
:1007A00000681699091D169106902800C0B20090A5
:1007B0001023002206A90BA8FFF70DFF81460BA806
:1007C0004844804605A80390CDF808B00196CDF8BE
:1007D00000802B00DBB24A4607990020FFF7A9FEF4
:1007E00065E03800C0B2FFF760FE012826D11698F8
:1007F00000681699091D169106903800C0B2FFF7DF
:10080000D4FE82462800C0B200905346DBB20022DC
:1008100006A90BA8FFF7DFFE81460BA848448046D7
:1008200005A80390CDF808B00196CDF8008000230C
:100830004A4607990020FFF75AFE38E03800C0B258
:1008400063280DD1169800681699091D1691099014
:10085000012309980200D2B205A95846B04726E004
:100860003800C0B273281CD1169800681699091D6B
:1008700016910400002C1AD0200000F01FF88146C9
:10088000079BB3EB0903202205A95846B0472078FF
:1008900000280CD00123227805A95846B047641CD3
:1008A000F5E701233A00D2B205A95846B0470498AB
:1008B000401C049004E717B0BDE8F08F00F101037D
:1008C000810704D010F8011B820781B1FAD10268B8
:1008D000A2F10131914311F0803104BF50F8042F8F
:1008E000F6E709BAB1FA81F100EBD100401CC01A59
:1008F000704730B4002513E050F8042BD30744BFF1
:10090000A9F101039A18091F042942F8045BFAD2DD
:1009100013468C0744BF15809B1CC90748BF1D7038
:1009200050F8041B0029E7D130BC7047DFF85012A3
:100930000A6860F393420A60704710B4DFF83032FF
:100940001C6860F311441C604C0014F00E0412F09B
:1009500001031C43DFF830321C6010BC7047037881
:1009600013F05F030A78134303704A789201827090
:100970007047027812F0F0020A43027070470100DB
:1009800049F69800814201D2002006E0DFF8040217
:10099000814201D2012000E00220C0B2704710B5B0
:1009A00004006068DFF8F0110860A27861782078B0
:1009B000FFF7C3FFE078FFF7B9FF10BD30B40100C7
:1009C000DFF8B041207810F003000A00D2B2904264
:1009D00001D0012200E00022257815F0FC0511F07D
:1009E0000300054325701000C0B2002808D040F273
:1009F000DC5003001800431E002801D000BFF9E7B7
:100A0000002030BC7047F0B50300DFF87841207853
:100A1000C0F38105267816F00106DFF87401077827
:100A2000C7F342079446BE465FFA8CFC5FFA8EFE1F
:100A3000F44527D0DFF82CC29CF800C05FEA8C7C1C
:100A400001D4012D12D1B4465FFA8CFCBCF1010F28
:100A50000CD1DFF828C19CF800E01EF0FE0E8CF8E7
:100A600000E094F800C05FEACC7CFAD490F800C0B3
:100A70001CF0D00C5FEA420E1EF00E0E5EEA0C0C6B
:100A800080F800C0DFF8F4C09CF800E01EF0FE0E15
:100A900011F0010050EA0E0E8CF800E0DFF8C401FE
:100AA00090F800C01CF0FC0C53EA0C0C80F800C05D
:100AB000012D01D0980707D5207810F001008C4651
:100AC0005FFA8CFC6045F7D10020F0BD38B504001A
:100AD000002C08D140F223422749DFF88C0100F0B6
:100AE000CDF8AFF300800020617811F007010843D2
:100AF000DFF81C110870DFF86821137813F0E003A9
:100B0000A57815F01F052B4313700A78237853F04E
:100B100040031A430A70DFF8541109784906FAD5E0
:100B200031BD70B504002068FFF729FF0500174E9E
:100B300021793000FFF71DFF10490A7812F0C30237
:100B4000280110F030000243607902430A70A11DB1
:100B50003000FFF704FF6079002807D030780006E6
:100B600004D5DFF8080100788007FAD570BD0000D1
:100B7000048004400C40064014140000014006406C
:100B80000070044006400640648004400050064067
:100B90000840064001127A0044800440F8B5050080
:100BA0000C00002C09D140F29372DFF8CC10DFF872
:100BB000B80000F063F8AFF30080DFF8B800017808
:100BC00011F0FD010170DFF89C00017811F03B018C
:100BD00051F080010170DFF89460307810F01C0053
:100BE0000828F8D1DFF88870387810F0BF00387026
:100BF00030788006FCD42000FFF768FF387850F08A
:100C00004000387030788006FCD50020F2BD00002E
:100C10000440064070B505000E001400002C07D1FA
:100C200040F6AC021449104800F028F8AFF30080F9
:100C30002800C0B2FFF7C2FE21003000C0B2FFF7AB
:100C4000ADFF0848017811F03F01017007480078B6
:100C5000C0B2C0F381000328F8D1002070BD0000AD
:100C600005400640004006401417000006400640BC
:100C700005400640014006401414000070B5040011
:100C80000D00160033002A002100024800F052F83F
:100C900000BEFDE78815000038B505000C00002DEA
:100CA00009D14FF4F672DFF8D810DFF8D800FFF75B
:100CB000E5FFAFF30080002C09D140F2ED12DFF820
:100CC000C010DFF8C400FFF7D9FFAFF30080DFF8F2
:100CD000C0000068002801D100200BE0220029009C
:100CE000DFF8A80000F0AEF800B2002801D05FF0F5
:100CF000FF34200032BD2DE9F04104000D00160044
:100D00001F0000205FF00008B84511DA2868401C79
:100D1000802805D329682000FFF7BEFF0020286047
:100D2000286826542868401C286018F10108EBE761
:100D3000BDE8F0810EB42DE9F841A0B00400002612
:100D4000002780210022E846404600F08FF8104836
:100D5000006800280DD027A805000E4B6A46290020
:100D60002000FFF79CFC060031006846FFF794FF67
:100D70000700380021B0BDE8F0015DF810FB00006D
:100D8000001300001C170000C81600001C00FF1F05
:100D90002400FF1FF70C00002DE9F04104000D00B6
:100DA00016001F0043F22158207B012806D13A008B
:100DB000310014F1080000F0A3F88046404600B26C
:100DC000BDE8F0812DE9F04107000E001500002F6D
:100DD00009D140F21932DFF88010DFF88000FFF708
:100DE0004DFFAFF30080002E09D140F21A32DFF838
:100DF0006810DFF86C00FFF741FFAFF30080002DB3
:100E000009D140F21B32DFF85010DFF85800FFF72D
:100E100035FFAFF30080B846D8F80040002C09D168
:100E20004FF44872DFF83010DFF83C00FFF726FF80
:100E3000AFF300802B00320041462000FFF7ACFFEB
:100E4000BDE8F08170B504000D00160032002900E5
:100E50002000FFF7B7FF70BDC0130000EC160000C4
:100E60003C170000441700004C17000062F30F22EB
:100E700062F31F42401810F0030308D0C91A1FD3B1
:100E8000DB0748BF00F8012D28BF20F8022D130012
:100E900030B414461546103928BF20E93C00FAD872
:100EA000490728BF20E90C0048BF40F8042D8900FD
:100EB00028BF20F8022D48BF00F8012D30BC704734
:100EC000C91818BF00F8012DCB0728BF00F8012D65
:100ED000704730B40EE00268436802440830DC0713
:100EE00044BFA9F10104E31852F8045B43F8045B22
:100EF000091FF9D150F8041B0029ECD130BC704710
:100F0000F8B506000D001400002E07D140F20B12B8
:100F100010491148FFF7B2FEAFF30080002D07D152
:100F20004FF486720B490D48FFF7A8FEAFF300801F
:100F3000002C07D140F20D1206490948FFF79EFE2A
:100F4000AFF30080370022002900380000F00AF8D3
:100F5000F2BD000068130000AC160000541700003A
:100F60005C170000F8B506000D001400002E07D134
:100F70004FF4B27212491348FFF780FEAFF30080BE
:100F8000002D07D140F265120D491048FFF776FE9B
:100F9000AFF30080002C07D14FF4B37208490C481E
:100FA000FFF76CFEAFF300803700220029000648EF
:100FB0003B7850F8230000F00DF80020F2BD00004F
:100FC0000415000024170000981600002C170000DC
:100FD0003417000070B505000C001600002C09D174
:100FE00040F23B32DFF83010DFF83000FFF746FE0A
:100FF000AFF3008022003100002907D068680002AA
:10100000FCD51078E860521C491EF5E7686840027C
:10101000FCD5002070BD0000B4140000E0160000F4
:1010200080B5194801681A48184A12689047BFF3FA
:101030004F8F01BD80B5144841681648134A1268A5
:101040009047BFF34F8F01BD80B50F4881681248AC
:101050000E4A12689047BFF34F8F01BD80B50A4812
:10106000C1680E48094A12689047BFF34F8F01BD0F
:1010700080B5054801690A48044A12689047BFF3E1
:101080004F8F01BD000000002800FF1F3C00FF1F24
:1010900000400C4000500C4000600C4000700C40C0
:1010A00000600D4010B4020052B2002A05D40A01BB
:1010B000284B040064B21A5508E00A01264B0400CC
:1010C00064B214F00F04234403F8042C10BC7047DE
:1010D00010B50400601EB0F1807F01D301200EE046
:1010E000601E1E4908600F215FF0FF30FFF7DAFF36
:1010F00000201B49086007201A490860002010BD25
:10110000C160704718490868002802D00868401E6E
:1011100008607047144A106011680029FCD17047BC
:1011200080B500F03FF800F081F8104800684FF4F7
:101130007A71B0FBF1F0FFF7CBFF002800D0FEE79B
:101140004FF47A70FFF7E6FF4FF480710848FFF71D
:10115000D7FFF5E700E400E018ED00E014E000E060
:1011600018E000E010E000E04000FF1F0000FF1F5B
:1011700080F00F401B4911EB10410A6801238340A6
:101180001A430A60704710B450F8213033F4E0631A
:101190001400E4B2240214F4E064234340F8213044
:1011A00010BC704780B51048FFF7E4FF0F48FFF709
:1011B000E1FF0F480088ADF800006A4608210D489D
:1011C00000F077F8072202210B48FFF7DCFF0B49FC
:1011D0000A680B4802400A60012208210948FFF70B
:1011E000D2FF01BD00700440090038100B00381018
:1011F0008615000080F00F400090044008900440E5
:10120000FCFFFFFE00B004405FF08A7019490860DF
:10121000704719490860704718490A7812F0C702E8
:10122000C30013F038031A430A70704780B500F00A
:1012300001F801BD10B5FFF7E7FF124C2000FFF7E2
:1012400070FC2068FFF7E5FF0F4CE278A17860782A
:10125000FFF7D9FB2079FFF7DFFF14F10802002127
:10126000E079FFF7D7FC0948FFF799FB08480449E4
:10127000086010BD448004400400FF1F0040064089
:101280000000FF1F0C170000BC1600000417000030
:10129000000E270710B401231400E4B2002C03D180
:1012A00013FA01F4846002E013FA01F4446010BC04
:1012B0007047F8B505000E001400002C06D164221A
:1012C0000D490E48FFF7DAFCAFF3008001272078C4
:1012D000002805D1696917FA06F08143696109E0C0
:1012E000627831002800FFF7D5FF696917FA06F028
:1012F00001436961F1BD000064140000D4160000D0
:10130000443A5C7265735F636869705F6B696E65B0
:101310007469735C53444B5F322E382E305F4652F3
:10132000444D2D4B3832465C646576696365735C69
:101330004D4B38324632353631355C7574696C69DF
:10134000746965735C64656275675F636F6E736F04
:101350006C655C66736C5F64656275675F636F6E16
:10136000736F6C652E630000443A5C7265735F6353
:101370006869705F6B696E657469735C53444B5F39
:10138000322E382E305F4652444D2D4B3832465C5B
:10139000636F6D706F6E656E74735C736572696197
:1013A0006C5F6D616E616765725C73657269616CBB
:1013B0005F706F72745F756172742E63000000005D
:1013C000443A5C7265735F636869705F6B696E65F0
:1013D0007469735C53444B5F322E382E305F465233
:1013E000444D2D4B3832465C636F6D706F6E656E89
:1013F00074735C73657269616C5F6D616E61676562
:10140000725C73657269616C5F6D616E6167657254
:101410002E630000443A5C7265735F636869705FB5
:101420006B696E657469735C53444B5F322E382E62
:10143000305F4652444D2D4B3832465C64657669C8
:101440006365735C4D4B38324632353631355C64FA
:101450007269766572735C66736C5F636C6F636BE5
:101460002E630000443A5C7265735F636869705F65
:101470006B696E657469735C53444B5F322E382E12
:10148000305F4652444D2D4B3832465C6465766978
:101490006365735C4D4B38324632353631355C64AA
:1014A0007269766572735C66736C5F6770696F2EC4
:1014B00063000000443A5C7265735F636869705F43
:1014C0006B696E657469735C53444B5F322E382EC2
:1014D000305F4652444D2D4B3832465C6465766928
:1014E0006365735C4D4B38324632353631355C645A
:1014F0007269766572735C66736C5F6C707561722D
:10150000742E6300443A5C7265735F636869705F50
:101510006B696E657469735C53444B5F322E382E71
:10152000305F4652444D2D4B3832465C636F6D70D0
:101530006F6E656E74735C756172745C6C707561EE
:1015400072745F616461707465722E6300000000E4
:1015500080B50948016851F47001016007484CF2F8
:10156000205101804DF6281101804FF4E9700449A3
:10157000088000F007F801BD88ED00E00E2005406E
:101580000020054070470100415353455254204507
:1015900052524F52202220257320223A2066696C35
:1015A000652022257322204C696E65202225642245
:1015B000200A000072B60548054901600A6882F3F6
:1015C00008880448804762B60348004708ED00E0F9
:1015D0000000000051150000F916000010B5074981
:1015E00079441831064C7C44163404E00A68081D1E
:1015F000114488470146A142F8D110BD2C000000DB
:101600004C0000004EF68851CEF20001086840F40C
:1016100070000860BFF34F8FBFF36F8F4FF0007003
:10162000E1EE100A70470000CBF2FFFF400000001F
:101630000400FF1F000000009BF8FFFF04000000F3
:10164000380200000000FF1F00000000FEE700005D
:1016500000F00DF8002801D0FFF7C0FFAFF30080C5
:101660000020AFF30080FFF75BFD00F002F80120DF
:10167000704700F001B8FEE70746384600F002F870
:10168000FBE7FEE780B5AFF30080024A11001820A7
:10169000ABBEFBE72600020000400C4000500C40AF
:1016A00000600C4000700C4000600D407365726972
:1016B000616C48616E646C65000000000702000008
:1016C0000000000000000400305520213D20736917
:1016D0007A6500003020213D20636F6E66696700E7
:1016E0003020213D206461746100000077726974CC
:1016F0006548616E646C6500AFF30080FFF782FFA0
:10170000FFF7A6FF0100000200001401001BB70054
:1017100000048000636F6E66696700003020213D21
:101720002063680068616E646C65000064617461C8
:10173000000000006C656E67746800006275666684
:10174000657200006C656E677468000068616E64A5
:101750006C65000062756666657200006C656E6798
:1017600074680000004800477518000000480047F2
:101770007518000000480047751800000048004731
:101780007518000000480047751800000048004721
:101790007518000000480047751800000048004711
:1017A0007518000000480047751800000048004701
:1017B00075180000004800477518000000480047F1
:1017C00075180000004800477518000000480047E1
:1017D00075180000004800477518000000480047D1
:1017E00075180000004800477518000000480047C1
:1017F00075180000004800477518000000480047B1
:1018000075180000004800477518000000480047A0
:101810007518000000480047751800000048004790
:101820002110000000480047351000000048004724
:1018300049100000004800475D10000000480047C4
:10184000711000000048004775180000004800476C
:101850007518000000480047751800000048004750
:101860007518000000480047751800000048004740
:1018700075180000FFF7FEBF00004001FEE7FEE71D
:06188000FEE7FEE7FEE7B3
:04000005000016F9E8
:00000001FF
