:1020000000000420FD6D0000733F00001B40000035
:102010002F4500007B450000AF4500000000000098
:10202000000000000000000000000000E745000084
:102030007364000000000000956E00000967000056
:10204000A9700000B1700000B9700000C1700000FC
:10205000C9700000D1700000D9700000E17000006C
:10206000E9700000F1700000F970000001710000DB
:102070000971000011710000197100002171000048
:10208000297100002D7300002D7300002D730000D6
:102090003171000039710000417100004971000088
:1020A00051710000597100006171000069710000F8
:1020B0007171000079710000817100008971000068
:1020C0009171000099710000A1710000A9710000D8
:1020D000B1710000B9710000C1710000C971000048
:1020E000D1710000D9710000E1710000E9710000B8
:1020F000F1710000F9710000017200000972000026
:1021000011720000197200002D7300002D73000081
:102110002D7300002D7300002D7300002D7300003F
:102120002D7300002D730000217200002972000041
:102130002D7300002D7300002D7300002D7300001F
:102140002D7300002D7300002D7300002D7300000F
:102150002D7300002D7300002D7300002D730000FF
:102160002D7300002D7300002D73000031720000EC
:102170003972000041720000497200005172000083
:102180005972000061720000697200002D73000036
:102190002D7300002D7300002D7300002D730000BF
:1021A0002D7300002D7300002D7300002D730000AF
:1021B0002D7300002D7300002D7300002D7300009F
:1021C0002D730000717200002D7300002D7300004C
:1021D0002D7300002D7300002D7300002D7300007F
:1021E0002D7300002D7300002D7300002D7300006F
:1021F0002D7300002D7300007972000081720000C1
:102200002D7300002D7300002D7300002D7300004E
:102210002D7300002D7300002D7300002D7300003E
:102220002D7300002D7300002D7300002D7300002E
:102230002D7300002D7300002D7300002D7300001E
:102240002D7300002D730000897200009172000050
:102250002D73000099720000A17200002D73000020
:102260002D730000A9720000B1720000B972000065
:10227000C1720000C9720000D17200002D7300000D
:102280002D7300002D7300002D7300002D730000CE
:102290002D7300002D7300002D7300002D730000BE
:1022A0002D7300002D7300002D7300002D730000AE
:1022B0002D7300002D7300002D7300002D7300009E
:1022C0002D7300002D7300002D7300002D7300008E
:1022D0002D7300002D7300002D7300002D7300007E
:1022E0002D7300002D7300002D7300002D7300006E
:1022F0002D7300002D7300002D7300002D7300005E
:102300002D7300002D7300002D7300002D7300004D
:102310002D7300002D7300002D7300002D7300003D
:102320002D7300002D7300002D7300002D7300002D
:102330002D7300002D7300002D7300002D7300001D
:102340002D7300002D7300002D7300002D7300000D
:102350002D7300002D7300002D7300002D730000FD
:10236000D9720000E1720000E9720000F172000011
:102370002D7300002D7300002D7300002D730000DD
:102380002D7300002D730000F9720000017300002E
:1023900009730000117300002D7300002D730000FD
:1023A00019730000217300002D7300002D730000CD
:1023B0002D7300002D7300002D7300002D7300009D
:1023C0002D7300002D7300002D7300002D7300008D
:1023D0002D7300002D7300002D7300002D7300007D
:1023E0002D7300002D7300002D7300002D7300006D
:1023F0002D7300002D7300002D730000FFFFFFFF01
:10240000DFF83418C0B2C0010858C0F3022070478A
:10241000DFF82418C0B2C001085800F0FF00401CCB
:10242000704770B505002800C0B2FFF7E9FF06004D
:10243000DFF8FC072900C9B200EBC100805D00F0A5
:10244000BDFD04002800C0B2FFF7E2FFB4FBF0F4CA
:10245000002C09D140F6C502DFF8D817DFF8DC07F9
:1024600000F0A4FEAFF30080200070BD80B5002016
:10247000FFF7D7FF02BD70B504006068D12802D213
:102480006068682808D27922DFF8B417DFF8B4074B
:1024900000F08CFEAFF30080DFF8AC5728688004B2
:1024A0001FD5286800F0FF00217901F0FF01884264
:1024B00017D1286810F4C0302178C90311F4C03155
:1024C00088420ED12868400403D4286850F4804024
:1024D00028602868400003D5286830F080402860D4
:1024E00030E0DFF8680700F06FFE2E6836F0005627
:1024F00016F4C04F04D036F4C04656F080462E6025
:10250000DFF84C070640207900F0FF0006432078F2
:10251000C00310F4C030064346F0804656F400561F
:102520002E60BFF34F8FBFF36F8FDFF828171E2089
:1025300000F05EFF28688000FCD556F4804636F037
:1025400080462E6070BD2DE9F8430400DFF808577F
:102550002868000226D5002C15D0DFF8001708687F
:10256000000402D4207A00280DD0207A62681288F4
:10257000120452EAC032606840884004400C0243B2
:10258000086882420ED12868800403D4286850F479
:10259000005028602868400003D5286830F080404B
:1025A000286054E0DFF8A40600F00EFEDFF8B06605
:1025B000306870F07F3030602F68DFF8A80607427F
:1025C00005D0DFF8A406074057F080472F60002CA5
:1025D00016D0207A002813D06068002810D0206818
:1025E00020F04040DFF88416086060680088616869
:1025F000498851EA004151F40041DFF8600601606A
:10260000DFF86C86C5F80080DFF8489649461E2042
:1026100000F0EEFE48F4000858F40068C5F80080A9
:102620004946FA2000F0E4FE38F40068C5F800805E
:1026300028688000FCD558F40058C5F8008038F0B0
:102640008048C5F80080306830F080303060BDE8E8
:10265000F1832DE9F84304000D00160000275FF018
:1026600000083000C0B2242809DB40F23512DFF840
:10267000D015DFF8A80600F099FDAFF30080300018
:10268000C0B20C2809DA4FF49B72DFF8B415DFF8FA
:10269000900600F08BFDAFF30080200040B20228CE
:1026A00002D0032807D00DE0DFF8B4050700DFF8FB
:1026B000980680460FE0DFF8B8060700DFF8B4069A
:1026C000804608E04FF4A272DFF8741585A000F090
:1026D0006DFDAFF300805FF03F093968E80019FA3B
:1026E00000F00140E800C14080223868EB0012FA97
:1026F00003F318400823EB40D840002801D0012301
:1027000000E000233000C0B2814203D11800C0B203
:10271000002843D05FF0400E38685FEAC50C1EFA0F
:102720000CFC1CEA0000009038685FEAC50C12FA45
:102730000CFC5CEA00003860D7F800C0E80019FA29
:1027400000F93CEA0909C7F80090D7F800C0B14683
:102750005FFA89F919F03F09E80019FA00F959EA16
:102760000C0CC7F800C0D8F800005FF0020C1CFA8F
:1027700005FC9CEA0000C8F80000D7F800C0E8009B
:1027800082403CEA02023A6000983A685FEAC50C6F
:102790001EFA0CFC1CEA02029042F5D0BDE8F1835F
:1027A000F8B507000D0000260024380040B20228CA
:1027B0000DD0380040B2032809D04FF4C372DFF8BF
:1027C0008014DFF8FC0500F0F1FCAFF30080380066
:1027D00040B2022802D003280CD017E0DFF88004B2
:1027E00001683F22E800824011400C00DFF8D40568
:1027F000060014E0DFF8780501683F22E800824017
:1028000011400C00DFF8FC05060008E04FF4CB7225
:10281000DFF82C1433A000F0C9FCAFF30080E8000F
:10282000C4400C2C09D240F29B12DFF81414DFF8DC
:10283000D80500F0BBFCAFF30080242C09D34FF483
:10284000CE72DFF8FC13DFF8C40500F0AFFCAFF385
:102850000080002C04D0B6FBF4F01221484300E0C5
:102860000020F2BD70B5DFF8A845206880020ED5C3
:102870002068800403D4206850F400502060206851
:10288000400003D5206830F08040206029E0DFF868
:10289000BC0300F099FCDFF8D804016871F07F31C7
:1028A0000160DFF870552560DFF8A86331001E2055
:1028B00000F09EFD45F4001555F4006525603100DB
:1028C0001E2000F095FD35F400652560206880002D
:1028D000FCD545F4005555F00805256035F08045D8
:1028E000256070BD3000000038B504000D002000E8
:1028F00040B2002808D002281FD018D3042842D0A4
:102900002ED3052845D04AE02800C0B2002805D0C3
:10291000DFF83403006850F4003004E0DFF82803E7
:10292000006830F40030DFF82013086040E0290030
:10293000C9B2012000F057F83AE02800C0B20028E0
:1029400005D0DFF81403006850F4803004E0DFF8AD
:102950000803006830F48030DFF8FC12086027E0DC
:102960002800C0B2002805D0DFF8A404006850F4A5
:10297000803004E0DFF89804006830F48030DFF83D
:102980009014086014E02900C9B2022000F02BF86E
:102990000EE02900C9B2032000F025F808E040F25B
:1029A0002522DFF89C1234A000F000FCAFF3008079
:1029B00031BD38B504000D002800C0B2002802D097
:1029C0004FF4005200E000222800C0B2002801D0DD
:1029D000042100E0082152F48042C9B22000C0B2B4
:1029E00000F0BCFF31BD38B504000D002800C0B2B6
:1029F000002801D0042100E008215FF48032C9B230
:102A00002000C0B200F0AAFF31BD38B504000D00AF
:102A10002800C0B2002801D0042100E008215FF4A2
:102A20008002C9B22000C0B200F098FF31BD38B5B5
:102A300004000D002800C0B2002801D0042100E0ED
:102A400008214FF40052C9B22000C0B200F086FF46
:102A500031BD38B504000D0001212000C0B2FFF7E0
:102A6000E6FFDFF8F011280000F0C2FC0021200092
:102A7000C0B2FFF7DCFF31BD3000000038B5040004
:102A80000D002800C0B2002801D0042100E0082178
:102A90004FF40042C9B22000C0B200F05FFF31BD68
:102AA00038B504000D002800C0B2002801D0042170
:102AB00000E008214FF40042C9B22000C0B200F08B
:102AC0004DFF31BD2DE9F84305000E001700984673
:102AD000DDF82090099C2800C0B2012804D0002114
:102AE0002800C0B2FFF765FF002C0AD0628820885A
:102AF00052EA004252F4004210212800C0B200F015
:102B00002DFF4A4630212800C0B200F027FF3A00CE
:102B100020212800C0B200F021FF002000907F2378
:102B20003200D2B200212800C0B200F030FF2800ED
:102B3000C0B201280AD0192000905FF060634246BD
:102B4000D2B200212800C0B200F021FF01212800EC
:102B5000C0B2FFF75AFFDFF8FC10642000F048FC19
:102B600001212800C0B2FFF724FFBDE8F183010076
:102B7000C9B2002906D1DFF840140A6832F4804255
:102B80000A6005E0DFF830140A6852F480420A60F7
:102B900070470100C9B2002906D1DFF81C140A6889
:102BA00032F400520A6005E0DFF80C140A6852F4AF
:102BB00000520A60704780B50020FFF7EAFF01204D
:102BC000FFF7D5FF00210220FFF76AFF0021022056
:102BD000FFF7EFFE00210220FFF750FF0021022047
:102BE000FFF713FF01BD0100C9B2002906D1DFF8CC
:102BF0007C150A6832F480420A6005E0DFF86C1543
:102C00000A6852F480420A6070470100C9B2002984
:102C100006D1DFF858150A6832F400520A6005E060
:102C2000DFF848150A6852F400520A607047000045
:102C300004600000286900000000CC40A070000083
:102C400084690000EC6A00000042C8400040C840AF
:102C5000007FFEFF00CA9A3B4042C8406042C84025
:102C60007042C84000208000FFDF7FFFA042C840C4
:102C700008000040FEB504000025DFF8F80400F06D
:102C8000A3FADFF8E864376817F02020B0F1202FAE
:102C900001D10120050001210320FFF7A4FE280037
:102CA000C0B2002811D00020FFF7AFFF0120FFF7CE
:102CB0009AFF00210320FFF7F3FE00210320FFF716
:102CC00078FE00210320FFF7A0FE0120FFF79DFF03
:102CD000207C002804D0E068002801D0E06800E0F3
:102CE00000200190A068009063786268217803203A
:102CF000FFF7E8FEE1210320FFF7ABFE3068070095
:102D0000B800FBD501210320FFF7CAFE0020FFF722
:102D10006AFF00210320FFF766FEF7BD4C6F00003D
:102D2000646F00000100C9B2002906D1DFF8481421
:102D30000A6832F480420A6005E0DFF83C140A6851
:102D400052F480420A6070475042C8400100C9B244
:102D5000002906D1DFF820140A6832F000720A60F8
:102D600005E0DFF814140A6852F000720A60704738
:102D70003042C8402042C8400100C9B2002906D1F3
:102D8000DFF8F4130A6832F080620A6005E0DFF8C9
:102D9000E8130A6852F080620A6070470100C9B205
:102DA000002906D1DFF8D0130A6832F400520A6015
:102DB00005E0DFF8C4130A6852F400520A60704755
:102DC000EC6C000000A4781F80B50020FFF7E6FF40
:102DD0000020FFF7BBFF0020FFF7CEFF0120FFF729
:102DE000A1FF00210120FFF75BFE00210120FFF77A
:102DF000E0FD00210120FFF741FE00210120FFF747
:102E000004FE01BD00389C1C7C6F0000946F000024
:102E10001042C8401000004038B5040030210420A2
:102E200000F0A9FD050035F4A0652000C0B200281F
:102E300002D155F4807505E02000C0B2012801D10F
:102E400055F480652A003021042000F087FD31BD53
:102E500070B52DED048B05000024280040B2042835
:102E60000DD0280040B2052809D040F27F52DFF88B
:102E70000013DFF8080300F099F9AFF30080280091
:102E800040B2042801D1022000E003200021C0B29A
:102E900000F071FDC0F3426610F07F0008EE100AEA
:102EA000280040B2042801D1022000E00320302194
:102EB000C0B200F060FD00EE100AB8EE409B2800A2
:102EC00040B2042801D1022000E003202021C0B23A
:102ED00000F051FD00EE100AB8EE401BB8EE480BB2
:102EE00081EE092B30EE020B9FED963B20EE030B9B
:102EF0000120B04002EE100AB8EE422B80EE020B29
:102F0000BCEEC02B12EE100ABDEC048B70BDF8B500
:102F100007000024380040B2002808D0022824D03E
:102F20001FD3042829D024D305282BD02FE0DFF885
:102F30005002016801F0FF010D000068C0F3C130CC
:102F4000032801D1012604E001210600761C11FAB4
:102F500006F6DFF830027100B0FBF1F068430400C0
:102F60001DE0DFF82402040019E0DFF8200204006D
:102F700015E0DFF81C02040011E00420FFF768FFF1
:102F800004000CE00520FFF763FF040007E04FF4A6
:102F9000BA62774974A000F009F9AFF30080002C01
:102FA00008D140F2D3527249DFF8E80100F0FEF890
:102FB000AFF300802000F2BD0043C84038B50500E3
:102FC00000242800C0B200282DD0022833D02ED3F0
:102FD000042838D033D3062839D034D308283BD03E
:102FE00035D30A283DD037D30C2846D03FD30E28FE
:102FF0004FD048D3102851D04BD312285AD053D396
:10300000142863D05CD3162866D065D318286ED0F8
:1030100067D31A2873D072D31C2875D074D31E2896
:1030200077D076D379E0DFF8700104007DE0DFF837
:103030006C01040079E0DFF84C01040075E0DFF872
:103040006001040071E0DFF83C0104006DE0002045
:10305000FFF75DFF040068E00220FFF758FF04005F
:1030600063E000210220FFF79BFB04005DE00121EB
:103070000220FFF795FB040057E002210220FFF732
:103080008FFB040051E003210220FFF789FB0400BD
:103090004BE00320FFF73BFF040046E00320FFF76F
:1030A00036FF4008040040E000210320FFF778FBD2
:1030B00004003AE001210320FFF772FB040034E032
:1030C00002210320FFF76CFB04002EE00321032004
:1030D000FFF766FB040028E00120FFF718FF04005B
:1030E00023E00120FFF713FF400804001DE001204A
:1030F000FFF70DFF0521B0FBF1F0040015E00420FF
:10310000FFF705FF040010E00520FFF700FF0400B3
:103110000BE0FFF7ABF9040007E040F23F6214490F
:1031200011A000F043F8AFF30080002C08D140F26A
:1031300042620F49DFF85C0000F038F8AFF300801E
:10314000200032BD0000000060E37641DFF854004B
:103150000168490849000160DFF84C00016851F03E
:103160000101016070470000300000005043C8407A
:10317000846900000040C840C042C840486C00005C
:103180000042C84000366E0100CA9A3B00A4781F76
:1031900000389C1C487000000024F400006CDC0225
:1031A0000084D7175040C8406040C84070B5040044
:1031B0000D00160033002A002100024800F0C1FC77
:1031C00000BEFDE7806D000038B50400002100203E
:1031D00000F0D1FB050040F2051295420ED000210F
:1031E000002000F0BBFBDFF8F411012000F000F933
:1031F000D4F8700550F01000C4F8700531BD70B5FA
:1032000004000D002800C0B200281ED1D4F810051B
:1032100030F00500C4F81005DFF8C06131004FF44C
:103220007A7000F0E5F8D4F8100530F02000C4F80A
:10323000100531004FF47A7000F0DAF8D4F8100578
:1032400030F40020C4F8100528E0D4F81005400838
:103250004000C4F81005DFF8846131004FF47A7043
:1032600000F0C6F8D4F8100550F40020C4F810059A
:1032700031004FF47A7000F0BBF8D4F8100550F02C
:103280002000C4F8100531004FF47A7000F0B0F857
:10329000D4F8100550F00400C4F8100570BD70B5E6
:1032A00004000D002800C0B200281ED0D4F830055C
:1032B00050F40030C4F83005DFF8206131004FF4DD
:1032C0007A7000F095F8D4F8300550F48020C4F8F6
:1032D000300531004FF47A7000F08AF8D4F83005E8
:1032E00030F00400C4F830051DE0D4F8300550F08B
:1032F0000400C4F83005DFF8E46031004FF47A7060
:1033000000F076F8D4F8300530F48020C4F83005A9
:1033100031004FF47A7000F06BF8D4F8300530F4D7
:103320000030C4F8300570BD30B41300DBB2002BA0
:103330004CD00B00DBB2002B03D0022B2FD018D3C4
:1033400043E0D0F850355B085B0053F00203C0F84F
:103350005035D0F8605535F4E05545F0807555F49A
:1033600080652C00C0F86045D0F860355B01FBD566
:1033700032E0D0F850359B089B00C0F85035D0F8AB
:10338000605535F4E05545F0807555F400652C0026
:10339000C0F86045D0F860355B01FBD51CE0D0F883
:1033A00050359B089B00C0F85035D0F8605535F477
:1033B000E05545F0807555F480552C00C0F8604507
:1033C000D0F860355B01FBD506E005E0D0F860552C
:1033D000034B1D40C0F8605530BC704700CA9A3B93
:1033E000FFE3FFFE01000846401E0028FCD17047A5
:1033F0002DE9F84380468946B8F1000F24D0A9FB97
:103400000801134A002300F0D5FB06000F0000203E
:1034100001218F4209D301D8864206D3D5220B4918
:103420000C48FFF7C3FEAFF30080300039000322E1
:10343000002300F0BFFB04000D006D0045EAD475C9
:1034400064002000FFF7CEFFBDE8F18310680000A4
:1034500040420F00AC6F00002DE9F0430400200053
:10346000C0B200280ED0022800F0AD8051D304284D
:1034700000F06581C0F00581062800F0FC81C0F0F5
:10348000B7813BE20800C0B2002820D0DFF874E426
:10349000DEF8000030F48030CEF80000DEF800C026
:1034A0005FEA1C2C5FEA0C2C1000C0B250EA0C0C36
:1034B0006646CEF80060DFF850040360DFF84C0485
:1034C000D0F800C09CF4803CC0F800C016E2DFF8E1
:1034D0003484D8F800C03CF4803C5CF4803CC8F8EC
:1034E00000C0D8F800E05FEA1E2E5FEA0E2E100042
:1034F000C0B250EA0E0EC8F800E0DFF81004D0F8B1
:10350000008098F48038C0F80080DFF80404006878
:10351000F5E10800C0B200282AD0DFF8F8C3DCF8D3
:10352000000010F400700700DCF8000030F4803078
:10353000CCF80000DCF800E05FEA1E2E5FEA0E2EF9
:103540001000C0B250EA0E0E7646CCF80060DFF8EC
:10355000C8030360DCF8000090F48070CCF8000031
:10356000DCF8000010F400700500BD42F8D029E03E
:10357000DFF8A093D9F800C01CF4007CD9F80080D3
:1035800038F4803858F48038C9F80080D9F800E061
:103590005FEA1E2E5FEA0E2E1000C0B250EA0E0E39
:1035A000C9F800E0D9F8000090F48070C9F8000074
:1035B000D9F8000010F4007005006545F8D0D74830
:1035C00000689CE19AE10800C0B200282FD0DFF823
:1035D00050C3DCF8000010F400700700DCF80000B5
:1035E00030F48030CCF80000DCF800E05FEA1E2EFA
:1035F0005FEA0E2E1000C0B250EA0E0E7646CCF8EE
:103600000060C8480360DCF8000090F48070CCF8DB
:103610000000DCF8000010F400700500BD42F8D096
:10362000DCF8000030F48030CCF8000066E1DFF810
:10363000F092D9F800C01CF4007CD9F8008038F46E
:10364000803858F48038C9F80080D9F800E05FEA83
:103650001E2E5FEA0E2E1000C0B250EA0E0EC9F800
:1036600000E0D9F8000090F48070C9F80000D9F8A3
:10367000000010F4007005006545F8D0AA48006805
:103680003DE10800C0B200282FD0DFF8A0C2DCF86E
:10369000000010F400700700DCF8000030F4803007
:1036A000CCF80000DCF800E05FEA1E2E5FEA0E2E88
:1036B0001000C0B250EA0E0E7646CCF800609C486E
:1036C0000360DCF8000090F48070CCF80000DCF8B7
:1036D000000010F400700500BD42F8D0DCF80000D6
:1036E00030F48030CCF8000008E1DFF84092D9F8DF
:1036F00000C01CF4007CD9F8008038F4803858F4FD
:103700008038C9F80080D9F800E05FEA1E2E5FEA31
:103710000E2E1000C0B250EA0E0EC9F800E0D9F823
:10372000000090F48070C9F80000D9F8000010F48F
:10373000007005006545F8D07E480068DFE00800AD
:10374000C0B2002829D0DFF8F0C1DCF8000010F486
:1037500000700700DCF8000030F48030CCF8000086
:10376000DCF800E05FEA1E2E5FEA0E2E1000C0B209
:1037700050EA0E0E7646CCF8006070480360DCF824
:10378000000090F48070CCF80000DCF8000010F429
:1037900000700500BD42F8D029E0DFF89C91D9F80F
:1037A00000C01CF4007CD9F8008038F4803858F44C
:1037B0008038C9F80080D9F800E05FEA1E2E5FEA81
:1037C0000E2E1000C0B250EA0E0EC9F800E0D9F873
:1037D000000090F48070C9F80000D9F8000010F4DF
:1037E000007005006545F8D05548006887E085E021
:1037F0000800C0B200281ED0DFF848E1DEF8000063
:1038000030F48030CEF80000DEF800C05FEA1C2CF7
:103810005FEA0C2C1000C0B250EA0C0C6646CEF8E1
:103820000060494803604948D0F800C09CF4004C4F
:10383000C0F800C062E0DFF80C81D8F800C03CF4AA
:10384000803C5CF4803CC8F800C0D8F800E05FEA37
:103850001E2E5FEA0E2E1000C0B250EA0E0EC8F8FF
:1038600000E03A48D0F8008098F40048C0F80080A2
:103870003748006843E00800C0B200281ED0DFF8D7
:10388000C4E0DEF8000030F48030CEF80000DEF84E
:1038900000C05FEA1C2C5FEA0C2C1000C0B250EA9A
:1038A0000C0C6646CEF80060274803602948D0F823
:1038B00000C09CF0010CC0F800C01FE0DFF884805D
:1038C000D8F800C03CF4803C5CF4803CC8F800C0F0
:1038D000D8F800E05FEA1E2E5FEA0E2E1000C0B29C
:1038E00050EA0E0EC8F800E01A48D0F8008098F0B0
:1038F0000108C0F800801848006800E00020BDE81A
:10390000F08300002048C8403048C8400045C84007
:103910004048C8405048C8406048C8407048C84007
:103920008048C8409048C840A048C840B048C840F7
:10393000C048C840D048C8402049C8403049C84065
:103940004049C840E048C840F048C8400044C8402A
:103950001049C8407045C8400049C84070B50400CF
:103960000D00160033002A00D2B201212000C0B29F
:10397000FFF772FD70BD38B504000D0000232A006A
:10398000D2B200212000C0B2FFF766FD32BD2DE9A2
:10399000F84304000D0016001F00DDF82080290008
:1039A000C9B22000C0B2FFF7E6FF814639EA070935
:1039B00016FA08F0384050EA09094A462900C9B207
:1039C0002000C0B2FFF7CAFFBDE8F18338B504009C
:1039D0000D00002CFDD0002D01D1002012E0DFF8F9
:1039E000C4010068002801D100200BE02A0021005A
:1039F000DFF8AC0100F09BFA00B2002801D05FF0C4
:103A0000FF35280032BD2DE9F04104000D001600FD
:103A10001F0000205FF00008B84511DA2868401C3C
:103A2000802805D329682000FFF7D0FF00202860F8
:103A3000286826542868401C286018F10108EBE724
:103A4000BDE8F0812DE9F14F8AB00C0015001E0091
:103A50006846102100F08AFA002704A8524914226F
:103A600000F098FA049605949DF828008DF81E0041
:103A70008DF8085048F64170ADF80A002800C0B231
:103A8000012802D104A803901AE02800C0B202283D
:103A900003D143F22150070012E02800C0B20328EE
:103AA00003D143F2215007000AE02800C0B20428E5
:103AB00003D143F22150070002E043F221500700F6
:103AC000380043F2215100B2884235D05FF0200A1D
:103AD0005FF0000BDFF8D480C1465A465146484695
:103AE00000F09CFA18F10400C8F800006946D8F804
:103AF000000000F0ACF98146484600B20028FBD136
:103B00002648007818F11801D8F8000000F0C4F930
:103B10008246504600B20028FBD118F11C01D8F8AB
:103B2000000000F0DAF90700380000B20028FBD1ED
:103B3000D8F800001B4908603FB238000BB0BDE860
:103B4000F08F0EB478B50400002605AD29002000E2
:103B500000F003F872BC5DF810FB2DE9F041A0B055
:103B600004000D000026002780210022E846404680
:103B700000F054FA0B48006800280BD00C4B6A4642
:103B80002900200000F0AEFB060031006846FFF778
:103B90001DFF0700380020B0BDE8F0819400002030
:103BA0001C00002024000020D86F0000040000202A
:103BB000073A0000BBBBE1B1B2F5803F80F07E80E8
:103BC000022A1ED98C46B1FBF2F102FB11C31B0481
:103BD00043EA1043B3FBF2FC02FB1C3380B240EA21
:103BE0000343B3FBF2F002FB103240EA0C40002327
:103BF0007047022A05D98446B0FBF2F002FB10C2DE
:103C000070474AB105D100F0010249085FEA30006F
:103C1000704700220023704700F08ABC0B000200AE
:103C2000002100207047904271EB030CF6D3B3F5EE
:103C3000803F2FD2F0B5B3FA83F7B1FA81F4A7F140
:103C40000F0E3D1B5340CEF1200602FA0EF2F34157
:103C50005340B5F10F0746D80F3C2C444140C4F106
:103C60002006A040F1414140B1FBF3F603FB1611E1
:103C7000A2FB0645001BA94102D2761E80185941BD
:103C800080EA010221FA0EF362FA0EF200215A4094
:103C90003046F0BD30B4B1FBF3FC03FB1C11A2FBBA
:103CA0000C45001BA94103D2ACF1010C801859410D
:103CB00030BC02460B46604600217047B2F1807F5F
:103CC00065D3F0B5B2FA82F7B1FA81F4C7F10F0605
:103CD0003D1B22FA06F307F1110EF24120355A403E
:103CE000B5F10F07B8D94140C4F12006A040F14119
:103CF0004140B1FBF3FC03FB1C11A2FB0C45001B74
:103D0000A94103D2BCF1010C801859410F2F12D3E5
:103D10000F3FC90341EA5041B1FBF3F603FB161113
:103D2000A2FB0645D4EBC030A94102D2761E801812
:103D3000594146EACC3C07B34140C7F12006B840A0
:103D4000F1414140B1FBF3F603FB1611A2FB06451E
:103D5000001BA94102D2761E8018594180EA010257
:103D600021FA0EF3C7F1200462FA0EF20CFA07F002
:103D70005A402CFA04F13043F0BD80EA010221FAE6
:103D80000EF3002162FA0EF260465A40F0BD8C46F6
:103D9000B1FBF2F102FB11C31B0243EA1063B3FB58
:103DA000F2FC02FB1C331B024CEA002043EA1063C6
:103DB000B3FBF2FC02FB1C331B024CEA002043EA7B
:103DC0001063B3FBF2FC02FB1C331B024CEA002025
:103DD00043EA1063B3FBF2FC02FB1C324CEA002006
:103DE00000237047EFF3108072B6704780F310889D
:103DF00070472DE9F04104000D0016001F0043F24A
:103E000021582078012806D13A00310014F10C0025
:103E100000F0A2FB8046404600B2BDE8F0812DE9EB
:103E2000F04107000E001500002FFDD0002EFDD040
:103E3000002DFDD0B846D8F80040002CFDD02B0056
:103E4000320041462000FFF7D4FFBDE8F0812DE9A4
:103E5000F04704000D0043F22156002DFDD0002C48
:103E6000FDD027005FF014085FF00009BA464A460B
:103E70004146504600F0D2F8287A3870287A012856
:103E800006D1E96817F10C0000F053FB0600FFE7CC
:103E9000300000B2BDE8F0872DE9F84F04000D00B6
:103EA000002CFDD0002DFDD026002F00FFF79AFF3B
:103EB0008046B068401CB0604046FFF797FF5FF057
:103EC00004095FF0000AAB4652464946584600F0E6
:103ED000A5F83E600020BDE8F28F2DE9F84F040000
:103EE0000D000026002CFDD0002DFDD027000095F0
:103EF000FFF778FF80467868002803D043F222500D
:103F000006000DE0009878605FF004095FF0000A99
:103F1000AB4652464946584600F080F80098076084
:103F20004046FFF763FF300000B2BDE8F28F70B586
:103F300004000D001600320029002000FFF76FFF7B
:103F400070BD0EE002684368024408305FEAC37C3B
:103F500044BF4B445B1E52F804CB43F804CB091F0B
:103F6000F9D150F8041B0029ECD17047002200F071
:103F700005BBFEE762B38B0708D0521E11F8013B68
:103F800000F8013B00F024808B07F6D1830740F056
:103F9000208000BF103A07D330B4B1E83810103A8F
:103FA000A0E83810F9D230BC530724BFB1E808109C
:103FB000A0E8081044BF51F8043B40F8043BD20786
:103FC00024BF31F8022B20F8022B44BF0B7803707A
:103FD0007047121F17D35B0009D151F8043B20F83A
:103FE000023B1B0C121F20F8023BF6D20BE051F8EB
:103FF000043B00F8013B1B0A20F8023B1B0C121F7C
:1040000000F8013BF3D238BF121D521E24BF11F835
:10401000013B00F8013BF8D87047FEE762F30F223E
:1040200062F31F42401810F0030308D0C91A1FD3CF
:10403000DB0748BF00F8012D28BF20F8022D130030
:1040400030B414461546103928BF20E93C00FAD890
:10405000490728BF20E90C0048BF40F8042D89001B
:1040600028BF20F8022D48BF00F8012D30BC704752
:10407000C91818BF00F8012DCB0728BF00F8012D83
:10408000704730B40300002000252A00D2B2002A75
:1040900019D11A68521C1A601A681278140022008A
:1040A000D2B2302A09DB2200D2B23A2A05DA0A2239
:1040B000504350FA84F03038E7E71A68521E1A600D
:1040C00001221500E1E730BC7047F0B403001D6821
:1040D000062000246D1C2E782E2E1BD100263000C9
:1040E000002634002600F6B2002E14D16D1C2E7866
:1040F0003700FFB2302F09DB3700FFB23A2F05DA65
:104100000A27F6B207FB00603038EBE76D1E012787
:104110003C00E7E76D1E1D60F0BC70470100002009
:104120000A00D2B26F2A0BD00A00D2B2622A07D09C
:104130000A00D2B2702A03D00A00D2B2752A01D185
:10414000012210007047010000200A00D2B2642A48
:1041500003D00A00D2B2692A01D1012210007047AF
:104160002DE9F84F04000D0016001F00DDF828802F
:10417000DDF82C90DDF830A0DDF834B0AB1B202248
:1041800059465046C84798F80000002808D0012337
:1041900098F8002059465046C847B8F10108F2E7A0
:1041A000BDE8F18F2DE9F84F04000D0016001F0047
:1041B000DDF82880DDF82C90DDF830A0DDF834B093
:1041C000AB1B202259465046C84798F800000028EB
:1041D00008D0012398F8002059465046C847B8F146
:1041E0000108F2E7BDE8F18F010000200A00D2B219
:1041F000662A03D00A00D2B2462A01D10122100059
:104200007047010000200A00D2B2782A03D00A00C9
:10421000D2B2582A01D10122100070470168491C0E
:104220000B781A001300DBB2682BF8D01300DBB256
:104230006C2BF4D0491E0160704701000800C0B229
:104240006F2801D108200CE00800C0B2622801D11B
:10425000022006E00800C0B2702801D1102000E062
:104260000A20C0B270472DE9F64F05000B9A0020D6
:10427000290000240C704E1C00275FF0000C5FF03A
:10428000000E5FF000085FF0000B5FF000090024F3
:104290005FF0000A00990968002905D15FF0300B32
:1042A00086F800B0401C1BE0002919D0B1FBF3FBDD
:1042B000D94603FB191BBBF10A0F02D25C4630340E
:1042C00009E01400E4B2002C01D0412400E0612494
:1042D00014EB0B040A3C49463470761C401CE3E79F
:1042E000BDE8F68F2DE9F34F97B015001E005FF083
:1042F00000085FF0000900200690002009900020CF
:1043000007901798059005980078002801D1069825
:104310000AE10598007807003800C0B2252809D0C6
:1043200001233A00D2B206A92800B0470598401CE4
:104330000590E8E701208DF8100018A905A8FFF7FF
:10434000A0FE0890002218A905A8FFF7BEFE0C9059
:1043500005A8FFF763FF0598401C059005980078B5
:1043600007003800C0B2FFF7EEFE01281FD11898F1
:1043700000681899091D18910A909DF81000009086
:104380000A2301220AA90DA8FFF76DFF81460DA897
:104390004844804606A8039002950196CDF8008017
:1043A00000234A4608990020FFF7DAFEB8E03800FB
:1043B000C0B2FFF719FF01280BD11898C01D30F0CB
:1043C00007001890189890ED000B18980830189076
:1043D000A6E03800C0B2FFF714FF012827D138004B
:1043E000C0B2782802D100208DF81000189800681B
:1043F0001899091D189107909DF81000009010233E
:10440000002207A90DA8FFF72EFF81460DA84844FA
:10441000804606A8039002950196CDF800809DF88D
:1044200010304A4608990020FFF7BCFE78E03800BB
:10443000C0B2FFF773FE012839D13800C0B270282E
:1044400010D1189800681899091D1891009004203F
:104450000190EA460DF11C0B019A51465846FFF7B0
:1044600089FD05E0189800681899091D18910790B2
:104470003800C0B2FFF7E1FE09909DF810000090EF
:10448000099B002207A90DA8FFF7EDFE81460DA8A4
:104490004844804606A8039002950196CDF8008016
:1044A00000234A4608990020FFF75AFE38E03800FA
:1044B000C0B263280DD1189800681899091D189189
:1044C0000B9001230B980200D2B206A92800B04736
:1044D00026E03800C0B273281CD1189800681899DB
:1044E000091D18910400002C1AD0200000F060F87B
:1044F0008146089BB3EB0903202206A92800B04798
:10450000207800280CD00123227806A92800B04783
:10451000641CF5E701233A00D2B206A92800B0478F
:104520000598401C0590EEE619B0BDE8F08FFEE757
:104530007047F8B505000C000027002CFDD0002DB9
:10454000FDD02E002100300000F0B8F8010009B2C3
:104550000029FBD100B2F2BDF8B506000D00140031
:10456000002EFDD0002DFDD0002CFDD03700220004
:104570002900380000F0DFF8F2BDFEE700B500BF0B
:10458000130096469446103928BFA0E80C50FAD87C
:104590005FEA417C28BF0CC048BF40F8042BC90724
:1045A00028BF20F8022B48BF00F8012B00BDFEE712
:1045B00000F10103810704D010F8011B820781B1CB
:1045C000FAD10268A2F10131914311F0803104BFA8
:1045D00050F8042FF6E709BAB1FA81F100EBD100E7
:1045E000401CC01A7047FEE70100002901D10020DD
:1045F00001E042F6AF7000B27047F0B585B005003B
:104600000E000027684600F053FA70680090307A78
:104610008DF80400707A8DF80700B07A002801D078
:10462000012000E000208DF81100F07A002801D070
:10463000012000E000208DF81000F07B002808D059
:10464000F07B042801DAF07B00E00420401E8DF8A6
:104650000800307C002808D0307C042801DA307C47
:1046600000E00420401E8DF80900307B002801D0B6
:10467000012000E000208DF80A00707B002801D0A6
:10468000012000E000208DF80B0001208DF80E00C5
:1046900001208DF80F00326869463D48B37B50F821
:1046A000230000F0DAF80400002C03D02000FFF70C
:1046B0009BFF0700380000B205B0F0BD70B50400E4
:1046C0000D00002C07D14FF4287232493248FEF712
:1046D0006DFDAFF30080002D07D140F2A1222D49DE
:1046E0002E48FEF763FDAFF30080A87B0D2807D3AB
:1046F00040F2A22227492A48FEF758FDAFF3008076
:104700002348A97B50F82100002807D140F2A322BA
:1047100020492448FEF74AFDAFF30080290020001D
:10472000FFF76BFF010009B2002902D12600A97B27
:10473000317000B270BDF8B506000D001400002EF7
:1047400007D140F2FF2213491348FEF72FFDAFF3C4
:104750000080002D07D14FF440720E491248FEF739
:1047600025FDAFF30080002C07D140F2013209494A
:104770000E48FEF71BFDAFF3008037002200290032
:1047800003483B7850F8230000F0C8F90020F2BD40
:10479000B86C00003C6A0000187000002470000033
:1047A000406B0000546D0000307000003C70000051
:1047B00010B4DFF8B4230B005BB213F00103040064
:1047C000E4B26401145914F00104A34218D00B00A0
:1047D0005BB213F001030400E4B264011351BFF3B0
:1047E0004F8FBFF36F8F0300DBB25B0113441B6974
:1047F00013F001030C0064B214F00104A342F2D1DF
:1048000010BC704710B5040001212000C0B2FFF7B2
:10481000CFFF10BD816851F002018160816831F0E5
:1048200002018160704738B5040000250D2D07D2C4
:10483000DFF82C0350F82500A04201D06D1CF5E7ED
:104840000D2D08D3A022DFF81C13DFF82003FEF79C
:10485000ADFCAFF30080280032BD2DE9F64F83B0E8
:1048600005000C00002C09D140F21712DFF8F412F9
:10487000DFF8FC02FEF79AFCAFF300802068002806
:1048800009D14FF48C72DFF8DC12DFF8E802FEF792
:104890008DFCAFF30080207A042809DB4FF48D7281
:1048A000DFF8C012DFF8D002FEF780FCAFF3008023
:1048B000607A042809DB40F21B12DFF8A812DFF847
:1048C000C002FEF773FCAFF300800026D4F800901E
:1048D0005FF0000A0020ADF802005FF0040B5846BC
:1048E000C0B2212838D204990A2041432268584690
:1048F000C0B24243B1FBF2F0401D0A21B0FBF1F01F
:10490000ADF80000BDF80000002802D10120ADF88C
:10491000000004995A46D2B2BDF800004243B1FBF0
:10492000F2F0019020680199884205D20198D4F8EC
:104930000080B0EB080804E02068DDF80480B0EBEC
:104940000808C14505D3C146DA46BDF80000ADF8F8
:1049500002001BF1010BC2E720686421B0FBF1F1FA
:1049600003204143494503D240F2215006009BE019
:104970002800FFF758FF0290DFF808020299405C18
:10498000FFF740FF2800FFF745FF2A695046C0B2F5
:10499000042805D35046C0B2082801D252F4003290
:1049A00032F0F8525046C0B2401E000610F0F850E7
:1049B0000243520B5203BDF80200C004C00C104366
:1049C0002861286930F000502861A969DFF8B80132
:1049D000014020790143E07B000210F4E0600143D4
:1049E000A07B800010F0040001436079012808D109
:1049F0002079002802D031F4006107E051F4006111
:104A000004E02079002801D051F01001A961286943
:104A100030F40050E279520312F4005202432A614A
:104A2000627A237A53EA0243EB62AA6A52F088025E
:104A3000AA62AA6A52F44042AA62DFF8502152F0F8
:104A4000004252F440426B6A677B3F0117F0100747
:104A50003B43277B7F0117F020073B436B62A37A20
:104A6000012B03D1686A50F008006862E07A0128DF
:104A700003D1686A50F001006862A079012802D170
:104A800052F0005201E032F0005268691043686150
:104A9000AF69207C012801D157F40027607C0128F0
:104AA00001D157F48027AF61300005B0BDE8F08F29
:104AB000F8B50400002C09D140F22B22DFF8A41035
:104AC000DFF8AC00FEF772FBAFF300801425002680
:104AD0002700320029003800FFF7A0FA5FF4E13028
:104AE000206000202071002060710020A071002053
:104AF000E07100202072002060720020A07200206F
:104B0000E07200206073002020730020A07300205A
:104B1000E0730020207400206074F1BD70B50500C2
:104B20000C001600002C09D140F2BB32DFF8341023
:104B3000DFF84800FEF73AFBAFF3008022003100B7
:104B4000002907D068690002FCD51078E861521C82
:104B5000491EF5E768694002FCD5002070BD0000E1
:104B6000206D0000E06900000060CC40CC6B0000CC
:104B70006C700000FC6E0000AC6D00006070000006
:104B8000D46D0000FC6F0000E8F8FFFF00001F403C
:104B900080B53C4841683D483B4A52689047BFF366
:104BA0004F8F01BD80B5374881683948364A9268D1
:104BB0009047BFF34F8F01BD80B53248C16835487B
:104BC000314AD2689047BFF34F8F01BD80B52D4861
:104BD000016931482C4A12699047BFF34F8F01BDDC
:104BE00080B5284841692D48274A52699047BFF34C
:104BF0004F8F01BD80B5234881692948224A9269B7
:104C00009047BFF34F8F01BD80B51E48C16925484D
:104C10001D4AD2699047BFF34F8F01BD80B5194837
:104C2000016A2148184A126A9047BFF34F8F01BDAD
:104C300080B51448416A1D48134A526A9047BFF331
:104C40004F8F01BD000080B50E48816A18480E4A9A
:104C5000926A9047BFF34F8F01BD80B50948C16A82
:104C60001448094AD26A9047BFF34F8F01BD80B5FF
:104C70000448016B1048044A126B9047BFF34F8FF2
:104C800001BD0000280000205C00002000C007409B
:104C900000000840004008400080084000C0084074
:104CA00000000940004009400080094000C0094060
:104CB00000000A400040C2400080C240DFF8001AF5
:104CC000C0B2C0010858C0F302207047DFF8F019E5
:104CD000C0B2C001085800F0FF00401C704738B552
:104CE00005000C00002C09D140F66F02DFF8D41942
:104CF000DFF8D409FEF75AFAAFF3008020780028D5
:104D000002D02078000600E000206178090211F44A
:104D1000E061A278521E02F0FF0211430843DFF85F
:104D2000A0192A00D2B2D2018850BFF34F8FBFF32F
:104D30006F8F31BD70B505002800C0B2FFF7BEFF10
:104D40000600DFF888092900C9B200EBC100805DC8
:104D5000FEF734F904002800C0B2FFF7B7FFB4FB38
:104D6000F0F4002C09D140F6C502DFF85819DFF83D
:104D70006009FEF71BFAAFF30080200070BD010050
:104D8000C9B2002906D0DFF84C190A6852F00202B5
:104D90000A6005E0DFF83C190A6832F002020A6096
:104DA00070470100C9B2002906D0DFF828190A6847
:104DB00052F080720A6005E0DFF818190A6832F0D4
:104DC00080720A6070470100C9B2002906D0DFF87E
:104DD00008190A6852F002020A6005E0DFF8F818C4
:104DE0000A6832F002020A60704710B40B00DBB2AE
:104DF000092B09DB83689B089B001400E4B214F0C4
:104E000003041C4384602AE00B00DBB2072B09DBA0
:104E100043689B089B001400E4B214F003041C4395
:104E200044601CE00B00DBB2042B0CDB04680323A2
:104E30008B4034EA03031400E4B214F003048C4002
:104E40001C4304600BE0046807238B4034EA03032F
:104E50001400E4B214F007048C401C43046010BC3E
:104E6000704730B4C468DFF874381C400D00EDB2F0
:104E7000AD0215F4806525431300DBB21D43C56008
:104E800030BC7047426932F000524261426861F3BF
:104E90000C2242608268002AFCD570471CB50321B1
:104EA00000226C462000FFF7B9F8DFF834482000F4
:104EB00000F042FCDFF82C080068DFF82C1888426C
:104EC0000BD1DFF82808006800F0FF000B2804D1A0
:104ED00016212000FFF7D6FF03E015212000FFF781
:104EE000D1FFDFF80C080068C0F30010002806D1DD
:104EF00001220021DFF8FC07FEF716FA05E0002288
:104F00000021DFF8F007FEF70FFADFF8E84701218C
:104F10002000FEF774F901212000FEF7C0F90220FD
:104F2000FDF77AFFDFF8D007016851F00201016058
:104F3000FEF70CF90120FFF746FF0120FFF71FFFE6
:104F40000120FFF72EFFDFF8B407016851F01401CC
:104F5000016001684900FCD500208DF801000120A6
:104F60008DF8020069460020FFF7B9FE00208DF899
:104F7000010001208DF8020069460820FFF7AFFE0E
:104F8000DFF87C07FDF777FA01210120FDF7ACFC83
:104F9000FDF71AFFDFF86C07FDF7D5FA1B22002199
:104FA0000220FDF756FB102201210220FDF751FBE4
:104FB000182202210220FDF74CFB202203210220AF
:104FC000FDF747FBFDF74EFC0D2200210320FDF706
:104FD00040FB112201210320FDF73BFB202202218F
:104FE0000320FDF736FB162203210320FDF731FBDA
:104FF00001210420FDF778FCFDF7DDFDDFF808074F
:10500000FDF738FE04208DF8010001208DF8020024
:1050100069460020FFF763FE04208DF8010002209E
:105020008DF8020069460220FFF759FE05208DF831
:10503000010003208DF8020069460320FFF74FFEB0
:1050400006208DF8010003208DF802006946042037
:10505000FFF745FE00208DF8010001208DF80200C9
:1050600069460520FFF73BFE07208DF8010004206C
:105070008DF8020069460620FFF731FE00208DF80A
:105080000100F0208DF8020069460820FFF727FE96
:1050900000208DF8010001208DF8020069460920EA
:1050A000FFF71DFE00208DF8010001208DF80200A1
:1050B00069460A20FFF713FE00208DF80100012049
:1050C0008DF8020069460B20FFF709FE00208DF8DD
:1050D000010001208DF8020069460C20FFF7FFFD5A
:1050E00000208DF8010001208DF8020069460D2096
:1050F000FFF7F5FD00208DF8010001208DF802007A
:1051000069460E20FFF7EBFD00208DF8010001201D
:105110008DF8020069460F20FFF7E1FD00208DF8B1
:10512000010001208DF8020069461020FFF7D7FD2D
:1051300000208DF8010001208DF802006946112041
:10514000FFF7CDFD00208DF8010001208DF8020051
:1051500069461220FFF7C3FD00208DF801000120F1
:105160008DF8020069461320FFF7B9FD00208DF885
:10517000010001208DF8020069461420FFF7AFFD01
:1051800000208DF8010001208DF8020069461520ED
:10519000FFF7A5FD00208DF8010001208DF8020029
:1051A00069461620FFF79BFD00208DF801000120C5
:1051B0008DF8020069461720FFF791FD00208DF859
:1051C000010001208DF8020069461820FFF787FDD5
:1051D00006208DF8010016208DF80200694619207E
:1051E000FFF77DFD06208DF8010016208DF80200E6
:1051F00069461A20FFF773FD00208DF80100012099
:105200008DF8020069461B20FFF769FD00208DF82C
:10521000010001208DF8020069461C20FFF75FFDA8
:1052200000208DF8010001208DF8020069461D2044
:10523000FFF755FD00208DF8010001208DF80200D8
:1052400069461E20FFF74BFD00208DF8010001206C
:105250008DF8020069461F20FFF741FD00208DF800
:10526000010001208DF8020069462020FFF737FD7C
:1052700000208DF8010001208DF8020069462120F0
:10528000FFF72DFD00208DF8010001208DF80200B0
:1052900069462220FFF723FD00208DF80100012040
:1052A0008DF8020069462320FFF719FD00208DF8D4
:1052B000010001208DF8020069462420FFF70FFD50
:1052C00000208DF8010001208DF80200694625209C
:1052D000FFF705FD00208DF8010001208DF8020088
:1052E00069462620FFF7FBFC00208DF80100012015
:1052F0008DF8020069462720FFF7F1FC00208DF8A9
:10530000010001208DF8020069462820FFF7E7FC24
:1053100000208DF8010001208DF802006946292047
:10532000FFF7DDFC00208DF8010001208DF8020060
:1053300069462A20FFF7D3FC00208DF801000120E8
:105340008DF8020069462B20FFF7C9FC00208DF87C
:10535000010001208DF8020069462C20FFF7BFFCF8
:1053600000208DF8010001208DF8020069462D20F3
:10537000FFF7B5FC00208DF8010001208DF8020038
:1053800069462E20FFF7ABFC00208DF801000120BC
:105390008DF8020069462F20FFF7A1FC00208DF850
:1053A000010001208DF8020069463020FFF797FCCC
:1053B00000208DF8010001208DF80200694631209F
:1053C000FFF78DFC00208DF8010001208DF8020010
:1053D00069463220FFF783FC00208DF80100012090
:1053E0008DF8020069463320FFF779FC00208DF824
:1053F000010001208DF8020069463420FFF76FFCA0
:1054000000208DF8010001208DF80200694635204A
:10541000FFF765FC00208DF8010001208DF80200E7
:1054200069463620FFF75BFC00208DF80100012063
:105430008DF8020069463720FFF751FC00208DF8F7
:10544000010001208DF8020069463820FFF747FC73
:1054500000208DF8010001208DF8020069463920F6
:10546000FFF73DFC00208DF8010001208DF80200BF
:1054700069463A20FFF733FC00208DF80100012037
:105480008DF8020069463B20FFF729FC00208DF8CB
:10549000010001208DF8020069463C20FFF71FFC47
:1054A00000208DF8010001208DF8020069463D20A2
:1054B000FFF715FC00208DF8010001208DF8020097
:1054C00069463E20FFF70BFC00208DF8010001200B
:1054D0008DF8020069463F20FFF701FC00208DF89F
:1054E000010001208DF8020069464020FFF7F7FB1C
:1054F00000208DF8010001208DF80200694641204E
:10550000FFF7EDFB00208DF8010001208DF802006F
:1055100069464220FFF7E3FB00208DF801000120DF
:105520008DF8020069464320FFF7D9FB07208DF86C
:10553000010002208DF8020069464420FFF7CFFBEE
:1055400000208DF8010001208DF8020069464520F9
:10555000FFF7C5FB00208DF8010001208DF8020047
:1055600069464620FFF7BBFB00208DF801000120B3
:105570008DF8020069464720FFF7B1FB00208DF847
:10558000010001208DF8020069464820FFF7A7FBC3
:1055900000208DF8010001208DF8020069464920A5
:1055A000FFF79DFB00208DF8010001208DF802001F
:1055B00069464A20FFF793FB00208DF80100012087
:1055C0008DF8020069464B20FFF789FB00208DF81B
:1055D000010001208DF8020069464C20FFF77FFB97
:1055E00000208DF8010001208DF8020069464D2051
:1055F000FFF775FB00208DF8010001208DF80200F7
:1056000069464E20FFF76BFB404C00220021200032
:10561000FFF7EBFB032203212000FFF7E6FB00224C
:1056200006212000FFF7E1FB002208212000FFF700
:10563000DCFB00220A212000FFF7D7FB002200211B
:105640002000FFF70EFC3248016831F002010160D2
:10565000304801684908490051F0040101600168BF
:1056600031F0020101602C48016831F00201016053
:105670000168490849000160284801684908490053
:105680000160274801684908490001602548016810
:10569000490849000160244801684908490001603F
:1056A0002248016849084900016021480168490809
:1056B000490001600020FFF73DFB1E49086013BD53
:1056C0000000CC40CC680000887000008C5D0000B9
:1056D000907000001040C8405040C84000FBFFFFE1
:1056E0000080CA4000C9CA406959AC5710C9CA40B5
:1056F00070C8CA400040C840C040C8402040C840B0
:10570000987000000C700000C46F000000400E4054
:1057100010400E4014400E4018400E4058400E40BD
:105720005C400E4060400E4064400E4068400E40B9
:105730006C400E400000002082680D490A408260E3
:10574000C16831F01001C160C16851F00801C16049
:105750000521026961F34B220261416931F4C011F4
:105760004161416951F480214161704700000000AE
:10577000FEFFFFFBBFF35F8F50F00101BD4A1160D8
:10578000BD490A6852F480320A60BFF34F8FBFF3FD
:105790006F8F7047BFF35F8FB748016831F4803176
:1057A0000160B4480168490849000160BFF34F8FA8
:1057B000BFF36F8F7047B149C0B2C0010858C0F342
:1057C00002207047AD49C0B2C001085800F0FF0088
:1057D000401C704770B505002800C0B2FFF7EBFF12
:1057E0000600A7482900C9B200EBC100805DFDF7A3
:1057F000E5FB04002800C0B2FFF7E4FFB4FBF0F4BF
:10580000002C07D140F6C5029E499F48FDF7CEFC0B
:10581000AFF30080200070BD80B51920FFF7DAFFDC
:1058200002BD10B5FFF7F8FF0400230001225FF46A
:10583000E1310120FEF706F910BD2DE9FF41934C3F
:10584000934D00200090934E306880030ED5BFF337
:105850004F8FBFF36F8F306830F40030306000201E
:105860008D490860BFF34F8FBFF36F8F3068C0035F
:1058700038D5002089490860BFF34F8F306830F475
:1058800080303060BFF34F8F854802A9016001A9C5
:10589000016003A90160BFF34F8FBFF36F8F814891
:1058A000006803900398C0F34E3002900398C0F351
:1058B000C9000190029843F6E07111EA4011019885
:1058C00051EA8071784801600198411E01910028D9
:1058D000F0D10298411E02910028E7D1BFF34F8F0B
:1058E000BFF36F8FFFF756FF704F10203860DFF85F
:1058F000C0817048C8F800006F4838606F48C8F829
:1059000000006F493960C8F80000132038606D4806
:10591000C8F80000142038606B48C8F800006B49D4
:105920003960C8F800006A4838606A48C8F8000062
:10593000694838606948C8F8000000982900C140EB
:10594000022903D30098401C0090F6E70098002835
:1059500035D0B4FBF5F005FB1040002807D04FF41C
:10596000D3725F495F48FDF721FCAFF3008001214E
:10597000009881408D4207D040F2A71258495A48FA
:10598000FDF714FCAFF300800098052807D24FF410
:10599000D47253495548FDF709FCAFF30080600904
:1059A000400150F01A0038600098401E400010F08E
:1059B0003E0040F0427050F00100C8F800004C4832
:1059C00038604C48C8F800004B4838604B48C8F86D
:1059D00000004B4939604B49C8F800104A4A3A6008
:1059E000C8F8000049483860C8F800100420FFF7E4
:1059F000C1FE3068C00325D40020284A1060BFF3E0
:105A00004F8F28480268C2F34E33C2F3C900010029
:105A100043F6E07010EA431050EA81703C4F386062
:105A20000800411E0028F3D11800431E0028ECD1C5
:105A3000BFF34F8F306850F480303060BFF34F8F2A
:105A4000BFF36F8F3068800312D4BFF34F8FBFF363
:105A50006F8F002010490860BFF34F8FBFF36F8F27
:105A6000306850F400303060BFF34F8FBFF36F8F5A
:105A7000BDE8FF8194ED00E024ED00E00000CC40A3
:105A8000145B0000706800007870000000002C209B
:105A90000000000014ED00E050EF00E084ED00E0B5
:105AA00070EF00E080ED00E074EF00E09CED00E0BE
:105AB000A0ED00E03F00001011000080390010034D
:105AC000120000603B0010032300030315000020B8
:105AD00016002020270003031700302025000303B1
:105AE000A4670000346F0000E06E000080700000CA
:105AF0001B0000402F0010031C0000412900100370
:105B00001D004041270010031E0080411F0000427D
:105B100060EF00E00205030007160F1C02050300FA
:105B2000140F0918020503000F18090D02050300E0
:105B3000140F09180205030018090B1102050300D0
:105B40001018090D0205030010180B0902050300C7
:105B5000140F0A18020503000910180A02050300B1
:105B60001018090D020503001018090D02050300A5
:105B70000F181A0D020503001018090D0205030085
:105B80001018090D02050300101813140205030074
:105B900010181A1C0205030010181A1C0205030035
:105BA0001018131402050300101813140205030043
:105BB000101813140205030011090C0F020503004D
:105BC00011090C0F020503001018090D020503004E
:105BD0001018090D02050300140F0D18020503002B
:105BE0001018090D020503001018090D0205030025
:105BF0001018090D020503001018090D0205030015
:105C00001018090D020503001018090D0205030004
:105C10001018090D020503001018090D02050300F4
:105C20001018090D020503001018090D02050300E4
:105C3000140F0D1802050300140F0D1802050300C0
:105C40001018090D020503001018090D02050300C4
:105C50001018090D020503001018090D02050300B4
:105C6000140F0D1802050300140F0D180205030090
:105C70001318090D020503001318090D020503008E
:105C80001318090D020503001318090D020503007E
:105C9000140F131802050300140F13180205030054
:105CA0001018090D020503001018090D0205030064
:105CB000171A180B02050300171A180B0205030028
:105CC000171A180B02050300171A180B0205030018
:105CD000171A180B02050300171A180B0205030008
:105CE000171A180B020503000C0A18070205030017
:105CF0000C0A18070205030018101A0D020503000C
:105D000018101A0D02050300140F1A1802050300DB
:105D10001A0F130D020503001A13180D02050300D4
:105D20001A13180D020503001A13180D02050300BB
:105D3000140F1A1802050300090B0F1C02050300BB
:105D4000090C111C02050300090C111C02050300BB
:105D5000090A111C02050300090A111C02050300AF
:105D60000C0F0A1C020503000C0F0A1C020503009D
:105D70000C0F0A1C020503000C0F121C0205030085
:105D80000C091218020503000D01121A0205030086
:105D900007160F1C02050300140F09180205030063
:105DA0000F18090D02050300140F0918020503005E
:105DB00018090B11020503001018090D0205030054
:105DC00010180B0902050300140F0A18020503003E
:105DD0000910180A020503001018090D0205030036
:105DE0001018090D020503000F181A0D0205030013
:105DF0001018090D020503001018090D0205030013
:105E0000101813140205030010181A1C02050300D1
:105E100010181A1C020503001018131402050300C1
:105E200010181314020503001018131402050300C0
:105E300011090C0F0205030011090C0F02050300E4
:105E40001018090D020503001018090D02050300C2
:105E5000140F0D18020503001018090D02050300A8
:105E60001018090D020503001018090D02050300A2
:105E70001018090D020503001018090D0205030092
:105E80001018090D020503001018090D0205030082
:105E90001018090D020503001018090D0205030072
:105EA0001018090D02050300140F0D180205030058
:105EB000140F0D18020503001018090D0205030048
:105EC0001018090D020503001018090D0205030042
:105ED0001018090D02050300140F0D180205030028
:105EE000140F0D18020503001318090D0205030015
:105EF0001318090D020503001318090D020503000C
:105F00001318090D02050300140F131802050300EE
:105F1000140F1318020503001018090D02050300E1
:105F20001018090D02050300171A180B02050300CB
:105F3000171A180B02050300171A180B02050300A5
:105F4000171A180B02050300171A180B0205030095
:105F5000171A180B02050300171A180B0205030085
:105F60000C0A1807020503000C0A180702050300B3
:105F700018101A0D0205030018101A0D020503006F
:105F8000140F1A18020503001A0F130D020503005F
:105F90001A13180D020503001A13180D0205030049
:105FA0001A13180D02050300140F1A180205030036
:105FB000090B0F1C02050300090C111C020503004C
:105FC000090C111C02050300090A111C020503003B
:105FD000090A111C020503000C0F0A1C020503002C
:105FE0000C0F0A1C020503000C0F0A1C020503001B
:105FF0000C0F121C020503000C0912180205030005
:106000000D01121A0205030007160F1C02050300FA
:10601000140F0918020503000F18090D02050300EB
:10602000140F09180205030018090B1102050300DB
:106030001018090D0205030010180B0902050300D2
:10604000140F0A18020503000910180A02050300BC
:106050001018090D020503001018090D02050300B0
:106060000F181A0D020503001018090D0205030090
:106070001018090D0205030010181314020503007F
:1060800010181A1C0205030010181A1C0205030040
:10609000101813140205030010181314020503004E
:1060A000101813140205030011090C0F0205030058
:1060B00011090C0F020503001018090D0205030059
:1060C0001018090D02050300140F0D180205030036
:1060D0001018090D020503001018090D0205030030
:1060E0001018090D020503001018090D0205030020
:1060F0001018090D020503001018090D0205030010
:106100001018090D020503001018090D02050300FF
:106110001018090D020503001018090D02050300EF
:10612000140F0D1802050300140F0D1802050300CB
:106130001018090D020503001018090D02050300CF
:106140001018090D020503001018090D02050300BF
:10615000140F0D1802050300140F0D18020503009B
:106160001318090D020503001318090D0205030099
:106170001318090D020503001318090D0205030089
:10618000140F131802050300140F1318020503005F
:106190001018090D020503001018090D020503006F
:1061A000171A180B02050300171A180B0205030033
:1061B000171A180B02050300171A180B0205030023
:1061C000171A180B02050300171A180B0205030013
:1061D000171A180B020503000C0A18070205030022
:1061E0000C0A18070205030018101A0D0205030017
:1061F00018101A0D02050300140F1A1802050300E7
:106200001A0F130D020503001A13180D02050300DF
:106210001A13180D020503001A13180D02050300C6
:10622000140F1A1802050300090B0F1C02050300C6
:10623000090C111C02050300090C111C02050300C6
:10624000090A111C02050300090A111C02050300BA
:106250000C0F0A1C020503000C0F0A1C02050300A8
:106260000C0F0A1C020503000C0F121C0205030090
:106270000C091218020503000D01121A10B4524A3B
:106280000B005BB213F001030400E4B26401145983
:1062900014F00104A34218D00B005BB213F0010309
:1062A0000400E4B264011351BFF34F8FBFF36F8F4B
:1062B0000300DBB25B0113441B6913F001030C0004
:1062C00064B214F00104A342F2D110BC704710B5BF
:1062D000040001212000C0B2FFF7D0FF10BD70B54F
:1062E00004000D0016003200D2B22900200000F098
:1062F00077F870BD38B504000025102D06D233485C
:1063000050F82500A04201D06D1CF6E7102D06D3F1
:106310003C222F492F48FCF749FFAFF300802800AB
:1063200032BD2DE9F04104000D0016002000FFF7FA
:10633000E1FF07000E2F06D22748C15D8A2902D04F
:10634000C05DFFF7C4FF5FF00108616918FA05F04E
:10635000814361613078002807D1606818FA05F838
:1063600030EA0808C4F804800BE0727829002000A5
:1063700000F00EF8606818FA05F858EA0008C4F84A
:106380000480B27829002000FFF7A9FFBDE8F08162
:1063900070B504000D001600202D06D375220C499F
:1063A0000E48FCF703FFAFF300803000C0B20028B6
:1063B00004D10120A840C4F8880003E00120A840CF
:1063C000C4F8840070BD00000060CC408C6B0000FD
:1063D000946A00000C6C0000EC6F00005470000028
:1063E000F0B40C000126C56916FA01F39D43C5619E
:1063F000102902D210F10C0502E010F11005103C3A
:106400001300DBB2012B07D031D3032B18D00AD3F2
:10641000052B27D01FD32AE02E68032763009F4057
:10642000BE432E6023E02F685FF0030C63001CFA6C
:1064300003FC37EA0C0763009E403E432E6016E0E3
:106440002E68032763009F40BE43022763009F40DE
:106450003E432E600BE02E68032763009F403E43BF
:106460002E6004E0C3698E401E43C661FFE7F0BCA6
:106470007047FEE780B53C48016851F47001016047
:106480003A490888400704D50A884FF6FB70024055
:106490000A8037490888400704D50A884FF6FB7000
:1064A00002400A8033480168890403D53249334ADF
:1064B000116006E031494CF220520A604DF6281274
:1064C0000A604FF6FF712E4A1160026832F08002B6
:1064D00052F0200202602B480268920403D5264A3B
:1064E000294B1A6006E0284A4CF2205313604DF6FF
:1064F00028131360254A1160016831F0800151F0C2
:106500002001016022480168C90703D501684908D4
:10651000490001601F480168890315D40168890397
:1065200012D4BFF34F8FBFF36F8F00211A4A11604F
:10653000BFF34F8FBFF36F8F016851F400310160DB
:10654000BFF34F8FBFF36F8F14490A6832F40052C4
:106550000A60016851F010010160BFF34F8FBFF373
:106560006F8F00F01EF801BD88ED00E000000340D1
:10657000004003400080034020C528D90480034028
:10658000088003400000C1400400C1400800C14031
:1065900010E000E014ED00E050EF00E070400E402D
:1065A0007047704710B43A4A0B005BB213F0010316
:1065B0000400E4B26401145914F00104A34218D099
:1065C0000B005BB213F001030400E4B26401135149
:1065D000BFF34F8FBFF36F8F0300DBB25B01134438
:1065E0001B6913F001030C0064B214F00104A34210
:1065F000F2D110BC704710B5040001212000C0B2D8
:10660000FFF7D0FF10BD70B4049C11F00F052601F8
:1066100016F0100635430560002A00D0136070BCE8
:10662000704730B4029C039D002C00D0256030BC24
:1066300070473EB53120FFF7DEFF3220FFF7DBFF6A
:1066400014480068029002AA03211348FFF769FE6C
:106650000020019011480090002300220A211048D8
:10666000FFF7D1FF0F4C104D002001900095002343
:10667000002207212000FFF7C6FF022001900095AD
:106680000023002207212000FFF7CBFF37BD0000C9
:106690000060CC40287300000040C64060830E407C
:1066A0001C810E402C80C0406C80C04010B40200A1
:1066B00012B2002A05D40A01314B040024B21A5543
:1066C00008E00A012F4B040024B214F00F04234405
:1066D00003F8042C10BC704710B50400601EB0F124
:1066E000807F01D301200EE0601E274908600F2142
:1066F0005FF0FF30FFF7DAFF002024490860072031
:1067000023490860002010BD22490868002802D0F3
:106710000868401E086070471E4A10601168002912
:10672000FCD1704710B5FFF788F8FFF782FFFEF73E
:10673000B5FBFFF776F8FFF733FF174800684FF413
:106740007A71B0FBF1F0FFF7C7FF002800D0FEE739
:10675000C820FFF7E1FF114C2078002807D0002265
:1067600003210F48FFF714FE00202070F0E70122FC
:1067700003210B48FFF70CFE01202070E8E7000022
:1067800000E400E018ED00E014E000E018E000E0B4
:1067900010E000E0900000200000002095000020A4
:1067A0000040C640443A5C7265735F636869705F1D
:1067B000692E6D7872745F636D375C53444B5F3242
:1067C0005F31325F325F4D494D585254313137306D
:1067D0002D45564B425C626F617264735C65766BEB
:1067E000626D696D787274313137305C64656D6FDC
:1067F0005F617070735C6C65645F626C696E6B790D
:106800005C636D375C626F6172642E630000000030
:10681000443A5C7265735F636869705F692E6D7876
:1068200072745F636D375C53444B5F325F31325F2C
:10683000325F4D494D585254313137302D45564B0A
:10684000425C646576696365735C4D494D5852548A
:10685000313137365C647269766572735C66736C6D
:106860005F636F6D6D6F6E5F61726D2E6300000010
:10687000443A5C7265735F636869705F692E6D7816
:1068800072745F636D375C53444B5F325F31325FCC
:10689000325F4D494D585254313137302D45564BAA
:1068A000425C646576696365735C4D494D5852542A
:1068B000313137365C647269766572735C66736C0D
:1068C0005F636C6F636B2E6800000000443A5C727B
:1068D00065735F636869705F692E6D7872745F635A
:1068E0006D375C53444B5F325F31325F325F4D49ED
:1068F0004D585254313137302D45564B425C64650A
:1069000076696365735C4D494D5852543131373661
:106910005C647269766572735C66736C5F636C6FDE
:10692000636B2E6800000000443A5C7265735F631D
:106930006869705F692E6D7872745F636D375C5340
:10694000444B5F325F31325F325F4D494D58525494
:10695000313137302D45564B425C6465766963654D
:10696000735C4D494D585254313137365C6472690D
:10697000766572735C66736C5F636C6F636B2E68B5
:1069800000000000443A5C7265735F636869705F81
:10699000692E6D7872745F636D375C53444B5F3260
:1069A0005F31325F325F4D494D585254313137308B
:1069B0002D45564B425C646576696365735C4D4951
:1069C0004D585254313137365C6472697665727352
:1069D0005C66736C5F636C6F636B2E63000000001A
:1069E000443A5C7265735F636869705F692E6D78A5
:1069F00072745F636D375C53444B5F325F31325F5B
:106A0000325F4D494D585254313137302D45564B38
:106A1000425C646576696365735C4D494D585254B8
:106A2000313137365C647269766572735C66736C9B
:106A30005F6C70756172742E63000000443A5C7282
:106A400065735F636869705F692E6D7872745F63E8
:106A50006D375C53444B5F325F31325F325F4D497B
:106A60004D585254313137302D45564B425C636F8F
:106A70006D706F6E656E74735C756172745C667355
:106A80006C5F616461707465725F6C707561727463
:106A90002E630000443A5C7265735F636869705FDF
:106AA000692E6D7872745F636D375C53444B5F324F
:106AB0005F31325F325F4D494D585254313137307A
:106AC0002D45564B425C646576696365735C4D4940
:106AD0004D585254313137365C6472697665727341
:106AE0005C66736C5F6770696F2E630028636F6EFE
:106AF0006669672D3E6C6F6F704469766964657274
:106B0000203C3D202875696E7433325F7429323021
:106B100038292026262028636F6E6669672D3E6C13
:106B20006F6F7044697669646572203E3D202875F8
:106B3000696E7433325F74293130342900000000EB
:106B4000636F6E6669672D3E696E7374616E63650F
:106B5000203C202873697A656F6628735F4C7075D6
:106B60006172744164617074657242617365292059
:106B70002F2073697A656F66284C50554152545FD7
:106B800054797065202A29290000000000000000C7
:106B900000C012400000134000401340008013402A
:106BA00000C013400000144000C0C5400000C640B3
:106BB0000040C6400080C64000C0C6400000C7403C
:106BC0000000CA400080004200C00042696E737439
:106BD000616E6365203C202873697A656F6628734F
:106BE0005F6C7075617274426173657329202F2028
:106BF00073697A656F662828735F6C70756172744B
:106C00004261736573295B305D292900696E737475
:106C1000616E6365203C202873697A656F6628730E
:106C20005F6770696F426173657329202F207369F4
:106C30007A656F662828735F6770696F4261736554
:106C400073295B305D29290028706C6C203D3D2044
:106C50006B434C4F434B5F506C6C417564696F29BB
:106C6000207C7C2028706C6C203D3D206B434C4F79
:106C7000434B5F506C6C566964656F2900000000DF
:106C800030B4002512E050F8042BD30744BF4A4427
:106C9000521E091F042942F8045BFAD213468C07DE
:106CA00044BF15809B1CC90748BF1D7050F8041BCA
:106CB0000029E8D130BC70470000000000C0074048
:106CC00000000840004008400080084000C0084024
:106CD00000000940004009400080094000C0094010
:106CE00000000A400040C2400080C24028706C6C26
:106CF000203D3D206B434C4F434B5F506C6C5379B0
:106D0000733229207C7C2028706C6C203D3D206BE8
:106D1000434C4F434B5F506C6C53797333290000E5
:106D20000000000000C0074000000840004008408C
:106D30000080084000C008400000094000400940B1
:106D40000080094000C0094000000A400040C240E5
:106D50000080C2403020213D20735F4C707561720D
:106D60007441646170746572426173655B636F6ED8
:106D70006669672D3E696E7374616E63655D0000C0
:106D8000415353455254204552524F522022202500
:106D90007320223A2066696C652022257322204CDC
:106DA000696E652022256422200A00002875696E1C
:106DB00074385F7429283429203E20636F6E666919
:106DC000672D3E74784669666F57617465726D61B0
:106DD000726B00002875696E74385F742928342935
:106DE000203E20636F6E6669672D3E727846696645
:106DF0006F57617465726D61726B000072B6054801
:106E0000054901600A6882F308880448804762B631
:106E10000348004708ED00E0002000007564000012
:106E2000196F000010B5074979441831064C7C44AD
:106E3000163404E00A68081D114488470146A1423F
:106E4000F8D110BD2C0000004C0000004EF6885117
:106E5000CEF20001086840F470000860BFF34F8F65
:106E6000BFF36F8F4FF00170E1EE100A7047000022
:106E700011FEFFFF9400000004000020000000004D
:106E8000C3D0FFFF04000000A804000000000020A1
:106E900000000000FEE7000000F00DF8002801D01F
:106EA000FFF7C0FFAFF300800020AFF30080FFF7D3
:106EB00039FC00F002F80120704700F001B8000032
:106EC0000746384600F002F8FBE7000080B5AFF354
:106ED0000080024A11001820ABBEFBE7260002002A
:106EE00073697A65203D3D202875696E7433325F81
:106EF00074292831203C3C20692900003055203C71
:106F000020636F6E6669672D3E62617564526174BD
:106F1000655F4270730000000548014603B468468F
:106F200080F30988AFF30080FFF790FFFFF7B4FF0D
:106F3000A5EDF5FE21286E6F6E436163686553749D
:106F400061727420252073697A6529006672616315
:106F5000203C3D202875696E74385F74293335559F
:106F60000000000066726163203E3D202875696E56
:106F700074385F7429313255000000006672616315
:106F8000203E3D202875696E7433325F742931329A
:106F90005500000066726163203C3D202875696ED3
:106FA0007433325F7429333555000000636F756E9A
:106FB00074203C3D20307866666666666666665577
:106FC00000000000290000000100000000A60E00E3
:106FD00000000000000000000000000000000000B1
:106FE0000000010100000000000000008A3333337C
:106FF0003333333333333333333300008A56575804
:10700000595A5B5C5D5E5F6061000000FFFFFF0F2F
:1070100000000000000000003020213D2068616E6B
:10702000646C65003020213D20636F6E66696700E7
:107030003020213D20646174610000006C656E6742
:107040007468203E203055006672657120213D2015
:1070500030554C0070696E203C20333255000000E2
:107060003020213D20646174610000003020213D0A
:1070700020636F6E666967006672657100000000CC
:1070800069203E3D20350000636F6E666967000031
:10709000667265710000000000000000A60000009C
:1070A0006672657100000000004800472D73000003
:1070B000004800472D730000004800472D73000072
:1070C000004800472D730000004800472D73000062
:1070D000004800472D730000004800472D73000052
:1070E000004800472D730000004800472D73000042
:1070F000004800472D730000004800472D73000032
:10710000004800472D730000004800472D73000021
:10711000004800472D730000004800472D73000011
:10712000004800472D730000004800472D73000001
:1071300000480047914B000000480047A54B000065
:1071400000480047B94B000000480047CD4B000005
:1071500000480047E14B000000480047F54B0000A5
:1071600000480047094C0000004800471D4C000043
:1071700000480047314C000000480047474C0000E1
:10718000004800475B4C0000004800476F4C00007F
:10719000004800472D730000004800472D73000091
:1071A000004800472D730000004800472D73000081
:1071B000004800472D730000004800472D73000071
:1071C000004800472D730000004800472D73000061
:1071D000004800472D730000004800472D73000051
:1071E000004800472D730000004800472D73000041
:1071F000004800472D730000004800472D73000031
:10720000004800472D730000004800472D73000020
:10721000004800472D730000004800472D73000010
:10722000004800472D730000004800472D73000000
:10723000004800472D730000004800472D730000F0
:10724000004800472D730000004800472D730000E0
:10725000004800472D730000004800472D730000D0
:10726000004800472D730000004800472D730000C0
:10727000004800472D730000004800472D730000B0
:10728000004800472D730000004800472D730000A0
:10729000004800472D730000004800472D73000090
:1072A000004800472D730000004800472D73000080
:1072B000004800472D730000004800472D73000070
:1072C000004800472D730000004800472D73000060
:1072D000004800472D730000004800472D73000050
:1072E000004800472D730000004800472D73000040
:1072F000004800472D730000004800472D73000030
:10730000004800472D730000004800472D7300001F
:10731000004800472D730000004800472D7300000F
:10732000004800472D73000001000000FFF7FEBF7A
:0473300000A4781F1E
:0400000500006DFD8D
:00000001FF
