S01D0000726770696F5F6C65645F6F75747075745F636D33332E73726563AD
S3150FFEA0000000022019DBFE0F4FB7FE0F73B7FE0FD0
S3150FFEA010FFC0FE0F37C1FE0F3BC1FE0F97C7FE0FE8
S3150FFEA02000000000000000000000000047D6FE0FF3
S3150FFEA03045E2FE0F000000008FE2FE0F9BE2FE0FD1
S3150FFEA0408DE7FE0F8DE7FE0F8DE7FE0F8DE7FE0FF9
S3150FFEA0508DE7FE0F8DE7FE0F8DE7FE0F8DE7FE0FE9
S3150FFEA06035E4FE0F3DE4FE0F8DE7FE0F8DE7FE0F87
S3150FFEA07045E4FE0F4DE4FE0F55E4FE0F8DE7FE0F92
S3150FFEA0805DE4FE0F65E4FE0F8DE7FE0F6DE4FE0F3A
S3150FFEA09075E4FE0F8DE7FE0F8DE7FE0F8DE7FE0FC4
S3150FFEA0A08DE7FE0F8DE7FE0F8DE7FE0F8DE7FE0F99
S3150FFEA0B08DE7FE0F8DE7FE0F8DE7FE0F8DE7FE0F89
S3150FFEA0C08DE7FE0F8DE7FE0F8DE7FE0F8DE7FE0F79
S3150FFEA0D08DE7FE0F8DE7FE0F8DE7FE0F8DE7FE0F69
S3150FFEA0E08DE7FE0F7DE4FE0F85E4FE0F8DE4FE0F7A
S3150FFEA0F095E4FE0F9DE4FE0F8DE7FE0F8DE7FE0F37
S3150FFEA1008DE7FE0F8DE7FE0F8DE7FE0FA5E4FE0F23
S3150FFEA110ADE4FE0FB5E4FE0FBDE4FE0FC5E4FE0F84
S3150FFEA120CDE4FE0F8DE7FE0F8DE7FE0F8DE7FE0FDB
S3150FFEA1308DE7FE0FD5E4FE0FDDE4FE0FE5E4FE0F21
S3150FFEA1408DE7FE0FEDE4FE0FF5E4FE0F8DE7FE0F36
S3150FFEA150FDE4FE0F05E5FE0F0DE5FE0F15E5FE0F01
S3150FFEA1601DE5FE0F8DE7FE0F8DE7FE0F8DE7FE0F4A
S3150FFEA1708DE7FE0F8DE7FE0F8DE7FE0F8DE7FE0FC8
S3150FFEA1808DE7FE0F8DE7FE0F8DE7FE0F8DE7FE0FB8
S3150FFEA1908DE7FE0F8DE7FE0F25E5FE0F2DE5FE0F74
S3150FFEA1A08DE7FE0F8DE7FE0F8DE7FE0F8DE7FE0F98
S3150FFEA1B08DE7FE0F8DE7FE0F35E5FE0F3DE5FE0F34
S3150FFEA1C045E5FE0F4DE5FE0F55E5FE0F5DE5FE0F70
S3150FFEA1D065E5FE0F6DE5FE0F75E5FE0F7DE5FE0FE0
S3150FFEA1E085E5FE0F8DE5FE0F95E5FE0F9DE5FE0F50
S3150FFEA1F0A5E5FE0FADE5FE0FB5E5FE0FBDE5FE0FC0
S3150FFEA200C5E5FE0FCDE5FE0FD5E5FE0FDDE5FE0F2F
S3150FFEA210E5E5FE0FEDE5FE0FF5E5FE0FFDE5FE0F9F
S3150FFEA22005E6FE0F0DE6FE0F15E6FE0F1DE6FE0F0B
S3150FFEA23025E6FE0F2DE6FE0F35E6FE0F3DE6FE0F7B
S3150FFEA24045E6FE0F4DE6FE0F55E6FE0F5DE6FE0FEB
S3150FFEA25065E6FE0F6DE6FE0F75E6FE0F7DE6FE0F5B
S3150FFEA26085E6FE0F8DE6FE0F95E6FE0F9DE6FE0FCB
S3150FFEA270A5E6FE0FADE6FE0FB5E6FE0FBDE6FE0F3B
S3150FFEA280C5E6FE0FCDE6FE0FD5E6FE0FDDE6FE0FAB
S3150FFEA290E5E6FE0FEDE6FE0FF5E6FE0FFDE6FE0F1B
S3150FFEA2A005E7FE0F0DE7FE0F15E7FE0F1DE7FE0F87
S3150FFEA2B025E7FE0F2DE7FE0F35E7FE0F3DE7FE0FF7
S3150FFEA2C08DE7FE0F8DE7FE0F8DE7FE0F8DE7FE0F77
S3150FFEA2D08DE7FE0F8DE7FE0F8DE7FE0F8DE7FE0F67
S3150FFEA2E08DE7FE0F8DE7FE0F8DE7FE0F8DE7FE0F57
S3150FFEA2F08DE7FE0F8DE7FE0F8DE7FE0F8DE7FE0F47
S3150FFEA3008DE7FE0F8DE7FE0F8DE7FE0F8DE7FE0F36
S3150FFEA3108DE7FE0F8DE7FE0F8DE7FE0F8DE7FE0F26
S3150FFEA3208DE7FE0F8DE7FE0F8DE7FE0F8DE7FE0F16
S3150FFEA3308DE7FE0F8DE7FE0F8DE7FE0F45E7FE0F4E
S3150FFEA3404DE7FE0F8DE7FE0F55E7FE0F5DE7FE0F9E
S3150FFEA35065E7FE0F6DE7FE0F75E7FE0F7DE7FE0F56
S3150FFEA3608DE7FE0F8DE7FE0F8DE7FE0F8DE7FE0FD6
S3150FFEA3708DE7FE0F8DE7FE0F8DE7FE0F8DE7FE0FC6
S3150FFEA3808DE7FE0F8DE7FE0F8DE7FE0F8DE7FE0FB6
S3150FFEA3908DE7FE0F8DE7FE0F8DE7FE0F8DE7FE0FA6
S3150FFEA3A085E7FE0F8DE7FE0F8DE7FE0F8DE7FE0F9E
S3150FFEA3B08DE7FE0F8DE7FE0F8DE7FE0F8DE7FE0F86
S3150FFEA3C08DE7FE0F8DE7FE0F8DE7FE0F8DE7FE0F76
S3150FFEA3D08DE7FE0F8DE7FE0F8DE7FE0F8DE7FE0F66
S3150FFEA3E08DE7FE0F8DE7FE0F8DE7FE0F8DE7FE0F56
S3150FFEA3F08DE7FE0F8DE7FE0F8DE7FE0F8DE7FE0F46
S3150FFEA400DFF8B017C0B2C0010858C0F3012070477D
S3150FFEA410DFF8A017C0B2C001085800F0FF00401CBD
S3150FFEA420704770B504006068D12802D2606868284C
S3150FFEA43008D25C22DFF8C816DFF8C80600F0F0FD7A
S3150FFEA440AFF30080DFF8E456286880041FD528682E
S3150FFEA45000F0FF00217901F0FF01884217D128682D
S3150FFEA46010F4C0302178C90311F4C03188420ED1E1
S3150FFEA4702868400403D4286850F480402860286872
S3150FFEA480400003D5286830F08040286030E0DFF8C2
S3150FFEA490E80600F0D3FD2E6836F0005616F4C04FD0
S3150FFEA4A004D036F4C04656F080462E60DFF8CC0652
S3150FFEA4B00640207900F0FF0006432078C00310F413
S3150FFEA4C0C030064346F0804656F400562E60BFF364
S3150FFEA4D04F8FBFF36F8FDFF874171E2000F0C6FD88
S3150FFEA4E028688000FCD556F4804636F080462E60EE
S3150FFEA4F070BD2DE9F8430400DFF83C5728680002CB
S3150FFEA50026D5002C15D0DFF834170868000402D4C0
S3150FFEA510207A00280DD0207A62681288120452EA39
S3150FFEA520C032606840884004400C0243086882428D
S3150FFEA5300ED12868800403D4286850F40050286092
S3150FFEA5402868400003D5286830F08040286054E024
S3150FFEA550DFF8240600F072FDDFF8E466306870F06F
S3150FFEA5607F3030602F68DFF8DC06074205D0DFF854
S3150FFEA570D806074057F080472F60002C16D0207A5A
S3150FFEA580002813D06068002810D0206820F04040C5
S3150FFEA590DFF8BC160860606800886168498851EA72
S3150FFEA5A0004151F40041DFF894060160DFF8A486FE
S3150FFEA5B0C5F80080DFF8949649461E2000F056FD3A
S3150FFEA5C048F4000858F40068C5F800804946FA209A
S3150FFEA5D000F04CFD38F40068C5F80080286880004E
S3150FFEA5E0FCD558F40058C5F8008038F08048C5F8F9
S3150FFEA5F00080306830F080303060BDE8F1832DE9A1
S3150FFEA600F84304000D00160000275FF00008300027
S3150FFEA610C0B2242809DB4FF48C72DFF8E414DFF89E
S3150FFEA620600600F0FDFCAFF300803000C0B20C28D0
S3150FFEA63009DA40F21912DFF8C814DFF8480600F0FF
S3150FFEA640EFFCAFF30080200040B2022802D00328B1
S3150FFEA65007D00DE0DFF8E8050700DFF82C06804689
S3150FFEA6600FE0DFF828060700DFF82406804608E02D
S3150FFEA67040F22712DFF8881485A000F0D1FCAFF365
S3150FFEA68000805FF03F093968E80019FA00F00140D3
S3150FFEA690E800C14080223868EB0012FA03F3184037
S3150FFEA6A00823EB40D840002801D0012300E0002309
S3150FFEA6B03000C0B2814203D11800C0B2002843D089
S3150FFEA6C05FF0400E38685FEAC50C1EFA0CFC1CEAFA
S3150FFEA6D00000009038685FEAC50C12FA0CFC5CEAC3
S3150FFEA6E000003860D7F800C0E80019FA00F93CEA16
S3150FFEA6F00909C7F80090D7F800C0B1465FFA89F985
S3150FFEA70019F03F09E80019FA00F959EA0C0CC7F8D7
S3150FFEA71000C0D8F800005FF0020C1CFA05FC9CEA9C
S3150FFEA7200000C8F80000D7F800C0E80082403CEAF7
S3150FFEA73002023A6000983A685FEAC50C1EFA0CFCF4
S3150FFEA7401CEA02029042F5D0BDE8F183F8B5070088
S3150FFEA7500D0000260024380040B202280DD0380026
S3150FFEA76040B2032809D040F26912DFF89413DFF8DE
S3150FFEA770440600F055FCAFF30080380040B20228C5
S3150FFEA78002D003280CD017E0DFF8B40401683F228D
S3150FFEA790E800824011400C00DFF81C06060014E0AC
S3150FFEA7A0DFF8E80401683F22E800824011400C0002
S3150FFEA7B0DFF80806060008E040F27912DFF84013CC
S3150FFEA7C033A000F02DFCAFF30080E800C4400C2C44
S3150FFEA7D009D24FF4BF72DFF82813DFF8E40500F055
S3150FFEA7E01FFCAFF30080242C09D340F27F12DFF853
S3150FFEA7F01013DFF8D00500F013FCAFF30080002C2A
S3150FFEA80004D0B6FBF4F01221484300E00020F2BD5F
S3150FFEA81070B5DFF8B445206880020ED52068800437
S3150FFEA82003D4206850F4005020602068400003D502
S3150FFEA830206830F08040206029E0DFF83C0300F00E
S3150FFEA840FDFBDFF84804016871F07F310160DFF828
S3150FFEA8507C552560DFF8F46331001E2000F006FC00
S3150FFEA86045F4001555F40065256031001E2000F0F5
S3150FFEA870FDFB35F40065256020688000FCD545F4A8
S3150FFEA880005555F00805256035F08045256070BDED
S3150FFEA8903000000038B504000D00200040B200283D
S3150FFEA8A006D002281ED016D3042841D02DD346E05B
S3150FFEA8B02800C0B2002805D0DFF87002006850F4F9
S3150FFEA8C0003004E0DFF86402006830F40030DFF891
S3150FFEA8D05C1208603CE02900C9B2DFF85C0600F0A6
S3150FFEA8E044F835E02800C0B2002805D0DFF848034B
S3150FFEA8F0006850F4803004E0DFF83C03006830F463
S3150FFEA9008030DFF83413086022E02800C0B200283A
S3150FFEA91005D0DFF8B404006850F4803004E0DFF8A9
S3150FFEA920A804006830F48030DFF89C1408600FE04E
S3150FFEA9302900C9B2DFF8080600F017F808E040F262
S3150FFEA9400522DFF8BC1123A000F06AFBAFF30080EF
S3150FFEA95031BD0A00D2B2002A03D04FF4C042426084
S3150FFEA96002E04FF48042826070470A00D2B2002A9C
S3150FFEA97003D05FF48032426002E05FF48032826081
S3150FFEA98070470A00D2B2002A03D05FF480024260FB
S3150FFEA99002E05FF48002826070470A00D2B2002A9C
S3150FFEA9A003D04FF40052426002E04FF40052826031
S3150FFEA9B0704738B504000D0001212000FFF7EDFFAB
S3150FFEA9C0DFF88812280000F051FB00212000FFF768
S3150FFEA9D0E4FF31BD300000000A00D2B2002A03D0D8
S3150FFEA9E04FF40042426002E04FF40042826070472D
S3150FFEA9F00A00D2B2002A03D04FF40042426002E0B0
S3150FFEAA004FF40042826070472DE9F04705000E00B5
S3150FFEAA1017009846DDF82090099CDFF81CA55545D2
S3150FFEAA2003D000212800FFF794FF002C06D0608884
S3150FFEAA30218850EA014050F4004028612F62C5F884
S3150FFEAA4030907F20A8603000C0B210F07F006860A3
S3150FFEAA50554508D05FF06060A8604046C0B240061C
S3150FFEAA6010F06060686001212800FFF78AFFDFF8AB
S3150FFEAA70DC11642000F0FAFA01212800FFF769FFC6
S3150FFEAA80BDE8F0870100C9B2002906D1DFF83815F7
S3150FFEAA900A6832F480420A6005E0DFF82C150A6870
S3150FFEAAA052F480420A6070470100C9B2002906D1EE
S3150FFEAAB0DFF814150A6832F400520A6005E0DFF873
S3150FFEAAC008150A6852F400520A60704710B5002046
S3150FFEAAD0FFF7EAFF0120FFF7D5FFDFF864440021F9
S3150FFEAAE02000FFF785FF00212000FFF732FF002130
S3150FFEAAF02000FFF771FF00212000FFF742FF10BD78
S3150FFEAB002CDEFE0FDCDEFE0F0100C9B2002906D1D8
S3150FFEAB10DFF8CC140A6832F480420A6005E0DFF8EB
S3150FFEAB20C0140A6852F480420A60704700404854C7
S3150FFEAB300100C9B2002906D1DFF8A4140A6832F063
S3150FFEAB4000720A6005E0DFF898140A6852F0007288
S3150FFEAB500A6070470100C9B2002906D1DFF88014DA
S3150FFEAB600A6832F080620A6005E0DFF874140A683C
S3150FFEAB7052F080620A60704700004854007FFEFF65
S3150FFEAB800100C9B2002906D1DFF854140A6832F45F
S3150FFEAB9000520A6005E0DFF848140A6852F40052C4
S3150FFEABA00A607047DFF83814096808008100F9D586
S3150FFEABB070470000000045542DE9FC410400DFF804
S3150FFEABC0240400F03BFADFF8708301214046FFF7BD
S3150FFEABD0CCFE0120FFF7D4FF7FF070472925DFF863
S3150FFEABE00864207A002804D06068002801D06068C7
S3150FFEABF000E0002001900097002332002900C9B221
S3150FFEAC004046FFF701FFE1214046FFF7D2FEFFF771
S3150FFEAC10C9FF01214046FFF7EBFE0020FFF774FF49
S3150FFEAC202078FFF785FF6078FFF794FF00214046F7
S3150FFEAC30FFF79BFEBDE8F381404048546040485401
S3150FFEAC407040485400208000FFDF7FFF001C4E0E31
S3150FFEAC50A040485408000040DFF89023116831F4F5
S3150FFEAC60A0610300DBB2002B02D151F4807105E027
S3150FFEAC700300DBB2012B01D151F4806111607047E5
S3150FFEAC8004E3FE0F1CE3FE0F504048543040485479
S3150FFEAC90204048542DE9F0412DED068B0026DFF8B6
S3150FFEACA0A002076817F07F070068C0F34268DFF857
S3150FFEACB04003006800F008FA41EC190BDFF8340385
S3150FFEACC0006800F001FA41EC1A0B380000F0FCF9AF
S3150FFEACD004000D0051EC1A0B53EC192B00F002FA7F
S3150FFEACE022002B0000F036FB0022DFF80C3300F0BB
S3150FFEACF059FC04000D00012010FA08F000F0E4F9EB
S3150FFEAD0002000B002000290000F0ECF941EC180BB5
S3150FFEAD1051EC180B00F01CFDBDEC068BBDE8F08167
S3150FFEAD20F8B507000024380040B2002806D00228E6
S3150FFEAD301ED019D3042821D01DD323E0DFF8BC0281
S3150FFEAD40016801F0FF010D000068C0F3C13001215B
S3150FFEAD50401C11FA00F00600DFF8A4027100B0FBEA
S3150FFEAD60F1F06843040016E0DFF89802040012E0E3
S3150FFEAD70114804000FE0114804000CE0FFF78AFFAC
S3150FFEAD80040008E040F20152DFF87C126BA000F0DF
S3150FFEAD9047F9AFF30080002C09D140F20452DFF8D9
S3150FFEADA06812DFF8680200F03BF9AFF3008020006F
S3150FFEADB0F2BD000030E0FE0F00A4781F00389C1C89
S3150FFEADC034E3FE0F4CE3FE0F1040485410000040D4
S3150FFEADD038B5050000242800C0B2002827D0022867
S3150FFEADE02DD028D304282ED029D3062830D02AD307
S3150FFEADF0082832D02CD30A283BD034D30C2844D083
S3150FFEAE003DD30E2846D040D310284FD048D3122814
S3150FFEAE1058D051D314285BD05AD3162863D05CD39F
S3150FFEAE20182868D067D31A286AD069D36CE0DFF882
S3150FFEAE30D001040071E0DFF8D80104006DE0DFF801
S3150FFEAE40C001040069E00020FFF76AFF040064E01A
S3150FFEAE500220FFF765FF04005FE000210220FFF7E7
S3150FFEAE6075FC040059E001210220FFF76FFC040078
S3150FFEAE7053E002210220FFF769FC04004DE0032197
S3150FFEAE800220FFF763FC040047E00320FFF748FFAD
S3150FFEAE90040042E00320FFF743FF400804003CE0B6
S3150FFEAEA000210320FFF752FC040036E001210320A8
S3150FFEAEB0FFF74CFC040030E002210320FFF746FCAF
S3150FFEAEC004002AE003210320FFF740FC040024E0E0
S3150FFEAED00120FFF725FF04001FE00120FFF720FFEB
S3150FFEAEE04008040019E00120FFF71AFF0521B0FB09
S3150FFEAEF0F1F0040011E00420FFF712FF04000CE04E
S3150FFEAF0000F020F8040008E040F25E52DFF8F81079
S3150FFEAF100AA000F085F8AFF30080002C09D140F2AD
S3150FFEAF206152DFF8E410DFF8E40000F079F8AFF3D2
S3150FFEAF300080200032BD00008041485430000000E2
S3150FFEAF408042485438B500240120FFF759FA050010
S3150FFEAF50DFF8C00028440079002806D0012808D063
S3150FFEAF6005280AD00D280DD011E0DFF89400040055
S3150FFEAF7016E0DFF89C00040012E00020FFF7D0FE7B
S3150FFEAF8004000DE00320FFF7CBFE040008E040F2BD
S3150FFEAF90B152DFF8741011A000F042F8AFF3008043
S3150FFEAFA00120FFF735FAB4FBF0F4002C09D140F27D
S3150FFEAFB0B552DFF85410DFF8600000F031F8AFF34A
S3150FFEAFC00080200032BD000000424854DFF84C00DE
S3150FFEAFD00168490849000160704700003000000013
S3150FFEAFE00041485400004854AAAAAA0AB04348543E
S3150FFEAFF0B0424854A042485460E37641004048545C
S3150FFEB00000366E0100CA9A3B2CDEFE0FD4E3FE0F0E
S3150FFEB0100084D71798D8FE0F2CE4FE0F50434854E2
S3150FFEB02070B504000D00160033002A0021000248F9
S3150FFEB03000F0DBFB00BEFDE7F8E0FE0F38B50400BF
S3150FFEB0400548056840F205118D4204D0016003499B
S3150FFEB050012000F00BF831BD80464854001C4E0E01
S3150FFEB06001000846401E0028FCD170472DE9F84323
S3150FFEB07080468946B8F1000F1ED0A9FB0801104A7B
S3150FFEB080002300F0BBFD06000F00002001218F42BA
S3150FFEB09009D301D8864206D3D52208490948FFF7B8
S3150FFEB0A0BFFFAFF3008034003D00A40844EA857469
S3150FFEB0B0AD082000FFF7D4FFBDE8F18368DCFE0F75
S3150FFEB0C040420F0064E3FE0F50B1B0FA80F18840A4
S3150FFEB0D0C91CC1F58461090501EBD02140057047F6
S3150FFEB0E001467047F0B540F2FF7581EA030C0CF08E
S3150FFEB0F0004C15EA11541DBF15EA1357AC42AF4269
S3150FFEB100E5E0BC41C1F31301C3F31303801A994162
S3150FFEB11043F4801304D2641E001849418018594126
S3150FFEB120C90241EA5051B1FBF3F603FB1611A2FB1E
S3150FFEB1300675D7EBC020A94102D2761E801859415B
S3150FFEB140C90241EA5051B1FBF3FE03FB1E11A2FBEE
S3150FFEB1500E75D7EBC020A94103D2AEF1010E8018B2
S3150FFEB1605941890241EA9051760546EA8E2EB1FB88
S3150FFEB170F3F603FB1611A2FB0675D7EB8020A9414A
S3150FFEB18002D2761E80185941C90241EA50514EEA43
S3150FFEB190060EB1FBF3F603FB1611A2FB0675D7EBF4
S3150FFEB1A0C020A94102D2761E80185941C90241EA32
S3150FFEB1B05051B1FBF3F703FB1711A2FB0735D3EB88
S3150FFEB1C0C020A94167F100070CBF004247F00107F7
S3150FFEB1D066F3D5274FEA1E31B80814F5806412DDE3
S3150FFEB1E0BD0775F1004250EB0E5051EB045111F5B0
S3150FFEB1F0801F5CBF41EA0C01F0BD4CF07F6141F050
S3150FFEB200E0410020F0BDBD076D0840EA0E5041F447
S3150FFEB2108011D4F10104B4F120060ADAC4F1200636
S3150FFEB2200200E04001FA06F3E1401843B24015432F
S3150FFEB2300EE0342C13DCC6F1200445EA40056D08FA
S3150FFEB24020FA06F2154321FA06F0A1400D4300211E
S3150FFEB25075F1004250F1000051EB0C01F0BD0020DC
S3150FFEB2605FEA0C01F0BDCFB992185B41B3FA83F7D3
S3150FFEB27004BFB2FA82F6BF190B3FB7F120062FBFF6
S3150FFEB28002FA06F3BB40C7F1200622FA06F638BFCE
S3150FFEB2903343BA401CB1E419641E33E77F4231F0E3
S3150FFEB2A00041B1FA81F404BFB0FA80F6A4190B3C43
S3150FFEB2B0B4F120062FBF00FA06F1A140C4F1200615
S3150FFEB2C020FA06F638BF3143A0403C1B1AE7AC42C4
S3150FFEB2D01ABF05EA1357AF4212E050EA41061CBFEA
S3150FFEB2E052EA4306BFE750EA4107304661461CBFA6
S3150FFEB2F041EA0551F0BD52EA430C08BFC143F0BD0A
S3150FFEB30000204FF4001616EB410F98BF16EB430FB6
S3150FFEB31008BF16EB410F24BFC14305E016EB430FE3
S3150FFEB3200CBF61464CEA0551F0BD0EE0026843685C
S3150FFEB330024408305FEAC37C44BF4B445B1E52F89F
S3150FFEB34004CB43F804CB091FF9D150F8041B00298F
S3150FFEB350ECD1704770B491EA030F4FF0004540F100
S3150FFEB360B7806B40841A71EB030604D26E40001B46
S3150FFEB370B141121973414FF4001C1CEB410F34BF40
S3150FFEB3807CEB430683E00C0DA4EB1356362E00F32F
S3150FFEB3907C80012E45EAC32341DC43EA525312BF9A
S3150FFEB3A0D20292025B08240545EAC12141EA5051B9
S3150FFEB3B0D2EBC020994125D407D1B0FA80F610FA08
S3150FFEB3C006F162D00020203608E0B1FA81F6B140D0
S3150FFEB3D0C6F1200220FA02F21143B0404FEAF4748E
S3150FFEB3E0B4EB465434F001064FEA74040AD8D6F588
S3150FFEB3F00016760D04F00044F04061FA06F2504056
S3150FFEB400F1404840C00A40EA415021F0004128BFB2
S3150FFEB4105FEA500550F1000044EBD12135E0DB0A1F
S3150FFEB42045EAC121C90AB6F120050EDD42EA0242FE
S3150FFEB430120CC5F1200603FA06F6EB4042EA0605A4
S3150FFEB4406D42984161F100010DE062FA06F5F24098
S3150FFEB450554063FA06FC82EA0C02F3405A406D42EF
S3150FFEB460904161EB030111F4801F05D1641E620545
S3150FFEB47002D06D004041494121F48011430875F118
S3150FFEB480004350F1000041EB045170BC70471CEBBA
S3150FFEB490410F15D223F0004352EA43060BD04FEA73
S3150FFEB4A04C0CBCEB410F04D80C0D661E342EB7DDCB
S3150FFEB4B0EBE7801A994150EA410608BF0021E4E7FF
S3150FFEB4C008BF1CEB430F28BF6FF00001DDE700003E
S3150FFEB4D0841A71EB030603D2001BB1411219734195
S3150FFEB4E04FF4001C1CEB410F34BF7CEB430442E0D0
S3150FFEB4F00C0DA4EB1356352E4FDC45EAC323DB0AA0
S3150FFEB50045EAC121C912B6F120050DDD63FA05F62E
S3150FFEB510EB4086EA0305124218BF45F00105C01837
S3150FFEB52051F100010CD213E062FA06F5F2405540D6
S3150FFEB530F3415A40B340F3405A408018594107D35E
S3150FFEB54049085FEA30005FEA350528BF45F0010579
S3150FFEB55001F58011420875F1004250F1000041EBF2
S3150FFEB56004514E0016F5001F70BC38BF7047002001
S3150FFEB570090D090570471CEB410F10D252EA43061F
S3150FFEB5800BD0BCEB410F05D80C0DAB43661E342E0C
S3150FFEB590B6DD02E0AB438018594170BC704770BCF4
S3150FFEB5A07047010030B540F2FF7C1CEA11541DBFF7
S3150FFEB5B01CEA1355644565453FE0641981EA030CA1
S3150FFEB5C06FF35F530CF0004C43F48013C90241F046
S3150FFEB5D0004141EA505EC5021100A5FB020200289A
S3150FFEB5E04FF00000EEFB01204FF00001E3FB0521BB
S3150FFEB5F018BF42F00102401800214941E3FB0E013C
S3150FFEB600A4F580640D0302D292184041494154F1CC
S3150FFEB610010470DD450872F1004250F1000051EB56
S3150FFEB6200451A1F5801102D441EA0C0130BD40F25E
S3150FFEB630FF7E4CEA0E51002030BD0CEA13556445D1
S3150FFEB64018BF654581EA030C0CF0004C41D050EA59
S3150FFEB650410E1CBF52EA430E02E06146002030BD8A
S3150FFEB66024422C441BD15FEA050EF6D0090302BF16
S3150FFEB67001460020AEF1140EB1FA81F5AEEB0504CC
S3150FFEB68001FA05FE0C35C5F1200100FA05F5C84095
S3150FFEB6904EEA000E6FF35F5343F480139CE733F0CD
S3150FFEB6A00043B3FA83F504BFB2FA82FE75440B3D2F
S3150FFEB6B0641BB5F1200E2FBF02FA0EF3AB40C5F198
S3150FFEB6C0200E22FA0EFE38BF43EA0E03AA40641C72
S3150FFEB6D07CE750EA410E14BF52EA430E6FF00001AB
S3150FFEB6E04FF4001515EB430F8EBF194615EB410FA1
S3150FFEB6F09DE7B4D830BDD4F10104B4F120050FDABD
S3150FFEB700C4F12005520828BF42F0010210FA05FEC9
S3150FFEB71001FA05F57244E2BFE0402843E1400FE02F
S3150FFEB720352C9ADCC5F1200452EA400220FA05F2C6
S3150FFEB73018BF42F0010231FA05F0A1400A4300217B
S3150FFEB74072F1004250F1000051EB0C0130BDFEE7E5
S3150FFEB750400D40F21E4C40EAC120BCEB115C40F09E
S3150FFEB760004003D48CF30701C84070476FEAE170BF
S3150FFEB7707047FEE72DE9F84185B004000D0016006F
S3150FFEB7801F003000C0B2012801D001202AE0DFF8E9
S3150FFEB790B48088F810600097019500208DF8080098
S3150FFEB7A000208DF8090001208DF80A0001208DF882
S3150FFEB7B00B0000208DF80C0000208DF80D008DF883
S3150FFEB7C00E4000208DF80F0000208DF81000694600
S3150FFEB7D0404600F095FB1C48C8F808001B48C8F801
S3150FFEB7E00C00002006B0BDE8F0810EB478B504005B
S3150FFEB7F0002605AD2900200000F003F872BC5DF8A7
S3150FFEB80010FB70B504000D0000260E48007C0028C4
S3150FFEB81002D15FF0FF3005E02A0021000FF209008A
S3150FFEB82000F06BF870BD000001B50648017C0029DB
S3150FFEB83002D15FF0FF3004E0012269468368984724
S3150FFEB840012002BD04000020DFBFFE0F7BBFFE0FEF
S3150FFEB8502DE9F84304000D0016001F00DDF82080C9
S3150FFEB860A946B14508DA2000C0B2C0473868401C69
S3150FFEB870386019F10109F4E7BDE8F1832DE9F64FBA
S3150FFEB88005000B9A0020290000240C704E1C002781
S3150FFEB8905FF0000C5FF0000E5FF000085FF0000B2C
S3150FFEB8A05FF0000900245FF0000A0099096800297D
S3150FFEB8B005D15FF0300B86F800B0401C1BE0002967
S3150FFEB8C019D0B1FBF3FBD94603FB191BBBF10A0FCC
S3150FFEB8D002D25C46303409E01400E4B2002C01D0EB
S3150FFEB8E0412400E0612414EB0B040A3C49463470F4
S3150FFEB8F0761C401CE3E7BDE8F68F2DE9F34F93B0B8
S3150FFEB90080469146002500200390002002900020DD
S3150FFEB9108DF8050000200490DDF850B09BF800006E
S3150FFEB920002801D1029866E19BF800008246504638
S3150FFEB930C0B2252808D05046C0B2C0470298401C58
S3150FFEB94002901BF1010BE9E701208DF8060000209E
S3150FFEB950060000208DF804009DF80400002818D17B
S3150FFEB9601BF1010B9BF8000082465046C0B23028F1
S3150FFEB97009DB5046C0B23A2805DA0A20464356FA84
S3150FFEB9808AF6303EE8E7BBF1010B01208DF8040085
S3150FFEB990E2E71BF1010108782E281ED100200700D1
S3150FFEB9A000208DF804009DF80400002816D1491CCE
S3150FFEB9B0087882465046C0B2302809DB5046C0B2E0
S3150FFEB9C03A2805DA0A20474357FA8AF7303FEAE75D
S3150FFEB9D0491E01208DF80400E5E7491E481C079015
S3150FFEB9E00798007882465046C0B2642824D0504647
S3150FFEB9F0C0B2692820D05046C0B266281CD0504629
S3150FFEBA00C0B2462818D05046C0B2782814D0504639
S3150FFEBA10C0B2582810D05046C0B26F280CD0504630
S3150FFEBA20C0B2622808D05046C0B2702804D0504625
S3150FFEBA30C0B2752840F0A5805046C0B2642803D028
S3150FFEBA405046C0B2692812D1D9F8000019F104097F
S3150FFEBA5005909DF8060000900A23012205A90AA863
S3150FFEBA60FFF70CFF03900AA80399084405005046FA
S3150FFEBA70C0B2582803D05046C0B2782819D15046C6
S3150FFEBA80C0B2782802D100208DF80600D9F8000042
S3150FFEBA9019F1040904909DF8060000901023002268
S3150FFEBAA004A90AA8FFF7EAFE03900AA80399084419
S3150FFEBAB005005046C0B26F280BD05046C0B2622862
S3150FFEBAC007D05046C0B2702803D05046C0B2752874
S3150FFEBAD043D15046C0B2702810D1D9F8000019F1E3
S3150FFEBAE00409009004200990684608900DF1100B8A
S3150FFEBAF0099A0899584600F0AFFA04E0D9F8000003
S3150FFEBB0019F1040904905046C0B262280AD06F2874
S3150FFEBB1004D070280AD075280CD00FE008208DF8B7
S3150FFEBB2005000BE002208DF8050007E010208DF8CA
S3150FFEBB30050003E00A208DF80500FFE79DF80600D5
S3150FFEBB4000909DF80530002204A90AA8FFF796FE7D
S3150FFEBB5003900AA8039908440500CDF8008002ABAE
S3150FFEBB60320003992020FFF773FE002D3FD0287871
S3150FFEBB7000283CD02878C0476D1E0298401C0290C4
S3150FFEBB80F5E75046C0B263280AD1D9F8000019F17D
S3150FFEBB90040906900698C0470298401C029026E0BC
S3150FFEBBA05046C0B273281CD1D9F8000019F104090A
S3150FFEBBB00400002C1BD0200000F0A2FA0390CDF853
S3150FFEBBC0008002AB320003992020FFF741FE20785A
S3150FFEBBD000280CD02078C047641C0298401C0290A7
S3150FFEBBE0F5E75046C0B2C0470298401C0290079830
S3150FFEBBF010F1010B92E615B0BDE8F08FBBBBE1B1BC
S3150FFEBC00B2F5803F80F07E80022A1ED98C46B1FBAC
S3150FFEBC10F2F102FB11C31B0443EA1043B3FBF2FC22
S3150FFEBC2002FB1C3380B240EA0343B3FBF2F002FB86
S3150FFEBC30103240EA0C4000237047022A05D984468B
S3150FFEBC40B0FBF2F002FB10C270474AB105D100F00D
S3150FFEBC50010249085FEA3000704700220023704751
S3150FFEBC6000F06ABA0B0002000021002070479042D6
S3150FFEBC7071EB030CF6D3B3F5803F2FD2F0B5B3FAC3
S3150FFEBC8083F7B1FA81F4A7F10F0E3D1B5340CEF1A8
S3150FFEBC90200602FA0EF2F3415340B5F10F0746D8CE
S3150FFEBCA00F3C2C444140C4F12006A040F1414140D7
S3150FFEBCB0B1FBF3F603FB1611A2FB0645001BA941CA
S3150FFEBCC002D2761E8018594180EA010221FA0EF33E
S3150FFEBCD062FA0EF200215A403046F0BD30B4B1FB87
S3150FFEBCE0F3FC03FB1C11A2FB0C45001BA94103D25F
S3150FFEBCF0ACF1010C8018594130BC02460B4660462A
S3150FFEBD0000217047B2F1807F65D3F0B5B2FA82F7A4
S3150FFEBD10B1FA81F4C7F10F063D1B22FA06F307F1BE
S3150FFEBD20110EF24120355A40B5F10F07B8D94140F1
S3150FFEBD30C4F12006A040F1414140B1FBF3FC03FBE9
S3150FFEBD401C11A2FB0C45001BA94103D2BCF1010C31
S3150FFEBD50801859410F2F12D30F3FC90341EA5041A5
S3150FFEBD60B1FBF3F603FB1611A2FB0645D4EBC0306F
S3150FFEBD70A94102D2761E8018594146EACC3C07B33A
S3150FFEBD804140C7F12006B840F1414140B1FBF3F601
S3150FFEBD9003FB1611A2FB0645001BA94102D2761E16
S3150FFEBDA08018594180EA010221FA0EF3C7F12004E9
S3150FFEBDB062FA0EF20CFA07F05A402CFA04F13043EF
S3150FFEBDC0F0BD80EA010221FA0EF3002162FA0EF2AD
S3150FFEBDD060465A40F0BD8C46B1FBF2F102FB11C331
S3150FFEBDE01B0243EA1063B3FBF2FC02FB1C331B027E
S3150FFEBDF04CEA002043EA1063B3FBF2FC02FB1C3352
S3150FFEBE001B024CEA002043EA1063B3FBF2FC02FB73
S3150FFEBE101C331B024CEA002043EA1063B3FBF2FC11
S3150FFEBE2002FB1C324CEA002000237047010000295A
S3150FFEBE3001D1002001E042F6AF7000B27047F0B5B7
S3150FFEBE4085B005000E000027684600F0FBFA706805
S3150FFEBE500090307A8DF80400707A8DF80700B07A6C
S3150FFEBE60002801D0012000E000208DF81100F07AA5
S3150FFEBE70002801D0012000E000208DF81000F07B95
S3150FFEBE80002808D0F07B102801DAF07B00E01020A6
S3150FFEBE90401E8DF80800307C002808D0307C102814
S3150FFEBEA001DA307C00E01020401E8DF80900307B51
S3150FFEBEB0002801D0012000E000208DF80A00707BDB
S3150FFEBEC0002801D0012000E000208DF80B00012094
S3150FFEBED08DF80E0001208DF80F0032686946564820
S3150FFEBEE0B37B50F8230000F082F90400002C03D038
S3150FFEBEF02000FFF79BFF0700380000B205B0F0BD2C
S3150FFEBF0070B504000D00002C07D140F2C9224B4933
S3150FFEBF104B48FFF785F8AFF30080002D07D140F2AF
S3150FFEBF20CA2246494748FFF77BF8AFF30080A87B46
S3150FFEBF300D2807D340F2CB2240494348FFF770F84E
S3150FFEBF40AFF300803C48A97B50F82100002807D1AB
S3150FFEBF504FF4337239493D48FFF762F8AFF300806D
S3150FFEBF6029002000FFF76BFF010009B2002902D15D
S3150FFEBF702600A97B317000B270BD2DE9F041060097
S3150FFEBF800D001400002E07D140F219322B492C4812
S3150FFEBF90FFF746F8AFF30080002D07D140F21A32B5
S3150FFEBFA026492B48FFF73CF8AFF30080002C07D14C
S3150FFEBFB040F21B3221492748FFF732F8AFF30080D4
S3150FFEBFC03700220029001C483B7850F8230000F06A
S3150FFEBFD0BCFA80464046FFF729FFBDE8F081F8B56B
S3150FFEBFE006000D001400002E07D14FF44A721349B6
S3150FFEBFF01348FFF715F8AFF30080002D07D140F277
S3150FFEC00029320E491248FFF70BF8AFF30080002CCA
S3150FFEC01007D140F22A3209490E48FFF701F8AFF36E
S3150FFEC020008037002200290003483B7850F8230092
S3150FFEC03000F06AFA0020F2BDFCDFFE0FD4DDFE0F24
S3150FFEC040A4E3FE0FB0E3FE0F30DFFE0FCCE0FE0FD4
S3150FFEC050BCE3FE0FC8E3FE0F62B38B0708D0521E7A
S3150FFEC06011F8013B00F8013B00F024808B07F6D157
S3150FFEC070830740F0208000BF103A07D330B4B1E8F3
S3150FFEC0803810103AA0E83810F9D230BC530724BF47
S3150FFEC090B1E80810A0E8081044BF51F8043B40F879
S3150FFEC0A0043BD20724BF31F8022B20F8022B44BFE4
S3150FFEC0B00B7803707047121F17D35B0009D151F827
S3150FFEC0C0043B20F8023B1B0C121F20F8023BF6D254
S3150FFEC0D00BE051F8043B00F8013B1B0A20F8023B2C
S3150FFEC0E01B0C121F00F8013BF3D238BF121D521E56
S3150FFEC0F024BF11F8013B00F8013BF8D87047FEE765
S3150FFEC10000F10103810704D010F8011B820781B1EC
S3150FFEC110FAD10268A2F10131914311F0803104BFC9
S3150FFEC12050F8042FF6E709BAB1FA81F100EBD10008
S3150FFEC130401CC01A7047FEE77047FEE710B4DFF8E3
S3150FFEC1400C250B005BB213F001030400E4B2A4014D
S3150FFEC150145914F00104A3420FD00B005BB213F077
S3150FFEC16001030400E4B2A4011351BFF34F8FBFF3D3
S3150FFEC1706F8F0300DBB29B01D25810BC704710B510
S3150FFEC180040001212000C0B2FFF7D8FF10BD816861
S3150FFEC19051F002018160816831F0020181607047C2
S3150FFEC1A038B5040000200D2807D2DFF8A41451F885
S3150FFEC1B02010A1421AD0401CF5E700250D2D09D2FD
S3150FFEC1C0DFF8900450F82500A04201D128000DE0BB
S3150FFEC1D06D1CF3E70D2D08D3B422DFF87C14DFF8C0
S3150FFEC1E07C04FEF71DFFAFF30080280032BD2DE95C
S3150FFEC1F0F64F83B005000C00002C09D14FF4977251
S3150FFEC200DFF85414DFF85804FEF70AFFAFF3008089
S3150FFEC2102068002809D140F22F12DFF83C14DFF810
S3150FFEC2204404FEF7FDFEAFF30080207A102809DBEB
S3150FFEC23040F23112DFF82014DFF82C04FEF7F0FE81
S3150FFEC240AFF30080607A102809DB4FF49972DFF89E
S3150FFEC2500814DFF81C04FEF7E3FEAFF3008000269A
S3150FFEC260D4F800905FF0000A0020ADF802005FF0F0
S3150FFEC270040B5846C0B2212838D204990A204143EE
S3150FFEC28022685846C0B24243B1FBF2F0401D0A2166
S3150FFEC290B0FBF1F0ADF80000BDF80000002802D1AA
S3150FFEC2A00120ADF8000004995A46D2B2BDF800003F
S3150FFEC2B04243B1FBF2F0019020680199884205D204
S3150FFEC2C00198D4F80080B0EB080804E02068DDF88A
S3150FFEC2D00480B0EB0808C14505D3C146DA46BDF862
S3150FFEC2E00000ADF802001BF1010BC2E720686421C6
S3150FFEC2F0B0FBF1F103204143494503D240F22150F1
S3150FFEC30006009BE02800FFF74BFF0290DFF8640361
S3150FFEC3100299405CFFF733FF2800FFF738FF2A69C3
S3150FFEC3205046C0B2042805D35046C0B2082801D2E3
S3150FFEC33052F4003232F0F8525046C0B2401E00069A
S3150FFEC34010F0F8500243520B5203BDF80200C00420
S3150FFEC350C00C10432861286930F000502861A96986
S3150FFEC360DFF81403014020790143E07B000210F44D
S3150FFEC370E0600143A07B800010F00400014360796A
S3150FFEC380012808D12079002802D031F4006107E098
S3150FFEC39051F4006104E02079002801D051F010011C
S3150FFEC3A0A961286930F40050E279520312F4005263
S3150FFEC3B002432A61627A237A53EA0243EB62AA6A3E
S3150FFEC3C052F08802AA62AA6A52F44042AA62DFF8C3
S3150FFEC3D0AC2252F0004252F440426B6A677B3F0139
S3150FFEC3E017F010073B43277B7F0117F020073B43D0
S3150FFEC3F06B62A37A012B03D1686A50F0080068625C
S3150FFEC400E07A012803D1686A50F001006862A079CC
S3150FFEC410012802D152F0005201E032F00052686953
S3150FFEC42010436861AF69207C012801D157F40027BC
S3150FFEC430607C012801D157F48027AF61300005B02B
S3150FFEC440BDE8F08FF8B50400002C09D140F2462264
S3150FFEC450DFF80412DFF80802FEF7E2FDAFF3008005
S3150FFEC46014250026270032002900380000F060F957
S3150FFEC4705FF4E13020600020207100206071002003
S3150FFEC480A0710020E0710020207200206072002053
S3150FFEC490A0720020E072002060730020207300203F
S3150FFEC4A0A0730020E0730020207400206074F1BD9D
S3150FFEC4B002005069916A090C11F0C3010843DFF8B7
S3150FFEC4C0401208407047F8B504000D00DFF834023D
S3150FFEC4D0054015F0030F08D0A06A30F4703029041A
S3150FFEC4E011F4403108430600A662676917F07857C4
S3150FFEC4F02F4367612000FFF7DBFF054202D040F2B4
S3150FFEC5001A5000E00020F2BD70B505000C001600B3
S3150FFEC510002C09D140F2DA32DFF83C11DFF84C017C
S3150FFEC520FEF77EFDAFF3008022003100002907D013
S3150FFEC53068690002FCD51078E861521C491EF5E7C2
S3150FFEC54068694002FCD5002070BD2DE9F84F060044
S3150FFEC5500D009346002D09D140F21B42DFF8F8106D
S3150FFEC560DFF80801FEF75CFDAFF300800024A84656
S3150FFEC570D6F818905FEA095003D419F01200022874
S3150FFEC58002D15FF0010A01E05FF0000A5846B0F1F2
S3150FFEC590010B002857D0F06AC0F3046000283ED185
S3150FFEC5A03000FFF785FF070038030CD55FF4002137
S3150FFEC5B03000FFF788FF002802D140F21D5401E03C
S3150FFEC5C040F21A542BE0F8030BD55FF4803130009E
S3150FFEC5D0FFF779FF002802D14FF4A46401E040F281
S3150FFEC5E01A54B8030BD55FF400313000FFF76BFF1B
S3150FFEC5F0002802D140F21F5401E040F21A5478038C
S3150FFEC6000BD55FF480213000FFF75DFF002802D1C6
S3150FFEC61040F21E5401E040F21A54002CBBD0002CFF
S3150FFEC62011D15046C0B2002807D0F06910F07F0036
S3150FFEC63088F8000018F10108A8E7F06988F80000ED
S3150FFEC64018F10108A2E72000BDE8F28F00804554DD
S3150FFEC65098E0FE0F64E0FE0FC8DCFE0F7CDFFE0FD8
S3150FFEC660ECE3FE0FB0E2FE0F24E1FE0FE0E3FE0F5A
S3150FFEC6704CE1FE0F7CE3FE0FE8F8FFFF00001F40C4
S3150FFEC68080B5214841682248204A5268904701BD2D
S3150FFEC69080B51D4881681F481C4A9268904701BDA8
S3150FFEC6A080B51948C1681C48184AD268904701BD23
S3150FFEC6B080B5154801691948144A1269904701BD9C
S3150FFEC6C080B5114841691648104A5269904701BD17
S3150FFEC6D080B50D48816913480C4A9269904701BD92
S3150FFEC6E080B50948C1691048084AD269904701BD0D
S3150FFEC6F080B50548016A0D48044A126A904701BD86
S3150FFEC700C3C0FFC103C01FC0180000204C0000208D
S3150FFEC710000038540000395400005752000058529A
S3150FFEC7200000595200005A52000057540000DA52C8
S3150FFEC73062F30F2262F31F42401810F0030308D074
S3150FFEC740C91A1FD3DB0748BF00F8012D28BF20F8F3
S3150FFEC750022D130030B414461546103928BF20E9B2
S3150FFEC7603C00FAD8490728BF20E90C0048BF40F81D
S3150FFEC770042D890028BF20F8022D48BF00F8012D91
S3150FFEC78030BC7047C91818BF00F8012DCB0728BF5C
S3150FFEC79000F8012D7047FEE7DFF8B417C0B2C001EF
S3150FFEC7A00858C0F301207047DFF8A417C0B2C001C6
S3150FFEC7B0085800F0FF00401C704738B505000C0006
S3150FFEC7C0002C09D140F24C62DFF88817DFF8880794
S3150FFEC7D0FEF726FCAFF300802078002802D02078E3
S3150FFEC7E0000600E00020DFF868176278120212F4E6
S3150FFEC7F04072A3785B1E03F0FF031A4310432A0011
S3150FFEC800D2B2D2018850BFF34F8FBFF36F8F28007E
S3150FFEC810C0B2C001085831BD70B505002800C0B2C0
S3150FFEC820FFF7BAFF0600DFF834072900C9B200EB9F
S3150FFEC8308100805DFEF7CCFA04002800C0B2FFF738
S3150FFEC840B3FFB4FBF0F4002C09D140F29962DFF886
S3150FFEC8500417DFF80C07FEF7E3FBAFF300802000AB
S3150FFEC86070BD0100C9B2002906D0DFF8F8160A68B6
S3150FFEC87052F002020A6005E0DFF8E8160A6832F0A7
S3150FFEC88002020A6070470100C9B2002906D0DFF81E
S3150FFEC890D8160A6852F002020A6005E0DFF8C816DB
S3150FFEC8A00A6832F002020A60704710B40B00DBB260
S3150FFEC8B0092B09DBC36B9B089B001400E4B214F033
S3150FFEC8C003041C43C4632AE00B00DBB2072B09DB10
S3150FFEC8D0836B9B089B001400E4B214F003041C4305
S3150FFEC8E084631CE00B00DBB2042B0CDB046C03230E
S3150FFEC8F08B4034EA03031400E4B214F003048C40B5
S3150FFEC9001C4304640BE0046C07238B4034EA0303D9
S3150FFEC9101400E4B214F007048C401C43046410BCEC
S3150FFEC920704780B500F001F801BD1CB5032100224A
S3150FFEC9306C462000FFF7FCFE0220FEF78DF9FEF790
S3150FFEC94045FB0120FFF79FFF0120FFF78AFFDFF868
S3150FFEC9501C06016851F01401016001684900FCD5FF
S3150FFEC96000F04BFC00208DF8010001208DF802002F
S3150FFEC97069460120FFF721FFDFF8F405FDF751FDAC
S3150FFEC980DFF8F005FEF718F9DFF8EC05FDF7B1FD58
S3150FFEC9901B2200210220FDF732FE1022012102206A
S3150FFEC9A0FDF72DFE182202210220FDF728FE20227A
S3150FFEC9B003210220FDF723FEFDF72AFF1622002193
S3150FFEC9C00320FDF71CFE212201210320FDF717FE92
S3150FFEC9D01A2202210320FDF712FE12220321032043
S3150FFEC9E0FDF70DFE01210420FDF754FFFEF76EF84D
S3150FFEC9F002208DF8010002208DF802006946012003
S3150FFECA00FFF7DBFE02208DF8010005208DF80200F0
S3150FFECA1069460220FFF7D1FE02208DF801000420A1
S3150FFECA208DF8020069460320FFF7C7FE02208DF838
S3150FFECA30010004208DF8020069460420FFF7BDFEB3
S3150FFECA4002208DF8010002208DF8020069460520AE
S3150FFECA50FFF7B3FE02208DF8010003208DF80200CA
S3150FFECA6069460620FFF7A9FE02208DF80100F02089
S3150FFECA708DF8020069460720FFF79FFE02208DF80C
S3150FFECA80010002208DF8020069460920FFF795FE88
S3150FFECA9002208DF8010005208DF8020069460A2056
S3150FFECAA0FFF78BFE02208DF8010003208DF80200A2
S3150FFECAB069460B20FFF781FE02208DF80100032049
S3150FFECAC08DF8020069460C20FFF777FE02208DF8DF
S3150FFECAD0010003208DF8020069460D20FFF76DFE5B
S3150FFECAE002208DF8010003208DF8020069460E2004
S3150FFECAF0FFF763FE02208DF8010003208DF802007A
S3150FFECB0069460F20FFF759FE02208DF8010003201C
S3150FFECB108DF8020069461020FFF74FFE02208DF8B2
S3150FFECB20010003208DF8020069461120FFF745FE2E
S3150FFECB3002208DF8010003208DF8020069461220AF
S3150FFECB40FFF73BFE02208DF8010001208DF8020053
S3150FFECB5069461320FFF731FE02208DF801000120F2
S3150FFECB608DF8020069461420FFF727FE03220221E5
S3150FFECB70DFF8080403F0B3FA03220221DFF80004FC
S3150FFECB8003F0ADFA02208DF8010004208DF80200A5
S3150FFECB9069461720FFF711FE02208DF801000620C9
S3150FFECBA08DF8020069461820FFF707FE02208DF862
S3150FFECBB0010006208DF8020069461920FFF7FDFDDC
S3150FFECBC002208DF8010006208DF8020069461A2014
S3150FFECBD0FFF7F3FD02208DF801000A208DF8020003
S3150FFECBE069461B20FFF7E9FD02208DF801000A209A
S3150FFECBF08DF8020069461C20FFF7DFFD02208DF837
S3150FFECC0001000A208DF8020069461D20FFF7D5FDAB
S3150FFECC1002208DF801000A208DF8020069461E20BB
S3150FFECC20FFF7CBFD02208DF801000A208DF80200DA
S3150FFECC3069461F20FFF7C1FD02208DF801000A206D
S3150FFECC408DF8020069462020FFF7B7FD02208DF80A
S3150FFECC50010004208DF8020069462120FFF7ADFD85
S3150FFECC6002208DF8010004208DF80200694622206D
S3150FFECC70FFF7A3FD02208DF8010004208DF80200B8
S3150FFECC8069462320FFF799FD02208DF80100022049
S3150FFECC908DF8020069462420FFF78FFD02208DF8DE
S3150FFECCA0010002208DF8020069462520FFF785FD5B
S3150FFECCB002208DF8010002208DF80200694626201B
S3150FFECCC0FFF77BFD02208DF801000A208DF802008A
S3150FFECCD069462720FFF771FD02208DF801000A2015
S3150FFECCE08DF8020069462820FFF767FD02208DF8B2
S3150FFECCF0010002208DF8020069462920FFF75DFD2F
S3150FFECD0002208DF8010001208DF8020069462A20C7
S3150FFECD10FFF753FD02208DF8010005208DF8020066
S3150FFECD2069462B20FFF749FD02208DF801000320EF
S3150FFECD308DF8020069462C20FFF73FFD02208DF885
S3150FFECD40010003208DF8020069462D20FFF735FD01
S3150FFECD5002208DF8010002208DF8020069462E2072
S3150FFECD60FFF72BFD02208DF8010005208DF802003E
S3150FFECD7069462F20FFF721FD02208DF801000420C2
S3150FFECD808DF8020069463020FFF717FD02208DF859
S3150FFECD90010002208DF8020069463120FFF70DFDD6
S3150FFECDA002208DF8010002208DF80200694632201E
S3150FFECDB0FFF703FD02208DF801000A208DF8020011
S3150FFECDC069463320FFF7F9FC02208DF80100042097
S3150FFECDD08DF8020069463420FFF7EFFC02208DF82E
S3150FFECDE0010004208DF8020069463520FFF7E5FCA9
S3150FFECDF002208DF8010004208DF8020069463620C8
S3150FFECE00FFF7DBFC02208DF801000A208DF80200E9
S3150FFECE1069463720FFF7D1FC02208DF801000C2062
S3150FFECE208DF8020069464120FFF7C7FC02208DF8F8
S3150FFECE3001000C208DF8020069464220FFF7BDFC6B
S3150FFECE4002208DF801000C208DF802006946432062
S3150FFECE50FFF7B3FC02208DF801000C208DF80200BF
S3150FFECE6069464420FFF7A9FC02208DF801000C202D
S3150FFECE708DF8020069464520FFF79FFC02208DF8CC
S3150FFECE80010002208DF8020069464620FFF795FC49
S3150FFECE9002208DF8010003208DF802006946472017
S3150FFECEA0FFF78BFC02208DF8010003208DF80200A0
S3150FFECEB069464820FFF781FC02208DF80100042009
S3150FFECEC08DF8020069464920FFF777FC2D4C0022AC
S3150FFECED008212000FFF7E9FC00220A212000FFF7B8
S3150FFECEE0E4FC002200212000FFF7DFFC00220321D5
S3150FFECEF02000FFF7DAFC002206212000FFF7D5FC03
S3150FFECF002148016831F480710160016831F40071C6
S3150FFECF1001601E480168490849000160016831F049
S3150FFECF2002010160016831F004010160016831F010
S3150FFECF3008010160016831F010010160016851F0CE
S3150FFECF40807101600120FFF767FC1149086013BD70
S3150FFECF50000045547CDDFE0F14E4FE0F70D7FE0F66
S3150FFECF601CE4FE0F10434854504348542043485484
S3150FFECF7024E4FE0F8CE3FE0F98E3FE0F00005E52D5
S3150FFECF8000005E54000042521800425224004252E4
S3150FFECF9000000020BFF35F8F50F001019A4A116027
S3150FFECFA09A490A6852F480320A60BFF34F8FBFF375
S3150FFECFB06F8F7047BFF35F8F9448016831F48031EE
S3150FFECFC0016091480168490849000160BFF34F8F20
S3150FFECFD0BFF36F8F7047F0B40B00DBB29B080C00EC
S3150FFECFE0E4B2E40014F01804FF25A5401E00F6B2C5
S3150FFECFF0022E0FD21E00F6B200EB8606366BAE433E
S3150FFED0001700FFB2A7402F403E431F00FFB200EBB3
S3150FFED01087073E63F0BC704738B504000D002A0043
S3150FFED020D2B22100C9B27A48FFF7D5FF31BD816072
S3150FFED030C2600361704770B504000D001600330021
S3150FFED0402A0021007248FFF7F2FF70BD7149C0B288
S3150FFED050C0010858C0F3012070476E49C0B2C00127
S3150FFED060085800F0FF00401C704770B505002800F9
S3150FFED070C0B2FFF7EBFF060067482900C9B200EB07
S3150FFED0808100805DFDF7A4FE04002800C0B2FFF705
S3150FFED090E4FFB4FBF0F4002C07D140F299625F492E
S3150FFED0A05F48FDF7BDFFAFF30080200070BD80B572
S3150FFED0B01B20FFF7DAFF02BD10B5FFF7F8FF0400DE
S3150FFED0C0230001225FF4E1310120FEF753FB10BD71
S3150FFED0D02DE9F047534D544E0024544F380000F0BF
S3150FFED0E0CCF8DFF84C81404600F0C7F8FFF762FF39
S3150FFED0F000210020FFF790FF44210120FFF78CFF50
S3150FFED1005FF0020A1AF00F0F04D05146C9B211F0A2
S3150FFED1100F0104E05146C9B2890011F00C0151EA24
S3150FFED1200A11C9B20220FFF777FF5FF0070919F060
S3150FFED1300F0F04D04946C9B211F00F0104E049465C
S3150FFED140C9B2890011F00C0151EA0911C9B20320C7
S3150FFED150FFF762FF374A38490820FFF76CFF374A59
S3150FFED16037490920FFF767FF364A37490A20FFF787
S3150FFED17062FF3000E040022801D3641CF9E7002C61
S3150FFED18030D0B5FBF6F006FB1050002807D04FF453
S3150FFED190EA722E492E48FDF743FFAFF300800120BA
S3150FFED1A0A040864207D040F2D51228492948FDF7FE
S3150FFED1B037FFAFF30080052C07D24FF4EB722349EE
S3150FFED1C02548FDF72DFFAFF300807219521E520947
S3150FFED1D0520152F003026909490151F00201012081
S3150FFED1E0FFF729FF0420FFF7D5FE404600F038F87B
S3150FFED1F0380000F035F8BDE8F08780B50122002132
S3150FFED200164802F06CFF01BD94ED00E024ED00E040
S3150FFED21090ED00E00000455448D6FE0F24DDFE0FCC
S3150FFED22004E4FE0F000050200000040000004054EE
S3150FFED23000084054E1FFFF7F02000040E3FF43205A
S3150FFED24002003C20E3FF433002003C3090DBFE0F32
S3150FFED25048E2FE0FC4E1FE0F0CE4FE0F00005E5225
S3150FFED26010B504002068C00706D4200000F012F89F
S3150FFED270206850F00100206010BD10B50400206834
S3150FFED280C00706D5200000F011F8206840084000C0
S3150FFED290206010BD016851F005410160016800294B
S3150FFED2A0FCD4016831F0A06101607047016851F04E
S3150FFED2B00A41016001680029FCD4016831F0206142
S3150FFED2C00160704774490A68D20712D50A6852F090
S3150FFED2D00A420A600A68002AFCD40A6832F0206203
S3150FFED2E00A600A68520852000A60BFF36F8FBFF3D7
S3150FFED2F04F8F016831F002010160D0F8E010890707
S3150FFED300FBD5D0F8E010C907F7D5016851F0020139
S3150FFED3100160704730B401000124C1F8C0400C68AB
S3150FFED32034F002040C600C6854F001040C600C68B7
S3150FFED330E407FCD4D1F8C040E4071CD5D1F8E84089
S3150FFED34023000A242000D1F8E840220012F003043D
S3150FFED350032C02D16424200008E09A4201D1401E1C
S3150FFED36002E00A24200013000028ECD1002802D088
S3150FFED37000BF401EFAE7484C2568ED070FD45FF055
S3150FFED380A0652560256855F0004525602568002DAA
S3150FFED390FCD401252560BFF36F8FBFF34F8F30BCD3
S3150FFED3A070472DE9F84304000D0016003B488442F2
S3150FFED3B003D15FF01508222707E03948844203D1CF
S3150FFED3C05FF01608232700E063E0DFF8D8904046AB
S3150FFED3D0C0B2C00159F8000010F440702900C9B25E
S3150FFED3E0090211F4407188420BD14046C0B2C0010A
S3150FFED3F059F8000000F0FF00711E01F0FF01884290
S3150FFED40047D02000FFF75EFF27483900C9B28901D2
S3150FFED4104158490849003A00D2B292018150BFF3F2
S3150FFED4204F8FBFF36F8F3900C9B289010144096A65
S3150FFED430C907F8D42900C9B2090211F44071721E48
S3150FFED44002F0FF0211434246D2B2D20149F8021050
S3150FFED450BFF34F8FBFF36F8F4146C9B2C90159F85C
S3150FFED46001103900C9B28901415851F001013A0044
S3150FFED470D2B292018150BFF34F8FBFF36F8F390038
S3150FFED480C9B289010144096AC907F8D52000FFF719
S3150FFED49041FFBDE8F18300000000405400005E52DC
S3150FFED4A000005E54000045540080455480B5514837
S3150FFED4B0016851F4700101604F490868800403D575
S3150FFED4C04E484F4A106006E04D484CF2205202601D
S3150FFED4D04DF6281202604FF6FF704A4A10600A6830
S3150FFED4E032F0800252F020020A6047490A6892041F
S3150FFED4F003D5424A454B1A6006E0444A4CF2205386
S3150FFED50013604DF628131360414A10600A6832F015
S3150FFED510800252F020020A603E490A68920403D541
S3150FFED520364A3D4B1A6006E03B4A4CF220531360D7
S3150FFED5304DF628131360394A10600A6832F08002DE
S3150FFED54052F020020A6036490A68920403D52B4A26
S3150FFED550344B1A6006E0334A4CF2205313604DF6F5
S3150FFED56028131360304A10600A6832F0800252F0B8
S3150FFED57020020A602D490A68920403D51F4A2C4BD6
S3150FFED5801A6006E02A4A4CF2205313604DF6281312
S3150FFED5901360284A1060086830F0800050F02000B3
S3150FFED5A0086025480168C90703D50168490849007F
S3150FFED5B0016022480168C9070FD45FF0A0610160C0
S3150FFED5C0016851F00041016001680029FCD4012178
S3150FFED5D00160BFF36F8FBFF34F8F1948016851F08C
S3150FFED5E010010160BFF34F8FBFF36F8F00F02AF864
S3150FFED5F001BD000088ED00E000002D5420C528D99E
S3150FFED60004002D5408002D5400002E5404002E54F1
S3150FFED61008002E5400004952040049520800495290
S3150FFED62000004A5204004A5208004A5200004B526A
S3150FFED63004004B5208004B5210E000E0000040542D
S3150FFED64014ED00E07047FEE70001050D00010D0524
S3150FFED65000011409000107110001071000010D0951
S3150FFED66000010E160001030E0001030E00010E1639
S3150FFED67000010E1600010E0B00010E0B00010E0B24
S3150FFED68000010E0B00010E0B00010E0B00010E0B1F
S3150FFED69000010E0B00010E0B00010E0B00010F0811
S3150FFED6A0000111090001071400010D0300010D030E
S3150FFED6B000010D0300010E0B00010E0B00010E0BF8
S3150FFED6C000010E0B00010E0B00010E0B00010E0BDF
S3150FFED6D000010E0B00010E0B0001100700011007D3
S3150FFED6E00001100700010E0B00010E0B00010A16BA
S3150FFED6F000010A160001140800010E0B00010E0BA5
S3150FFED70000010D0B000115160001151600010D0B7C
S3150FFED7100001120900011516000115160001151656
S3150FFED7200001151600011516000115160001151636
S3150FFED7300001151600011418000114180001141823
S3150FFED74000010D100001030E00011618000118113D
S3150FFED750000118110001181100011811000118110E
S3150FFED76000010D1800010E1800010E150001160519
S3150FFED7700001050D00010D05000114090001071139
S3150FFED7800001071000010D0900010E160001030E20
S3150FFED7900001030E00010E1600010E1600010E0B00
S3150FFED7A000010E0B00010E0B00010E0B00010E0BFE
S3150FFED7B000010E0B00010E0B00010E0B00010E0BEE
S3150FFED7C000010E0B00010F080001110900010714DD
S3150FFED7D000010D0300010D0300010D0300010E0BE9
S3150FFED7E000010E0B00010E0B00010E0B00010E0BBE
S3150FFED7F000010E0B00010E0B00010E0B00010E0BAE
S3150FFED80000011007000110070001100700010E0BA3
S3150FFED81000010E0B00010A1600010A16000114087C
S3150FFED82000010E0B00010E0B00010D0B000115166C
S3150FFED8300001151600010D0B000112090001151648
S3150FFED8400001151600011516000115160001151615
S3150FFED8500001151600011516000115160001141804
S3150FFED860000114180001141800010D100001030E1B
S3150FFED87000011618000118110001181100011811E8
S3150FFED880000118110001181100010D1800010E18E4
S3150FFED89000010E15000116050001050D00010D050F
S3150FFED8A000011409000107110001071000010D09FF
S3150FFED8B000010E160001030E0001030E00010E16E7
S3150FFED8C000010E1600010E0B00010E0B00010E0BD2
S3150FFED8D000010E0B00010E0B00010E0B00010E0BCD
S3150FFED8E000010E0B00010E0B00010E0B00010F08BF
S3150FFED8F0000111090001071400010D0300010D03BC
S3150FFED90000010D0300010E0B00010E0B00010E0BA5
S3150FFED91000010E0B00010E0B00010E0B00010E0B8C
S3150FFED92000010E0B00010E0B000110070001100780
S3150FFED9300001100700010E0B00010E0B00010A1667
S3150FFED94000010A160001140800010E0B00010E0B52
S3150FFED95000010D0B000115160001151600010D0B2A
S3150FFED9600001120900011516000115160001151604
S3150FFED97000011516000115160001151600011516E4
S3150FFED98000011516000114180001141800011418D1
S3150FFED99000010D100001030E0001161800011811EB
S3150FFED9A000011811000118110001181100011811BC
S3150FFED9B000010D1800010E1800010E1500011605C7
S3150FFED9C010B42F4A0B005BB213F001030400E4B24E
S3150FFED9D0A401145914F00104A3420FD00B005BB23D
S3150FFED9E013F001030400E4B2A4011351BFF34F8FEA
S3150FFED9F0BFF36F8F0300DBB29B01D25810BC70478B
S3150FFEDA0010B5040001212000C0B2FFF7D9FF10BDEB
S3150FFEDA1070B4049C11F00F05260116F0100635435F
S3150FFEDA200560002A00D0136070BC704780B500F009
S3150FFEDA3001F801BDE0B52B20FFF7E2FF2C20FFF723
S3150FFEDA40DFFF002001900F480090002300220521E2
S3150FFEDA500D48FFF7DDFF002001900C4800900023D4
S3150FFEDA60002200210A48FFF7D3FF01200190094843
S3150FFEDA7000900023002200210748FFF7C9FF07BDCC
S3150FFEDA8000804554C003A1427801A14294003C4454
S3150FFEDA9020003C4498003C4424003C441300DBB277
S3150FFEDAA0002B03D101238B40836402E001238B40BD
S3150FFEDAB04364704770B504000D0016003200D2B2F3
S3150FFEDAC029002000FFF7EAFF70BD70B505000E00B6
S3150FFEDAD01400002C06D162220D490E48FDF7A0FA5E
S3150FFEDAE0AFF300802078002805D1686D0121B14083
S3150FFEDAF08843686509E0627831002800FFF7DAFF90
S3150FFEDB00686D0121B1400843686570BD00000000D5
S3150FFEDB1084DEFE0FF8E3FE0F72B61348134901605B
S3150FFEDB200A6882F30888124880F30A8811488047EC
S3150FFEDB304FF000001049114A9142BCBF41F8040B49
S3150FFEDB40FAE74FF000000E490E4A9142BCBF41F86C
S3150FFEDB50040BFAE706490C4A9142BCBF41F8040B87
S3150FFEDB60FAE762B60948004708ED00E000A0FE0F8F
S3150FFEDB7000FC0120ADD4FE0F0000002004000020A3
S3150FFEDB80800000208004002000000220E9E2FE0F44
S3150FFEDB90443A5C7265735F636869705F692E6D7870
S3150FFEDBA072745F636D375C53444B5F325F31335F25
S3150FFEDBB0305F4D494D585254313138302D45564B05
S3150FFEDBC05C626F617264735C65766B6D696D78729C
S3150FFEDBD074313138305C6472697665725F6578616F
S3150FFEDBE06D706C65735C726770696F5C6C65645F94
S3150FFEDBF06F75747075745C636D33335C626F6172CF
S3150FFEDC00642E6300C16470471CB511480088ADF8D9
S3150FFEDC100000FFF75DFAFFF709FFFEF782FEFFF73B
S3150FFEDC204BFA0C48FDF7E1FD0B48FDF7DEFD0B4CFD
S3150FFEDC306A461B212000FFF748FF0948016809487D
S3150FFEDC40FDF714FA5FF000612000FFF7DBFFF4E744
S3150FFEDC50A2B5FE0FCCE2FE0F74E1FE0F000083535A
S3150FFEDC600000002040420F00443A5C7265735F630A
S3150FFEDC706869705F692E6D7872745F636D375C537A
S3150FFEDC80444B5F325F31335F305F4D494D585254CF
S3150FFEDC90313138302D45564B5C6465766963657355
S3150FFEDCA05C4D494D585254313138395C6472697640
S3150FFEDCB06572735C66736C5F636F6D6D6F6E5F61BE
S3150FFEDCC0726D2E6300000000443A5C7265735F63EB
S3150FFEDCD06869705F692E6D7872745F636D375C531A
S3150FFEDCE0444B5F325F31335F305F4D494D5852546F
S3150FFEDCF0313138302D45564B5C64657669636573F5
S3150FFEDD005C4D494D585254313138395C64726976DF
S3150FFEDD106572735C66736C5F6C70756172742E637D
S3150FFEDD2000000000443A5C7265735F636869705F5A
S3150FFEDD30692E6D7872745F636D375C53444B5F3239
S3150FFEDD405F31335F305F4D494D5852543131383064
S3150FFEDD502D45564B5C646576696365735C4D494D1F
S3150FFEDD60585254313138395C647269766572735C18
S3150FFEDD7066736C5F636C6F636B2E6800443A5C72FE
S3150FFEDD8065735F636869705F692E6D7872745F6322
S3150FFEDD906D375C53444B5F325F31335F305F4D49B6
S3150FFEDDA04D585254313138302D45564B5C6465769D
S3150FFEDDB0696365735C4D494D585254313138395C40
S3150FFEDDC0647269766572735C66736C5F636C6F63A0
S3150FFEDDD06B2E6800443A5C7265735F636869705FA9
S3150FFEDDE0692E6D7872745F636D375C53444B5F3289
S3150FFEDDF05F31335F305F4D494D58525431313830B4
S3150FFEDE002D45564B5C636F6D706F6E656E74735CEE
S3150FFEDE10756172745C66736C5F6164617074657252
S3150FFEDE205F6C70756172742E63000000443A5C720B
S3150FFEDE3065735F636869705F692E6D7872745F6371
S3150FFEDE406D375C53444B5F325F31335F305F4D4905
S3150FFEDE504D585254313138302D45564B5C646576EC
S3150FFEDE60696365735C4D494D585254313138395C8F
S3150FFEDE70647269766572735C66736C5F636C6F63EF
S3150FFEDE806B2E6300443A5C7265735F636869705FFD
S3150FFEDE90692E6D7872745F636D375C53444B5F32D8
S3150FFEDEA05F31335F305F4D494D5852543131383003
S3150FFEDEB02D45564B5C646576696365735C4D494DBE
S3150FFEDEC0585254313138395C647269766572735CB7
S3150FFEDED066736C5F726770696F2E630028636F6E71
S3150FFEDEE06669672D3E6C6F6F7044697669646572FD
S3150FFEDEF0203C3D202875696E7433325F74293230AB
S3150FFEDF0038292026262028636F6E6669672D3E6C9C
S3150FFEDF106F6F7044697669646572203E3D20287581
S3150FFEDF20696E7433325F7429313034290000000074
S3150FFEDF30636F6E6669672D3E696E7374616E636598
S3150FFEDF40203C202873697A656F6628735F4C70755F
S3150FFEDF5061727441646170746572426173652920E2
S3150FFEDF602F2073697A656F66284C50554152545F60
S3150FFEDF7054797065202A292900000000696E737492
S3150FFEDF80616E6365203C202873697A656F66287318
S3150FFEDF905F6C707561727442617365735F6E732920
S3150FFEDFA0202F2073697A656F662828735F6C7075EC
S3150FFEDFB061727442617365735F6E73295B305D299F
S3150FFEDFC02900000030B4002512E050F8042BD307C9
S3150FFEDFD044BF4A44521E091F042942F8045BFAD273
S3150FFEDFE013468C0744BF15809B1CC90748BF1D707F
S3150FFEDFF050F8041B0029E8D130BC70470000000022
S3150FFEE0000000385400003954000057520000585291
S3150FFEE0100000595200005A52000057540000DA52BF
S3150FFEE0200000D7520000D8520000D95200005854B3
S3150FFEE03028706C6C203D3D206B434C4F434B5F501D
S3150FFEE0406C6C5379733229207C7C2028706C6C2083
S3150FFEE0503D3D206B434C4F434B5F506C6C53797376
S3150FFEE0603329000000000000000038440000394448
S3150FFEE07000005742000058420000594200005A4223
S3150FFEE080000057440000DA420000D7420000D84293
S3150FFEE0900000D9420000584400000000000038542A
S3150FFEE0A000003954000057520000585200005952D2
S3150FFEE0B000005A52000057540000DA520000D752A1
S3150FFEE0C00000D8520000D952000058543020213D8E
S3150FFEE0D020735F4C70756172744164617074657202
S3150FFEE0E0426173655B636F6E6669672D3E696E731C
S3150FFEE0F074616E63655D000041535345525420456E
S3150FFEE10052524F52202220257320223A2066696CE6
S3150FFEE110652022257322204C696E652022256422F6
S3150FFEE120200A00002875696E74385F742928313607
S3150FFEE13029203E20636F6E6669672D3E74784669A9
S3150FFEE140666F57617465726D61726B002875696EC5
S3150FFEE15074385F742928313629203E20636F6E6628
S3150FFEE16069672D3E72784669666F57617465726D83
S3150FFEE17061726B000D0A20546865204C4544206978
S3150FFEE180732074616B696E67207475726E7320747B
S3150FFEE1906F207368696E652E0D0A000010B507496C
S3150FFEE1A079441831064C7C44163404E00A68081D7F
S3150FFEE1B0114488470146A142F8D110BD5000000018
S3150FFEE1C0840000006E6F6E436163686553697A65FE
S3150FFEE1D0203D3D202875696E7433325F74292831D0
S3150FFEE1E0203C3C20692900004EF68851CEF20001F4
S3150FFEE1F0086840F470000860BFF34F8FBFF36F8F50
S3150FFEE2004FF00170E1EE100A70470000B9FDFFFFF7
S3150FFEE2107C00000004000020000000000FD1FFFF6D
S3150FFEE220040000006C050000000000200000000046
S3150FFEE230FBD0FFFFE80100008CF0FFFF0000FF0F91
S3150FFEE24000000000FEE7000021286E6F6E4361633B
S3150FFEE250686553746172742025206E6F6E43616319
S3150FFEE260686553697A65290000F00DF8002801D01C
S3150FFEE270FFF794FFAFF300800020AFF30080FFF7A8
S3150FFEE280C3FC00F002F80120704700F001B8FEE76C
S3150FFEE2900746384600F002F8FBE7FEE780B5AFF318
S3150FFEE2A00080024A11001820ABBEFBE726000200D3
S3150FFEE2B03055203C20636F6E6669672D3E62617531
S3150FFEE2C064526174655F4270730000000D0A20523E
S3150FFEE2D04750494F20447269766572206578616DA5
S3150FFEE2E0706C650D0A0000000548014603B46846CA
S3150FFEE2F080F30988AFF30080FFF776FFFFF7B4FFD1
S3150FFEE300A5EDF5FE66726163203C3D202875696EAC
S3150FFEE31074385F74293335550000000066726163E9
S3150FFEE320203E3D202875696E74385F74293132554B
S3150FFEE3300000000066726163203E3D202875696EFF
S3150FFEE3407433325F74293132550000006672616391
S3150FFEE350203C3D202875696E7433325F7429333540
S3150FFEE36055000000636F756E74203C3D2030786655
S3150FFEE370666666666666665500000000954F5051E6
S3150FFEE38052535455565758595A0000000101000072
S3150FFEE3900000000000000000FFFFFF0F000000005E
S3150FFEE3A0000000003020213D2068616E646C650020
S3150FFEE3B03020213D20636F6E666967003020213D58
S3150FFEE3C020646174610000006C656E677468203EA0
S3150FFEE3D0203055006672657120213D2030554C0068
S3150FFEE3E03020213D20646174610000003020213D04
S3150FFEE3F020636F6E666967003020213D20636F6E66
S3150FFEE40066696700667265710000000069203E3D11
S3150FFEE41020350000636F6E66696700006672657170
S3150FFEE42000000000000000008400000066726571A7
S3150FFEE43000000000004800478DE7FE0F004800472A
S3150FFEE4408DE7FE0F004800478DE7FE0F0048004799
S3150FFEE4508DE7FE0F004800478DE7FE0F0048004789
S3150FFEE4608DE7FE0F004800478DE7FE0F0048004779
S3150FFEE47081C6FE0F0048004791C6FE0F00480047B3
S3150FFEE4808DE7FE0F004800478DE7FE0F0048004759
S3150FFEE4908DE7FE0F004800478DE7FE0F0048004749
S3150FFEE4A08DE7FE0F004800478DE7FE0F0048004739
S3150FFEE4B08DE7FE0F004800478DE7FE0F0048004729
S3150FFEE4C08DE7FE0F004800478DE7FE0F0048004719
S3150FFEE4D08DE7FE0F004800478DE7FE0F0048004709
S3150FFEE4E08DE7FE0F004800478DE7FE0F00480047F9
S3150FFEE4F08DE7FE0F004800478DE7FE0F00480047E9
S3150FFEE500A1C6FE0F00480047B1C6FE0F00480047E2
S3150FFEE510C1C6FE0F00480047D1C6FE0F0048004792
S3150FFEE5208DE7FE0F004800478DE7FE0F00480047B8
S3150FFEE5308DE7FE0F004800478DE7FE0F00480047A8
S3150FFEE5408DE7FE0F004800478DE7FE0F0048004798
S3150FFEE5508DE7FE0F004800478DE7FE0F0048004788
S3150FFEE5608DE7FE0F004800478DE7FE0F0048004778
S3150FFEE5708DE7FE0F004800478DE7FE0F0048004768
S3150FFEE5808DE7FE0F004800478DE7FE0F0048004758
S3150FFEE5908DE7FE0F004800478DE7FE0F0048004748
S3150FFEE5A08DE7FE0F004800478DE7FE0F0048004738
S3150FFEE5B08DE7FE0F004800478DE7FE0F0048004728
S3150FFEE5C08DE7FE0F004800478DE7FE0F0048004718
S3150FFEE5D08DE7FE0F004800478DE7FE0F0048004708
S3150FFEE5E08DE7FE0F004800478DE7FE0F00480047F8
S3150FFEE5F08DE7FE0F004800478DE7FE0F00480047E8
S3150FFEE6008DE7FE0F004800478DE7FE0F00480047D7
S3150FFEE6108DE7FE0F004800478DE7FE0F00480047C7
S3150FFEE6208DE7FE0F004800478DE7FE0F00480047B7
S3150FFEE6308DE7FE0F004800478DE7FE0F00480047A7
S3150FFEE6408DE7FE0F004800478DE7FE0F0048004797
S3150FFEE6508DE7FE0F004800478DE7FE0F0048004787
S3150FFEE6608DE7FE0F004800478DE7FE0F0048004777
S3150FFEE6708DE7FE0F004800478DE7FE0F0048004767
S3150FFEE6808DE7FE0F004800478DE7FE0F0048004757
S3150FFEE6908DE7FE0F004800478DE7FE0F0048004747
S3150FFEE6A08DE7FE0F004800478DE7FE0F0048004737
S3150FFEE6B08DE7FE0F004800478DE7FE0F0048004727
S3150FFEE6C08DE7FE0F004800478DE7FE0F0048004717
S3150FFEE6D08DE7FE0F004800478DE7FE0F0048004707
S3150FFEE6E08DE7FE0F004800478DE7FE0F00480047F7
S3150FFEE6F08DE7FE0F004800478DE7FE0F00480047E7
S3150FFEE7008DE7FE0F004800478DE7FE0F00480047D6
S3150FFEE7108DE7FE0F004800478DE7FE0F00480047C6
S3150FFEE7208DE7FE0F004800478DE7FE0F00480047B6
S3150FFEE7308DE7FE0F004800478DE7FE0F00480047A6
S3150FFEE7408DE7FE0F004800478DE7FE0F0048004796
S3150FFEE7508DE7FE0F004800478DE7FE0F0048004786
S3150FFEE7608DE7FE0F00480047E1C6FE0F0048004743
S3150FFEE770F1C6FE0F004800478DE7FE0F0048004723
S3150FFEE7808DE7FE0F004800478DE7FE0FFFF7FEBF32
S3090FFEE790001C4E0EFA
S7050FFEDB19F9
