:020000042800D2
:10A000000000022075D50028A3B50028C7B5002898
:10A010000BB90028DBBD002813BE002817BE00289E
:10A02000000000000000000000000000A7C300289E
:10A030003BD100280000000009DD002853DD002886
:10A0400051E2002851E2002851E2002851E20028A4
:10A0500051E2002851E2002851E2002851E2002894
:10A06000F9DE002801DF002851E2002851E2002833
:10A0700009DF002811DF002819DF002851E200283D
:10A0800021DF002829DF002851E2002831DF0028E5
:10A0900039DF002851E2002851E2002851E200286F
:10A0A00051E2002851E2002851E2002851E2002844
:10A0B00051E2002851E2002851E2002851E2002834
:10A0C00051E2002851E2002851E2002851E2002824
:10A0D00051E2002851E2002851E2002851E2002814
:10A0E00051E2002841DF002849DF002851DF002825
:10A0F00059DF002861DF002851E2002851E20028E2
:10A1000051E2002851E2002851E2002869DF0028CE
:10A1100071DF002879DF002881DF002889DF00282F
:10A1200091DF002851E2002851E2002851E2002886
:10A1300051E2002899DF0028A1DF0028A9DF0028CC
:10A1400051E20028B1DF0028B9DF002851E20028E1
:10A15000C1DF0028C9DF0028D1DF0028D9DF0028AF
:10A16000E1DF002851E2002851E2002851E20028F6
:10A1700051E2002851E2002851E2002851E2002873
:10A1800051E2002851E2002851E2002851E2002863
:10A1900051E2002851E20028E9DF0028F1DF002821
:10A1A00051E2002851E2002851E2002851E2002843
:10A1B00051E2002851E20028F9DF002801E00028E0
:10A1C00009E0002811E0002819E0002821E000281B
:10A1D00029E0002831E0002839E0002841E000288B
:10A1E00049E0002851E0002859E0002861E00028FB
:10A1F00069E0002871E0002879E0002881E000286B
:10A2000089E0002891E0002899E00028A1E00028DA
:10A21000A9E00028B1E00028B9E00028C1E000284A
:10A22000C9E00028D1E00028D9E00028E1E00028BA
:10A23000E9E00028F1E00028F9E0002801E1002829
:10A2400009E1002811E1002819E1002821E1002896
:10A2500029E1002831E1002839E1002841E1002806
:10A2600049E1002851E1002859E1002861E1002876
:10A2700069E1002871E1002879E1002881E10028E6
:10A2800089E1002891E1002899E10028A1E1002856
:10A29000A9E10028B1E10028B9E10028C1E10028C6
:10A2A000C9E10028D1E10028D9E10028E1E1002836
:10A2B000E9E10028F1E10028F9E1002801E20028A5
:10A2C00051E2002851E2002851E2002851E2002822
:10A2D00051E2002851E2002851E2002851E2002812
:10A2E00051E2002851E2002851E2002851E2002802
:10A2F00051E2002851E2002851E2002851E20028F2
:10A3000051E2002851E2002851E2002851E20028E1
:10A3100051E2002851E2002851E2002851E20028D1
:10A3200051E2002851E2002851E2002851E20028C1
:10A3300051E2002851E2002851E2002809E20028F9
:10A3400011E2002851E2002819E2002821E2002849
:10A3500029E2002831E2002839E2002841E2002801
:10A3600051E2002851E2002851E2002851E2002881
:10A3700051E2002851E2002851E2002851E2002871
:10A3800051E2002851E2002851E2002851E2002861
:10A3900051E2002851E2002851E2002851E2002851
:10A3A00049E2002851E2002851E2002851E2002849
:10A3B00051E2002851E2002851E2002851E2002831
:10A3C00051E2002851E2002851E2002851E2002821
:10A3D00051E2002851E2002851E2002851E2002811
:10A3E00051E2002851E2002851E2002851E2002801
:10A3F00051E2002851E2002851E2002851E20028F1
:10A40000DFF82017C0010858C0F301207047DFF8BB
:10A410001417C001085800F0FF00401C704770B5C9
:10A42000044660686838692808D35C22DFF8BC16E7
:10A43000DFF8BC0600F02AFDAFF30080DFF8B45669
:10A44000286880041DD5286800F0FF002179884223
:10A4500017D1286800F4C0302178C90301F4C03155
:10A4600088420ED12868400403D4286840F4804014
:10A470002860286840002FD5286820F08040286098
:10A4800070BDDFF8740600F00DFD2E6826F0005652
:10A4900016F4C04F04D026F4C04646F080462E6025
:10A4A000606860F30706207860F3D03646F0804697
:10A4B00046F400562E60BFF34F8FBFF36F8FDFF867
:10A4C00070161E2000F003FD28688000FCD526F0E1
:10A4D000804646F480462E6070BD70B50446DFF8B5
:10A4E0001C562868000226D5002C15D0DFF810165F
:10A4F0000868000402D4207A00280DD0207A62680F
:10A500001288120442EAC03260684088C0F30E002C
:10A510000243086882420ED12868800403D4286868
:10A5200040F4005028602868400052D5286820F088
:10A530008040286070BDDFF8C00500F0B3FCDFF894
:10A54000E865306860F07F3030602968DFF8DC054E
:10A55000014205D0DFF8DC05014041F0804129606F
:10A56000002C16D0207A002813D06068002810D064
:10A57000206820F04040DFF8C0150860606800885F
:10A580006168498841EA004141F40041DFF8700503
:10A590000160DFF8A8052860DFF8944521461E20F9
:10A5A00000F095FCDFF8980528602146FA2000F0BD
:10A5B0008EFCDFF89005286028688000FCD5DFF865
:10A5C0000C062860DFF888062860306820F08030AC
:10A5D000306070BD2DE9FC4180460D4616460024D2
:10A5E00027463046242809DB4FF48C72DFF8FC1430
:10A5F000DFF8DC0500F04AFCAFF3008030460C28A1
:10A6000009DA40F21912DFF8E414DFF8480600F026
:10A610003DFCAFF30080B8F1020F03D0B8F1030F97
:10A6200005D009E0DFF80045DFF82C760DE0DFF813
:10A630002C46DFF82C7608E040F22712DFF8AC1445
:10A6400098A000F023FCAFF300803F212368E800CE
:10A6500001FA00F00340E800C340802220684FEA7E
:10A66000C50C02FA0CFC0CEA00004FF0080C2CFAA6
:10A6700005FC20FA0CF0401E8041C043C00FB446D8
:10A68000634501D1002830D0402320684FEAC50C33
:10A6900003FA0CFC0CEA0000009020684FEAC50C9D
:10A6A00002FA0CFC4CEA00002060D4F800C0E8007C
:10A6B00081402CEA01012160216806F03F068640B6
:10A6C0000E43266038680221A9404840386021685E
:10A6D000E800824021EA0202226000982168EA0034
:10A6E00003FA02F211408842F7D0BDE8F381F8B5D1
:10A6F00006460D4600273C4602280BD0032809D009
:10A7000040F26912DFF8E413DFF87C0600F0BEFBCC
:10A71000AFF30080022E02D0032E0AD013E0DFF840
:10A72000080404683F21E80081400C40DFF85C76B3
:10A7300012E0DFF8280504683F21E80081400C4062
:10A74000DFF84C7608E040F27912DFF8A01355A04C
:10A7500000F09CFBAFF30080ED00EC400C2C09D224
:10A760004FF4BF72DFF88413DFF8280600F08EFB89
:10A77000AFF30080242C09D340F27F12DFF86C1372
:10A78000DFF89C0600F082FBAFF30080002C05D0C0
:10A79000B7FBF4F000EBC0014800F2BD0020F2BDB1
:10A7A00038B5DFF8F445206880020ED520688004B3
:10A7B00003D4206840F400502060206840002AD56F
:10A7C000206820F08040206031BDDFF82C0300F0CD
:10A7D00069FBDFF88804016861F07F310160DFF810
:10A7E000BC052060DFF8485329461E2000F06FFBAF
:10A7F000DFF83006206029461E2000F068FBDFF8F5
:10A800002806206020688000FCD5DFF82006206044
:10A81000DFF81C06206031BD80B5042838D8DFE899
:10A8200000F00311162432000029DFF8C802006886
:10A8300002D040F4003001E020F40030DFF8B41220
:10A84000086001BDDFF8EC05BDE8044036E00029F2
:10A85000DFF8A802006802D040F4803001E020F464
:10A860008030DFF89812086001BD0029DFF8280564
:10A87000006802D040F4803001E020F48030DFF83E
:10A880001815086001BDDFF8B005BDE8044015E00B
:10A8900040F20522DFF854123FA000F0F7FAAFF3C0
:10A8A000008001BD30000000002903D04FF4C041FA
:10A8B000416070474FF480418160704700294FF438
:10A8C000803101D0416070478160704700294FF4AA
:10A8D000800101D0416070478160704700294FF4CA
:10A8E000005101D0416070478160704738B504461F
:10A8F0000D460121FFF7F2FFDFF83412284600F081
:10A90000E6FA00212046BDE83440E7E700294FF48D
:10A91000004101D0416070478160704700294FF4C9
:10A92000004101D041607047816070472DE9F041DE
:10A9300004460D4616461F46DFF8F884444502D00B
:10A940000021FFF7B1FF0798002806D04188008852
:10A9500041EA004141F400412161069826622063EA
:10A960007F20A06005F07F056560444506D04FF06C
:10A970006060A0607F0607F0606767600121204685
:10A98000FFF7A4FFDFF8A811642000F0A0FA01216E
:10A990002046BDE8F04187E7300000000028DFF8DE
:10A9A000AC04016803D121F480410160704741F497
:10A9B0008041016070470028DFF89004016803D1EE
:10A9C00021F400510160704741F40051016070476B
:10A9D00010B50020FFF7EFFF0120FFF7DFFFDFF8E2
:10A9E000584400212046FFF799FF00212046FFF739
:10A9F0005BFF00212046FFF789FF00212046BDE8CC
:10AA0000104063E70028DFF84804016803D121F40F
:10AA100080410160704741F4804101607047002827
:10AA2000DFF82C04016803D121F000710160704748
:10AA300041F00071016070470028DFF814040168DC
:10AA400003D121F080610160704741F080610160B5
:10AA500070470028DFF8F803016803D121F40051A2
:10AA60000160704741F4005101607047DFF8E00376
:10AA700000688000FAD570473EB504461E4800F0D5
:10AA800011FADFF8B05301212846FFF717FF012024
:10AA9000FFF7DFFF207A002802D06068002800D18D
:10AAA000002001906FF0704000900023DFF8A42395
:10AAB00029212846FFF73AFFE1212846FFF716FF34
:10AAC000FFF7D4FF01212846FFF728FF0020FFF7FA
:10AAD00099FF2078FFF7A3FF6078FFF7ADFF002113
:10AAE000284603B0BDE83040E8E60000F0D8002872
:10AAF000A0D9002800404854000048544040485421
:10AB000060404854DFF850130A6822F4A062030042
:10AB100002D142F4807203E0012801D142F4806244
:10AB20000A6070470000455470404854002080007F
:10AB3000001C4E0EFFDF7FFFA0404854080000407D
:10AB4000080880400800804070B52DED048BDFF8C8
:10AB5000E802046804F07F040068C0F34266DFF88E
:10AB6000FC02006800F0DAF941EC180BDFF8F002A3
:10AB7000006800F0D3F941EC190B204600F0CEF943
:10AB800004460D4651EC190B53EC182B00F0D4F988
:10AB900022462B4600F008FB0022DFF8C83200F006
:10ABA0002BFC04460D46012000FA06F6304600F064
:10ABB000B5F902460B462046294600F0BDF9BDEC2A
:10ABC000048BBDE8704000F0EDBC00000820804020
:10ABD000C8DD002810B50024042822D8DFE800F0E2
:10ABE0000316191B1D00DFF88002016801F0FF0148
:10ABF0000068C0F3C130DFF874220123401C03FA5F
:10AC000000F04000B2FBF0F44C4313E0DFF8604288
:10AC100010E05E4C0EE05E4C0CE0FFF795FF044642
:10AC200008E040F20152DFF84C127CA000F02EF94F
:10AC3000AFF30080002C09D140F20452DFF8341247
:10AC4000DFF8340200F022F9AFF30080204610BD97
:10AC500008208000E0DD002850404854304048542F
:10AC60002040485410B500241A2800F27680DFE80E
:10AC700000F0110E1111141419191E242A30363641
:10AC80003B41474D5359595E646B6B707000DFF860
:10AC9000EC416BE0DFF8D44168E02046FFF79AFF13
:10ACA000044663E00220FFF795FF04465EE021467C
:10ACB0000220FFF71CFD044658E001210220FFF7A7
:10ACC00016FD044652E002210846FFF710FD044637
:10ACD0004CE003210220FFF70AFD044646E0032072
:10ACE000FFF778FF044641E00320FFF773FF0446B7
:10ACF00064083BE021460320FFF7F9FC044635E0F9
:10AD000001210320FFF7F3FC04462FE0022103207A
:10AD1000FFF7EDFC044629E003210846FFF7E7FCB6
:10AD2000044623E00120FFF755FF04461EE0012002
:10AD3000FFF750FF0446640818E00120FFF74AFFC0
:10AD40000521B0FBF1F411E00420FFF743FF0446B6
:10AD50000CE000F025F8044608E040F25E52DFF80F
:10AD600014112EA000F092F8AFF30080002C09D14E
:10AD700040F26152DFF8FC10DFF8FC0000F086F8CA
:10AD8000AFF30080204610BDF4DA002800A4781F3D
:10AD900000389C1CF8DD002810404854100000408A
:10ADA00010B500240120FFF72BFBDFF8D410084476
:10ADB0000079002806D0012807D0052808D00D28E2
:10ADC0000BD00FE0DFF8A44015E0DFF8B04012E050
:10ADD0002046FFF7FFFE04460DE00320FFF7FAFED2
:10ADE000044608E040F2B152DFF888100BA000F0F2
:10ADF0004DF8AFF300800120FFF709FBB4FBF0F43E
:10AE0000002C09D140F2B552DFF86810DFF8740069
:10AE100000F03CF8AFF30080204610BD3000000089
:10AE200010DE00281008204010002040182020408C
:10AE3000182020008041485480424854DFF84800E0
:10AE40000168490849000160704700000042485409
:10AE500000414854AAAAAA0AB0434854B0424854F0
:10AE6000A042485460E376410040485400366E01E9
:10AE700000CA9A3BF0D8002898DE00280084D71733
:10AE80008CD30028F0DE00285043485480B5134688
:10AE90000A460146024800F0BFFB00BEFDE700BFC6
:10AEA000BCDB00280548026840F205118A4204D044
:10AEB00001600349012000F00AB8704780464854F9
:10AEC000001C4E0E0046401E0028FCD17047002892
:10AED00000D1704738B5A1FB00010E4A002300F0F5
:10AEE00015FD04460D46002001218D4209D301D8ED
:10AEF000844206D3D52206490748FFF7C7FFAFF3C0
:10AF00000080A40844EA85742046BDE83240D9E7B1
:10AF10002CD7002840420F0028DE002850B1B0FA9C
:10AF200080F18840C91CC1F58461090501EBD0217D
:10AF30004005704701467047F0B540F2FF7581EA61
:10AF4000030C0CF0004C15EA11541DBF15EA135701
:10AF5000AC42AF42E5E0BC41C1F31301C3F31303BC
:10AF6000801A994143F4801304D2641E00184941A9
:10AF700080185941C90241EA5051B1FBF3F603FB75
:10AF80001611A2FB0675D7EBC020A94102D2761E8E
:10AF900080185941C90241EA5051B1FBF3FE03FB4D
:10AFA0001E11A2FB0E75D7EBC020A94103D2AEF152
:10AFB000010E80185941890241EA9051760546EA0E
:10AFC0008E2EB1FBF3F603FB1611A2FB0675D7EB31
:10AFD0008020A94102D2761E80185941C90241EA57
:10AFE00050514EEA060EB1FBF3F603FB1611A2FB1D
:10AFF0000675D7EBC020A94102D2761E80185941B0
:10B00000C90241EA5051B1FBF3F703FB1711A2FB50
:10B010000735D3EBC020A94167F100070CBF004200
:10B0200047F0010766F3D5274FEA1E31B80814F53B
:10B03000806412DDBD0775F1004250EB0E5051EBFC
:10B04000045111F5801F5CBF41EA0C01F0BD4CF0CA
:10B050007F6141F0E0410020F0BDBD076D0840EA8E
:10B060000E5041F48011D4F10104B4F120060ADA43
:10B07000C4F120060200E04001FA06F3E140184363
:10B08000B24015430EE0342C13DCC6F1200445EA2F
:10B0900040056D0820FA06F2154321FA06F0A1409A
:10B0A0000D43002175F1004250F1000051EB0C01FD
:10B0B000F0BD00205FEA0C01F0BDCFB992185B41F2
:10B0C000B3FA83F704BFB2FA82F6BF190B3FB7F1A8
:10B0D00020062FBF02FA06F3BB40C7F1200622FA72
:10B0E00006F638BF3343BA401CB1E419641E33E797
:10B0F0007F4231F00041B1FA81F404BFB0FA80F62A
:10B10000A4190B3CB4F120062FBF00FA06F1A140B0
:10B11000C4F1200620FA06F638BF3143A0403C1B9C
:10B120001AE7AC421ABF05EA1357AF4212E050EAE1
:10B1300041061CBF52EA4306BFE750EA41073046CA
:10B1400061461CBF41EA0551F0BD52EA430C08BFFD
:10B15000C143F0BD00204FF4001616EB410F98BF1D
:10B1600016EB430F08BF16EB410F24BFC14305E0A8
:10B1700016EB430F0CBF61464CEA0551F0BD0EE0E3
:10B1800002684368024408305FEAC37C44BF4B4412
:10B190005B1E52F804CB43F804CB091FF9D150F8D9
:10B1A000041B0029ECD1704770B491EA030F4FF0F3
:10B1B000004540F1B7806B40841A71EB030604D25E
:10B1C0006E40001BB141121973414FF4001C1CEB7F
:10B1D000410F34BF7CEB430683E00C0DA4EB135608
:10B1E000362E00F37C80012E45EAC32341DC43EA7E
:10B1F000525312BFD20292025B08240545EAC121D4
:10B2000041EA5051D2EBC020994125D407D1B0FA80
:10B2100080F610FA06F162D00020203608E0B1FA7C
:10B2200081F6B140C6F1200220FA02F21143B0408B
:10B230004FEAF474B4EB465434F001064FEA740458
:10B240000AD8D6F50016760D04F00044F04061FAF5
:10B2500006F25040F1404840C00A40EA415021F017
:10B26000004128BF5FEA500550F1000044EBD121B6
:10B2700035E0DB0A45EAC121C90AB6F120050EDD39
:10B2800042EA0242120CC5F1200603FA06F6EB4030
:10B2900042EA06056D42984161F100010DE062FA53
:10B2A00006F5F240554063FA06FC82EA0C02F340D0
:10B2B0005A406D42904161EB030111F4801F05D1AA
:10B2C000641E620502D06D004041494121F48011A5
:10B2D000430875F1004350F1000041EB045170BC8C
:10B2E00070471CEB410F15D223F0004352EA43068E
:10B2F0000BD04FEA4C0CBCEB410F04D80C0D661E72
:10B30000342EB7DDEBE7801A994150EA410608BFB9
:10B310000021E4E708BF1CEB430F28BF6FF00001DA
:10B32000DDE70000841A71EB030603D2001BB14174
:10B33000121973414FF4001C1CEB410F34BF7CEB1E
:10B34000430442E00C0DA4EB1356352E4FDC45EAC6
:10B35000C323DB0A45EAC121C912B6F120050DDD80
:10B3600063FA05F6EB4086EA0305124218BF45F082
:10B370000105C01851F100010CD213E062FA06F584
:10B38000F2405540F3415A40B340F3405A408018D0
:10B39000594107D349085FEA30005FEA350528BF05
:10B3A00045F0010501F58011420875F1004250F1A8
:10B3B000000041EB04514E0016F5001F70BC38BF71
:10B3C00070470020090D090570471CEB410F10D292
:10B3D00052EA43060BD0BCEB410F05D80C0DAB4332
:10B3E000661E342EB6DD02E0AB438018594170BCB6
:10B3F000704770BC7047010030B540F2FF7C1CEA1A
:10B4000011541DBF1CEA1355644565453FE064199E
:10B4100081EA030C6FF35F530CF0004C43F480138C
:10B42000C90241F0004141EA505EC5021100A5FB8E
:10B43000020200284FF00000EEFB01204FF0000157
:10B44000E3FB052118BF42F00102401800214941E9
:10B45000E3FB0E01A4F580640D0302D29218404173
:10B46000494154F1010470DD450872F1004250F188
:10B47000000051EB0451A1F5801102D441EA0C0106
:10B4800030BD40F2FF7E4CEA0E51002030BD0CEA88
:10B490001355644518BF654581EA030C0CF0004C58
:10B4A00041D050EA410E1CBF52EA430E02E0614611
:10B4B000002030BD24422C441BD15FEA050EF6D09B
:10B4C000090302BF01460020AEF1140EB1FA81F566
:10B4D000AEEB050401FA05FE0C35C5F1200100FABA
:10B4E00005F5C8404EEA000E6FF35F5343F4801336
:10B4F0009CE733F00043B3FA83F504BFB2FA82FE4F
:10B5000075440B3D641BB5F1200E2FBF02FA0EF3FC
:10B51000AB40C5F1200E22FA0EFE38BF43EA0E03FF
:10B52000AA40641C7CE750EA410E14BF52EA430E65
:10B530006FF000014FF4001515EB430F8EBF194655
:10B5400015EB410F9DE7B4D830BDD4F10104B4F13F
:10B5500020050FDAC4F12005520828BF42F001028D
:10B5600010FA05FE01FA05F57244E2BFE0402843F7
:10B57000E1400FE0352C9ADCC5F1200452EA40028C
:10B5800020FA05F218BF42F0010231FA05F0A1409D
:10B590000A43002172F1004250F1000051EB0C010E
:10B5A00030BDFEE7400D40F21E4C40EAC120BCEB2E
:10B5B000115C40F0004003D48CF30701C840704791
:10B5C0006FEAE1707047FEE718B585B0012A01D037
:10B5D00001201FE0214C01222274009301910021DF
:10B5E000ADF8081011468DF80A108DF80B100021E7
:10B5F000ADF80C108DF80E0008468DF80F008DF890
:10B6000010006946204600F0F2FA1548A06015487F
:10B61000E060002006B010BD0EB400B501A900F036
:10B6200002F85DF810FB0A460C49097C002902D19A
:10B630004FF0FF30704701460FF205004EE000006A
:10B6400001B50648017C002902D14FF0FF3002BD50
:10B650000122694683689847012002BD040000204A
:10B66000BBBC002861BC00282DE9F04104460D4612
:10B6700016461F46DDF8188005E02046C0473868AA
:10B68000401C38606D1CB542F7DBBDE8F08170B43A
:10B69000039C0022154600F8015B096800290FD1C0
:10B6A00030210170012017E0612502E02500FBD068
:10B6B000412569180A390D46314600F8015B521CD4
:10B6C000002908D0B1FBF3F603FB16110A29EDD2CD
:10B6D00030310D46F0E7104670BC70472DE9F84F49
:10B6E0008EB080460F46154600242646204601901F
:10B6F0008DF80800039004E0C0470198401C0190B9
:10B700007F1C3878002807D02528F5D14FF0010993
:10B710004FF0000A514609E001980FB0BDE8F08FE4
:10B720000AEB8A0200EB420030388246080017F824
:10B73000010F06D1A0F130020A2AF1D37F1E49463B
:10B74000F4E72E280AD10020010008D117F8011FC4
:10B7500030390A29F8D37F1E4846F5E77F1E97F84F
:10B7600001B0BBF1640F1BD0BBF1690F18D0BBF166
:10B77000660F15D0BBF1460F12D0BBF1780F0FD07A
:10B78000BBF1580F0CD0BBF16F0F09D0BBF1620FAA
:10B7900006D0BBF1700F03D0BBF1750F40F0858070
:10B7A000BBF1640F02D0BBF1690F0ED155F8040B49
:10B7B0000490484600900A23024604A905A8FFF712
:10B7C00066FF064605A830440446BBF1580F02D078
:10B7D000BBF1780F13D1BBF1780F01D10020814666
:10B7E00055F8040B0390484600901023002203A94B
:10B7F00005A8FFF74CFF064605A830440446BBF1F8
:10B800006F0F08D0BBF1620F05D0BBF1700F02D0F3
:10B81000BBF1750F35D1BBF1700F55F8040B06D194
:10B8200000900422694603A800F084FA00E0039027
:10B83000BBF1620F0DD0BBF16F0F06D0BBF1700FE3
:10B840000BD0BBF1750F0CD00EE008208DF808006E
:10B850000AE002208DF8080006E010208DF80800AC
:10B8600002E00A208DF80800CDF800909DF808301D
:10B87000002203A905A8FFF70AFF064605A83044E1
:10B880000446CDF8008001AB524631462020FFF738
:10B89000EBFE002C37D02078002834D014F80109B2
:10B8A000C0470198401C0190F5E7BBF1630F06D13A
:10B8B00055F8040BC0470198401C019023E0BBF1F0
:10B8C000730F1BD155F8049BB9F1000F1BD04846EC
:10B8D00000F084FA0646CDF8008001AB52463146AE
:10B8E0002020FFF7C1FE99F8000000280BD019F8BE
:10B8F000010BC0470198401C0190F4E75846C0472F
:10B900000198401C0190BF1CFBE6FEE7BBBBE1B108
:10B91000B2F5803F80F07E80022A1ED98C46B1FBB2
:10B92000F2F102FB11C31B0443EA1043B3FBF2FC28
:10B9300002FB1C3380B240EA0343B3FBF2F002FB8C
:10B94000103240EA0C4000237047022A05D9844691
:10B95000B0FBF2F002FB10C270474AB105D100F013
:10B96000010249085FEA3000704700220023704757
:10B9700000F050BA0B0002000021002070479042F6
:10B9800071EB030CF6D3B3F5803F2FD2F0B5B3FAC9
:10B9900083F7B1FA81F4A7F10F0E3D1B5340CEF1AE
:10B9A000200602FA0EF2F3415340B5F10F0746D8D4
:10B9B0000F3C2C444140C4F12006A040F1414140DD
:10B9C000B1FBF3F603FB1611A2FB0645001BA941D0
:10B9D00002D2761E8018594180EA010221FA0EF344
:10B9E00062FA0EF200215A403046F0BD30B4B1FB8D
:10B9F000F3FC03FB1C11A2FB0C45001BA94103D265
:10BA0000ACF1010C8018594130BC02460B4660462F
:10BA100000217047B2F1807F65D3F0B5B2FA82F7AA
:10BA2000B1FA81F4C7F10F063D1B22FA06F307F1C4
:10BA3000110EF24120355A40B5F10F07B8D94140F7
:10BA4000C4F12006A040F1414140B1FBF3FC03FBEF
:10BA50001C11A2FB0C45001BA94103D2BCF1010C37
:10BA6000801859410F2F12D30F3FC90341EA5041AB
:10BA7000B1FBF3F603FB1611A2FB0645D4EBC03075
:10BA8000A94102D2761E8018594146EACC3C07B340
:10BA90004140C7F12006B840F1414140B1FBF3F607
:10BAA00003FB1611A2FB0645001BA94102D2761E1C
:10BAB0008018594180EA010221FA0EF3C7F12004EF
:10BAC00062FA0EF20CFA07F05A402CFA04F13043F5
:10BAD000F0BD80EA010221FA0EF3002162FA0EF2B3
:10BAE00060465A40F0BD8C46B1FBF2F102FB11C337
:10BAF0001B0243EA1063B3FBF2FC02FB1C331B0284
:10BB00004CEA002043EA1063B3FBF2FC02FB1C3357
:10BB10001B024CEA002043EA1063B3FBF2FC02FB79
:10BB20001C331B024CEA002043EA1063B3FBF2FC17
:10BB300002FB1C324CEA002000237047002801D190
:10BB40000020704742F6AF70704730B585B00C46A4
:10BB50000025684600F0BFFA60680090207A8DF8F2
:10BB60000400607A8DF80700A07A401E8041C0432F
:10BB7000C00F8DF81100E07A401E8041C043C00F15
:10BB80008DF81000E07B002805D0102800DB102085
:10BB9000401E8DF80800207C002805D0102800DB0E
:10BBA0001020401E8DF80900207B401E8041C043BC
:10BBB000C00F8DF80A00607B401E8041C043C00F5B
:10BBC0008DF80B0001208DF80E008DF80F00226813
:10BBD00069465048A37B50F8230000F065F900281F
:10BBE00002D0FFF7ABFF0546284605B030BD38B59B
:10BBF00004460D46002C07D140F2C9224649474869
:10BC0000FFF744F9AFF30080002D07D140F2CA22BC
:10BC100041494348FFF73AF9AFF30080A87B0D286C
:10BC200007D340F2CB223C493E48FFF72FF9AFF350
:10BC300000803848A97B50F82100002807D14FF434
:10BC4000337235493848FFF721F9AFF300802946B0
:10BC50002046FFF77AFF010001D1A97B217032BD98
:10BC600070B506460D461446002E07D140F2193233
:10BC700029492A48FFF70AF9AFF30080002D07D1C0
:10BC800040F21A3224492948FFF700F9AFF3008047
:10BC9000002C07D140F21B321F492548FFF7F6F868
:10BCA000AFF30080224629461A48337850F8230023
:10BCB00000F07EFABDE8704040E770B506460D46DC
:10BCC0001446002E07D14FF44A7213491348FFF768
:10BCD000DDF8AFF30080002D07D140F229320E4984
:10BCE0001248FFF7D3F8AFF30080002C07D140F2E1
:10BCF0002A3209490E48FFF7C9F8AFF300802246FF
:10BD000029460448337850F8230000F032FA002026
:10BD100070BD0000C0DA002898D8002868DE00282E
:10BD200074DE0028F4D9002890DB002880DE00288B
:10BD30008CDE002862B38B0708D0521E11F8013B3D
:10BD400000F8013B00F024808B07F6D1830740F018
:10BD5000208000BF103A07D330B4B1E83810103A51
:10BD6000A0E83810F9D230BC530724BFB1E808105E
:10BD7000A0E8081044BF51F8043B40F8043BD20748
:10BD800024BF31F8022B20F8022B44BF0B7803703C
:10BD90007047121F17D35B0009D151F8043B20F8FC
:10BDA000023B1B0C121F20F8023BF6D20BE051F8AD
:10BDB000043B00F8013B1B0A20F8023B1B0C121F3E
:10BDC00000F8013BF3D238BF121D521E24BF11F8F8
:10BDD000013B00F8013BF8D87047FEE700F1010392
:10BDE000810704D010F8011B820781B1FAD10268E3
:10BDF000A2F10131914311F0803104BF50F8042FBA
:10BE0000F6E709BAB1FA81F100EBD100401CC01A83
:10BE10007047FEE77047FEE710B4DFF890240B464A
:10BE200003F001030446A401145904F00104A342E1
:10BE30000AD001F0010103469B01D150BFF34F8F9F
:10BE4000BFF36F8F8001105810BC70470121E3E7EA
:10BE5000816841F002018160816821F00201816006
:10BE6000704710B5002406E0DFF8341451F82410B0
:10BE7000814217D0641C0D2CF6D3002406E0DFF8B5
:10BE8000241451F8241081420CD0641C0D2CF6D3DC
:10BE900008D3B422DFF81014DFF81404FEF7F6FF1D
:10BEA000AFF30080204610BD2DE9F04106460C4658
:10BEB0001546002C09D14FF49772DFF8EC13DFF828
:10BEC000F803FEF7E3FFAFF300802068002809D1F4
:10BED00040F22F12DFF8D013DFF8E003FEF7D6FFB1
:10BEE000AFF30080207A102809DB40F23112DFF82E
:10BEF000B813DFF8CC03FEF7C9FFAFF30080607A18
:10BF0000102809DB4FF49972DFF89C13DFF8B403B3
:10BF1000FEF7BCFFAFF3008000272268B846394621
:10BF2000042333E0AEEB0C0C2AE005EB8500400067
:10BF3000D4F800C09E465FFA8EFE0EFB0CFCB0FBF0
:10BF4000FCF0401D4FF00A0CB0FBFCF084461FFAD9
:10BF50008CFCBCF1000F00D101209C465FFA8CFCE8
:10BF600086461FFA8EFE0EFB0CFCB5FBFCFCD4F8DB
:10BF700000E0E645D6D2E646D4F800C0AEEB0C0CA5
:10BF8000624502D36246984601465B1C1846C0B221
:10BF90002128CAD30D4620686421B0FBF1F000EBE4
:10BFA0004000904202D240F2215791E03046FFF724
:10BFB00058FFDFF81413085CFFF748FF3046FFF71F
:10BFC00047FF31694046C0B2001F042801D241F446
:10BFD0000031DFF8F80201405FFA88F8A8F10108A3
:10BFE0004FEA086808F0F85848EA0108ADB2C5F30E
:10BFF0000C0545EA0808C6F81080306920F00050AA
:10C000003061B169DFF8C802014020790143E07B6B
:10C01000000200F4E0600143A07B800000F0040017
:10C02000014360790128207907D1002802D021F44A
:10C03000006106E041F4006103E0002801D041F016
:10C040001001B161306920F40050E179490301F435
:10C05000005108433061607A217A41EA0041F1627F
:10C06000B06A40F08800B062B06A40F44040B0620C
:10C07000DFF86C02716A627B120102F01002114358
:10C08000227B520102F0200211437162A17A012940
:10C0900003D1716A41F008017162E17A012903D18B
:10C0A000716A41F001017162A179012901D1DFF8C2
:10C0B0008802716908437061B069217C012901D14E
:10C0C00040F40020617C012901D140F48020B0615E
:10C0D0003846BDE8F08110B5040009D140F246228F
:10C0E000DFF8C411DFF8D001FEF7D0FEAFF3008017
:10C0F00000221421204600F039F94FF4E13020608D
:10C10000002020716071A071E07120726072A072D5
:10C11000E07260732073A073E0732074607410BDCC
:10C1200001464869896A090C01F0C3010843DFF838
:10C130000C120840704710B50C46DFF804120C4092
:10C1400014F0030F07D0816A21F47031220402F445
:10C15000403211438162416901F0785121434161CC
:10C16000FFF7DEFF044202D040F21A5010BD00205B
:10C1700010BD70B506460D461446002D11D140F293
:10C18000DA32DFF82411DFF82C01FEF77FFEAFF37F
:10C19000008006E070690002FCD515F8010BF06123
:10C1A000641E002CF6D170694002FCD5002070BDE1
:10C1B0002DE9F84381460F00904609D140F21B4219
:10C1C000DFF8E410DFF8EC00FEF760FEAFF300806C
:10C1D0000024D9F81800010503D400F01200022849
:10C1E00001D1012505E0254603E000F07F0007F8B6
:10C1F000010B4046A0F1010800284DD0D9F82C00D1
:10C20000C0F3046000283ED14846FFF789FF064688
:10C21000300321D4F00308D54FF480314846FFF7AE
:10C220008AFF002825D14FF4A464B00308D54FF449
:10C2300000314846FFF77FFF00281DD140F21F5410
:10C2400070031ED54FF480214846FFF774FF002885
:10C2500015D140F21E5414E04FF400214846FFF778
:10C260006AFF002802D140F21D540CE040F21A543B
:10C2700009E040F21A54D8E740F21A54E0E740F2DD
:10C280001A54002CBAD0002C06D1002DD9F81C006D
:10C29000ABD107F8010BACE72046BDE8F283000004
:10C2A0005CDB002828DB00288CD700280080455460
:10C2B00040DA0028A4DE0028B0DE002874DD002863
:10C2C000E8DB002810DC002840DE002800E0FFE06A
:10C2D000E8F8FFFF1B4841681C481B4A526810479A
:10C2E00000C01FC0174881681948174A9268104754
:10C2F0001448C1681748144AD268104711480169A8
:10C300001548114A126910470E48416913480E4AF0
:10C31000526910470B48816911480B4A92691047CE
:10C320000848C1690F48084AD26910470548016AA0
:10C330000D48054A126A104700C01FE0C3C0FFC184
:10C3400003C01FC0180000204C000020000038541B
:10C350000000395400005752000058520000595252
:10C3600000005A52000057540000DA5262F30F22C4
:10C3700062F31F4200B500BF130096469446103981
:10C3800028BFA0E80C50FAD85FEA417C28BF0CC057
:10C3900048BF40F8042BC90728BF20F8022B48BF2C
:10C3A00000F8012B00BDFEE7DFF800F0D300FE0F20
:10C3B000DFF85017C0010858C0F301207047DFF8BC
:10C3C0004417C001085800F0FF00401C704738B502
:10C3D00005460C0009D140F24C62DFF82C17DFF85B
:10C3E0002C07FEF753FDAFF300802078002801D022
:10C3F000000600E00020DFF80C176278120202F459
:10C400004072A3785B1E03F0FF031A4310432A46D1
:10C41000D2018850BFF34F8FBFF36F8FED014859A2
:10C4200031BD38B50446FFF7C3FFDFF8E4162246F6
:10C4300001EB8201085CFEF715FC05462046FFF77C
:10C44000BEFFB5FBF0F4002C09D140F29962DFF891
:10C45000B816DFF8C006FEF719FDAFF300802046DE
:10C4600032BD0028DFF8B006016803D041F00201B8
:10C470000160704721F00201016070470028DFF879
:10C480009C06016803D041F002010160704721F071
:10C4900002010160704710B40B46092B07DBC16B2A
:10C4A000890802F0030252EA8102C26321E0072BED
:10C4B00007DB816B890802F0030252EA8102826382
:10C4C00017E0042B046C0ADB03238B4024EA0303EC
:10C4D00002F0030202FA01F11943016409E00723A3
:10C4E0008B4024EA030302F0070202FA01F1194328
:10C4F000016410BC7047000000BF1CB5002203217E
:10C500006846FFF733FF0220FEF7FCFAFEF796FCC1
:10C510000120FFF7B3FF0120FFF7A3FFDFF80006BC
:10C52000016841F01401016001684900FCD500F088
:10C53000FFFB00208DF8010001208DF80200694604
:10C54000FFF745FFDFF8DC05FDF769FFDFF8D805E9
:10C55000FEF792FADFF8D405FDF7BFFF1B2200219A
:10C560000220FEF737F8102201210220FEF732F8F0
:10C57000182202210846FEF72DF82022032102206E
:10C58000FEF728F8FEF70CF9162200210320FEF72B
:10C5900021F8212201210320FEF71CF81A22022192
:10C5A0000320FEF717F8122203210846FEF712F8BF
:10C5B00001210420FEF730F9FEF70AFA02208DF877
:10C5C00001008DF8020069460120FFF700FF0220FC
:10C5D0008DF8010005208DF8020069460220FFF762
:10C5E000F6FE02208DF8010004208DF80200694655
:10C5F0000320FFF7ECFE02208DF8010004208DF8E7
:10C6000002006946FFF7E3FE02208DF801008DF875
:10C61000020069460520FFF7DAFE02208DF80100CE
:10C6200003208DF8020069460620FFF7D0FE0220A5
:10C630008DF80100F0208DF8020069460720FFF711
:10C64000C6FE02208DF801008DF80200694609201F
:10C65000FFF7BDFE02208DF8010005208DF80200D5
:10C6600069460A20FFF7B3FE02208DF8010003207F
:10C670008DF8020069460B20FFF7A9FE02208DF815
:10C68000010003208DF8020069460C20FFF79FFE91
:10C6900002208DF8010003208DF8020069460D206C
:10C6A000FFF795FE02208DF8010003208DF80200AF
:10C6B00069460E20FFF78BFE02208DF80100032053
:10C6C0008DF8020069460F20FFF781FE02208DF8E9
:10C6D000010003208DF8020069461020FFF777FE65
:10C6E00002208DF8010003208DF802006946112018
:10C6F000FFF76DFE02208DF8010003208DF8020087
:10C7000069461220FFF763FE02208DF80100012028
:10C710008DF8020069461320FFF759FE02208DF8BC
:10C72000010001208DF8020069461420FFF74FFE3A
:10C7300003220221DFF8F803FFF736FE032202216D
:10C74000DFF8F003FFF730FE02208DF8010004202F
:10C750008DF8020069461720FFF739FE02208DF898
:10C76000010006208DF8020069461820FFF72FFE11
:10C7700002208DF8010006208DF80200694619207C
:10C78000FFF725FE02208DF8010006208DF802003B
:10C7900069461A20FFF71BFE02208DF801000A20CF
:10C7A0008DF8020069461B20FFF711FE02208DF86C
:10C7B00001000A208DF8020069461C20FFF707FEE1
:10C7C00002208DF801000A208DF8020069461D2024
:10C7D000FFF7FDFD02208DF801000A208DF8020010
:10C7E00069461E20FFF7F3FD02208DF801000A20A4
:10C7F0008DF8020069461F20FFF7E9FD02208DF841
:10C8000001000A208DF8020069462020FFF7DFFDB5
:10C8100002208DF8010004208DF8020069462120D5
:10C82000FFF7D5FD02208DF8010004208DF80200ED
:10C8300069462220FFF7CBFD02208DF8010004207D
:10C840008DF8020069462320FFF7C1FD02208DF814
:10C8500001008DF8020069462420FFF7B8FD022090
:10C860008DF801008DF8020069462520FFF7AFFD25
:10C8700002208DF801008DF8020069462620FFF79E
:10C88000A6FD02208DF801000A208DF802006946FD
:10C890002720FFF79CFD02208DF801000A208DF86B
:10C8A000020069462820FFF792FD02208DF8010062
:10C8B0008DF8020069462920FFF789FD02208DF8D6
:10C8C000010001208DF8020069462A20FFF77FFD54
:10C8D00002208DF8010005208DF8020069462B200A
:10C8E000FFF775FD02208DF8010003208DF802008E
:10C8F00069462C20FFF76BFD02208DF80100032014
:10C900008DF8020069462D20FFF761FD02208DF8A9
:10C9100001008DF8020069462E20FFF758FD022025
:10C920008DF8010005208DF8020069462F20FFF7E1
:10C930004EFD02208DF8010004208DF802006946AA
:10C940003020FFF744FD02208DF801008DF8020031
:10C9500069463120FFF73BFD02208DF801008DF87C
:10C96000020069463220FFF732FD02208DF80100F7
:10C970000A208DF8020069463320FFF728FD0220C7
:10C980008DF8010004208DF8020069463420FFF77D
:10C990001EFD02208DF8010004208DF8020069467A
:10C9A0003520FFF714FD02208DF8010004208DF8DA
:10C9B000020069463620FFF70AFD02208DF80100CB
:10C9C0000A208DF8020069463720FFF700FD02209B
:10C9D0008DF801000C208DF8020069464120FFF718
:10C9E000F6FC02208DF801000C208DF8020069464B
:10C9F0004220FFF7ECFC02208DF801000C208DF89E
:10CA0000020069464320FFF7E2FC02208DF8010096
:10CA10000C208DF8020069464420FFF7D8FC022064
:10CA20008DF801000C208DF8020069464520FFF7C3
:10CA3000CEFC02208DF801008DF8020069464620E8
:10CA4000FFF7C5FC02208DF8010003208DF80200DD
:10CA500069464720FFF7BBFC02208DF80100032048
:10CA60008DF8020069464820FFF7B1FC02208DF8DE
:10CA7000010004208DF8020069464920FFF7A7FC59
:10CA80002D4C002208212046FFF705FD00220A2137
:10CA90002046FFF700FD002211462046FFF7FBFC71
:10CAA000002203212046FFF7F6FC00220621204643
:10CAB000FFF7F1FC2148016821F4807101600168F1
:10CAC00021F4007101601E480168490849000160B5
:10CAD000016821F002010160016821F00401016098
:10CAE000016821F008010160016821F01001016076
:10CAF000016841F0807101600120FFF792FC11494B
:10CB0000086013BD0000455440D80028D8DE002836
:10CB100064D20028E0DE00281043485450434854B3
:10CB200020434854E8DE002850DE00285CDE002860
:10CB300000005E5200005E54000042521800425253
:10CB40002400425200000020BFF35F8F40F001003C
:10CB50007A4908607A48016841F480310160BFF386
:10CB60004F8FBFF36F8F7047BFF35F8F74480168BB
:10CB700021F4803101607148016849084900016071
:10CB8000BFF34F8FBFF36F8F704730B40B469B08D6
:10CB9000C90001F01801FF248C40022B0AD200EBDF
:10CBA00083052D6BA54302FA01F12140294300EBD7
:10CBB0008300016330BC70470A4601466148E4E7E0
:10CBC0008160C2600361704713460A4601465D48B2
:10CBD000F6E75D49C0010858C0F3012070475A4983
:10CBE000C001085800F0FF00401C704738B50446EB
:10CBF000FFF7EFFF5549224601EB8201085CFEF783
:10CC000031F805462046FFF7EAFFB5FBF0F4002CAB
:10CC100007D140F299624E494E48FEF737F9AFF31B
:10CC20000080204632BD1B20E0E780B5FFF7FBFF08
:10CC3000034601224FF4E1311046BDE80050FEF7F3
:10CC4000C3BC2DE9F0410024434D284600F0AFF865
:10CC5000424E304600F0ABF8FFF786FF214608460B
:10CC6000FFF7AAFF44210120FFF7A6FF222102209F
:10CC7000FFF7A2FF77210320FFF79EFF384A3949CB
:10CC80000820FFF7A1FF384A38490920FFF79CFF29
:10CC9000374A38490A20FFF797FF374F00E0641CF6
:10CCA0003846E0400228FAD2002C36D0DFF8CC809B
:10CCB000B8FBF7F007FB1080002807D04FF4EA72AA
:10CCC0002F493048FEF7E2F8AFF300800120A04082
:10CCD000874207D040F2D51229492B48FEF7D6F8F3
:10CCE000AFF30080052C07D24FF4EB72244927489C
:10CCF000FEF7CCF8AFF3008047447F1E7F097F0129
:10CD000047F003073A464FEA58184FEA481848F0E8
:10CD1000020841460120FFF757FF0420FFF714FFE8
:10CD2000304600F037F82846BDE8F04100F032B850
:10CD3000012200211648FFF737BB000094ED00E008
:10CD400024ED00E090ED00E0000045543CD10028C7
:10CD5000E8D70028C8DE00280000405400084054EE
:10CD6000E1FFFF7F02000040E3FF432002003C2080
:10CD7000E3FF433002003C3000000400000050207C
:10CD8000ECD500280CDD002888DC0028D0DE002847
:10CD900000005E5210B504462068C00706D4204645
:10CDA00000F012F8206840F00100206010BD10B5BE
:10CDB00004462068C00706D5204600F011F8206818
:10CDC00040084000206010BD016841F0054101604D
:10CDD00001680029FCD4016821F0A061016070475E
:10CDE000016841F00A41016001680029FCD4016832
:10CDF00021F020610160704765490A68D20712D5A9
:10CE00000A6842F00A420A600A68002AFCD40A68EA
:10CE100022F020620A600A68520852000A60BFF3DA
:10CE20006F8FBFF34F8F016821F002010160D0F8CE
:10CE3000E0108907FBD5D0F8E010C907F7D50168E5
:10CE400041F002010160704710B40121C0F8C01028
:10CE5000016821F002010160016841F001010160F7
:10CE60000168C907FCD4D0F8C010C90717D5D0F89D
:10CE7000E8200A21D0F8E83003F00304032C03D0A3
:10CE8000934203D1491E03E0642103E00A211A46BC
:10CE90000029EFD1002902D000BF491EFAE73C4823
:10CEA0000168C9070FD44FF0A0610160016841F02B
:10CEB0000041016001680029FCD401210160BFF339
:10CEC0006F8FBFF34F8F10BC70472DE9F8430446B6
:10CED0000D4616462F48844253D115274FF022099C
:10CEE000DFF8B480F80158F8000000F4407009023F
:10CEF00001F44071884209D1F80158F8000000F0AF
:10CF0000FF00711E01F0FF01884238D02046FFF774
:10CF100073FF22484FEA89114158490849004FEAF6
:10CF200089128150BFF34F8FBFF36F8F00EB8911D0
:10CF3000096AC907FAD42D0205F44075761E06F079
:10CF4000FF063543F90148F80150BFF34F8FBFF397
:10CF50006F8FFF0158F807104FEA8911415841F0CF
:10CF600001018150BFF34F8FBFF36F8F00EB891129
:10CF7000096AC907FAD52046BDE8F24364E7BDE86F
:10CF8000F18307488442FAD116274FF02309A7E717
:10CF90000000405400005E5200004554008045549B
:10CFA00000005E545048016841F4700101604F492F
:10CFB0000868800403D54E484E4A106006E04D488C
:10CFC0004CF2205202604DF6281202604FF6FF70BC
:10CFD000494A10600A6822F0800242F020020A608A
:10CFE00046490A68920403D5414A454B1A6006E057
:10CFF000434A4CF2205313604DF628131360414A04
:10D0000010600A6822F0800242F020020A603E4965
:10D010000A68920403D5364A3C4B1A6006E03B4A44
:10D020004CF2205313604DF628131360384A1060F9
:10D030000A6822F0800242F020020A6035490A683C
:10D04000920403D52A4A344B1A6006E0324A4CF265
:10D05000205313604DF628131360304A10600A689D
:10D0600022F0800242F020020A602D490A689204F0
:10D0700003D51F4A2B4B1A6006E02A4A4CF2205374
:10D0800013604DF628131360274A1060086820F0DB
:10D09000800040F02000086024480168C90703D5DB
:10D0A000016849084900016021480168C9070FD497
:10D0B0004FF0A0610160016841F00041016001682A
:10D0C0000029FCD401210160BFF36F8FBFF34F8FA4
:10D0D0001848016841F010010160BFF34F8FBFF3A2
:10D0E0006F8F00F029B8000088ED00E000002D549B
:10D0F00020C528D904002D5408002D5400002E54BA
:10D1000004002E5408002E540000495204004952D5
:10D110000800495200004A5204004A5208004A528C
:10D1200000004B5204004B5208004B5210E000E04C
:10D130000000405414ED00E07047FEE70001050DCB
:10D1400000010D050001140900010711000107107D
:10D1500000010D0900010E160001030E0001030E6F
:10D1600000010E1600010E1600010E0B00010E0B41
:10D1700000010E0B00010E0B00010E0B00010E0B47
:10D1800000010E0B00010E0B00010E0B00010E0B37
:10D1900000010F08000111090001071400010D032F
:10D1A00000010D0300010D0300010E0B00010E0B29
:10D1B00000010E0B00010E0B00010E0B00010E0B07
:10D1C00000010E0B00010E0B00010E0B00011007F9
:10D1D000000110070001100700010E0B00010E0BEB
:10D1E00000010A1600010A160001140800010E0BC6
:10D1F00000010E0B00010D0B0001151600011516A4
:10D2000000010D0B00011209000115160001151691
:10D21000000115160001151600011516000115165E
:10D22000000115160001151600011418000114184C
:10D230000001141800010D100001030E0001161862
:10D240000001181100011811000118110001181136
:10D250000001181100010D1800010E1800010E1533
:10D26000000116050001050D00010D05000114095E
:10D27000000107110001071000010D0900010E1641
:10D280000001030E0001030E00010E1600010E1630
:10D2900000010E0B00010E0B00010E0B00010E0B26
:10D2A00000010E0B00010E0B00010E0B00010E0B16
:10D2B00000010E0B00010E0B00010F080001110907
:10D2C0000001071400010D0300010D0300010D030F
:10D2D00000010E0B00010E0B00010E0B00010E0BE6
:10D2E00000010E0B00010E0B00010E0B00010E0BD6
:10D2F00000010E0B000110070001100700011007CC
:10D3000000010E0B00010E0B00010A1600010A16A7
:10D310000001140800010E0B00010E0B00010D0BA3
:10D32000000115160001151600010D0B0001120970
:10D33000000115160001151600011516000115163D
:10D34000000115160001151600011516000115162D
:10D3500000011418000114180001141800010D1028
:10D360000001030E00011618000118110001181128
:10D3700000011811000118110001181100010D1809
:10D3800000010E1800010E15000116050001050D23
:10D3900000010D050001140900010711000107102B
:10D3A00000010D0900010E160001030E0001030E1D
:10D3B00000010E1600010E1600010E0B00010E0BEF
:10D3C00000010E0B00010E0B00010E0B00010E0BF5
:10D3D00000010E0B00010E0B00010E0B00010E0BE5
:10D3E00000010F08000111090001071400010D03DD
:10D3F00000010D0300010D0300010E0B00010E0BD7
:10D4000000010E0B00010E0B00010E0B00010E0BB4
:10D4100000010E0B00010E0B00010E0B00011007A6
:10D42000000110070001100700010E0B00010E0B98
:10D4300000010A1600010A160001140800010E0B73
:10D4400000010E0B00010D0B000115160001151651
:10D4500000010D0B0001120900011516000115163F
:10D46000000115160001151600011516000115160C
:10D4700000011516000115160001141800011418FA
:10D480000001141800010D100001030E0001161810
:10D4900000011811000118110001181100011811E4
:10D4A0000001181100010D1800010E1800010E15E1
:10D4B0000001160510B4284A0B4603F00103044688
:10D4C000A401145904F00104A3420AD001F001019F
:10D4D00003469B01D150BFF34F8FBFF36F8F800185
:10D4E000105810BC70470121E4E710B4029C01F011
:10D4F0000F01240104F0100421430160002A00D030
:10D50000136010BC7047000000BFE0B52B20FFF790
:10D51000EAFF2C20FFF7E7FF002001900F48009062
:10D5200000231A4605210E48FFF7DFFF0020019077
:10D530000C48009000231A4611460B48FFF7D5FF10
:10D54000012001900948009000231A46114608481E
:10D55000FFF7CBFF07BD000000804554C003A14288
:10D560007801A14294003C4420003C4498003C4493
:10D5700024003C4472B61348134901600A6882F3E0
:10D580000888124880F30A88114880474FF000004D
:10D590001049114A9142BCBF41F8040BFAE74FF021
:10D5A00000000E490E4A9142BCBF41F8040BFAE755
:10D5B00006490C4A9142BCBF41F8040BFAE762B637
:10D5C0000948004708ED00E000A0002800FC012009
:10D5D000A5CF0028000000200400002080000020CB
:10D5E0008004002000000220ADDD0028443A5C7277
:10D5F00065735F636869705F692E6D7872745F63CD
:10D600006D375C53444B5F325F31335F305F4D4960
:10D610004D585254313138302D45564B5C626F6154
:10D620007264735C65766B6D696D787274313138D4
:10D63000305C6472697665725F6578616D706C6587
:10D64000735C726770696F5C6C65645F6F75747032
:10D6500075745C636D33335C626F6172642E63005A
:10D66000002A04D1012202FA01F1816470470122EB
:10D6700002FA01F141647047F2E770B505460E46C3
:10D68000140006D162220E490E48FDF7FFFBAFF3EE
:10D6900000802078002807D1686D012101FA06F684
:10D6A00020EA06066E6570BD627831462846FFF7AF
:10D6B000E3FF686D012101FA06F606436E6570BD51
:10D6C00048D90028BCDE0028C16470471CB5114849
:10D6D0000088ADF80000FFF7B4FAFFF715FFFEF77A
:10D6E0000BFFFFF7A2FA0C48FDF796FF0B48FDF77A
:10D6F00093FF0B4C6A461B212046FFF7BEFF0948EB
:10D7000001680948FDF7E3FB4FF000612046FFF791
:10D71000DBFFF4E7F6B3002890DD002838DC0028B2
:10D720000000835300000020A0860100443A5C7290
:10D7300065735F636869705F692E6D7872745F638B
:10D740006D375C53444B5F325F31335F305F4D491F
:10D750004D585254313138302D45564B5C64657606
:10D76000696365735C4D494D585254313138395CA9
:10D77000647269766572735C66736C5F636F6D6DFE
:10D780006F6E5F61726D2E6300000000443A5C7240
:10D7900065735F636869705F692E6D7872745F632B
:10D7A0006D375C53444B5F325F31335F305F4D49BF
:10D7B0004D585254313138302D45564B5C646576A6
:10D7C000696365735C4D494D585254313138395C49
:10D7D000647269766572735C66736C5F6C70756198
:10D7E00072742E6300000000443A5C7265735F63DC
:10D7F0006869705F692E6D7872745F636D375C5312
:10D80000444B5F325F31335F305F4D494D58525466
:10D81000313138302D45564B5C64657669636573EC
:10D820005C4D494D585254313138395C64726976D7
:10D830006572735C66736C5F636C6F636B2E6800FC
:10D84000443A5C7265735F636869705F692E6D78D6
:10D8500072745F636D375C53444B5F325F31335F8B
:10D86000305F4D494D585254313138302D45564B6B
:10D870005C646576696365735C4D494D58525431FB
:10D880003138395C647269766572735C66736C5F9B
:10D89000636C6F636B2E6800443A5C7265735F6300
:10D8A0006869705F692E6D7872745F636D375C5361
:10D8B000444B5F325F31335F305F4D494D585254B6
:10D8C000313138302D45564B5C636F6D706F6E652E
:10D8D0006E74735C756172745C66736C5F616461B5
:10D8E000707465725F6C70756172742E63000000F5
:10D8F000443A5C7265735F636869705F692E6D7826
:10D9000072745F636D375C53444B5F325F31335FDA
:10D91000305F4D494D585254313138302D45564BBA
:10D920005C646576696365735C4D494D585254314A
:10D930003138395C647269766572735C66736C5FEA
:10D94000636C6F636B2E6300443A5C7265735F6354
:10D950006869705F692E6D7872745F636D375C53B0
:10D96000444B5F325F31335F305F4D494D58525405
:10D97000313138302D45564B5C646576696365738B
:10D980005C4D494D585254313138395C6472697676
:10D990006572735C66736C5F726770696F2E63008B
:10D9A00028636F6E6669672D3E6C6F6F7044697691
:10D9B00069646572203C3D202875696E7433325F5E
:10D9C0007429323038292026262028636F6E666934
:10D9D000672D3E6C6F6F7044697669646572203E96
:10D9E0003D202875696E7433325F742931303429D3
:10D9F00000000000636F6E6669672D3E696E737488
:10DA0000616E6365203C202873697A656F662873B0
:10DA10005F4C7075617274416461707465724261CB
:10DA2000736529202F2073697A656F66284C5055DD
:10DA30004152545F54797065202A29290000000062
:10DA4000696E7374616E6365203C202873697A6522
:10DA50006F6628735F6C7075617274426173657371
:10DA60005F6E7329202F2073697A656F662828738B
:10DA70005F6C707561727442617365735F6E732958
:10DA80005B305D292900000030B4002512E050F819
:10DA9000042BD30744BF4A44521E091F042942F8ED
:10DAA000045BFAD213468C0744BF15809B1CC90740
:10DAB00048BF1D7050F8041B0029E8D130BC7047E6
:10DAC0000000000000003854000039540000575294
:10DAD000000058520000595200005A52000057549A
:10DAE0000000DA520000D7520000D8520000D9528C
:10DAF0000000585428706C6C203D3D206B434C4F07
:10DB0000434B5F506C6C5379733229207C7C202806
:10DB1000706C6C203D3D206B434C4F434B5F506C11
:10DB20006C53797333290000000000000000384472
:10DB3000000039440000574200005842000059429A
:10DB400000005A42000057440000DA420000D74269
:10DB50000000D8420000D9420000584400000000F4
:10DB60000000385400003954000057520000585249
:10DB70000000595200005A52000057540000DA5277
:10DB80000000D7520000D8520000D952000058546B
:10DB90003020213D20735F4C707561727441646167
:10DBA00070746572426173655B636F6E6669672D41
:10DBB0003E696E7374616E63655D00004153534549
:10DBC0005254204552524F52202220257320223A8F
:10DBD0002066696C652022257322204C696E6520C1
:10DBE00022256422200A00002875696E74385F744B
:10DBF0002928313629203E20636F6E6669672D3EE5
:10DC000074784669666F57617465726D61726B00F6
:10DC10002875696E74385F742928313629203E20B2
:10DC2000636F6E6669672D3E72784669666F5761ED
:10DC30007465726D61726B000D0A20546865204C2A
:10DC400045442069732074616B696E672074757236
:10DC50006E7320746F207368696E652E0D0A000064
:10DC600010B5074979441831064C7C44163404E059
:10DC70000A68081D114488470146A142F8D110BD29
:10DC800050000000840000006E6F6E4361636865A1
:10DC900053697A65203D3D202875696E7433325F83
:10DCA00074292831203C3C20692900004EF6885117
:10DCB000CEF20001086840F470000860BFF34F8F97
:10DCC000BFF36F8F4FF00170E1EE100A7047000054
:10DCD000B9FDFFFF7C0000000400002000000000F0
:10DCE0009FD4FFFF040000006C050000000000202E
:10DCF000000000008BD4FFFFAC010000FCF0FFFF30
:10DD00000000FE0F00000000FEE7000021286E6FFB
:10DD10006E436163686553746172742025206E6F71
:10DD20006E436163686553697A65290000F00DF8F8
:10DD3000002801D0FFF794FFAFF300800020AFF37D
:10DD40000080FFF7C3FC00F002F80120704700F0EC
:10DD500001B8FEE70746384600F002F8FBE700008E
:10DD600080B5AFF30080024A11001820ABBEFBE77C
:10DD7000260002003055203C20636F6E6669672DD7
:10DD80003E62617564526174655F427073000000A9
:10DD90000D0A20524750494F20447269766572201F
:10DDA0006578616D706C650D0A00000005480146DC
:10DDB00003B4684680F30988AFF30080FFF776FF6D
:10DDC000FFF7B4FFA5EDF5FE66726163203C3D20D0
:10DDD0002875696E74385F7429333555000000006A
:10DDE00066726163203E3D202875696E74385F74E9
:10DDF000293132550000000066726163203E3D20EB
:10DE00002875696E7433325F742931325500000011
:10DE100066726163203C3D202875696E7433325F01
:10DE20007429333555000000636F756E74203C3DD6
:10DE30002030786666666666666666550000000095
:10DE4000954F505152535455565758595A00000047
:10DE5000010100000000000000000000FFFFFF0FB4
:10DE600000000000000000003020213D2068616EAD
:10DE7000646C65003020213D20636F6E6669670029
:10DE80003020213D20646174610000006C656E6784
:10DE90007468203E203055006672657120213D2057
:10DEA00030554C003020213D206461746100000039
:10DEB0003020213D20636F6E666967003020213D70
:10DEC00020636F6E6669670066726571000000000E
:10DED00069203E3D20350000636F6E666967000073
:10DEE0006672657100000000000000008400000000
:10DEF00066726571000000000048004751E200288A
:10DF00000048004751E200280048004751E200283D
:10DF10000048004751E200280048004751E200282D
:10DF20000048004751E200280048004751E200281D
:10DF300000480047D5C2002800480047E5C2002835
:10DF40000048004751E200280048004751E20028FD
:10DF50000048004751E200280048004751E20028ED
:10DF60000048004751E200280048004751E20028DD
:10DF70000048004751E200280048004751E20028CD
:10DF80000048004751E200280048004751E20028BD
:10DF90000048004751E200280048004751E20028AD
:10DFA0000048004751E200280048004751E200289D
:10DFB0000048004751E200280048004751E200288D
:10DFC00000480047F1C2002800480047FDC2002871
:10DFD0000048004709C300280048004715C300282F
:10DFE0000048004751E200280048004751E200285D
:10DFF0000048004751E200280048004751E200284D
:10E000000048004751E200280048004751E200283C
:10E010000048004751E200280048004751E200282C
:10E020000048004751E200280048004751E200281C
:10E030000048004751E200280048004751E200280C
:10E040000048004751E200280048004751E20028FC
:10E050000048004751E200280048004751E20028EC
:10E060000048004751E200280048004751E20028DC
:10E070000048004751E200280048004751E20028CC
:10E080000048004751E200280048004751E20028BC
:10E090000048004751E200280048004751E20028AC
:10E0A0000048004751E200280048004751E200289C
:10E0B0000048004751E200280048004751E200288C
:10E0C0000048004751E200280048004751E200287C
:10E0D0000048004751E200280048004751E200286C
:10E0E0000048004751E200280048004751E200285C
:10E0F0000048004751E200280048004751E200284C
:10E100000048004751E200280048004751E200283B
:10E110000048004751E200280048004751E200282B
:10E120000048004751E200280048004751E200281B
:10E130000048004751E200280048004751E200280B
:10E140000048004751E200280048004751E20028FB
:10E150000048004751E200280048004751E20028EB
:10E160000048004751E200280048004751E20028DB
:10E170000048004751E200280048004751E20028CB
:10E180000048004751E200280048004751E20028BB
:10E190000048004751E200280048004751E20028AB
:10E1A0000048004751E200280048004751E200289B
:10E1B0000048004751E200280048004751E200288B
:10E1C0000048004751E200280048004751E200287B
:10E1D0000048004751E200280048004751E200286B
:10E1E0000048004751E200280048004751E200285B
:10E1F0000048004751E200280048004751E200284B
:10E200000048004751E200280048004751E200283A
:10E210000048004751E200280048004751E200282A
:10E220000048004751E200280048004721C3002869
:10E23000004800472DC300280048004751E200284D
:10E240000048004751E200280048004751E20028FA
:08E25000FFF7FEBF001C4E0E9B
:040000052800D57585
:00000001FF
