S01200006C65645F626C696E6B792E73726563F5
S3156000A000000002209DC6006007B6006067C1006060
S3156000A0109BC3006035C700605BC70060000000003E
S3156000A02000000000000000000000000067C700603C
S3156000A03029C90060000000002BC90060FBC40060F5
S3156000A04081C7006089C7006091C7006099C70060DA
S3156000A050A1C70060A9C70060B1C70060B9C700604A
S3156000A060C1C70060C9C70060D1C70060D9C70060BA
S3156000A070E1C70060E9C70060F1C70060F9C700602A
S3156000A08001C8006021C9006021C9006021C9006063
S3156000A09009C8006011C8006019C8006021C8006066
S3156000A0A029C8006031C8006039C8006041C80060D6
S3156000A0B049C8006051C8006059C8006061C8006046
S3156000A0C069C8006071C8006079C8006081C80060B6
S3156000A0D089C8006091C8006021C9006021C900601C
S3156000A0E021C9006021C9006021C9006021C90060E2
S3156000A0F021C9006021C9006021C9006021C90060D2
S3156000A10021C9006021C9006021C9006021C90060C1
S3156000A11021C9006021C9006021C9006021C90060B1
S3156000A12099C80060A1C80060A9C80060B1C8006095
S3156000A130B9C8006021C9006021C9006021C90060FA
S3156000A14021C9006021C9006021C9006021C9006081
S3156000A15021C9006021C9006021C9006021C9006071
S3156000A16021C9006021C9006021C9006021C9006061
S3156000A17021C9006021C9006021C9006021C9006051
S3156000A18021C9006021C9006021C9006021C9006041
S3156000A19021C9006021C9006021C9006021C9006031
S3156000A1A021C9006021C90060C1C80060C9C80060DB
S3156000A1B021C9006021C9006021C9006021C9006011
S3156000A1C021C9006021C9006021C9006021C9006001
S3156000A1D021C9006021C9006021C9006021C90060F1
S3156000A1E021C9006021C9006021C90060D1C8006032
S3156000A1F0D9C8006021C90060E1C80060E9C8006094
S3156000A20021C9006021C90060F1C80060F9C800601A
S3156000A21021C9006021C9006021C9006021C90060B0
S3156000A22021C9006021C9006021C9006021C90060A0
S3156000A23021C9006021C9006021C9006021C9006090
S3156000A24021C9006021C9006021C9006021C9006080
S3156000A25021C9006021C9006021C9006021C9006070
S3156000A26021C9006021C9006021C9006021C9006060
S3156000A27021C9006021C9006021C9006021C9006050
S3156000A28021C9006021C9006021C9006021C9006040
S3156000A29021C9006021C9006021C9006021C9006030
S3156000A2A001C9006009C9006011C9006021C9006068
S3156000A2B019C9006021C9006021C9006021C9006018
S3156000A2C021C9006021C9006021C9006021C9006000
S3156000A2D021C9006021C9006021C9006021C90060F0
S3156000A2E021C9006021C9006021C9006021C90060E0
S3156000A2F021C9006021C9006021C9006021C90060D0
S3156000A30021C9006021C9006021C9006021C90060BF
S3156000A31021C9006021C9006021C9006021C90060AF
S3156000A32021C9006021C9006021C9006021C900609F
S3156000A33021C9006021C9006021C9006021C900608F
S3156000A34021C9006021C9006021C9006021C900607F
S3156000A35021C9006021C9006021C9006021C900606F
S3156000A36021C9006021C9006021C9006021C900605F
S3156000A37021C9006021C9006021C9006021C900604F
S3156000A38021C9006021C9006021C9006021C900603F
S3156000A39021C9006021C9006021C9006021C900602F
S3156000A3A021C9006021C9006021C9006021C900601F
S3156000A3B021C9006021C9006021C9006021C900600F
S3156000A3C021C9006021C9006021C9006021C90060FF
S3156000A3D021C9006021C9006021C9006021C90060EF
S3156000A3E021C9006021C9006021C9006021C90060DF
S3156000A3F021C9006021C9006021C90060FFFFFFFF1D
S3156000A40070B50446A40E0246120A02F01F0200F05E
S3156000A410FF0303F1804303F57C231D68C0F34C36CC
S3156000A4209640B54301EA5031C1F30C01914029438E
S3156000A4301960202C09D940F28B320FF2AC610FF211
S3156000A440906000F093FBAFF30080202C05D0DFF81E
S3156000A45074050068E040C007F9D470BD70B5044665
S3156000A460A40E0246120A02F01F0200F0FF0303F177
S3156000A470804303F57C231D68C0F34C369640B54394
S3156000A48001EA5031C1F30C01914029431960202C37
S3156000A49009D94FF46C720FF250610FF2346000F01C
S3156000A4A065FBAFF30080202C05D0DFF81805006847
S3156000A4B0E040C007F9D470BD70B504460D46264627
S3156000A4C0360A04F01F04082E09D340F2D2320FF286
S3156000A4D018610FF2746000F049FBAFF30080DFF89B
S3156000A4E0E80400EB860001680322A240914305FA66
S3156000A4F004F40C43046070BD0021DDE7DFF8CC1482
S3156000A50008607047DFF8C814086070474FF48033FE
S3156000A510002AC1F30B4103D00818001D0360704781
S3156000A52008180830036070472DE9F8434FF400407F
S3156000A530FFF7E8FFDFF89C04016841F480310160B1
S3156000A540016821F400310160DFF88C04FFF7D6FF63
S3156000A550002000F055FB00F07BFB012000F06EFB55
S3156000A560DFF878442068000A000240F07F0020602F
S3156000A570DFF86C5401212846FFF742FFDFF8646478
S3156000A58001213046FFF73CFFDFF85C04C1684909EA
S3156000A590490141F01201C16001680029FCD50FF242
S3156000A5A0B45000F05CFB0FF2B45000F078FB1B2156
S3156000A5B0002000F090FC1021012000F08CFC182196
S3156000A5C0022000F088FC1021032000F084FC00F0DB
S3156000A5D08BFBDFF818740122DFF814143846FFF796
S3156000A5E095FFDFF81084D8F8100020F40040C8F812
S3156000A5F01000D8F8100020F40000C8F81000386F7A
S3156000A60040F40050386700F075FBDFF8EC93D9F83A
S3156000A610000040F48030C9F80000D8F8100020F03F
S3156000A6204040C8F81000D9F8000040F40050C9F85E
S3156000A630000000F065FB0122DFF8C0133846FFF723
S3156000A64065FFD9F840008008800040F00100C9F835
S3156000A6504000D9F8400040F40050C9F84000D9F8ED
S3156000A660400040F40010C9F8400000F038FB0122B9
S3156000A670DFF88C133846FFF749FF386A40F400501C
S3156000A68038620021DF48FFF7E9FE4FF48870FFF774
S3156000A69033FF4FF48470FFF72FFF40F21620FFF769
S3156000A6A02BFF4FF40670FFF727FF0321D648FFF70D
S3156000A6B0D5FE0121D548FFF7D1FE0321D448FFF727
S3156000A6C09FFE00213046FFF79BFE0021D148FFF731
S3156000A6D0C5FE00212846FFF793FE4FF48A70FFF708
S3156000A6E00BFF4FF48B70FFF707FF1820FFF704FF8F
S3156000A6F01A20FFF701FF4FF48670FFF7FDFE012178
S3156000A700C548FFF7ABFE0021C448FFF779FE40F26B
S3156000A7100260FFF7F1FE0121C148FFF79FFE0021AD
S3156000A720C048FFF76DFE40F20460FFF7E5FE0121C9
S3156000A730BD48FFF793FE0021BC48FFF761FE4FF46A
S3156000A7404170FFF7D9FE07214FF21400FFF786FE2E
S3156000A7500021B748FFF754FE0021B648FFF750FEC8
S3156000A76040F20270FFF7C8FE0021B348FFF776FE9D
S3156000A7700121B248FFF744FE40F20220FFF7BCFE1B
S3156000A7800121AF48FFF76AFE0021AE48FFF738FEA9
S3156000A7904FF48070FFF7B0FE4FF48170FFF7ACFEA8
S3156000A7A04FF48270FFF7A8FE4FF48370FFF7A4FEA4
S3156000A7B00421A548FFF752FE0221A448FFF720FEB8
S3156000A7C01620FFF799FE0221A148FFF747FE0221F6
S3156000A7D0A048FFF715FE40F21250FFF78DFE0321E9
S3156000A7E09D48FFF73BFE01219C48FFF737FE00219D
S3156000A7F09B48FFF705FE40F21450FFF77DFE0321EC
S3156000A8009848FFF72BFE01219748FFF727FE0021A6
S3156000A8109648FFF7F5FD40F21650FFF76DFE0321EF
S3156000A8209348FFF71BFE01219248FFF717FE0021B0
S3156000A8309148FFF7E5FD40F20620FFF75DFE4FF415
S3156000A8400270FFF759FE40F20A20FFF755FE00211D
S3156000A8508A48FFF703FE00218948FFF7D1FD0E20E5
S3156000A860FFF74AFE1220FFF747FE40F20670FFF739
S3156000A87043FE1020FFF740FE1420FFF73DFE4FF425
S3156000A880E160FFF739FE01217E48FFF7E7FD02210F
S3156000A8907D48FFF7B5FD4FF4A360FFF72DFE1C2042
S3156000A8A0FFF72AFE0C20FFF727FE4FF48C70FFF7A8
S3156000A8B023FE40F20230FFF71FFE40F20630FFF73C
S3156000A8C01BFE40F21A50FFF717FE40F20E60FFF7CC
S3156000A8D013FE00216D48FFF7C1FD00216C48FFF7AC
S3156000A8E08FFD40F20A30FFF707FE01216948FFF746
S3156000A8F0B5FD03216848FFF7B1FD05216748FFF7FD
S3156000A9007FFD40F20E50FFF7F7FD01216448FFF727
S3156000A910A5FD07216348FFF7A1FD03216248FFF704
S3156000A9206FFD40F20250FFF7E7FD01215F48FFF738
S3156000A93095FD07215E48FFF791FD03215D48FFF70E
S3156000A9405FFD4FF44070FFF7D7FD01215A48FFF7CE
S3156000A95085FD07215948FFF781FD03215848FFF718
S3156000A9604FFD00215748FFF74BFDD8F8000040091E
S3156000A9704001C8F80000206E20F070002066206E4E
S3156000A9800009000140F001002066206E20F460009E
S3156000A9902066206E20F4F81040F490102066206E39
S3156000A9A020F480702066206E20F080002066206E85
S3156000A9B020F080702066444844490860BDE8F18311
S3156000A9C00000000048C00F4068C00F40040000202F
S3156000A9D008000020C0820D4000366E0100C00F40A6
S3156000A9E0186C0080143900140000084000800D4087
S3156000A9F00D00700060810D40A0800D400D00E000EC
S3156000AA000D00200014EA00041468008010E0004085
S3156000AA101872008014FB00801CE007801C260080F2
S3156000AA2024EB00801C30008024F000801C31008004
S3156000AA30142700801426008018FD008018680080A6
S3156000AA403CEB00803C69008018FA00801864008046
S3156000AA5024790080186E008028E6008028E0078050
S3156000AA601C6A00802CE600802CE007801C6C00804D
S3156000AA7028F6008028F007801C6E008038F3078077
S3156000AA803832008020E207802068008024E007805A
S3156000AA902426008038EC008018F7008038EF0080AC
S3156000AAA030F9008030F600803074008030EC008031
S3156000AAB030E900803067008028E9008028F900804E
S3156000AAC0207300800C2000800046C3230000002015
S3156000AAD0627573795368696674203C3D20283078C6
S3156000AAE03230552900000000443A5C7265735F6934
S3156000AAF02E6D7872745C53444B5F322E342E305F09
S3156000AB0045564B2D4D494D585254313036305F497C
S3156000AB1041525F46554C4C5F313036305F45564248
S3156000AB205C646576696365735C4D494D5852543112
S3156000AB303036325C647269766572735C66736C5FBC
S3156000AB40636C6F636B2E6800696E646578203C3D4C
S3156000AB5020370000640000000000000001000000D3
S3156000AB6000000000010000000000000080B51346F0
S3156000AB700A46014602A000F03DFA00BEFDE700006D
S3156000AB80415353455254204552524F52202220255C
S3156000AB907320223A2066696C652022257322204C38
S3156000ABA0696E652022256422200A0000DFF84C03C6
S3156000ABB00068C00602D5DFF848037047DFF8440333
S3156000ABC000687047090110EB11500068000C00F036
S3156000ABD0010070470A46120110EB1250006801F03E
S3156000ABE01F01C84000F001007047090110EB1150C9
S3156000ABF00068C0F38130002800D1D7E70020704795
S3156000AC0080B5002808D099220FF248310FF234300F
S3156000AC10FFF7ACFFAFF30080DFF8EC024FF0804146
S3156000AC208160DFF8D8120968C903FAD54FF480311C
S3156000AC30416002681204FCD5816001BDDFF8CC1268
S3156000AC40002802D1102008607047102048607047C5
S3156000AC50DFF8A802016841F0010101607047DFF882
S3156000AC60B022116821F4404103799B0303F4404309
S3156000AC70194341F4803111601368DFF898120B4074
S3156000AC80007800F07F00034343F4005313601068BC
S3156000AC900028FCD5106820F4803010607047DFF81B
S3156000ACA07822116821F44041037B9B0303F44043FF
S3156000ACB0194341F4803111601368DFF860120B406C
S3156000ACC0007800F00100034343F4005313601068FA
S3156000ACD00028FCD5106820F4803010607047002092
S3156000ACE0DFF83C12086070474FF48050DFF834128A
S3156000ACF0086070474FF48050DFF834120860704780
S3156000AD004FF48050DFF82C12086070470000000096
S3156000AD1070B50546DFF8F86129463046FFF75AFFF9
S3156000AD20002801D1002070BD29463046FFF75DFF3F
S3156000AD30044629463046FFF745FF002840F0C980A3
S3156000AD400D3D1CD04FF480102D1A3DD02D1A00F009
S3156000AD50B7802D1A19D04FF480002D1A3CD04FF4CD
S3156000AD6040102D1A69D04FF480002D1A00F096809D
S3156000AD70ED1F00F09B806D1E00F0A080A8E030689B
S3156000AD8000F07F0044436408A3E096ED140A00EEE9
S3156000AD90904AB8EE601BB8EE400B21EE000B96EDC4
S3156000ADA0181AB8EE411B80EE010B306BC00702D556
S3156000ADB01620444302E004EB84008400BCEEC00B22
S3156000ADC010EE100A041984E03069800701D5162058
S3156000ADD000E0142044437CE0316F01F07F01564867
S3156000ADE090ED000A00EE904AB8EE601BB8EE400B9C
S3156000ADF021EE000B90ED041AB8EE411B80EE010BBC
S3156000AE00BCEEC00B10EE100A01FB0404306F10F4A8
S3156000AE10C01003D0B0F5002F02D002E0A40800E015
S3156000AE2064084248016840480140B1F5004F02D0CD
S3156000AE30814231D04DE064084BE03F4A116A01F02F
S3156000AE407F0192ED0C0A00EE904AB8EE601BB8EEF8
S3156000AE50400B21EE000B92ED101AB8EE411B80EE0E
S3156000AE60010BBCEEC00B10EE100A01FB0404106A65
S3156000AE7010F4C01003D0B0F5002F02D002E0A40891
S3156000AE8000E064082948006800F04040B0F1804F57
S3156000AE90D1D0B0F1404F1CD1A4081AE02648006E0C
S3156000AEA000F0030043A151F8204012E02248006EF2
S3156000AEB0C0F381003FA151F820400AE01F4C08E032
S3156000AEC0306A800701D5162000E01420444300E074
S3156000AED00024204670BD10B4C000194A1468BF2310
S3156000AEE0834024EA0303802484401C43146001F0F9
S3156000AEF03F0181401943116010BC704770820D405C
S3156000AF0000366E010400002050810D4074820D40B1
S3156000AF1000800D4080EFFFFF30800D40FEEFFFFFA9
S3156000AF2020800D4070800D400080800070810D4053
S3156000AF30A0800D40E0800D4080800D4040787D010E
S3156000AF4000810D40216279706173735874616C4F32
S3156000AF5073630000443A5C7265735F692E6D787244
S3156000AF60745C53444B5F322E342E305F45564B2D06
S3156000AF704D494D585254313036305F4941525F46E3
S3156000AF80554C4C5F313036305F4556425C64657671
S3156000AF90696365735C4D494D585254313036325C45
S3156000AFA0647269766572735C66736C5F636C6F639B
S3156000AFB06B2E630040787D0180F0FA0200E1F505B2
S3156000AFC040597307F8B504460D4616461F463000CD
S3156000AFD007D152220FF2980121A0FFF7C7FDAFF308
S3156000AFE000803B462A463146204601B0BDE8F04027
S3156000AFF000F074B80EB418B5A0B004466846802157
S3156000B00000F0D2F823A90FF21D036A46204600F02D
S3156000B0100DF90146684600F06FF821B010BC5DF886
S3156000B02010FB00002DE9F04104460D4616461F460A
S3156000B0304FF000080FE02968481C802804D320469A
S3156000B04000F05AF800202860286826542868401CBA
S3156000B050286008F10108B845EDDBBDE8F081000025
S3156000B06064657669636520213D20305500000000E7
S3156000B070443A5C7265735F692E6D7872745C534492
S3156000B0804B5F322E342E305F45564B2D4D494D5811
S3156000B0905254313036305F4941525F46554C4C5FB1
S3156000B0A0313036305F4556425C64657669636573F8
S3156000B0B05C4D494D585254313036325C7574696C0A
S3156000B0C069746965735C66736C5F64656275675F96
S3156000B0D0636F6E736F6C652E630000001CB514465B
S3156000B0E01A4600908DF8041000232146684600F049
S3156000B0F0C1F9002016BD000038B504460D46002C87
S3156000B10040F0098040F225120FF238010AA0FFF7DD
S3156000B1102DFDAFF3008029462046BDE8344010B5CA
S3156000B1200C0007D0002805D0012200F0CCF90028D9
S3156000B13000D00024204610BD62756620213D203077
S3156000B14000000000443A5C7265735F692E6D787228
S3156000B150745C53444B5F322E342E305F45564B2D14
S3156000B1604D494D585254313036305F4941525F46F1
S3156000B170554C4C5F313036305F4556425C6465767F
S3156000B180696365735C4D494D585254313036325C53
S3156000B1907574696C69746965735C6C6F675C66739A
S3156000B1A06C5F6C6F672E6300002200F0DBB970B4D1
S3156000B1B004460025284604F8010B002A086814D0C6
S3156000B1C0002815D000282ED090FBF3F203FB120066
S3156000B1D0002802D43030014602E0C04331300146D7
S3156000B1E0104604F8011B6D1CECE7039900280FD18B
S3156000B1F030202070012017E0612202E00A00FBD0B7
S3156000B20041220A3A10180246304604F8012B6D1C9A
S3156000B210002808D0B0FBF3F603FB16000A28EDD22F
S3156000B22030300246F0E7284670BC70472DE9F64F8D
S3156000B2308DB00C469A46002100910D46019102910F
S3156000B240064605E00123424601A90E98D047761CC2
S3156000B25096F80080B8F1000F00F0E280B8F1250F93
S3156000B260F0D14FF0010B0027384605E007EB870267
S3156000B270303901EB42010F46002840F0D58016F8C0
S3156000B280011FA1F130020A2AF0D3761E5846F3E771
S3156000B29016F8011F30390A29C0F0CC80761E584650
S3156000B2A0C8E0761E16F8018FB8F1640F1AD0B8F1AF
S3156000B2B0690F17D0B8F1660F14D0B8F1460F11D0E8
S3156000B2C0B8F1780F0ED0B8F1580F0BD0B8F16F0FF8
S3156000B2D008D0B8F1620F05D0B8F1700F02D0B8F19E
S3156000B2E0750F70D1B8F1640F02D0B8F1690F0ED145
S3156000B2F054F8040B0390584600900A23024603A9AB
S3156000B30004A8FFF754FF054604A828440090B8F146
S3156000B310580F02D0B8F1780F13D1B8F1780F01D178
S3156000B3204FF0000B54F8040B02905846009010231F
S3156000B330002202A904A8FFF73AFF054604A828449C
S3156000B3400090B8F16F0F08D0B8F1620F05D0B8F170
S3156000B350700F02D0B8F1750F1DD154F8040B02902E
S3156000B360B8F16F0F01D108230AE0B8F1620F01D17D
S3156000B370022305E0B8F1700F01D1102300E00A2323
S3156000B380CDF800B0002202A904A8FFF710FF054619
S3156000B39004A8284400907F1B3B46202201A90E98F2
S3156000B3A0D047009800283FF452AF0E9FD0468146A2
S3156000B3B099F80000002841D0012319F8012901A954
S3156000B3C03846C047F4E7B8F1630F08D154F8040B68
S3156000B3D0C0B25B46024601A90E98D04737E7B8F17E
S3156000B3E0730F7FF42FAF54F8049BB9F1000F3FF44D
S3156000B3F02EAF484600F0ECF805467F1B3B46202200
S3156000B40001A90E98D0470E9FD04699F800000028F3
S3156000B41018D05B4619F8012B01A93846C047F4E7F6
S3156000B42001980FB0BDE8F08F16F8010F2E287FF453
S3156000B43038AF002000287FF435AF29E70E97CDF8A6
S3156000B440009004E70E9702E70029816903D041F472
S3156000B45000218161704721F40021816170470029D4
S3156000B460816903D041F480218161704721F4802194
S3156000B47081617047F0B585B004460D461646002CCE
S3156000B48007D1E5220FF278011BA0FFF76FFBAFF340
S3156000B49000802079174F387121683960022810D1F1
S3156000B4A0684600F05DFA009532466946386800F0F5
S3156000B4B057F901213868FFF7C7FF01213868FFF7A0
S3156000B4C0CEFF05B0F0BD38B50346002409480579BE
S3156000B4D0022D0BD10068002A0A46194602D000F0F8
S3156000B4E085FA04E000F09EFA044600E00124204656
S3156000B4F032BD00000C0000203020213D20696F0025
S3156000B500443A5C7265735F692E6D7872745C5344FD
S3156000B5104B5F322E342E305F45564B2D4D494D587C
S3156000B5205254313036305F4941525F46554C4C5F1C
S3156000B530313036305F4556425C6465766963657363
S3156000B5405C4D494D585254313036325C7574696C75
S3156000B55069746965735C696F5C66736C5F696F2E2D
S3156000B5606300000000B500BF13009646944610398C
S3156000B57028BFA0E80C50FAD85FEA417C28BF0CC00F
S3156000B58048BF40F8042BC90728BF20F8022B48BFE4
S3156000B59000F8012B00BD30B4002513E050F8042BF1
S3156000B5A0D30744BFA9F101039A18091F042942F879
S3156000B5B0045BFAD213468C0744BF15809B1CC907EF
S3156000B5C048BF1D7050F8041B0029E7D130BC704796
S3156000B5D000F10103810704D010F8011B820781B1D5
S3156000B5E0FAD10268A2F10131914311F0803104BFB2
S3156000B5F050F8042FF6E709BAB1FA81F100EBD100F1
S3156000B600401CC01A7047FEE770B504460D462646D4
S3156000B610360A04F01F04082EC0F0098040F2D232C8
S3156000B6200FF2240120A0FFF7A1FAAFF30080DFF844
S3156000B630B00400EB860001680322A240914305FA3C
S3156000B64004F40C43046070BD443A5C7265735F69D0
S3156000B6502E6D7872745C53444B5F322E342E305F9D
S3156000B66045564B2D4D494D585254313036305F4911
S3156000B67041525F46554C4C5F313036305F455642DD
S3156000B6805C646576696365735C4D494D58525431A7
S3156000B6903036325C647269766572735C66736C5F51
S3156000B6A0636C6F636B2E6800696E646578203C3DE1
S3156000B6B0203700000321A7E7816841F0020181601D
S3156000B6C0816821F0020181607047000010B5002496
S3156000B6D0092C06D209A151F82410814201D0641CBC
S3156000B6E0F6E7092C07D37422DFF834140CA0FFF7B1
S3156000B6F03DFAAFF30080204610BD00000000000058
S3156000B700004018400080184000C0184000001940F2
S3156000B710004019400080194000C0194000001A40DE
S3156000B720696E7374616E6365203C202873697A65FF
S3156000B7306F6628735F6C707561727442617365734E
S3156000B74029202F2073697A656F662828735F6C706D
S3156000B750756172744261736573295B305D29290076
S3156000B7602DE9F04106460C461546002C08D1CA2242
S3156000B7700FF200410FF26040FFF7F8F9AFF3008077
S3156000B7802068002808D1CB220FF2E8310FF2504032
S3156000B790FFF7ECF9AFF30080207A042808DDCD22AC
S3156000B7A00FF2D0310FF25040FFF7E0F9AFF30080AF
S3156000B7B0607A042808DDCE220FF2B8310FF25840C5
S3156000B7C0FFF7D4F9AFF300802268002739460423D7
S3156000B7D028460D462AE003FB01FCB0FBFCFCE6466E
S3156000B7E01FFA8EFEBEF1000F01D14FF0010CE64646
S3156000B7F01FFA8EFE0EFB03FEB0FBFEFEAEEB010EE5
S3156000B800E0461FFA88F808F1010808FB03F8B0FB68
S3156000B810F8F8A1EB0801714502D28E460CF1010CD5
S3156000B820724502D372461F4665465B1C2168202B13
S3156000B830D1D96420B1FBF0F000EB4000904202D217
S3156000B84040F221508AE03046FFF740FF0FF2E831C0
S3156000B85031F91000FFF72EFF3046FFF72DFF3169F3
S3156000B860381F042801D241F40031DFF8D0020140CC
S3156000B8707F1E3F0607F0F8570F43ADB2C5F30C05C0
S3156000B8802F433761306920F000503061B169DFF8CD
S3156000B890B002014020790246E37B1B0203F4E063B9
S3156000B8A01A43A37B9B0003F004031A431143627996
S3156000B8B0012A07D1002802D021F4006106E041F494
S3156000B8C0006103E0002801D041F01001B1613069E8
S3156000B8D020F40050E179490301F4005108433061D6
S3156000B8E0607A217A41EA0041F162B06A40F08800EC
S3156000B8F0B062B06A40F44040B062DFF84812706AE5
S3156000B900627B120102F01002237B5B0103F02003CD
S3156000B9101A4310437062A07A002803D0706A40F020
S3156000B92008007062E07A002803D0706A40F0010077
S3156000B9307062A079002801D0DFF80C1270690143AB
S3156000B9407161B169207C002801D041F40021607CDE
S3156000B950002801D041F48021B1610020BDE8F0816A
S3156000B96010B5040009D14FF4E4720FF208210FF20A
S3156000B9706820FFF7FBF8AFF300804FF4E1302060FA
S3156000B980002020716071A071E07120726072A072F7
S3156000B990E07260732073A073E0732074607410BDEE
S3156000B9A001464869896A090C01F0C301084370477A
S3156000B9B010B50C46816A21F44031220402F440320B
S3156000B9C0114381624269DFF884110A40DFF874111D
S3156000B9D021400A434261FFF7E3FF044202D040F28E
S3156000B9E01A5010BD002010BD0000000070B505465D
S3156000B9F00C461646002C0FD140F28F220FF27411BE
S3156000BA0035A0FFF7B3F8AFF3008005E06869000280
S3156000BA10FCD514F8010BE8613046461E0028F5D1C6
S3156000BA2070BD0000F8B506460D461746002D08D1D4
S3156000BA3040F29E220FF23C1127A0FFF797F8AFF372
S3156000BA400080B069010503D400F01200022801D11C
S3156000BA50012405E0002403E000F07F0005F8010BF7
S3156000BA603846471E00282FD0F06AC0F302600028CF
S3156000BA702CD13046FFF794FF01030DD4410313D454
S3156000BA80810319D4C003EFD54FF480313046FFF7F8
S3156000BA908FFF4FF4A460F2BD4FF400213046FFF7EC
S3156000BAA087FF40F21D50F2BD4FF480213046FFF70C
S3156000BAB07FFF40F21E50F2BD4FF400313046FFF773
S3156000BAC077FF40F21F50F2BD0020F2BD002CF069F6
S3156000BAD0C2D105F8010BC3E7646174610000000020
S3156000BAE068C00F401A4A51681A48526A1047184A85
S3156000BAF091681948526A1047154AD1681748526AC0
S3156000BB001047134A11691648526A1047104A51691C
S3156000BB101448526A10470E4A91691348526A104790
S3156000BB2074BB00600A4AD1691048526A1047000027
S3156000BB30074A116A0E48526A1047000000E0FFE0AB
S3156000BB40E8F8FFFF00C01FC000C01FE0FF3FE03FF6
S3156000BB5014000020004018400080184000C01840C3
S3156000BB6000001940004019400080194000C019408B
S3156000BB7000001A40443A5C7265735F692E6D787294
S3156000BB80745C53444B5F322E342E305F45564B2DDA
S3156000BB904D494D585254313036305F4941525F46B7
S3156000BBA0554C4C5F313036305F4556425C64657645
S3156000BBB0696365735C4D494D585254313036325C19
S3156000BBC0647269766572735C66736C5F6C7075615E
S3156000BBD072742E6300000000636F6E666967000012
S3156000BBE0636F6E6669672D3E6261756452617465E6
S3156000BBF05F42707300000000283429203E3D2063B8
S3156000BC006F6E6669672D3E74784669666F576174B4
S3156000BC1065726D61726B0000283429203E3D206399
S3156000BC206F6E6669672D3E72784669666F57617496
S3156000BC3065726D61726B0000FFFF18051C000C00D9
S3156000BC401801020306031A050E06000070B50446C5
S3156000BC500D462646360A04F01F04082EC0F00980F9
S3156000BC6040F2D2320FF26C1157A0FEF77FFFAFF3AE
S3156000BC700080064800EB860001680322A2409143DB
S3156000BC8005FA04F40C43046070BD000068C00F4000
S3156000BC900321DBE75AE0000010B500240A2C06D227
S3156000BCA08EA151F82410814201D0641CF6E70A2C5B
S3156000BCB007D33A220FF2B8115EA0FEF757FFAFF333
S3156000BCC00080204610BD0000F8B504460D461646B5
S3156000BCD0FFF7E2FF8BA131F91000FFF7D9FF0127CB
S3156000BCE0AF40F9436069084060613078002803D14D
S3156000BCF060680140616007E072782946204600F07E
S3156000BD0009F8606807436760B27829462046BDE84F
S3156000BD10F840BFE770B504460D461646202D08D399
S3156000BD205FF05A020FF2481169A0FEF71FFFAFF3EA
S3156000BD300080012000FA05F5002E206803D120EA74
S3156000BD400505256070BD0543256070BD30B40124CE
S3156000BD5004FA01F5C369AB43C361102902D200F14D
S3156000BD600C0302E000F110031039521E042A29D890
S3156000BD70DFE802F0030A131E25001A680324480050
S3156000BD808440A2431A601DE048001968032282407D
S3156000BD90914384400C431C6014E0480019680322F8
S3156000BDA082409143022202FA00F00843186009E0DB
S3156000BDB01A6803244800844022431A6002E0C1697D
S3156000BDC00D43C56130BC7047696E646578203C3D43
S3156000BDD020370000443A5C7265735F692E6D787235
S3156000BDE0745C53444B5F322E342E305F45564B2D78
S3156000BDF04D494D585254313036305F4941525F4655
S3156000BE00554C4C5F313036305F4556425C646576E2
S3156000BE10696365735C4D494D585254313036325CB6
S3156000BE20647269766572735C66736C5F636C6F630C
S3156000BE306B2E6800696E7374616E6365203C2028A2
S3156000BE4073697A656F6628735F6770696F4261733D
S3156000BE50657329202F2073697A656F662828735F5A
S3156000BE606770696F4261736573295B305D2929006C
S3156000BE70443A5C7265735F692E6D7872745C534484
S3156000BE804B5F322E342E305F45564B2D4D494D5803
S3156000BE905254313036305F4941525F46554C4C5FA3
S3156000BEA0313036305F4556425C64657669636573EA
S3156000BEB05C4D494D585254313036325C6472697605
S3156000BEC06572735C66736C5F6770696F2E63000082
S3156000BED070696E203C2033320000000000000000D4
S3156000BEE000801B4000C01B4000001C4000401C40FE
S3156000BEF000000C400000004200400042008000420A
S3156000BF0000C00042FFFF1A011E001A020C031E0148
S3156000BF10BFF34F8FBFF36F8F002085490860BFF373
S3156000BF204F8FBFF36F8F8348016841F40031016022
S3156000BF30BFF34F8FBFF36F8F704730B47D490020DA
S3156000BF400867BFF34F8FCA6EC2F34E337A4DC2F3A2
S3156000BF50C90443F6E07000EA431040EA8470286042
S3156000BF602046441E0028F4D11846431E0028EED110
S3156000BF70BFF34F8F086840F480300860BFF34F8F7F
S3156000BF80BFF36F8F30BC704710B56A4C606F40F47A
S3156000BF907000606769490A894FF6FE7002400A813F
S3156000BFA0674A1389034013810888400704D50B88C4
S3156000BFB04FF6FB7003400B801088400704D511884C
S3156000BFC04FF6FB70014011805E485F4941604FF655
S3156000BFD0FF718160016821F0800141F020010160FC
S3156000BFE05A480168C90703D50168490849000160D4
S3156000BFF02068800301D4FFF78BFF2068C00301D45B
S3156000C000FFF79BFFBDE8104000F0ACB870B5504C30
S3156000C010504A6068800129D5A06810F4405006D067
S3156000C020B0F5805F17D0B0F5005F16D016E01069E6
S3156000C030C003106907D5C0F38130002801D1464995
S3156000C0400DE000210BE0800701D5162100E01421E8
S3156000C0504148414303E0404901E0106B00216068BC
S3156000C060C0F3C260401CB1FBF0F657E01068C00335
S3156000C07008D51068C0F38130002801D1364D07E03D
S3156000C080002505E0156805F07F05334845436D08D2
S3156000C090106BC003106B07D5C0F38130002801D147
S3156000C0A02D4E08E0002606E0C00701D5162600E002
S3156000C0B0142629484643106D2749A1FB0001126EDC
S3156000C0C0002300F051F88619A06810F4402025D0AE
S3156000C0D0B0F5802F06D0B0F5002F0DD0B0F5402F0B
S3156000C0E014D01AE01D480068C0F30540B6FBF0F0B6
S3156000C0F000EBC0014E0011E01848006800F03F00F8
S3156000C100B6FBF0F000EBC0014E0007E0206800F0DF
S3156000C1100700401CB5FBF0F600E000266068C0F33F
S3156000C1208220401CB6FBF0F00D49086070BD00002F
S3156000C13050EF00E014ED00E060EF00E000800B409F
S3156000C14000000D4000C00B4020C528D910E000E07B
S3156000C15010C00F4000800D4000366E0100810D401A
S3156000C160000000207047FEE7BBBBE1B1B2F5803F3F
S3156000C17080F07E80022A1ED98C46B1FBF2F102FB6A
S3156000C18011C31B0443EA1043B3FBF2FC02FB1C33EE
S3156000C19080B240EA0343B3FBF2F002FB103240EA9E
S3156000C1A00C4000237047022A05D98446B0FBF2F0A2
S3156000C1B002FB10C270474AB105D100F0010249087E
S3156000C1C05FEA3000704700220023704700F0E4B851
S3156000C1D00B000200002100207047904271EB030CB7
S3156000C1E0F6D3B3F5803F2FD2F0B5B3FA83F7B1FA41
S3156000C1F081F4A7F10F0E3D1B5340CEF1200602FAE3
S3156000C2000EF2F3415340B5F10F0746D80F3C2C446C
S3156000C2104140C4F12006A040F1414140B1FBF3F634
S3156000C22003FB1611A2FB0645001BA94102D2761E2E
S3156000C2308018594180EA010221FA0EF362FA0EF281
S3156000C24000215A403046F0BD30B4B1FBF3FC03FB2D
S3156000C2501C11A2FB0C45001BA94103D2ACF1010CD9
S3156000C2608018594130BC02460B4660460021704733
S3156000C270B2F1807F65D3F0B5B2FA82F7B1FA81F494
S3156000C280C7F10F063D1B22FA06F307F1110EF241C4
S3156000C29020355A40B5F10F07B8D94140C4F12006A0
S3156000C2A0A040F1414140B1FBF3FC03FB1C11A2FB32
S3156000C2B00C45001BA94103D2BCF1010C8018594101
S3156000C2C00F2F12D30F3FC90341EA5041B1FBF3F67A
S3156000C2D003FB1611A2FB0645D4EBC030A94102D27E
S3156000C2E0761E8018594146EACC3C07B34140C7F1F7
S3156000C2F02006B840F1414140B1FBF3F603FB16114D
S3156000C300A2FB0645001BA94102D2761E8018594140
S3156000C31080EA010221FA0EF3C7F1200462FA0EF2F6
S3156000C3200CFA07F05A402CFA04F13043F0BD80EA6B
S3156000C330010221FA0EF3002162FA0EF260465A40BB
S3156000C340F0BD8C46B1FBF2F102FB11C31B0243EA5E
S3156000C3501063B3FBF2FC02FB1C331B024CEA0020A9
S3156000C36043EA1063B3FBF2FC02FB1C331B024CEA8C
S3156000C370002043EA1063B3FBF2FC02FB1C331B0292
S3156000C3804CEA002043EA1063B3FBF2FC02FB1C326A
S3156000C3904CEA0020002370477047FEE770B50446FC
S3156000C3A00D462646360A04F01F04082EC0F00980A2
S3156000C3B040F2D2320FF2A00124A0FEF7D7FBAFF312
S3156000C3C000801F4800EB860001680322A24091436B
S3156000C3D005FA04F40C43046070BD0321DEE710B473
S3156000C3E0029C01F00F01240104F010042143016056
S3156000C3F0002A00D0136010BC70470098002801D056
S3156000C40001990160704700003EB540F20240FFF7B7
S3156000C410E4FF0C4C0C4D002001900095034602464B
S3156000C42005212046FFF7DBFF41F2B0000190009541
S3156000C43000231A4605212046FFF7DFFF37BD0000BF
S3156000C44068C00F4004800A401C800A40696E6465BB
S3156000C45078203C3D20370000443A5C7265735F6922
S3156000C4602E6D7872745C53444B5F322E342E305F7F
S3156000C47045564B2D4D494D585254313036305F49F3
S3156000C48041525F46554C4C5F313036305F455642BF
S3156000C4905C646576696365735C4D494D5852543189
S3156000C4A03036325C647269766572735C66736C5F33
S3156000C4B0636C6F636B2E68000901020002D4314819
S3156000C4C081547047304802F00F02104400F8041C93
S3156000C4D0704710B5401EB0F1807F01D3012010BDBA
S3156000C4E02A4C60600F214FF0FF30FFF7E5FF002018
S3156000C4F0A06007202060002010BD2549086800283C
S3156000C50002D00868401E08607047214908600868C4
S3156000C5100028FCD17047000038B500BF20A0006835
S3156000C5200090FFF771FFFDF7FFFF00F086F8FFF759
S3156000C5306DFD184C6A4601212046FFF7C5FB16487B
S3156000C54000684FF47A71B0FBF1F0FFF7C2FF002884
S3156000C550124D07D0FEE7002201212046FFF7DAFBE5
S3156000C560002028704FF47A70FFF7CFFF28780028F4
S3156000C570F1D1012211462046FFF7CCFB012028703D
S3156000C580F0E7000000E400E018ED00E010E000E0F5
S3156000C5903C00002000000C4000000020400000200D
S3156000C5A00100000001460A46120A02F01F0201F06D
S3156000C5B0FF0000F1804000F57C200068C1F34C313B
S3156000C5C091400840D040704701460A46120A02F080
S3156000C5D01F0201F0FF0000F1804000F57C2000683A
S3156000C5E0C1F34C3191400840D0407047194800680B
S3156000C5F0C00601D51848704718480068704738B5B6
S3156000C600174C1848FFF7CEFF00280CD11648FEF7E6
S3156000C6107FFB0621B0FBF1F52046FFF7D5FF401CF6
S3156000C620B5FBF0F032BDFFF7E1FF05462046FFF7A8
S3156000C630CBFF401CB5FBF0F032BD80B5FFF7DFFFE6
S3156000C640034602224FF4E1310848BDE80050FEF788
S3156000C650B9BC000070820D4000366E0104000020F7
S3156000C66024E00780242600800D001000004018405A
S3156000C67030B450F8041B79B102684368024408304C
S3156000C680DC0744BFA9F10104E31852F8045B43F8E0
S3156000C690045B091FF9D1ECE730BC704772B60548F8
S3156000C6A0054901600A6882F308880448804762B6D3
S3156000C6B00348004708ED00E000A0006089BF006005
S3156000C6C075C7006010B5074979441831064C7C443B
S3156000C6D0163404E00A68081D114488470146A142E1
S3156000C6E0F8D110BD2C0000004C0000004EF68851B9
S3156000C6F0CEF20001086840F470000860BFF34F8F07
S3156000C700BFF36F8F4FF00070E1EE100A70470000C4
S3156000C71087EEFFFF400000000400002000000000DC
S3156000C72051FFFFFF04000000FC0100000000002034
S3156000C73000000000FEE700000120C046002801D08E
S3156000C740FFF7C0FFAFF300800020AFF30080FFF774
S3156000C750E3FE00F000F800F001B8FEE70746384651
S3156000C76000F002F8FBE7FEE72021090326311820D6
S3156000C770ABBEF9E7AFF30080FFF7B8FFFFF7DCFF6A
S3156000C7800048004721C900600048004721C9006091
S3156000C7900048004721C900600048004721C9006081
S3156000C7A00048004721C900600048004721C9006071
S3156000C7B00048004721C900600048004721C9006061
S3156000C7C00048004721C900600048004721C9006051
S3156000C7D00048004721C900600048004721C9006041
S3156000C7E00048004721C900600048004721C9006031
S3156000C7F00048004721C900600048004721C9006021
S3156000C8000048004721C9006000480047E5BA00605B
S3156000C81000480047EFBA006000480047F9BA006078
S3156000C8200048004703BB0060004800470DBB00603E
S3156000C8300048004717BB00600048004725BB006002
S3156000C8400048004731BB00600048004721C90060CE
S3156000C8500048004721C900600048004721C90060C0
S3156000C8600048004721C900600048004721C90060B0
S3156000C8700048004721C900600048004721C90060A0
S3156000C8800048004721C900600048004721C9006090
S3156000C8900048004721C900600048004721C9006080
S3156000C8A00048004721C900600048004721C9006070
S3156000C8B00048004721C900600048004721C9006060
S3156000C8C00048004721C900600048004721C9006050
S3156000C8D00048004721C900600048004721C9006040
S3156000C8E00048004721C900600048004721C9006030
S3156000C8F00048004721C900600048004721C9006020
S3156000C9000048004721C900600048004721C900600F
S3156000C9100048004721C900600048004721C90060FF
S3116000C920FFF7FEBF00A4781FFEE7FEE7ED
S7056000C7755E
