S01200006C65645F626C696E6B792E73726563F5
S1132000000002209D380000373300006B350000CB
S11320102B380000353900005B3900000000000057
S1132020000000000000000000000000673900000C
S1132030293B0000000000002B3B0000B9360000E3
S11320408139000089390000913900009939000074
S1132050A1390000A9390000B1390000B9390000E4
S1132060C1390000C9390000D1390000D939000054
S1132070E1390000E9390000F1390000F9390000C4
S1132080013A0000213B0000213B0000213B0000FD
S1132090093A0000113A0000193A0000213A000000
S11320A0293A0000313A0000393A0000413A000070
S11320B0493A0000513A0000593A0000613A0000E0
S11320C0693A0000713A0000793A0000813A000050
S11320D0893A0000913A0000213B0000213B0000B6
S11320E0213B0000213B0000213B0000213B00007C
S11320F0213B0000213B0000213B0000213B00006C
S1132100213B0000213B0000213B0000213B00005B
S1132110213B0000213B0000213B0000213B00004B
S1132120993A0000A13A0000A93A0000B13A00002F
S1132130B93A0000213B0000213B0000213B000094
S1132140213B0000213B0000213B0000213B00001B
S1132150213B0000213B0000213B0000213B00000B
S1132160213B0000213B0000213B0000213B0000FB
S1132170213B0000213B0000213B0000213B0000EB
S1132180213B0000213B0000213B0000213B0000DB
S1132190213B0000213B0000213B0000213B0000CB
S11321A0213B0000213B0000C13A0000C93A000075
S11321B0213B0000213B0000213B0000213B0000AB
S11321C0213B0000213B0000213B0000213B00009B
S11321D0213B0000213B0000213B0000213B00008B
S11321E0213B0000213B0000213B0000D13A0000CC
S11321F0D93A0000213B0000E13A0000E93A00002E
S1132200213B0000213B0000F13A0000F93A0000B4
S1132210213B0000213B0000213B0000213B00004A
S1132220213B0000213B0000213B0000213B00003A
S1132230213B0000213B0000213B0000213B00002A
S1132240213B0000213B0000213B0000213B00001A
S1132250213B0000213B0000213B0000213B00000A
S1132260213B0000213B0000213B0000213B0000FA
S1132270213B0000213B0000213B0000213B0000EA
S1132280213B0000213B0000213B0000213B0000DA
S1132290213B0000213B0000213B0000213B0000CA
S11322A0013B0000093B0000113B0000213B000002
S11322B0193B0000213B0000213B0000213B0000B2
S11322C0213B0000213B0000213B0000213B00009A
S11322D0213B0000213B0000213B0000213B00008A
S11322E0213B0000213B0000213B0000213B00007A
S11322F0213B0000213B0000213B0000213B00006A
S1132300213B0000213B0000213B0000213B000059
S1132310213B0000213B0000213B0000213B000049
S1132320213B0000213B0000213B0000213B000039
S1132330213B0000213B0000213B0000213B000029
S1132340213B0000213B0000213B0000213B000019
S1132350213B0000213B0000213B0000213B000009
S1132360213B0000213B0000213B0000213B0000F9
S1132370213B0000213B0000213B0000213B0000E9
S1132380213B0000213B0000213B0000213B0000D9
S1132390213B0000213B0000213B0000213B0000C9
S11323A0213B0000213B0000213B0000213B0000B9
S11323B0213B0000213B0000213B0000213B0000A9
S11323C0213B0000213B0000213B0000213B000099
S11323D0213B0000213B0000213B0000213B000089
S11323E0213B0000213B0000213B0000213B000079
S11323F0213B0000213B0000213B0000FFFFFFFFC9
S113240001E0000000BF70B400F0FF0404F1804458
S113241004F57C2401EA5031030A256803F01F0304
S1132420C0F34C36820E9E40C1F30C01B543994073
S11324302943202A216005D0DFF824050168D14012
S1132440CB07F9D470BC7047DFF81815020A01EB0A
S113245082014FF0030C00F01F000CFA00F00B682F
S113246023EA000008607047002AC1F30B414FF4CF
S1132470803319BF0818001D08180830036070471E
S11324802DE9F8434FF40040DFF8DC140860DFF86E
S1132490DC040268DFF8D814DFF8D844DFF8D85435
S11324A0DFF8D88442F480320260036823F40033F6
S11324B0036000202160DFF8C84400F007FB00F04F
S11324C020FB012000F014FB20680121000A000217
S11324D040F07F0020602846FFF792FF012140462C
S11324E0FFF78EFFDFF89C04C1684909490141F0F8
S11324F01201C1600268002AFCD50FF27C50DFF89B
S1132500889400F005FB0FF27850DFF8806400F047
S113251015FB1B21002000F053FC1021012000F0CA
S11325204FFC1821022000F04BFC1021032000F086
S113253047FC0FF25C50DFF8587400F021FB2121B6
S1132540002000F040FC1021012000F03CFC11218F
S1132550022000F038FC1321032000F034FCD9F8E9
S1132560100020F04000C9F8100000F02FFB0122F9
S1132570DFF820144846FFF777FF306920F4004065
S11325803061316921F400013161D9F8700040F4FF
S11325900050C9F8700000F01FFB386840F4803028
S11325A03860316921F040413161386840F40050AD
S11325B0386000F017FB0122DFF8DC134846FFF710
S11325C053FF386C8008800040F001003864396C97
S11325D041F400513964386C40F40010386400F060
S11325E0F0FA0122DFF8B4134846FFF73DFFD9F8AB
S11325F02000002140F40050C9F82000DFF8A003B7
S1132600FFF700FF4FF48870FFF71EFF4FF484704C
S1132610FFF71AFF40F21620FFF716FF4FF406707B
S1132620FFF712FF0321DF48FFF7ECFE0121DE482C
S1132630FFF7E8FE0321DD48FFF7E2FE00214046F4
S1132640FFF7DEFE0021DA48FFF7DCFE0021284612
S1132650FFF7D6FE4FF48A70FFF7F6FE4FF48B7047
S1132660FFF7F2FE1820FFF7EFFE1A20FFF7ECFE4B
S11326704FF48670FFF7E8FE0121CE48FFF7C2FE53
S11326800021CD48FFF7BCFE40F20260FFF7DCFEFC
S11326900121CA48FFF7B6FE0021C948FFF7B0FE82
S11326A040F20460FFF7D0FE0121C648FFF7AAFEFE
S11326B00021C548FFF7A4FE4FF44170FFF7C4FEA4
S11326C007214FF21400FFF79DFE0021BF48FFF7DA
S11326D097FE0021BE48FFF793FE40F20A60FFF721
S11326E0B3FE0021BB48FFF78DFE0321BA48FFF774
S11326F087FE40F20270FFF7A7FE0021B748FFF7FC
S113270081FE0121B648FFF77BFE40F20220FFF76D
S11327109BFE0121B348FFF775FE0021B248FFF785
S11327206FFE4FF48070FFF78FFE4FF48170FFF758
S11327308BFEE06E20F03000E066E16EAB4821F0E5
S1132740C001E1660421FFF75DFE0221A848FFF7FE
S113275057FEA06E022120F44000A066A548FFF7B2
S113276051FE0221A448FFF74BFEE06F032120F441
S11327704020E067A148FFF745FE0121A048FFF78C
S113278041FE00219F48FFF73BFEE06F032120F448
S11327904010E0679C48FFF735FE01219B48FFF796
S11327A031FE00219A48FFF72BFEE06F032120F44D
S11327B04000E0679748FFF725FE01219648FFF7A0
S11327C021FE00219548FFF71BFE206F20F0C0007A
S11327D02067216F21F440712167206F002120F4CC
S11327E0406020678E48FFF70DFE00218D48FFF7FB
S11327F007FEA06E8C4D20F44040A066A16E21F42B
S11328004021A166686820F0C0006860A16E21F4D0
S11328104031A166A06E20F44010A0666968834828
S113282021F4407169600121FFF7ECFD0221804829
S1132830FFF7E6FDE06F20F04070E067A16E21F045
S11328404051A166A06E20F44050A066E16E21F0D4
S11328504071E166606F20F00C006067616F21F0E9
S1132860C0016167E06F20F04060E067296871484B
S113287021F4404129600021FFF7C4FD00216E4886
S1132880FFF7BEFD606F012120F4406060676B4874
S1132890FFF7B8FD03216A48FFF7B4FD0521694835
S11328A0FFF7AEFDE06F012120F44040E067664889
S11328B0FFF7A8FD07216548FFF7A4FD032164483D
S11328C0FFF79EFDE06F012120F00C00E0676148F6
S11328D0FFF798FD07216048FFF794FD03215F4847
S11328E0FFF78EFD606F01218008800060675C48FF
S11328F0FFF788FD07215B48FFF784FD03215A4851
S1132900FFF77EFD00215948FFF77AFD3068584AE9
S1132910400940013060216E21F070012166206E73
S11329200009000140F001002066216E21F46001DD
S11329302166206E20F4F81040F490102066216E79
S113294021F480712166206E20F080002066216EC3
S1132950484821F0807121661060BDE8F1830000D1
S113296048C00F4068C00F4008000020C0820D40DE
S113297000366E0104000020186C00801439001425
S113298000C00F400000084000800D4060810D40F1
S1132990A0800D400D0070000D00E0000D0020002F
S11329A014EA00041468008010E0004018720080EB
S11329B014FB00801CE007801C26008024EB0080B0
S11329C01C30008024F000801C310080142700801B
S11329D0142600801CF700801C7D008018FD0080F8
S11329E0186800803CEB00803C69008018FA008085
S11329F01864008024790080186E008028E6008026
S1132A0028E007801C6A00802CE600802CE0078008
S1132A101C6C008028F6008028F007801C6E008063
S1132A2038F307803832008080C00F4020E20780EE
S1132A302068008024E007802426008038EC008091
S1132A4018F7008038EF008030F9008030F60080FD
S1132A503074008030EC008030E900803067008002
S1132A6028E9008028F90080207300800C20008071
S1132A70000000200046C3236400000000000000A2
S1132A800100000000000000010000000000000040
S1132A90000030B4002513E050F8042BD30744BFE2
S1132AA0A9F101039A18091F042942F8045BFAD218
S1132AB013468C0744BF15809B1CC90748BF1D7073
S1132AC050F8041B0029E7D130BC7047DFF8280315
S1132AD04FF080418160DFF814130A68D303FCD5FA
S1132AE04FF48031416002681304FCD58160704763
S1132AF0DFF8081310B910200860704710224A60EC
S1132B007047DFF8E802016841F001010160704795
S1132B1010B4DFF8F022116803799B0303F44043F7
S1132B2021F44041194341F4803111601468007864
S1132B30DFF8D4120C4000F07F0014E010B4DFF88A
S1132B40CC221168037B9B0303F4404321F44041EE
S1132B50194341F48031116014680078DFF8B01231
S1132B600C4000F00100044344F400541460136862
S1132B70002BFCD5116821F48031116010BC704722
S1132B80DFF87C12FFE70A6843789B0303F44043B1
S1132B9022F440421A4342F480320A600A68007800
S1132BA0400000F0020022F00202024342F44152CB
S1132BB00A600A68002AFCD50B6823F480330B6092
S1132BC070470020DFF84C12086070474FF48050C3
S1132BD0DFF84412086070474FF48050DFF8441265
S1132BE0086070474FF48050DFF83C12086070476B
S1132BF0DFF81022C0F30B41515800F01F03D940F5
S1132C00C90701D4002070470101090D5358C3F3CB
S1132C10813149B9DFF8D4C1DCF80010CB065ABFC2
S1132C2073490968734900E00021C0F30B43D2588B
S1132C30D20300F1C3800D381CD04FF48012801AE7
S1132C403DD0801A00F0B180801A19D04FF4800270
S1132C50801A38D04FF44012801A65D04FF48002A5
S1132C60801A00F09180C01F00F09580401E00F093
S1132C709A80A2E06348036803F07F03594351E05C
S1132C80604800EE901AB8EE601B90ED140AB8EE9E
S1132C90400B90ED182A026B21EE000BB8EE422B8C
S1132CA0D30780EE020BBCEEC00B47BF1620414396
S1132CB001EB8102910010EE100A41187EE0514BA5
S1132CC01869820774E04F4A5848136F01EE101ACE
S1132CD090ED000AD0ED040A126FB8EE411BB8EE75
S1132CE0402B21EE021BB8EE600B81EE000BBCEE14
S1132CF0C00B12F4C01203F07F0310EE100A03FBA2
S1132D00010104D0B2F5002F08BF490800E089088A
S1132D10434A424813680340B3F5004F02D083424C
S1132D2030D04BE0490849E0404A01EE101A136ADA
S1132D3092ED0C0AD2ED100A126AB8EE411BB8EEFD
S1132D40402B21EE021BB8EE600B81EE000BBCEEB3
S1132D50C00B12F4C01203F07F0310EE100A03FB41
S1132D60010104D0B2F5002F08BF490800E089082A
S1132D702B48026802F04042B2F1804FD2D0B2F147
S1132D80404F1BD1890819E0284800BF2BA1006ED1
S1132D9000F0030004E0254828A1006EC0F3810080
S1132DA051F820100AE0224908E01648026A930705
S1132DB04CBF16201420414300E000210846704710
S1132DC030B41C4A01E030B41B4AC0001468BF236D
S1132DD083408025854001F03F0124EA03031D431D
S1132DE0814015601943116030BC704770820D40FA
S1132DF00400002000366E0150810D4074820D40A5
S1132E0010800D4000800D4080EFFFFF30800D40AA
S1132E10FEEFFFFF20800D4070800D400080800099
S1132E2070810D40A0800D40E0800D4080800D40F9
S1132E3040787D0100810D40F0800D4040787D0197
S1132E4080F0FA0200E1F505405973072DE9F041DD
S1132E5003460868002400250427064607FB00FCF7
S1132E60B2FBFCFC1FFA8CFEBEF1000F08BF4FF052
S1132E70010C1FFA8CF81FFA8CFE08F101080EFBF6
S1132E8007FE08FB07F8B2FBFEFEAEEB000EB2FB3A
S1132E90F8F8A0EB0808F0453CBFC6460CF1010C5D
S1132EA0764502D376463C4665467F1C202FD5D90D
S1132EB0DFF8DC71A0FB0772900900EB4000B04220
S1132EC038BF40F22150C0F0A58000200FF2FC1260
S1132ED016689E421EBF401C57689F421EBF401C7E
S1132EE096689E4203D0401C0C320828F0D90FF299
S1132EF00022DFF8A06132F910000327C5F30C05A6
S1132F0000F01F02000A06EB800007FA02F2261FF7
S1132F10042ED0F800C02CEA020C42EA0C02026033
S1132F20986840F0020098609A68DFF86C0122F01B
S1132F3002029A601A6938BF42F40032641E240601
S1132F40024004F0F85414432C431C611869DFF860
S1132F504C2120F00050186108799C69CD7B144005
S1132F608A7B04432D0205F4E0652C434D799200DD
S1132F7002F004021443012D06D100280CBF44F4CE
S1132F80006424F4006402E008B144F010049C617D
S1132F901869CA79520302F4005220F40050104315
S1132FA018610A7A487A42EA0042DA62986A40F082
S1132FB0880098629A6A42F440429A62586A4C7B4A
S1132FC00D7B240104F01004DFF8D4206D0105F01A
S1132FD020052C4320435862887A18B15C6A44F077
S1132FE008045C62C87A18B15C6A44F001045C624B
S1132FF0887908B1DFF8AC205C6922435A619A6988
S1133000087C08B142F40022487C08B142F48022D2
S11330109A610020BDE8F0814FF4E13100220160A3
S1133020027142718271C271027242728272C27200
S1133030427302738273C2730274427470471A4AF1
S11330401A485168526A1047174A19489168526AD7
S11330501047154A1748D168526A1047124A164851
S11330601169526A1047104A14485169526A10474C
S11330700D4A13489169526A10470B4A1148D169A5
S1133080526A1047084A1048116A526A10470000F1
S11330903E0AD7A368C00F4000E0FFE0E8F8FFFF56
S11330A000C01FC000C01FE01400002000401840F2
S11330B00080184000C0184000001940004019402A
S11330C00080194000C0194000001A4000000000B0
S11330D0004018400080184000C01840000019400B
S11330E0004019400080194000C0194000001A40F7
S11330F0FFFF18051C000C001801020306031A0543
S11331000E06000078B47D4A7D4B506F4FF6FE7179
S113311040F4700050671C894FF6FE700C407949EA
S11331201C810D8905400D811C88660704D51D8806
S11331304FF6FB7005401D800B885C0704D50D8895
S11331404FF6FB7005400D806F48704941604FF6A3
S1133150FF738360046824F0800444F02004046056
S11331606B480168CB0703D50468640864000460F5
S11331701068810312D4BFF34F8FBFF36F8F002306
S1133180644C2360BFF34F8FBFF36F8F106840F41C
S113319000301060BFF34F8FBFF36F8F1168CB0304
S11331A022D400201067BFF34F8FD16E594EC1F364
S11331B04E3343F6E075C1F3C90405EA431545EA05
S11331C0847030612046441E0028F8D11846431EFE
S11331D00028EED1BFF34F8F106840F480301060A8
S11331E0BFF34F8FBFF36F8F71BC00F0A3B8F0B57E
S11331F0494C4A4A6068810122D5A36813F44053BC
S113320007D0B3F5805F11D0B3F5005F08BF106B32
S11332100EE01069C103106903D5C0F3813038B9D9
S113322004E0810754BF3E483E4802E03E4800E0C7
S113323000206168C1F3C261491CB0FBF1F653E0A0
S11332401068C10307D51068C0F38130002814BF8B
S11332500025354D05E01568334805F07F054543E5
S11332606D08116BC80307D5116BC1F381300028B9
S113327014BF00262C4E04E0106BC1074CBF294E2E
S1133280274E106D2849126E0023A768A1FB000188
S113329000F052F8861917F4402725D0B7F5802F8F
S11332A006D0B7F5002F0DD0B7F5402F14D01AE093
S11332B01E480168C1F30540B6FBF0F000EBC00204
S11332C0560011E0194B186800F03F00B6FBF0F10E
S11332D001EBC1056E0007E0226802F00702521CF0
S11332E0B5FBF2F600E000266068114AC0F38220C4
S11332F0401CB6FBF0F11160F0BD000014ED00E0DD
S113330000800B4000000D4000C00B4020C528D9B0
S113331010E000E050EF00E010C00F4000800D40CE
S113332000389C1C00A4781F00366E0100810D40FB
S1133330000000207047FEE7BBBBE1B1B2F5803F5F
S113334080F07E80022A1ED98C46B1FBF2F102FB8A
S113335011C31B0443EA1043B3FBF2FC02FB1C330E
S113336080B240EA0343B3FBF2F002FB103240EABE
S11333700C4000237047022A05D98446B0FBF2F0C2
S113338002FB10C270474AB105D100F0010249089E
S11333905FEA3000704700220023704700F0E4B871
S11333A00B000200002100207047904271EB030CD7
S11333B0F6D3B3F5803F2FD2F0B5B3FA83F7B1FA61
S11333C081F4A7F10F0E3D1B5340CEF1200602FA03
S11333D00EF2F3415340B5F10F0746D80F3C2C448D
S11333E04140C4F12006A040F1414140B1FBF3F655
S11333F003FB1611A2FB0645001BA94102D2761E4F
S11334008018594180EA010221FA0EF362FA0EF2A1
S113341000215A403046F0BD30B4B1FBF3FC03FB4D
S11334201C11A2FB0C45001BA94103D2ACF1010CF9
S11334308018594130BC02460B4660460021704753
S1133440B2F1807F65D3F0B5B2FA82F7B1FA81F4B4
S1133450C7F10F063D1B22FA06F307F1110EF241E4
S113346020355A40B5F10F07B8D94140C4F12006C0
S1133470A040F1414140B1FBF3FC03FB1C11A2FB52
S11334800C45001BA94103D2BCF1010C8018594121
S11334900F2F12D30F3FC90341EA5041B1FBF3F69A
S11334A003FB1611A2FB0645D4EBC030A94102D29E
S11334B0761E8018594146EACC3C07B34140C7F117
S11334C02006B840F1414140B1FBF3F603FB16116D
S11334D0A2FB0645001BA94102D2761E8018594161
S11334E080EA010221FA0EF3C7F1200462FA0EF217
S11334F00CFA07F05A402CFA04F13043F0BD80EA8C
S1133500010221FA0EF3002162FA0EF260465A40DB
S1133510F0BD8C46B1FBF2F102FB11C31B0243EA7E
S11335201063B3FBF2FC02FB1C331B024CEA0020C9
S113353043EA1063B3FBF2FC02FB1C331B024CEAAC
S1133540002043EA1063B3FBF2FC02FB1C331B02B2
S11335504CEA002043EA1063B3FBF2FC02FB1C328A
S11335604CEA0020002370477047FEE7F8B5054693
S11335700E4614465FF0000042A10A68AA421EBF2C
S1133580401C4B68AB4203D0401C08310A28F4D3DA
S113359046A1144A31F91000032300F01F01000A68
S11335A002EB800003FA01F107688F4339430127D6
S11335B001606A69B740F9430A406A61207818B922
S11335C06B681940696007E062783146284600F06C
S11335D00BF86B681F436F60A27831462846BDE83C
S11335E0F8400FE068C00F400123002A03FA01F1FC
S11335F007BF026822EA0101D0F800C041EA0C01C9
S11336000160704770B4C369012404FA01F5AB4347
S11336101029C36132BF00F10C0300F1100310390B
S1133620521E042A2BD8DFE802F00309131F2700D7
S11336301A68032448008440A2431AE04800196829
S113364003228240844091430C431C6070BC704749
S11336501C68480003258540022101FA00F0AC43B0
S11336602043186070BC70471A68032648008640DF
S113367032431A6070BC7047C1690D43C56170BCA8
S1133680704700000000000000801B4000C01B4089
S113369000001C4000401C4000000C4000000042A0
S11336A0004000420080004200C00042FFFF1A01B7
S11336B01E001A020C031E012349486810B14A680F
S11336C0521E4A607047000038B500BF24A01F4C4A
S11336D00168009100F046F8FEF7D2FE00F076F89B
S11336E0FFF785FD6A4601212046FFF73FFF184892
S11336F0184B0168A1FB0332500A401EB0F1807FD1
S113370020D21549154A4860F020107000238B60C0
S113371007250D600C4D06E0002201212046FFF72D
S113372063FF00202870C821696068680028FCD104
S113373029780029F0D1012201212046FFF754FF06
S11337400120EFE7FEE700003C00002000000C40F1
S113375000000020986E128310E000E023ED00E0EA
S11337600100000000BF06480522016841F2B003D1
S113377041F00C010160034802608361704700005E
S113378078C00F4004800A4010B5164C2068C0F37E
S1133790801068B91448FFF72BFA2168134BA0FB7B
S11337A0033201F03F01491C9208B2FBF1F010BD55
S11337B00F480168CA064EBF0E480F4800682168CA
S11337C001F03F01491CB0FBF1F010BD80B5FFF7DB
S11337D0DBFF034602224FF4E1310848BDE8005004
S11337E000F00EB824C00F400D001000ABAAAAAA26
S11337F070820D4000366E01040000200040184025
S113380018B414460A46214601B010BC00F000B8B2
S11338101CB514461A46009000238DF80410214666
S1133820684600F003F8002016BDFEE778B585B0C1
S11338300C4601790D4E1546317102683260022939
S113384011D16846FFF7E8FB306800942A466946C0
S1133850FFF7FCFA3068816941F4002181618269D3
S113386042F48022826106B070BD00000C0000208A
S113387030B450F8041B79B102684368024408303C
S1133880DC0744BFA9F10104E31852F8045B43F8D0
S1133890045B091FF9D1ECE730BC704772B60548E8
S11338A0054901600A6882F308880448804762B6C3
S11338B00348004708ED00E0002000000531000047
S11338C07539000010B5074979441831064C7C4419
S11338D0163404E00A68081D114488470146A142D1
S11338E0F8D110BD2C0000004C0000004EF68851A9
S11338F0CEF20001086840F470000860BFF34F8FF7
S1133900BFF36F8F4FF00070E1EE100A70470000B4
S113391083F1FFFF400000000400002000000000CD
S113392051FFFFFF04000000FC0100000000002024
S113393000000000FEE700000120C046002801D07E
S1133940FFF7C0FFAFF300800020AFF30080FFF764
S1133950BBFE00F000F800F001B8FEE70746384669
S113396000F002F8FBE7FEE72021090326311820C6
S1133970ABBEF9E7AFF30080FFF7B8FFFFF7DCFF5A
S113398000480047213B000000480047213B00005D
S113399000480047213B000000480047213B00004D
S11339A000480047213B000000480047213B00003D
S11339B000480047213B000000480047213B00002D
S11339C000480047213B000000480047213B00001D
S11339D000480047213B000000480047213B00000D
S11339E000480047213B000000480047213B0000FD
S11339F000480047213B000000480047213B0000ED
S1133A0000480047213B0000004800473F300000C9
S1133A100048004749300000004800475330000088
S1133A20004800475D300000004800476730000050
S1133A300048004771300000004800477B30000018
S1133A40004800478530000000480047213B000043
S1133A5000480047213B000000480047213B00008C
S1133A6000480047213B000000480047213B00007C
S1133A7000480047213B000000480047213B00006C
S1133A8000480047213B000000480047213B00005C
S1133A9000480047213B000000480047213B00004C
S1133AA000480047213B000000480047213B00003C
S1133AB000480047213B000000480047213B00002C
S1133AC000480047213B000000480047213B00001C
S1133AD000480047213B000000480047213B00000C
S1133AE000480047213B000000480047213B0000FC
S1133AF000480047213B000000480047213B0000EC
S1133B0000480047213B000000480047213B0000DB
S1133B1000480047213B000000480047213B0000CB
S10F3B20FFF7FEBF00A4781FFEE7FEE7DD
S90339754E
