S0130000666C6173686C6F616465722E737265638C
S1130400F0540100558B00007B080000296E0000A9
S11304107B0800007B0800007B0800003C0F000004
S11304200000000000000000000000007B08000045
S11304307B080000000000007B0800007B0800002F
S11304400F9E00000F9E00000F9E00000F9E0000F4
S11304500F9E00000F9E00000F9E00000F9E0000E4
S11304600F9E00000F9E00000F9E00000F9E0000D4
S11304700F9E00000F9E00000F9E00000F9E0000C4
S11304800F9E00000F9E00000F9E00000F9E0000B4
S1130490098500007D8B0000858B00008D8B00009A
S11304A0958B00009D8B0000A58B0000AD8B000098
S11304B0B58B0000BD8B0000C58B0000CD8B000008
S11304C0D58B0000DD8B0000E58B0000ED8B000078
S11304D0F58B0000FD8B00000F9E00000F9E0000B6
S11304E00F9E00000F9E00000F9E00000F9E000054
S11304F00F9E00000F9E00000F9E00000F9E000044
S11305000F9E00000F9E00000F9E00000F9E000033
S11305100F9E00000F9E00000F9E00000F9E000023
S11305200F9E00000F9E00000F9E00000F9E000013
S1130530058C00000F9E00000F9E00000F9E00001F
S11305400F9E00000F9E00000F9E00000F9E0000F3
S11305500F9E00000F9E00000F9E00000F9E0000E3
S11305600F9E00000F9E00000F9E00000F9E0000D3
S11305700F9E00000F9E00000F9E00000F9E0000C3
S1130580A91200000F9E00000F9E00000F9E0000A5
S11305900F9E00000F9E00000F9E00000F9E0000A3
S11305A00F9E00000F9E00000D8C0000158C0000B3
S11305B00F9E00000F9E00000F9E00000F9E000083
S11305C00F9E00000F9E00000F9E00000F9E000073
S11305D00F9E00000F9E00000F9E00000F9E000063
S11305E00F9E00000F9E00000F9E00000F9E000053
S11305F01D8C00000F9E0000258C00002D8C000037
S11306000F9E0000519D0000358C00003D8C0000C1
S11306100F9E00000F9E00000F9E00000F9E000022
S11306200F9E00000F9E00000F9E00000F9E000012
S11306300F9E00000F9E00000F9E00000F9E000002
S11306400F9E00000F9E00000F9E00000F9E0000F2
S11306500F9E00000F9E00000F9E00000F9E0000E2
S11306600F9E00000F9E00000F9E00000F9E0000D2
S11306700F9E00000F9E00000F9E00000F9E0000C2
S11306800F9E00000F9E00000F9E00000F9E0000B2
S11306900F9E00000F9E00000F9E00000F9E0000A2
S11306A00F9E00000F9E00000F9E00000F9E000092
S11306B00F9E00000F9E00000F9E00000F9E000082
S11306C00F9E00000F9E00000F9E00000F9E000072
S11306D00F9E00000F9E00000F9E00000F9E000062
S11306E00F9E00000F9E00000F9E00000F9E000052
S11306F00F9E00000F9E00000F9E00000F9E000042
S11307000F9E00000F9E00000F9E00000F9E000031
S11307100F9E00000F9E00000F9E00000F9E000021
S11307200F9E00000F9E00000F9E00000F9E000011
S11307300F9E00000F9E00000F9E00000F9E000001
S11307400F9E00000F9E00000F9E00000F9E0000F1
S11307500F9E00000F9E00000F9E00000F9E0000E1
S11307600F9E00000F9E00000F9E00000F9E0000D1
S11307700F9E00000F9E00000F9E00000F9E0000C1
S11307800F9E00000F9E00000F9E00000F9E0000B1
S11307900F9E00000F9E00000F9E00000F9E0000A1
S11307A00F9E00000F9E00000F9E00000F9E000091
S11307B00F9E00000F9E00000F9E00000F9E000081
S11307C00F9E00000F9E00000F9E00000F9E000071
S11307D00F9E00000F9E00000F9E00000F9E000061
S11307E00F9E00000F9E00000F9E00000F9E000051
S11307F00F9E00000F9E00000F9E0000FFFFFFFFF2
S1130800002A01D101207047F0B41F460346032497
S11308102340002B09D00424E31A0170013008247A
S1130820E141521E26D05B1EF7D1042A1ADB13D0F5
S1130830002F11D00C460D460E46102A02DB72C062
S1130840103AFAE70C2A02DB32C00C3AFAE7082A1B
S113085002DB12C0083AFAE7042A03DB0160043021
S1130860121FF9E7002A05D0017001300824E14184
S1130870521EF7D1F0BC00207047FEE7DD190000DE
S113088000000000F3190000000000002D1B000010
S1130890C71C0000B51A0000CD1B0000A51D0000F8
S11308A00000000000000000000000002B1A0000FF
S11308B000000000031A0000CD1B0000C51D00004D
S11308C000000000231E0000000000009319000037
S11308D0000000005B1A000000000000000000009F
S11308E000000000471E000000000000691E000018
S11308F0000000000000000000000000711A000069
S1130900000000000000000000000000D31A0000F6
S1130910B71B000000000000000000000000000001
S1130920000000000100000001000000931200001C
S1130930400F0000500F0000A40F00001000000042
S11309400100000000000000F40F0000000000009F
S1130950041000000000000000000000000000007F
S11309600000000000000000000000000000000083
S1130970B71DC1046E3B8209D926430DDC760413EE
S11309806B6BC517B24D861A0550471EB8ED082685
S11309900FF0C922D6D68A2F61CB4B2B649B0C3522
S11309A0D386CD310AA08E3CBDBD4F3870DB114CCF
S11309B0C7C6D0481EE09345A9FD5241ACAD155FB2
S11309C01BB0D45BC2969756758B5652C836196ABB
S11309D07F2BD86EA60D9B6311105A6714401D79A6
S11309E0A35DDC7D7A7B9F70CD665E74E0B6239850
S11309F057ABE29C8E8DA191399060953CC0278BBA
S1130A008BDDE68F52FBA582E5E66486585B2BBE40
S1130A10EF46EABA3660A9B7817D68B3842D2FAD5D
S1130A203330EEA9EA16ADA45D0B6CA0906D32D400
S1130A302770F3D0FE56B0DD494B71D94C1B36C735
S1130A40FB06F7C32220B4CE953D75CA28803AF23E
S1130A509F9DFBF646BBB8FBF1A679FFF4F63EE199
S1130A6043EBFFE59ACDBCE82DD07DEC777086345E
S1130A70C06D4730194B043DAE56C539AB068227CD
S1130A801C1B4323C53D002E7220C12ACF9D8E120C
S1130A9078804F16A1A60C1B16BBCD1F13EB8A0141
S1130AA0A4F64B057DD00808CACDC90C07AB9778CE
S1130AB0B0B6567C69901571DE8DD475DBDD936B11
S1130AC06CC0526FB5E6116202FBD066BF469F5EF2
S1130AD0085B5E5AD17D1D576660DC5363309B4DC5
S1130AE0D42D5A490D0B1944BA16D84097C6A5AC53
S1130AF020DB64A8F9FD27A54EE0E6A14BB0A1BF19
S1130B00FCAD60BB258B23B69296E2B22F2BAD8A47
S1130B1098366C8E41102F83F60DEE87F35DA999FC
S1130B204440689D9D662B902A7BEA94E71DB4E0BF
S1130B30500075E4892636E93E3BF7ED3B6BB0F394
S1130B408C7671F7555032FAE24DF3FE5FF0BCC675
S1130B50E8ED7DC231CB3ECF86D6FFCB8386B8D5B8
S1130B60349B79D1EDBD3ADC5AA0FBD8EEE00C6998
S1130B7059FDCD6D80DB8E6037C64F643296087A9E
S1130B80858BC97E5CAD8A73EBB04B77560D044FF1
S1130B90E110C54B383686468F2B47428A7B005C72
S1130BA03D66C158E4408255535D43519E3B1D252B
S1130BB02926DC21F0009F2C471D5E28424D193662
S1130BC0F550D8322C769B3F9B6B5A3B26D61503A7
S1130BD091CBD40748ED970AFFF0560EFAA01110F6
S1130BE04DBDD014949B93192386521D0E562FF19C
S1130BF0B94BEEF5606DADF8D7706CFCD2202BE2EA
S1130C00653DEAE6BC1BA9EB0B0668EFB6BB27D72C
S1130C1001A6E6D3D880A5DE6F9D64DA6ACD23C42D
S1130C20DDD0E2C004F6A1CDB3EB60C97E8D3EBD3C
S1130C30C990FFB910B6BCB4A7AB7DB0A2FB3AAE65
S1130C4015E6FBAACCC0B8A77BDD79A3C660369BAA
S1130C50717DF79FA85BB4921F4675961A16328869
S1130C60AD0BF38C742DB081C330718599908A5D7E
S1130C702E8D4B59F7AB085440B6C95045E68E4EFD
S1130C80F2FB4F4A2BDD0C479CC0CD43217D827B78
S1130C909660437F4F460072F85BC176FD0B866811
S1130CA04A16476C93300461242DC565E94B9B11AA
S1130CB05E565A1587701918306DD81C353D9F0241
S1130CC082205E065B061D0BEC1BDC0F51A69337DE
S1130CD0E6BB52333F9D113E8880D03A8DD0972495
S1130CE03ACD5620E3EB152D54F6D4297926A9C51F
S1130CF0CE3B68C1171D2BCCA000EAC8A550ADD6C9
S1130D00124D6CD2CB6B2FDF7C76EEDBC1CBA1E333
S1130D1076D660E7AFF023EA18EDE2EE1DBDA5F04C
S1130D20AAA064F4738627F9C49BE6FD09FDB8897B
S1130D30BEE0798D67C63A80D0DBFB84D58BBC9A44
S1130D4062967D9EBBB03E930CADFF97B110B0AFE1
S1130D50060D71ABDF2B32A66836F3A26D66B4BC08
S1130D60DA7B75B8035D36B5B440F7B1090000000D
S1130D704326000000000000000000005A04180888
S1130D800830FF2400000000000000005A05180984
S1130D900831FF2500000000000000005A06180A70
S1130DA00832FF26000000000000000000000000E0
S1130DB00000000000000000000000009F04032465
S1130DC00000000000000000000000009F07600712
S1130DD0200B042700000000000000009F876087AC
S1130DE0208B04A700000000000000005A0418082B
S1130DF00830FF2400000000000000005A06180A12
S1130E00FF26000000000000000000005A07180B35
S1130E10FF27000000000000000000005A06188AA6
S1130E20FFA6000000000000000000005A07208B0D
S1130E30FFA70000000000000000000021200000C7
S1130E40092300002D230000AF23000047240000E5
S1130E505125000000000000000000000040184080
S1130E600080184000C0184000001940004019409C
S1130E700080194000C0194000001A4040000000E2
S1130E8040000000800000008000000040000000DE
S1130E90400000008000000000000000800000000E
S1130EA080000000200000006000000040000000FE
S1130EB08000000040000000C000000000000000AE
S1130EC0400000004000000020000000A0000000DE
S1130ED04000000000000000C0000000000100000D
S1130EE040000000C000000020000000400000009E
S1130EF0A00000002000000080000000600000004E
S1130F0020000000A00000004000000000000000DD
S1130F10800000008000000020000000200000008D
S1130F20C000000000000000C000000040000000FD
S1130F3000000000000000000001000000000000AC
S1130F402D840000AB840000C58400000000000074
S1130F5000000000F7840000452E0000952B0000DF
S1130F60ED2B0000D52C0000112D0000212D0000D8
S1130F706D2C00000B350000E19D0000ED9D00008C
S1130F80FD9D0000000000000000000000000000C3
S1130F90358500006585000017860000DD860000A9
S1130FA07C310100CD870000D3870000BD8800009C
S1130FB057890000D187000063890000AD870000D5
S1130FC0697E0000ED7E000000000000ED7E000060
S1130FD000000000857F0000CD7F000000000000BD
S1130FE07B800000B980000013810000578100005D
S1130FF08B810000A9990000B59A00008D9B000028
S1131000E99B0000F79B00001B9C00009F9C0000D4
S1131010379D0000479D00004B9D0000000000002C
S113102038B504465B4D0020A865C5E90E00C5E946
S11310301000C5E91200E865574800F0EDF8C5E96D
S1131040140120460FF2B901BDE8344000F03AB96A
S113105000F04EB9F8B50C464E4EB16D072904BFE9
S1131060F26D904249D1002106EB8102491C53687C
S113107015685B1B0329D361F6D3756AF769726936
S11310803169B369511AB1629A1A64235D43F262F9
S1131090B5FBF7F73C3F0E2F10D2376AB5FBF7F5D7
S11310A0403D052D0AD85943B1FBF2F2813A0A2A90
S11310B03EBFB1FBF7F181390A2902D3FFF7B0FF34
S11310C01BE000F081FA0546C5EB0515D6E90E23B1
S11310D0D6E9100182184FF49666B5FBF2F00A25A2
S11310E00A2368434FF49662B0FBF6F6761D00209F
S11310F0B6FBF3F353432360F2BD0120F2BD0000BD
S11311002DE9F8430746234E00F07CF8D6E912593E
S113111004468846B26DD6E91401521C651B68EB7F
S113112009094945B26505D828BFA84202D201225F
S1131130B26508E0012A06D0042A0AD0052A10D094
S1131140072A11D01AE0C6E90C48C6E90E48F7652B
S113115014E0D6E90E01201A68EB0101C6E90E017C
S11311600CE0C6E9104809E0D6E91001201A68EB42
S11311700101C6E91001384600F0BAF8B26D06EB79
S11311808203D6E90C01271A43F8047CC6E9124805
S1131190BDE8F183001C01008038010010B52F4820
S11311A02F4A0168002341F440510160002010607F
S11311B02C484FF0FF31012201618361C2618469CF
S11311C044F004048461826942F001028261016096
S11311D00121C160816000F0F7F9C0002249B0FB31
S11311E0F1F000B90120214A906010BD1D48002192
S11311F081618160016101601948026842F0020264
S11312000260704781B01A480168426800920098F1
S113121001B0C943C043704714498A68A2FB000166
S1131220C00840EA4170C908704738B50446FFF762
S1131230E9FF00F00BF8241841EBD505FFF7E2FFB6
S1131240A942FBD301D8A042F8D331BD074A936821
S1131250A3FB0445E40844EA457470476CC00F409E
S1131260004008400041084040420F00601C01005B
S1131270E04008400901020002D428488154704724
S1131280274B02F00F021A4402F8041C704700F0C6
S11312905BBA19B1022905D002D3704700F0F8BA3D
S11312A000F0AABA00F0C8BA10B51E4C20680006B7
S11312B006D51D49496819B101208847802121605C
S11312C010BD000010B5184B184C596004220721BA
S11312D02046FFF7DCFF63690121502043F08003BF
S11312E06361FFF7C7FF4FF480301149086010BDF8
S11312F080B54FF480300F490860BFF34F8FBFF3C0
S11313006F8F00215020FFF7B5FF00220721074807
S1131310FFF7BDFF00200449486001BD00E400E080
S113132018ED00E018801B407431010000801B4060
S113133008E100E088E100E0002808BF00F01EB8E2
S11313407047AF48AF4A01684FF0004341F00301D2
S1131350016040201060AC4883634FF0804181639A
S113136000220260A948036843F4C0130360A8483C
S11313700168490849000160012070472DE9F041E6
S1131380A448A5490860A5480469A54B0122006842
S1131390196A640D04F0030402FA04F4C0F3800033
S11313A041F4803119621A6842F480321A60196A71
S11313B021F4805119621A6A002AFCD51D6A994ADF
S11313C0994945F480351D6216694FF4405526F05D
S11313D03F360E4316611D601E68002EFCD51D6845
S11313E0924925F480351D601668914D26F03F36EC
S11313F00E4316608F4E50B16400082C314688BFEE
S11314000824B1FBF4F10122DFF82CC202E02946E2
S1131410F7E7521CB1FBF2F76745FAD2874F521E29
S1131420D7F800E04FEA024C8549A4F101080CF416
S1131430E02C4FEA882801EA0E014CEA010108F485
S1131440E058120248EA010102F440720A433A6089
S11314503969C909C90141F00301396120B17968C9
S113146021F44021796005E07A6822F4402242F4B4
S113147000227A607968734A114041F040617960D2
S1131480BA687149114041F0C74141F00101B960A6
S1131490BA6842F44032BA60396921F4E72141F470
S11314A0843139611A6A22F480321A62196821F48B
S11314B08031196000B13546B5FBF4F0634A106021
S11314C0BDE8F08190E0002A70B518BF012A3DD133
S11314D0544C5F4825680368AD09002A23F0607303
S11314E00CBF0FF2A0120FF2B01279B30A2928BF71
S11314F0012112F8116002EB41014A78554906F0C6
S11315003F0646EA85150E68521ED20502F0607247
S1131510134346F002060E60426E22F440624266B5
S1131520BFF36F8F2668B54218BF256002689342E7
S113153018BF0360436E43F440634366BFF36F8F89
S1131540086820F002000860BFF36F8F70BD2C485C
S1131550016841F4406103E02948016821F44061D5
S11315600160BFF36F8F704730B5384C0023002003
S11315702468324D19B102290AD002D319E0234656
S113158018E02968C1F30121491CB4FBF1F311E00F
S1131590A968244B1968AB682F4C01F03F01B4FBD8
S11315A0F1F512214D43C3F3C251491CB5FBF1F3CC
S11315B000E00420136030BD024604201AB911B1C2
S11315C026480860002070471C48204A016880684B
S11315D01368C1F30121491C00F03F00401CB3FB18
S11315E0F1F1B1FBF0F070471448184900680A683B
S11315F0C0F30120401CB2FBF0F070470000000073
S113160080C00F4014800D4000900D40B0810D400B
S113161040012E4000366E011831010060441F4025
S113162010800D40F0800D401818131823231A0F52
S1131630007B9A1700A4781F0144950814C00F403A
S1131640FFE0F8FFCFFFFFE380FF7F9C98000100DD
S11316501CC00F4000802A4000389C1C406BED07E2
S113166038B504460D4602E00120FFF7DEFD2046B2
S11316702946441E61F10005002908BF0028F3D162
S113168031BD000000002208160818061E041206C8
S11316900E060D050D0416020000180616040C06AD
S11316A01E021203160221010D021601F8B50546A9
S11316B00E4614465FF000003DA151F82020AA42D6
S11316C002D0401C0628F8D3062812D23EA131F9D4
S11316D0100010F1010F0CD000F01F01000A124A93
S11316E002EB8002032000FA01F113688B431943D3
S11316F011600127B7406A69F9430A406A6120789A
S113170018B96B681940696007E062783146284669
S113171000F00CF86B681F436F60A27831462846CE
S1131720BDE8F84010E0000068C00F400123002A23
S113173010B503FA01F107BF026822EA0101046847
S11317402143016010BD0000F0B5C369012404FA0F
S113175001F5AB431029C36132BF00F10C0300F162
S113176010031039490003268E40F743521E042A01
S11317701DD8DFE802F003070D15190018680740AB
S11317801F60F0BD1A688C4017403C431C60F0BDDC
S11317901C68022505FA01F1274039431960F0BDA0
S11317A0186806431E60F0BDC1690D43C561F0BDF4
S11317B00000000000801B4000C01B4000001C40D3
S11317C00000000000000C40FFFF1A011E001A0276
S11317D0FFFF1E0110B5039C01F00701240104F072
S11317E010042143016002B1136010BD009808B1D8
S11317F001990160704700003EB500BF36A302AAFC
S11318001C68072102942F48FFF750FF00212E4C3B
S11318102E4D019100950023002205212046FFF75B
S1131820D9FF49F2B0000095019000230022052160
S11318302046FFF7DBFF37BD2DE9FC41DFF8908040
S1131840244D0026009501960023002202214046E3
S11318501D4EFFF7BFFF1D4F00220192002300978A
S11318600221304647F2B004FFF7B4FF019400238D
S11318700095002202214046FFF7B8FF019400239F
S11318800097002205213046FFF7B0FFBDE8F38141
S1131890E0B500200F4901900023009100220521AA
S11318A00B48FFF797FF094A002300920022019397
S11318B005210548FFF78EFF064841F2B00101609B
S11318C0416007BD00801B40D8801F404C821F40F0
S11318D0D4801F4048821F4000000000DFF88C16AF
S11318E000200A69D36818607047F8B5DFF87C6691
S11318F00024F0698DF800404569002D47D0316916
S1131900C9680F68012F31D06C6801F10802002307
S1131910091DA04704001FBF42F21270844242F224
S113192013718C4233D13069C268916800292ED07A
S1131930546823781D0007D0162B05DA806800EB65
S1131940C305A5F1080000E00020002810631CBFB7
S11319500268002A03D020460024904713E042F294
S113196010741946204600F095FA10E0086B58B13F
S1131970416811B16846884704460CB1002003E071
S11319809DF8000000B101203169CA68106020464A
S1131990F2BD0178002000F07DFADFF8D025D0698F
S11319A041690A699047022000F0EEFABFF34F8FB5
S11319B0DFF8BC15DFF8BC050A6802F4E0620243F4
S11319C00A60BFF34F8F00BFFDE7DFF8A0052421B5
S11319D00269D36803F10C0000F002BB10B50446A1
S11319E06068092802D100F0F7FD00E004202178A6
S11319F06CE0DFF8783570B500F0DEF9AE69B04719
S1131A00D6E110B500F090F8DFF86005626801696E
S1131A10C8680821026180F820102178002000F0B5
S1131A2039FABDE8104001F019B87CB5DFF83C453F
S1131A300022E56801920092816840686B46AE68B6
S1131A4001AAC0B2B04722690021D3681961009A83
S1131A500199920800F024FA73BDDFF8102538B517
S1131A60D36804466068A168DD68C0B2A847E6E1AF
S1131A7038B5044604206168092904BFA06800F051
S1131A80D1FA6168C1F3032101290FD16068694665
S1131A9001F0A4F950B9009DDFF8D0241421936813
S1131AA0A0684D4359190A6913699847217800F0D1
S1131AB0F1F931BD10B500F037F8DFF8B004E26891
S1131AC00169042300F041F821780020BDE81040AA
S1131AD0E0E170B5DFF8945400F026F8296913208A
S1131AE0DFF89464CA6882F820002969E068CA684B
S1131AF082F82100E06838B929691022C8680261B7
S1131B0046612178002054E106F11001304601F0CD
S1131B10B3F92869482106F11002C06801614261E5
S1131B200020BDE87040D6E104464EE710B5FFF74B
S1131B30FBFFDFF83804E2680169032300F005F8CD
S1131B40A1680020BDE81040D3E1C8688261A168A3
S1131B5001616268426180F82030704738B50446FC
S1131B60DFF8085428690021C0684161016190F8D8
S1131B702000042804D129680A69904704B904465E
S1131B8028684169884704B904462869C168204621
S1131B9091F8201000F07EF942F21270844201BFE5
S1131BA02969CA6892F82000082803D1BDE83140A9
S1131BB000F097BF31BDDFF8B4130A69D36893F816
S1131BC02110002908BF00F001B87CE02DE9FE4394
S1131BD000F0E2F811B900F0DBF871E00121012313
S1131BE03170D0F818900569D0F8148000206A4646
S1131BF00090F86901A94469D4F804C0E0470400DE
S1131C000AD0F8694169CA6890472046FFF7A6FFE1
S1131C1000210020317054E0009830B942F2127073
S1131C20FFF79CFF002030704BE0A842396988BF61
S1131C3028460090C86890F82010082912D101990C
S1131C40C160009AC2610099019800F011FF044636
S1131C5042F27D7084421CBF42F274718C4216D1F0
S1131C60002414E0132907D1009A0199404601F099
S1131C706BF9009880440AE03C68019A00994B464D
S1131C804046D4F808C0E0470099044688440098C8
S1131C902D1A05D12046FFF761FF002131700FE0B6
S1131CA04CB1F8694169CA6890472046FFF756FF6E
S1131CB00020307004E03969C9680D61C1F81480EE
S1131CC00020BDE8FE832DE9F84F00F065F811B956
S1131CD000F05EF859E00121DFF8A0A231708269BA
S1131CE000920569D0F81480C46890F820B0F869AF
S1131CF041694A6990478146A94588BFA946ACB164
S1131D004A462146504601F01FF9F869A5EB09043B
S1131D1001234A4651464569D5F808C0E04704B155
S1131D2070B3FFF71BFF002030702EE0BBF1030FF0
S1131D3009EB080419D1D7F800C04046009B52466D
S1131D404946DCF80480C0475FEA000BA046DCD0BB
S1131D50F8690123002251464469A568A8475846FA
S1131D60FFF7FCFE0020307010E0BBF1130F01D030
S1131D70A046CAE74A464146504601F0E5F8F7E76F
S1131D803869C0680461C0F814800020BDE8F28F8F
S1131D90002200203270E1E60646744F3869C068BC
S1131DA001697047714B70B500F006F8EE68B047F2
S1131DB02178BDE870406DE01D680446E268A168C2
S1131DC0606870472DE9F04105466D4F6E68D5F89F
S1131DD00880E8680024386018B101F0EFF800B911
S1131DE00424304601F0D3F800B9042429782046AD
S1131DF000F050F89CB97E60002000F0C5F8C7F8E8
S1131E000880386818B180F3088880F309887968F5
S1131E10404688470020BDE8F04100F0B5B8BDE871
S1131E20F08138B50446606801F0B1F808B90420BF
S1131E3005E06568012000F0A7F8A068A8472178AC
S1131E40BDE8344026E038B5044601F0A8F9A3689B
S1131E50616804F10C024B4801F0DAF9054601F01F
S1131E60A1F921782846EBE73EB500210446CDE9E7
S1131E70001101F094F9A36861686A46414801F0D1
S1131E8025FA054601F08EF9A2686946284600F055
S1131E9042F837BD3EB5002400F031F8A0231EE01F
S1131EA070B5002588B0A7248DF801508DF8004046
S1131EB00026551C01908DF8026000208DF8035017
S1131EC06C4605E004EB800551F82030401CAB6003
S1131ED09042F7D33BE03EB500F010F8B3238DF801
S1131EE000300023029144690C226946A568A84782
S1131EF037BD3EB500F002F8A323F0E701240190BA
S1131F008DF8014002248DF80340184CE069002547
S1131F108DF80250704770B5002588B08DF80150D7
S1131F20AF24002602258DF800408DF802608DF85C
S1131F300350019050B99DF80300029200EB920403
S1131F4003A88DF8034000F0FFFF00E00296074865
S1131F509DF80320C0690023694644699200121D5C
S1131F60A568A84708B070BD00000000100001007B
S1131F700CED00E00400FA0544220100501E0100AB
S1131F809C22010000401F40012870B504461DD06A
S1131F900025114E05E07018C168896801B18847B1
S1131FA06D1C1821694370580028F4D174B901F0EC
S1131FB0F6F8FFF71BF901F001FA00200749086061
S1131FC00120FFF7B9F901F076FA62B6BFF36F8F1B
S1131FD0BFF34F8F70BD00BF2409000008ED00E07F
S1131FE0002201F0DDBA30B4002513E050F8042BD0
S1131FF0D30744BFA9F101039A18091F042942F821
S1132000045BFAD213468C0744BF15809B1CC90796
S113201048BF1D7050F8041B0029E7D130BC70473D
S1132020012070472DE9F84FADF5007D054600F01D
S1132030AEFF00284FF0040B28D005F2FF1000F08B
S1132040A6FF002822D02868DFF8B07607F5836958
S1132050010F0C291BD12A464946002001F09EFF9E
S11320605FEA000B12D100204946387001F0B2FA41
S11320705FEA000B0AD1002003F070FD69461020CE
S113208000F0DFFA002800F0E380834675E0DFF813
S1132090701607F58268884235D13878002800F038
S11320A024814846002603F02BF90546002DCA4634
S11320B007F5BB6440F0DA8000F021F900F09AF9EA
S11320C0002800F0FD80A07A78B100200DF1010312
S11320D0391801F583614A780DF8002009781954FC
S11320E0801CB0F5007FF3D3EA46524600F007F9AE
S11320F000F01CF95FEA000B00F0D78000F0FFF855
S113210000F0DFFADEE00246DFF8F805824206D18D
S11321104FF400722946484600F016FFA3E7100F5B
S11321200E282FD1387840B3284603F0FCFD20B3A5
S1132130284603F001FE5FEA000B1ED101207870EF
S113214000256A4601A9284603F0FDFE90B9DFF890
S1132150B8654FF4007106EB8526304600F04AF965
S113216040B1019A0099304600F0E0F828B900F037
S11321706AF910B96D1C012DE3D958460DF5017D9E
S1132180BDE8F08F0B2860D10420002D1CBF3978E6
S1132190002956D0C2F30361012910D0002950D17F
S11321A0284603F0B1FF18B1002188F8001048E078
S11321B0AA680123C8F8042088F8003041E098F8A0
S11321C0001000293DD02A7812F00F0F39D10021D8
S11321D001200491039104A900F033FA88BB03A9F8
S11321E0102000F02EFA60BB01A9032000F029FAA8
S11321F038BBD8F804B0049D694602A803F0BAFFBE
S11322005D44F0B9009903985944884238BF42F2BA
S1132210D87016D30198401E054218BF42F2DE70F2
S11322200FD10199284600F0E5F810B942F2DB70AD
S113223007E0029A0099284600F078F808B900F0FF
S113224002F95FEA000B98D14FE00020787094E720
S1132250009D6FF02040DFF8B41401224FF0C0431A
S11322608A6345190B634D633A703EE04FF4007284
S113227049466846EA4600F067FED8F8480020F070
S11322800400C8F8480021684908216060684008D3
S113229060602169002049082161494601F09AF9EA
S11322A000283FF409AF01260EE000F0CCF85FEA05
S11322B0000B08D061684FF0C04000F049F901E01C
S11322C042F2DB7B012675B1CA4505D04FF400729A
S11322D05146484600F038FE4946002001F07AF99C
S11322E05FEA000BB3D1002EB1D1787800287FF4D7
S11322F027AF03F003FD0028A9D00120A6E74FF47F
S113230000714FF0C040704710B51346DFF8EC433E
S1132310227812B942F2DD7010BD0A46DFF8EC43B0
S1132320216BBDE81040411A1846DCE12DE9F84361
S11323300546DFF8C87338780C46914618B942F25E
S1132340DD70BDE8F28384B3B87868B9D7F8D815DE
S1132350491E0D4202D044F68960F2E701200021B3
S1132360B870B9607D6004E0B86879680818A8425C
S113237016D1B868D7F8D88549462218424534BFE3
S11323802646A8EB0006384432461030751900F092
S1132390DBFDB868A41BB14430184045B860D2D105
S11323A000F051F80028CED0CBE70020C9E776B57D
S11323B00D460646DFF84413087810B942F2DD7082
S11323C076BDAC08A40005F0030507E001AA0421CA
S11323D03046FFF7ABFF60B9361D241F002CF5D142
S11323E02DB101AA29463046FFF7A0FF08B900F035
S11323F02AF876BD70B5ADF5806D05460C4601E052
S1132400A41B7519DCB14FF48066B4F5806F2846BF
S113241098BF264600F051F901463246684600F05E
S113242062F96846002100E0491CB1EB960FE7D23F
S113243050F8042B12F1010FF6D0002000E0012027
S11324400DF5806D70BD2DE9F843AC4E0024B078D5
S1132450ADF5806D002875D0B470D6F8D845B06855
S1132460A04206D0211A06F11003FF22184403F0FB
S11324709FFE70682146FFF7BDFF18B9B07042F2A5
S1132480DB7060E0D6F8D815706803F036FD40B113
S1132490D6F8D815706806F1100203F09BFD04000D
S11324A050D19A4F746800F07AFE386B06F110032D
S11324B006F58361221A002001F08DF9044600F02C
S11324C071FE0020002CB070B0603BD190480268CF
S11324D0D10313D5D6F8D815726800290EDD02F0A1
S11324E01F004118BFF34F8F8A4B1A6020322039E6
S11324F00029FADCBFF34F8FBFF36F8F00F066F84B
S113250020D1D6F8D85506F11008766803E0A5EB7B
S113251009054E44C844ADB14FF48069B5F5806FE8
S1132520396B684698BFA9464A46711A00F0DBF831
S11325304A464146684603F045FE0028E7D044F683
S11325408A6000E020460DF5806D01B0BDE8F0839F
S113255070B50446694A107810B942F2DD7070BD56
S1132560D2F8DC55684200EA04060C1964420440BF
S11325706442A41B2146304600F0A3F828BB294638
S1132580304603F089FD62480168CA0311D5002D65
S113259031460EDD01F01F004519BFF34F8F5D4A30
S11325A011602031203D002DFADCBFF34F8FBFF3C3
S11325B06F8F00F00BF807D121463046FFF71AFF62
S11325C010B944F68A6070BD002070BD5248C168DD
S11325D00A69506C012870471FB5484C207810B91F
S11325E042F2DD702BE001A9012000F02AF830BB93
S11325F06946102000F025F808BB02A9042000F069
S113260020F8E0B900F0CBFD04F58361002001F06F
S113261038F9044600F0C6FDFFF7D8FF07D100994A
S11326200198FFF7E7FE10B944F68A6007E00CB1A1
S1132630204604E00099019803F02EFD002004B028
S113264010BD002930B52ED02C4A02F5BB6302F52B
S11326508D6460B1012813D0022814D0032817D048
S1132660042818D0052818D0102819D01BE0107899
S1132670002814BF002042F2DD700860002030BD45
S11326804FF0C040F9E700F010F8AD0A0D60F5E72F
S11326901B680B60F2E75868EFE7186918B1ECE7BC
S11326A000F003F8F2E7042030BD25686368A268EF
S11326B0E0685D19551945197047144A116B401AA1
S11326C0704738B50C46FFF7F8FF054600F067FD84
S11326D023462A461149002002F09FFC044600F0DC
S11326E061FD204632BD80B500920B4602460B497F
S11326F0002002F0CEFC02BD00000000002B01000F
S11327000F0000F046434642000400604800010008
S113271014ED00E05CEF00E010000100182F010050
S1132720416882688A4209D2891A826641600FF23E
S1132730A1210160012282600020704742F278707A
S113274070470FF2090101600020704710B5416A1B
S1132750DFF818444A898282CB689B1E43604A682A
S1132760A24202D1097A022902DB42F2757010BD3D
S11327700FF209020260002010BD0000416A4368A4
S11327804A6882610A68D21E9A42826002D342F287
S1132790767070470989002908BFFFF7C1BF42F26C
S11327A077707047F8B50446DFF8C463B4F85A305C
S11327B0376804F15C05626A6968D7F808C01806CE
S11327C0000F1B0A43EA00232868E047A0B93068D9
S11327D00169884780B9616A102204F11C0003F082
S11327E007FD00F045F80098A968884200D044E04D
S11327F00FF2DD1020600020F2BDF8B5044610226F
S1132800616A04F11C00DFF8686304F15C0503F0FD
S1132810EFFCB4F85A303768626A10211806000FCA
S11328201B0AD7F808C043EA00232868E047F0B938
S1132830286810302860686810381028686088BFDD
S1132840DFF8300311D818B1DFF82C1321600DE044
S113285030680269904750B900F00AF80098A968F6
S1132860884200D009E00FF2691020600020F2BD18
S1132870694604F11C0003F0D0BC42F27A70F2BD48
S113288010B5044604F11C0003F0ACFC216E1129C0
S113289027BFB8482060B84A2260002010BD38B570
S11328A0B34B426E1C68016EC06DE568A84732BD2B
S11328B0B0F85A2013061B0F110AD20741EA03216C
S11328C04CBF08230423042901D00420704700F1DD
S11328D06002C16DA94800F09BBC70B5044642F289
S11328E07F76E56D284600F052FB80B1606E04F1FE
S11328F01801A8470646012E03D12046BDE87040C2
S11329000EE7022E03D100F0A9F8002070BD304676
S113291070BD10B5436800F15C02516881608B4260
S113292002D242F2767010BD147AE30707D512681A
S11329308469A24203D111B1C160002010BD90F896
S11329405A10CA0702D542F27C7010BDBDE810408F
S1132950E6E638B5B0F85A108A070CD40B061B0FFC
S11329600A0AC90742EA032207D5092A03D1BDE8A6
S11329703140FFF731BE042032BD7D4B5C301C6812
S113298041680068A569A84732BD00001CB504462B
S1132990B4F85A000106090F000A40EA0120092888
S11329A003D1E06DFFF73EFB16BD01290ED1694648
S11329B000F014FA58B9E06D009C6D4A1421936834
S11329C04C4319190A691369984716BD042016BDAA
S11329D0F8B5044604F15806616A304610225A25B7
S11329E000F0B2FA0120375C401CED191028FAD32C
S11329F0307805F0FF05A84202D042F27970F2BDAA
S1132A00717842F212700A2925D8DFE801F01A061B
S1132A100A0E26121A16261C20002046BDE8F24093
S1132A2077E72046BDE8F2402AE72046BDE8F240B9
S1132A3035E72046BDE8F2404FE72046BDE8F240C6
S1132A4087E70020F2BD2046BDE8F2409EE720461D
S1132A50BDE8F2402CE742F27B70F2BD10B5484C61
S1132A6070212046FFF7BCFA464A0020226010BDC0
S1132A70F8B506460C4600200027434DA74218D05F
S1132A802969E01BC1F1100109E080B12B69F25DF5
S1132A907F1C491E401EEA542A69521C2A610029DF
S1132AA0F3D10020286100F005F810B9E6E742F2FE
S1132AB07D70F2BD80B53248334A4262C26800215B
S1132AC02AB1036993420AD05B1C036101E0826E60
S1132AD01AB901688847014601E0521E8266084619
S1132AE002BDF8B5224C20680169884700283CD112
S1132AF0234F97F85900042823D107F15C052E6869
S1132B00304600F044FAC8B10020FFF73DFA97F8C8
S1132B105A00810710D568686861616860B10A6805
S1132B20904222BF4968491C814201D20420F2BD6F
S1132B3080F3088880F30988A868B04742F27E7061
S1132B40F2BD08280FD10220FFF71EFABFF34F8F02
S1132B500E490F480A6802F4E06202430A60BFF3B8
S1132B604F8F00BFFDE742F27B70F2BD53544D50CE
S1132B7010000100FB270000A527000000401F40B3
S1132B805032010043270000C43201000CED00E084
S1132B900400FA057CB50C00164605461A4601D118
S1132BA0002076BD100A10F00F0002D001280AD0D0
S1132BB019E06A46284600F0BBF8B0B900F0A2F864
S1132BC06568A84776BD6B46284600F0D5F860B91D
S1132BD00098A74A03692846996951605B683246A0
S1132BE02146984776BD42F2D87076BDF8B50C0000
S1132BF0174606461A4601D10020F2BD100A10F00D
S1132C000F009B4D02D0012816D02CE0304600F076
S1132C10FAF840BB6A462146304600F089F820BBEA
S1132C20009B214630463A46DC68A668B047B8B9EE
S1132C300099CA68136911E06B46304600F09CF8AD
S1132C4098B900983A4603693046996969609B6867
S1132C502146984720B900990A6953692B60F2BD4F
S1132C6000212960F2BD42F2D870F2BD7CB5130A8E
S1132C7013F00F0305460C4642F2D87602D0012B1E
S1132C8014D025E06A4600F053F8F0B90099CA68F8
S1132C90506998B12146284600F0B5F8C0B9009AA9
S1132CA021462846D3685C69A04776BD6B4600F090
S1132CB063F850B900980169CA6812B942F2E57024
S1132CC076BD21462846904776BD14B9002076BDCE
S1132CD0304676BD7CB50C000546164601D1002071
S1132CE076BD00F090F810B142F2D87076BD6A4615
S1132CF02146284600F01CF818B900F003F8E568EE
S1132D00A84776BD009B214628463246DC687047BA
S1132D1010B5574C206810B180470021216010BDC8
S1132D2010B5534C606810B180470021616010BD3C
S1132D30F0B516000D4642F2D8771FBF4D494A68D8
S1132D403260002D16D001E01033336033688BB14C
S1132D501A68002A04BF5C68002C01D1D96849B103
S1132D60904224BF59688142EED32818401E814204
S1132D7028BF00273846F0BD002B42F2D87CF0B5BE
S1132D80064617461FBF3B4882681A60002923D0B5
S1132D9002E005F114041C601D68EDB12A68002AE4
S1132DA004BF6C68002C07D1A868002804BFEC6835
S1132DB0002C01D1286978B19742EAD1AA68E86861
S1132DC00027A0FB0245701847EB07018D4203D38F
S1132DD001D8844200D3BC466046F0BD70B50546B8
S1132DE00420002671B1234A946801E0761C14344F
S1132DF044B1236833B12269002A03D09D42F5D13E
S1132E000E60002070BDF0B509181A4B491E00224F
S1132E105F68DC68256905EBC20606F170041601DB
S1132E20BD5966682468AC4208BFAE4203D08642EE
S1132E3028BFA14204D2521C012AEAD90020F0BDC5
S1132E400120F0BD70B50B4D6E6803E0006800B161
S1132E5080471036F0680028F8D1AD6803E00968AF
S1132E6001B18847143529690029F8D162BD0000F1
S1132E705831010010000100F0B5064604240D4647
S1132E80002EA3B018BF002D56D03821284603F0D9
S1132E90DBF938224323AA708120EB706621287065
S1132EA000205522E871102329716A710EA8AB71B4
S1132EB003F0E6F904003FD10020214F8DF83B00D8
S1132EC00EA9384603F0E6FA040035D1102205F1C4
S1132ED00801384603F0A0FB04002DD10D210AA8F7
S1132EE0FFF77EF806A803F0E7FB05F1080180224E
S1132EF006A803F0F5FB102005F1280105F11802DE
S1132F000023059006A80491102103920AAA0193B4
S1132F1000930D23029603F0C1FE0A49802206A8FD
S1132F2003F0DEFB102005F10803009005F1080210
S1132F30012106A803F01CFD204623B0F0BD00BF0C
S1132F4000C00C40AB89DCFE4AB1000011F8013B23
S1132F50521E00F8013B1CBF11F8013BF8E7704713
S1132F6038B504460D460020FFF70EF873480021DB
S1132F704460734A1160056085F3088885F3098805
S1132F80406880470020BDE83240FEF7FDBF0028BE
S1132F901CB51EBF10F1010F6A49884201D10020FF
S1132FA016BD6A4602210024FFF7C2FE20B900982C
S1132FB0017ACA0748BF0124204616BD10B502464F
S1132FC0614900204B6800E01033D96861B11C7A74
S1132FD004F01104112CF7D119689142F4D25C6801
S1132FE0641C9442F0D3012010BD2DE9FE4F00F083
S1132FF0D5F800F05EFA0020534EFEF79DF9FEF777
S1133000CDF83068DFF844914C4601688847F2688F
S113301050688047F1680A6902F1800509E0297C5B
S1133020014205D0E2686069536881692046984787
S1133030183420680028F2D14FF47A700024FEF787
S1133040EBF882468B46CDE90044A04600F016FA20
S113305098BBFFF79CFF80B3F068016991F89E204C
S1133060D00703D400210020FFF77AFF688A4FF6C7
S1133070FF71884208BF41F28830AAFB00230BFB92
S11330800033CDE90023FEF7BDF804468846DDE9A8
S11330900001002908BF00280FD0FEF7B3F8001B79
S11330A061EB0801DDE90023994206D301D890427F
S11330B003D300210020FFF753FF4F4600E01837E9
S11330C038680028E3D0297C0142F8D0FB683846F0
S11330D0D3F800C0E0470028F1D0002FD7D00BE090
S11330E0297C014218BF4F4504D0D9F80C3048461A
S11330F09968884709F11809D9F800000028EFD128
S1133100F7613846016900291EBF0968002988470C
S1133110F269506900281FBF0168002910468847DA
S1133120306901688847F469306941688847E26812
S1133130D1680029F8D020468847F5E7D424010057
S113314008ED00E0558B0000100001002409000088
S1133150704700000A0018BF01220260704738B5AA
S113316000F011F82168491C2160286803F0D3FDA0
S113317020680028FCD1012032BD38B500F003F8E6
S11331802168491E04E00446084D284603F0BEBDEC
S113319021602868BDE8324003F0BDBD7047034894
S11331A003F0B4BD0148006803F0B5BD443101002B
S11331B02DE9F041FEF786F980467B4C1127204625
S11331C000212246E7FB08010023784F002503F085
S11331D0A5FD401E4600786042F21072744800213A
S11331E0E2FB08012246002303F098FD2522301853
S11331F0E2FB0845401CB8606B4A00232046294680
S113320003F08CFD3618761CFE600020BDE8F081CA
S11332102DE9F04104460E4615460BB9002053E053
S1133220042B02D1B009800101D004204CE05F4F8F
S1133230387830B92046FFF7BBFF002844D101207D
S113324038706421204600F077F800283CD14FF410
S1133250007806F03F06C4F808802069000C0004DA
S1133260206121697868BA68000300F47040C2F3F1
S11332700B02104301434F4821614F49A1600643AB
S113328066602A6822626421204600F055F8D8B9A5
S11332902068810548BF44F6E96015D464212046BE
S11332A044F6EA6500F048F868B9C4F80880204696
S11332B000F067F84FF4806064216060204600F0FD
S11332C03BF800B900252846BDE8F081F8B505466D
S11332D00E46144673B3042B02D1B009800101D009
S11332E00420F2BD314F387828B92846FFF760FF33
S11332F008BB012038706421284600F01DF8D0B9BD
S11333004FF4007006F03F06A860284600F039F834
S11333103F210120A96064216E602863284600F0E3
S11333200BF840B92868810502D544F6E860F2BD7F
S1133330286C20600020F2BD2DE9F04782460F463C
S11333404FF47A700026FDF767FFA0FB078901FBA5
S11333500799FDF757FF04460D46DAF80010C80533
S11333600CD5002FF9D0FDF74DFF001BA9414945AD
S1133370F3D301D84045F0D344F6EB663046BDE8BC
S1133380F08701696FF315310161084902694B68DF
S1133390C9681B0303F47043090401F47C110B4353
S11333A01A4302617047000000CA9A3BF02A0100E8
S11333B00065CD1D0000773E3F00FFFF0A484FF037
S11333C0FF31016041608160C160016141618161DF
S11333D0C1610648016041608160C1600161416171
S11333E08161C1617047000080E100E080E200E09B
S11333F000F01F02000A584B914003EB800310B504
S1133400032494401868A0430143196010BD2DE9BA
S1133410F041884641F2F10640463746354608F108
S1133420500401F074FF10B126696769A56920682A
S1133430B0B14A480121416149494E6111224260BB
S1133440484A4F600123136183608D6013600361F8
S11334500D615360C360CD60936003600D60D36001
S113346098F84600002188F80C100428A4BF032112
S113347088F84610BDE8F0813B487047002070474B
S113348001460420002900D1704710B5087B0328A9
S11334900CD101F1780291F840104B0602D51324A7
S11334A0147003E0507808B926211170002010BD73
S11334B07047032100E000214FF4C06098E72B49D6
S11334C008600020704729490A680260002070479C
S11334D027480168006A10F0020018BF01207047F5
S11334E091B1026CC90001F0380142F0200202647B
S11334F041F4983241F4805142F0C10241F0C101DB
S1133500C266416681660266704730B519490C206F
S11335100A68194BC2F303414143194448680A68D5
S1133520896880029202890200B9012002B901224D
S113353001B90121401E114B58606FF060408218A0
S113354000245A610E4A1C604FF000550D4C51186E
S11335501D611C62596230BD68C00F40FC801F4071
S113356070821F4068831F40002D310128800F4066
S113357040441F40D0461F407C0E0000480001001C
S1133580FFFF1F200000202080B534224FF470710B
S1133590FFF7DAFC002002BD62F30F2262F31F4240
S11335A000B500BF130096469446103928BFA0E822
S11335B00C50FAD85FEA417C28BF0CC048BF40F8E1
S11335C0042BC90728BF20F8022B48BF00F8012BA1
S11335D000BD000070B505460E4602F03BF804003D
S11335E00BD1012306F180020021284602F0A1F943
S11335F0707C012804BF00213174204670BDF0B5F1
S11336000F260F24054689B0029601EB041600200C
S11336108DF810208DF800000127019301230397F2
S113362006F180020121284602F083F902976946D7
S113363000F0CEF909B0F0BDF0B589B004460D46EE
S113364016461F4600F01BF8B8B98DF800000E208E
S113365005EB00110E22029201230393204601F18F
S113366080028DF810600197012102F062F90120B7
S113367069460290204602F08AF909B0F0BD2DE9AE
S1133680F843804684B00C4616461F4604202CB3EB
S113369004F5E675687818B14046FFF7B0FFE8B95D
S11336A0287804F1B00902280AD1694699E80D1076
S11336B081E80D1004F1C00090E80E1089E80E10A6
S11336C03B4632462146404601F096FF29780229BE
S11336D004D16A4692E83A0089E83A0005B0BDE8A8
S11336E0F083F8B50C4684B00421ECB194F8CC1105
S11336F004F1900502290AD16E4695E8825086E8C5
S1133700825004F1A00191E8C05085E8C0502146E0
S113371002F02EFA014694F8CC01022804D16A463C
S113372092E8590085E85900084605B0F0BD2DE936
S1133730FE435FEA0108814615464AD0012D48D868
S113374008F5E4763078002843D008F1400748466D
S11337503C6802F0FDF93178A40904F0010465B96C
S113376039B122464846FDF7AEFE4146484601F0CF
S1133770D5FDB07988B101210CE041B1B979224677
S11337804846FDF7A0FE4146484601F0C7FDB07922
S113379018B10021484602F081FA6A4602214846DF
S11337A0FDF7E2FE14B100984008009001AA002140
S11337B04846FDF7D9FE0199009A0A20B1FBF2F1BF
S11337C0491C4143890800E000BF0846411E002807
S11337D0FAD1BDE8F7832DE9F0430546894689B05F
S11337E017461E46484601F08BFD80460022494696
S11337F000F04BF900F040F8FFF741FF040031D12D
S1133800022109238DF8001001220293039299F8F2
S1133810471009F5C87200291CBF1078002803D08E
S1133820517802911378039301978DF810800596CF
S1133830116B0691029809EB0011039B00F0CFF87D
S113384000F0C3F804000DD100F016F8FFF749FFAB
S1133850040007D199F8CF0120B100F00DF8FFF76B
S1133860EBFE0446284602F079F90122494600F0AD
S11338700CF9204601F03CBC3B46424649462846EA
S113388070472DE9F04F89B0002601220B238946A9
S11338908DF800600392804602938DF8106099F8C9
S11338A0471000291EBF09F5CA710878002800F0E6
S11338B086F8029FDDF80CA000224946404609F133
S11338C0500BFFF734FF002004245BF8045BBDB108
S11338D03346002249464046FFF7D1FE98B909EB2A
S11338E0071001965346012100F18002404602F080
S11338F020F8012140460291694602F048F810B9C7
S1133900AE19641EE1D1040046461ED1002709F118
S1133910500A04255AF8048BB8F1000F12D03B4624
S1133920002249463046FFF7DCFE04000DD199F829
S1133930CF0138B13B46002249463046FFF77CFEB2
S1133940040002D16D1E4744E4D1304602F006F96A
S1133950012249463046FFF7EAFE204609B0BDE899
S1133960F08F2DE9F84105460E4689B000F023F8A2
S113397000F088F800F076F804001BD1002201233F
S1133980052400F074F81EBF06F5C67108780028F7
S113399000F015F800F01FF800F017F8040009D142
S11339A000F05BF8040005D196F8CF0110B100F0E7
S11339B04FF8044642E01746304601F0A1BC03D05C
S11339C04A7802920978039170470120694602906F
S11339D0284601F0DCBF0298039B06EB0011284641
S11339E001F18002012101F0A4BF2DE9F84105464F
S11339F00E4689B0FFF7DFFF00F044F800F032F81C
S1133A0004001BD100220123082400F030F81EBF5B
S1133A1006F5CE7108780028FFF7D1FFFFF7DBFF2A
S1133A20FFF7D3FF040009D100F017F8040005D113
S1133A3096F8CF0110B100F00BF80446284602F0C6
S1133A408DF8012200F020F820460AB0BDE8F0818C
S1133A503B46424631462846EEE53B464246314621
S1133A6028463EE63B4642463146284607E601974D
S1133A708DF80020039302948DF8108096F8471077
S1133A800029704780460022314628464FE6F0B5AB
S1133A90054689B00E4614461F46042084B12421ED
S1133AA06846FEF79DFA032201238DF8002069463B
S1133AB002932846039307940897019601F067FF41
S1133AC009B0F0BD2DE9F04305460C46E068164602
S1133AD04FF0010905F15002002847BFC01E09FA42
S1133AE000FC401C4FEAD00C04211068002804D1CB
S1133AF0121D491EF9D104206FE0FCD0C2F800C0A9
S1133B00616805F5E07C4FF48070402908D3216B8F
S1133B10C1F3031109FA01F1B1F5004F18BF0846CA
S1133B20CCF800006FF07F4E4FF000080025002114
S1133B30002704EB470090F8240058B109FA00F07C
S1133B4070453CBF8646394680453EBFB0F5801F70
S1133B5080463D467F1C042FEBD3C645CCF804E0D9
S1133B60CCF810800EBF8CF8099000208CF8090066
S1133B701268DFF8C803824225D394F8580038B19C
S1133B8004F160026034515C3160605D186023E0D0
S1133B9004F1250010F81110202904D0D82904BFFD
S1133BA0DC22326001E02120306004F1250111F8AB
S1133BB01500202802D0D82803D00DE021221A6055
S1133BC00AE0DC2107E004F12500253410F8112077
S1133BD0326014F8151019600020BDE8F0832DE957
S1133BE0F84F0D0096B0144608BF4FF0040868D093
S1133BF0834608236A460021FFF749FF5FEA00086D
S1133C005FD10098CE49884218BF44F68B6858D1DA
S1133C109DF8040028609DF806707F1C0A2F88BF59
S1133C200A2708210CB14FF40061FB0002AA584690
S1133C30FFF72DFF5FEA000843D164212846FEF711
S1133C40CFF94FF0000A4FF6847904E0012085F89B
S1133C5058000AF1010ABA4533D202A901EBCA009D
S1133C600278C37902EB0322B2F57F4F18BF4A45AD
S1133C70EFD100210223C6185B1E367946EA0121E2
S1133C80F9D5C678B60004B10902B2F57F4F0DD15B
S1133C90502E05F10802584688BF50263346FFF7D8
S1133CA0F6FE5FEA00080CD16E60D2E74A45D0D137
S1133CB0334605F15C025846FFF7E9FE5FEA000867
S1133CC0C4D0404617B0BDE8F08FF0B5490089B0C4
S1133CD003250191002601278DF8005069460296BC
S1133CE003978DF810600792089301F050FE0AB014
S1133CF0E0BD490060B589B002250191002101268B
S1133D008DF810108DF800506946029603960592BE
S1133D10069301F03CFE09B060BD00002DE9F847B0
S1133D2005460C4687B00320E07304F145000821E2
S1133D30582301700326236426731AB1216C41F0C1
S1133D4001012164012204F1500682700F20012137
S1133D50B085F18504F5C2774FF400724FF48020EA
S1133D60FA6304F2C9183864C4F8D001284688F804
S1133D7000102146FFF72EFC00285FD100F008F95F
S1133D800DF10C0A80E80E106E496F4A039101236D
S1133D90CAF8042003AA0121284601F0CAFD00F054
S1133DA0F7F8DFF8A89180E80E106949CDF80C9077
S1133DB0CAF80410012303AA0021284601F0B9FD22
S1133DC072A102A80A680223026002AA40F25551B5
S1133DD02846FFF78EFF002830D108236A461021B9
S1133DE02846FFF772FF002828D10098594A019904
S1133DF0904289B2019108BFB1F5B24F40F09A8068
S1133E0008236A4627212846FFF75FFF002815D1BB
S1133E100098C0F30720A0F117010A29009080F050
S1133E2089800122824032604FF470410291022362
S1133E3002AA00212846FFF75CFF002877D14649F3
S1133E404AF20475DFF814C17163B5634FF087213A
S1133E50C6F84CC0424AB565424BDFF80CE1434D0D
S1133E60DFF80CC1C6F854E0DFF808E1C6F830907A
S1133E70316448F2307A7264B364C6F85090DFF863
S1133E80F89031667266B366F26631677567C6F894
S1133E9078C0F56704F1D006C6F84CE0DFF8DCE042
S1133EA0C6F850E004F5A874C6F85490DFF8D09032
S1133EB0C6F830E0DFF8CCE031647264B36431609A
S1133EC07260B360C6F80C9031617261B361F261E3
S1133ED031627562C6F828C0F562C6F834E0C6F8E7
S1133EE038A031667266B366C6F86C903167726743
S1133EF0B367F26721602161234962610222656030
S1133F00C4F808C0E560A3610323E16104213A71A8
S1133F1001247B7109233A703A730522397239748A
S1133F200B217C707B737A72797488F8034008B033
S1133F30BDE8F08744F68D60F9E700000100000158
S1133F40534644502087188B108F02A3A087188BE8
S1133F50108F04A700510052108F0CB30087708794
S1133F600087AA8700870587108F0BB700875587BE
S1133F70008702870087A087108F80A30087188B93
S1133F8000878087108F00870087108700980000C3
S1133F90002103A8002200238C4670472DE9F04F2E
S1133FA00E460424B5B0002E82461CBF0092002A9F
S1133FB000F0CF874FF400713046FEF711F806F198
S1133FC0300701224FF08075BA753D62DFF8900C1E
S1133FD03060DFF8901C7160032272730120B273A9
S1133FE006F5E071087200F0FBFF31DD00984168CE
S1133FF0C1F30340012803D1386940F4807038616B
S113400000984168C1F3036020B1C1F303613046F5
S1134010FFF766FA009A5068000F19D01168C1F3CF
S11340200350002818BF01280ED15168090F012937
S113403005D0022902BF00213962BD6208E0386957
S113404040F00400386103E0516821F07041516090
S1134050009806F5807806F180094FF00425006881
S1134060010D01F00F01092945D8DFE811F00A001C
S11340700A006F03710378037803F104F104FD056A
S1134080FD05C0F30340002835D17C75DFF8081D19
S1134090C9F80010DFF8042DC9F8042000F09CFFD3
S11340A0040028D100980168C1F30310012811D13C
S11340B06FF0F92240F2FF61C8F870200023C8F8BD
S11340C074200022C8F8781031465046FFF797FA5A
S11340D0040010D10099DFF8C80C01230A68C2F368
S11340E0034100EB011200F08DFF00221CA9504691
S11340F0FFF775FD040040F0158700990020049037
S113410004240868C0F30350012806D11E99C90C81
S113411011F00101049100F0058300218B463173F5
S113412000981821002502AB0278304602F00F02F5
S1134130BA7503AA06911CA90595FFF7C3FCDFF81D
S1134140640C1290396A814224BF202006900098A2
S11341500168C1F30330002840F0E48207A800F0AE
S113416055FF1C9904291FD81D9840281CD200987B
S11341700168C1F30324002C2DD0149301AB1A93CE
S11341800121631E01928DF85C200322032B8DF81C
S11341904C201B911591169125D8DFE803F01D21C1
S11341A00221DFF8DC2C19E0012131742C98000D78
S11341B000F00700401E05280CD8DFE800F00905D0
S11341C0030909070324D8E70124D6E70424D4E724
S11341D00224D2E732745EE0DFF8A82C079202E0F2
S11341E0DFF8A41C0791012307AA0121504601F01E
S11341F0A0FB13A9504601F0CAFB00284CD100F0E3
S1134200EFFE1FBF00984168C1F30720002818BFC4
S1134210019035740198641E032C00F002003AD812
S1134220DFE804F02319020D0198010633D4DFF806
S11342302C2DC9F84020019840F0800021E050BBAB
S1134240DFF81C0DC9F840000199012041F002017A
S11342500191307418E0F0B9DFF81C1DC9F8401062
S11342600198000240F400700BE00198410612D45A
S1134270DFF8082DC9F84020019800F0C30040F091
S113428040000190012131740120042230757275BF
S11342900199B16170740020040040F043821E98BB
S11342A0C0F3405050B19DF880504FF000712098F9
S11342B00591C0F3421B05F01F0509E01E98C0F3E9
S11342C0805028B12098410D01F0070BC0F304453C
S11342D0069932A8079020291DD19DF8C80088B1FD
S11342E0079842F204214268C2F3002010B1DFF8BB
S11342F0900C04E0C2F3C01020B1DFF8880CC8F8B9
S113430010000EE0DFF8801C42F20400C8F8101020
S1134310C8F8140007E0DFF8742C42F20401C8F86E
S11343201020C8F81410012040F206423073DFF860
S1134330601CC9F830204FF48C62C9F8101006983C
S1134340039900040190019800F03AFEC9F8501056
S113435002990198C8F8302000F032FEC8F8001025
S1134360DFF8301C009811910168C1F3036060B15B
S113437000984068010608D000F0FF0504984FF04B
S1134380000B00284CD06D004AE00498002847D068
S11343900699202907D1DFF8000CDFF8002AC9F8B4
S11343A00000C9F8042000F017FE040034D14FF4D3
S11343B000710022099103238DF8302010210A9204
S11343C001220B9213AC8DF82030012310914A4640
S11343D00F9400F017FE012008A90A90504601F03E
S11343E0D6FAB0B9139810F1010F02BF13A84168AF
S11343F011F1010F07D1826812F1010F04BFC068E7
S113440010F1010F1ED000F0CDFD002852D000E0C5
S11344101B9D44F68E64002C40F084814FF0000B09
S1134420069A1E990498182A40F08C8000287BD0A4
S1134430ED213A6942F040023A610198014341F0AA
S11344400A41A8E00023002231465046FFF717F93D
S11344500028DED1092002220A9010218DF82020A4
S11344600B9B0A980FF648340E9109EB00120D9439
S113447000F0C8FD012150460A9108A901F087FA0D
S11344800028C6D1002300223146504601F070FBBB
S11344900028BED110210A90032213AB109100F022
S11344A0AAFD0028B5D1102213A9204601F08AFEE6
S11344B00028AED13869B97D01224FF0020B40F0DB
S11344C0400038615046FCF7FEFF1B95322501E0A1
S11344D00BF1010B6D1E9BD017A800F097FD396AF4
S11344E0129A91420BF0FF0227BFDFF8B03A1793FC
S11344F0DFF8AC1A179111980123002102435046AA
S1134500189217AA01F015FA1021032213AB109187
S11345100A9400F070FD04007FF47AAF00F042FDCD
S11345200028D5D15D4676E7C1F3405010B12099FB
S1134530090A29E0C1F3805010B12099090E23E043
S113454003211FE008B1EE2173E79DF8C80070B1A4
S113455007984168C1F3401018B1EC214FF0007284
S113456013E0C1F3001060B16C2100220DE0C1F32F
S1134570405008B1EC2107E0C1F3805008B16C2130
S113458002E013210025AB46059A0198C9B2014304
S1134590114341F0006141F48061C9F800100098B2
S11345A000210268C2F30310002809D0012876D143
S11345B01D984028C0F082802C98C0F34020002829
S11345C07CD02C98000C10F0050F18BFA52141D108
S11345D080073FD512AA00200023002482E81B0094
S11345E0089303228DF81C2001AB8DF82C40DFF8D2
S11345F04C2C0E93012401910123129212AA0F94C0
S11346000121099450460A9301F093F907A95046F1
S113461001F0BDF904001AD10198012106F5E073F7
S113462000F0F700019031740198000400F47F0059
S113463040F0042040F08100C8F860000E2031757D
S113464004217075019AB26101207174D873002C31
S113465068D101212C98800A10F00A0F0DD06FF058
S1134660F920C8F87000C8F874000698202811D101
S113467040F2FF62C8F878200CE010F0110F51D01E
S11346804FF00620C8F87000C8F87400DFF8B00BCB
S1134690C8F87800012206F5E0735A7302E0052891
S11346A008BF3173BBF1000F09D0BBF1010F06BF86
S11346B04FF4C05009094FF4E05015E05D4475B162
S11346C0049805F0FF0520B111990D43C9F8045071
S11346D01BE0DFF8700B0543C9F804501DE042F2FB
S11346E00441C9F804100EE02D04014305F47F05CC
S11346F00D4345F0485545F4007542F20461C9F88C
S11347000450C9F80810049838B1012106F5E07284
S11347109173386940F0400038613969002441F0F0
S113472010013961002C10D1FFF746F900280CD094
S1134730386AB86206F5E0700168426849000160B1
S113474001695200426049000161EBE3012200E08B
S1134750002231465046FFF7E1FA0446E2E3C0F393
S113476003500528009801680CBF4FF0010B4FF06F
S1134770000BC1F30330009901900A68C2F30340AF
S113478002900198002818BF032805D1029820B18F
S1134790032801D1019888B9C4E303A8FEF793FE66
S11347A000F0E0FB1CB900F013FC0400F4D100207D
S11347B010213073032239610E920DE00320102181
S11347C03073396100980168C1F30350042804BFB1
S11347D050223A6106210E910198029908430198EA
S11347E008BF4FF0010B032807BF0821797501208A
S11347F0787500F0F1FB0400CED1029820B1BBF132
S1134800000F14BF10202020DFF83C1A01230A18DF
S113481001215046012401F08CF800200323079065
S113482004AA8DF8280006A98DF81830504608947B
S113483009940D9201F0ABF8040004BF9DF8100038
S1134840C228A9D102984FF4803104AA30B99278D1
S1134850A2F1300301FA03F33B6205E05079A0F1C1
S1134860300201FA02F23A6206F5E07A4FF480531C
S11348704FF48070CAF81010CAF804300321CAF843
S11348800000102231738BF0010B3A61029800286A
S113489004BF019903294AD101200222062330745E
S11348A0727400217082737507233075BBF1000F99
S11348B08DF80810DFF894098DF80B30DFF89019A3
S11348C017D0822202238DF80920B361C9F8601041
S11348D0C9F86450C9F8680000980168C1F303106E
S11348E0032819BF00208AF80A0001228AF80A2046
S11348F01AE0812202238DF80920DFF85829B361D8
S11349000123C9F86010C9F864200722C9F86800B7
S1134910337786F8212086F820303B60C9F8701080
S1134920C9F87450C9F878000298FEF7C8FD40F23F
S1134930064100F01BFB0198F0B90121DFF81829AA
S11349403173DFF81809C9F80020DFF83C36C9F8DC
S1134950040042F20401C8F81030DFF80409C8F872
S11349601410DFF80029C9F850004FF48C63C8F81C
S11349700020C8F83030D5E2BBF1000F0BD101257F
S113498002204FF0405309214FF000524FF4A02C65
S1134990DFF8D4E80AE0212522204FF03043292112
S11349A04FF020424FF4202CDFF8C0E880024CEA9C
S11349B0000C43EA0C0343F0032343F020030243B7
S11349C0C9F80430AB0643EA8523DFF8A45889020A
S11349D041F44171C9F800E040F448701D43C9F83E
S11349E00810C9F84050DFF88C581D43C9F82C1042
S11349F0C9F8205043F00325DFF87C18C9F8245087
S1134A00C9F828500A43DFF87458C8F814201D4325
S1134A10DFF86C28C8F810501A43DFF86818C9F892
S1134A205020C9F854001943C8F80400DFF85808A6
S1134A300343BBF1000FC8F80010C8F8303003D0AE
S1134A40396941F04001396102208AF80C0069E2B9
S1134A50C0F303500728009801680CBF4FF0010B06
S1134A604FF0000BC1F3034078B901A8FEF72BFD0A
S1134A7000F078FA24B901AA00F0ABFA0400E6D1F8
S1134A80002010213073396103E003225020327377
S1134A9038610821504679753146FEF79BFD0400C4
S1134AA0D5D100980FF638020168C1F3034008B964
S1134AB0012303E00328CAD10123103200F0A2FA33
S1134AC008200022787504A95046FFF788F80400EE
S1134AD0BDD102AB03AA04A93046FEF7F3FFBBF134
S1134AE0000F03D1502003213861317340F2064294
S1134AF0DFF89C04C9F8302042F2010AC9F810001A
S1134B0000F074FA03281CBFC1F3033003284AD110
S1134B10DFF87827DFF87807C9F82020DFF8741762
S1134B20C9F8000040F20673DFF86C27C9F80410D6
S1134B30C9F84030DFF86407C9F850204FF4EC613D
S1134B40DFF85C374AF20432C8F80000C8F83010C5
S1134B50C8F81030C8F8142000F048FAF0B9002260
S1134B60062182238DF804208DF807108DF8053076
S1134B700198FEF7A4FC0120022130740620717410
S1134B80E72270750121B261DFF81807317571826F
S1134B90C9F86000C9F86450C9F868A0022106F594
S1134BA0E0700173BEE10028FCD1386A039BDFF892
S1134BB0F816B0F1807F03F0FF0327BF20208E2278
S1134BC01820C22243EA004342EA00420B43C9F8D8
S1134BD05030029D05F0FF0545EA00452943C8F819
S1134BE00010DFF8C8160A43BBF1000FC8F8102004
S1134BF04FF40E52C8F814200CD1DFF8B406DFF8D5
S1134C00B416C9F800000122C9F8041006F5E073CF
S1134C109A731FE03D6ACB22DFF88836C9F868A092
S1134C20C9F86030B5F1807FDFF88C56C9F864505C
S1134C3028BFCC220C2342EA0040B361012306259D
S1134C403374757508433375C9F80000DFF86C06D2
S1134C50C9F804004FF48C61C8F8301062E100BF59
S1134C604643464200040156C0F30350092844F663
S1134C708D650CBF01240024002004218DF804005C
S1134C801022797500F0B2F90290009801683A6137
S1134C900298C1F3033B70B903A8FEF714FC054660
S1134CA000F061F91DB900F093F905005AD1012013
S1134CB00021787502E0022802D10321317309E052
S1134CC003284FD10321082231737A7514B90120C6
S1134CD08DF80400BBF1000F1CBFBBF1020FBBF148
S1134CE0030F3FD102985BEA000008BF0124BBF127
S1134CF0020F02D10420787504E0BBF1030F04BF56
S1134D00082179753869002C314614BF20F0400021
S1134D1040F0400038615046FEF75CFC050021D1AC
S1134D20002C029807D0022803D003280BD120209E
S1134D300AE0102008E0022803D0032803D1402011
S1134D4002E0302000E0002015490123084400F16E
S1134D50700200F057F99DF8042007A95046FEF7A9
S1134D603EFF050040F0DD8005AB06AA07A93046EA
S1134D70FEF7A8FE032040F20641307300F0F6F877
S1134D8094B9292022224FF4304104904FF4204357
S1134D904FF00C0E11E000BF0304180804240100B6
S1134DA07C0D000001000001092002224FF4405153
S1134DB004904FF400534FF0060E4FEA0B6000F0DE
S1134DC0407003904FEA0B2000F4407A039843EAC2
S1134DD00A0343F0800340EA0A0C4CEA8260CDF8EF
S1134DE008C00190019ADFF8D80402434AEA0E0091
S1134DF0C9F80020039A0143DDF810C0114341EAC9
S1134E008C6141F48021C9F804100198DFF8B414CE
S1134E1040F0201040F48060C9F85000019ADFF897
S1134E20A8040A43C8F800200199C8F814300843BC
S1134E304AF48C61BBF1020FC8F83010C8F81000B6
S1134E401CBFBBF1030F002118D1029ADFF87C04C8
S1134E50022342EA8C6106F5E072084340F20641FF
S1134E60C9F8200041EA0A00C9F840000020BBF15B
S1134E70020F1373B06109D14FF48021B1610BE0CB
S1134E803F0401240504012435040124BBF1030F6C
S1134E9004BF4FF40020B06124B9B06940F40000AD
S1134EA0B06106E03969012041F08001396186F87A
S1134EB07900DFF81C1442F20302C9F860100120E3
S1134EC0BBF1000FC9F86420307419BF022171745A
S1134ED000207074062101227175002132757282DE
S1134EE08DF804104CB1BBF1020F08BF41200DD066
S1134EF0BBF1030F0DD181210BE0BBF1020F08BF01
S1134F00422003D0BBF1030F03D182208DF80500AA
S1134F1001E08DF8051008228DF807200198FEF7AE
S1134F20CEFA2C469CB93046FEF7AAFA00980178CE
S1134F3001F00F01B97500980168C1F3036030B145
S1134F4000984168090F032904BF386AB862012137
S1134F503975204635B0BDE8F08F00003E040220CC
S1134F603104012004460020FEF7A9BA084AC9F812
S1134F703010C9F8102070470104022001040120F8
S1134F803E04200A340420081204200802041808ED
S1134F900504042400B204A613042008EE04208AA5
S1134FA0ED04188A102213A901A001F00BB9000026
S1134FB000112233445566778899AABBCCDDEEFFF5
S1134FC001F0FF01014341F0006141F48061704749
S1134FD003AA314650468EE031465046FEF7FABAEF
S1134FE000980168C1F303600028704700980168C5
S1134FF0C1F30340704708A98DF8202050460F9351
S113500000F0C5BC0121504600F093BC00210022F1
S11350100023002480E81E0070472DE9F0418046FB
S11350200C46042074B304F5E2759F1829687F4286
S1135030494201EA02066A790F407F420AB9E968E7
S113504089B9BE421ED200F01FF8002804BF2968A7
S11350508E19F6D016E0324621464046FEF7C5FCCE
S113506080B9E9688E19BE420CD2E96836EA0100BB
S113507002D1B81B8842EED200F006F8002808BF1F
S11350802968EFD0BDE8F081324621464046FEF75C
S113509068BC2DE9F043814604201746002989B0F5
S11350A0984618BF002F23D0109C0CB30846002547
S11350B000F026F90321029501238DF800100393D3
S11350C04FF6FF758DF81000AC42CDF804800797B9
S11350D0694648468CBF2E462646089600F057FC83
S11350E030B9A41BB044B608002C07EB8607EBD1FB
S11350F009B0BDE8F0832DE9F8430E4614460421B7
S1135100002C92B0804604D060782178884208BF91
S1135110002100F08E8006F1450708203870607881
S113512003254FF00109422818BF412802D1042069
S1135130022538706078822814BF42284FF0210974
S1135140002020210A908DF834008DF824000120DD
S11351500B9001A8FCF744FFE4782A0201AB062C6B
S11351600ED031D3082C01D014D32DE040F20640E8
S1135170104340F2FF4101900A431A61022224E0E5
S113518040F2994140F2664414430A431A610222F0
S113519001941AE042EA8922B9F1210F42EA056238
S11351A042EA896242F4190042F4CC0240F06600FB
S11351B042F0990201901A6103D1306C40F0400032
S11351C0306402210C9101E001220C9201204FF085
S11351D08071787006F1500001603E4A3260032409
S11351E03D4B012273600A2374733146B47386F80D
S11351F0C82143624046FEF7EDF9010019D10C9B2A
S113520001AA012140464FF47A7400F092FB09A9E7
S1135210404600F0BCFB314A01461368B3FBF4F48A
S1135220009403E000BF009A521E009200980028E8
S1135230F8D1084613B0BDE8F083000085040124CA
S1135240001E103200320426BC0D000000040120B0
S113525072040004000402040C042008083004242E
S113526021042008DC042008EC071307EE871187CB
S11352700603F9030503FA03200304031203ED03F1
S11352802103DE03DC03230360039F03050704A754
S1135290FD07208B06B304A72107208BDC07208B96
S11352A01207208B81040004000400080004000B92
S11352B0FD04208B0CB304A7000401040C33042761
S11352C00B042000D804200002042000050404007C
S11352D0710400044643464200040156980001004C
S11352E05A0418080830FF240000000000000000E1
S11352F05A07208BFFA700000000000000000000F8
S113530090F8400010F0040018BF0120704790F896
S1135310400010F0200018BF012070472DE9FF471E
S1135320814604200024B9F1000F0D460FF6C41283
S113533001A908BFDFF88C49002CD2E90037C1E984
S1135340003718BF002D7CD0297B042979DA032982
S113535001AF15D195F84030980711D46A4602215F
S11353604846FCF701F9009BDFF85C2993420CD313
S113537095F840100B0608D4792201927A603FE038
S11353804FF48070019078603AE000264FF47A7808
S113539005EB46007830417829BB00786421484306
S11353A019D1286C03A9800900F0010A5246484625
S11353B0FCF702F90399BAF1000FDFF81009B0FB0A
S11353C0F1F101D1490800E089084B2208FB01F101
S11353D0B1FBF2F106E04B23B0FBF3F103FB01F266
S11353E0824200D2491C402928BF3F21490201F4CE
S11353F0FC4141F4807147F82610761C022EC7D375
S11354002068400800F0010090F0010003D02168FA
S113541041F0020121602A6D04F1C003002A07BF94
S1135420696D0029019A1A60A96D002907BFEA6D08
S1135430002A7968596018B1206820F002002060C1
S1135440002004B0BDE8F08710B504460420002C09
S113545018BF002A0FD073B1DFF87008B0FBF2F068
S11354604343B1FBF3F000E0401C00FB03F28A422B
S1135470FAD32060002010BD38B584B04FF6FF7415
S11354800194009400B909B9042028E003AA022178
S1135490FCF76AF802AA01210020DFF83458FCF76F
S11354A063F8039A4FF48063294601A8FFF7CCFF01
S11354B0029A4FF4806329466846FFF7C5FF0199B5
S11354C0DFF81038A14288BF0194009AA24288BF35
S11354D0009401980099C1EA004200201A6005B0C6
S11354E030BDD0F8E010CA07FBD5D0F8E0309907FA
S11354F0FBD570472DE9FE430E4604210022002807
S113550000924FD1002E4DD006F15008914606F579
S1135510C87758F8040BDFF8AC1701EB8904800A4C
S11355202066707BB57BF17B400100F4787005F058
S11355301F05054396F84000C90201F4F0410D43EC
S11355400107706F48BF45F4806568B101AA022164
S11355500020FCF709F8019A716F01236846FFF7F0
S113556073FF009945EA0145256796F8470000282E
S11355701EBF39784A0112F0E00F09D07878491E2D
S1135580490301F46041000200F47060084301E043
S11355904FF4106009F10109B9F1040FC4F8800057
S11355A0B7D300210846BDE8FE830422002810B5C5
S11355B018BF00291ED040310A79012A0AD1C268D5
S11355C009785208520042F040024B0748BF42F0AB
S11355D00102C260C168DFF8004741F02001C160E8
S11355E0002100EB8102491C136A23400329136242
S11355F0F7D30022104610BDF0B5044689B004204C
S113560031B30020012603278DF80000039602978A
S11356108DF81020019391F84720002A1EBF01F550
S1135620C4721078002803D053780293127803923E
S1135630029D039B01EB05160121204606F1800221
S113564000F077F9012369460293204600F09FF9A0
S113565009B0F0BD2DE9F04F042600288BB016D117
S11356600D0000F04681297C002904BF287F002812
S113567006D0296C090901F001018DF8001002E03F
S113568000228DF800202968DFF85036994240F056
S113569030810020FBF760FF29460020FDF7B7FEAC
S11356A09DF8000018B100220121002004E02A6CBA
S11356B005F1450000F026F9FBF705FF0020DFF8AF
S11356C00476FBF744FF00F028F939684DF60F70B3
S11356D041F002013960396895F845200140287B82
S11356E0082A08BF41F40051000100F030000143D2
S11356F041F07F4141F47F01002039602946FFF7E2
S1135700BBFEB86820F40040B86095F84010C807A4
S113571003D5BA6842F40022BA6029463846FFF736
S113572044FF29460020FFF7E5FE29460020FFF745
S1135730F5FD00F0F2F8287C002851D005F1500A5C
S11357402C46B04600255AF8049BB9F1000F40D00E
S1135750DFF88C050168C1F3012020B1607C0228C8
S113576008BF002633D001212B468DF804100020F9
S11357700295627D0392217D0022049104F11801B7
S11357808DF8142004220691214607920022FFF787
S113579033FF049B04F18000039900F0AEF801206C
S11357A001A90390002000F0F2F806000FD1608AEE
S11357B058B9617C022918BF032906D02B46002260
S11357C0214600F0D5F9064601E000F0A1F81EB923
S11357D04D44B8F10108B6D1002E254640F0898029
S11357E0287F00286AD0042605F150010024019185
S11357F0B1460198001D019050F804ADBAF1000FB4
S113580058D001224FF004088DF808200023039497
S11358102E468DF818300025CDF8208006EB850142
S113582001F12002507800283CD0DFF8B43406EBB4
S1135830050B1868C0F3012018B19BF81D30022B2A
S113584030D0507830312346049012780791314695
S1135850059200220020FFF7CFFE5FEA000824D162
S1135860059B06F18000049900F047F8012002A985
S11358700490002000F08BF85FEA000815D1708ACC
S113588028B99BF81D10022918BF032902D100F082
S11358903FF807E023460022314600F069F95FEA49
S11358A0000802D16D1C022DB8D935465FEA0806FE
S11358B003D15444B9F101099BD1D6B99DF8000034
S11358C0B0B1396805F1450041F0020139602A6C34
S11358D000F018F8FBF7F7FD29460020FFF7CCFD90
S11358E029460020FFF71AFD386820F002003860CE
S11358F0002630460BB0BDE8F08F00EB0112012109
S1135900002016E041780020920902F0010270475D
S1135910642148430021FBF7A3BE386820F002004D
S11359203860396841F0010139603A68D307FCD422
S113593070472DE9F0420F4614461E46042118BB59
S113594014B34FF00009BA1949EB0903002B1BD813
S1135950112A19D200F0B2F9DFF888030221A861F4
S1135960E961B90005EB8102F71902F5007204E060
S113597054F8043B491C42F8043BB1EB870FF7D3BE
S1135980A8610120E86100210846BDE8F0820028F2
S11359902DE9F8434FF0040871D10C0000F0D580D4
S11359A02078042880F2D180DFF8186394F81090EE
S11359B03046DFF83473FFF794FD0020002500F033
S11359C05FF9706940F01E00706161683960207889
S11359D0022808BFA56902D0032801D1256AADB207
S11359E0A068E168000400F470200543491E09061C
S11359F001F0E0610D4345EAC9757D602078032814
S1135A0034D1E269206A12F0030138D11C23BB614E
S1135A10B96941F00101B961BB69D907FCD439699D
S1135A2041F00101396108B3402807F1600314D340
S1135A3071694FF0100C890604D414E053F8041B68
S1135A4042F8041B5FEA0C01ACF1010CF6D1716958
S1135A50403841F02001716105E0396DC90001F45D
S1135A60FF61814226D271690B07DCD520780228B8
S1135A7018BF012843D16269A16912F0030064D1FF
S1135A801C23FB61F86940F00100F861FB69D80749
S1135A90FCD40025002932DD7069944B40062BD5D7
S1135AA040294FF0100C42D316E053F8041B001F9A
S1135AB042F8041B0428F8D240B1196800916946E1
S1135AC011F8013B401E02F8013BF9D17069CDE7A2
S1135AD052F8040B43F8040B5FEA0C00ACF1010C20
S1135AE0F6D1403925B93869012540F00100386103
S1135AF0706940F04000706173691807CAD5207856
S1135B0018B9396941F0010139613046FFF7E9FC00
S1135B107069010717D5786CC0F303600E280CBFB9
S1135B2041F6583841F659380FE043F8040B5FEA60
S1135B300C00ACF1010CD5D00029D2BF0020091F04
S1135B4052F8040BF1E74FF000084046BDE8F28339
S1135B5018B9674801688A07FBD5704738B95948AE
S1135B60016841F0010101600268D307FCD4704769
S1135B7000292DE9F84F8EB04FF0040979D001F1D6
S1135B8070049246A5890122E6890693089202FAD6
S1135B9005F80325BAF1000F8DF81450079202ADF1
S1135BA00C9514BF082304230D938DF824A091F8B9
S1135BB04730002B1EBF01F5C2752A78002A03D096
S1135BC06A7807922D7808950490079801EB0015E0
S1135BD0089B0146049805F18002FFF7AAFE246899
S1135BE05FEA040B18BF4FF0010B0025049805A9C8
S1135BF0FFF7CDFE5FEA00093BD1BAF1000F1AD0DE
S1135C0001A96A4602AB042013F8017B401E01F887
S1135C10017B13F8017B02F8017BF5D1002E019979
S1135C20009803D0014038EA010102E0014311EA7F
S1135C3008010F4608E0002E029802D038EA00005E
S1135C4001E018EA0000074618BF0127FAB212EA79
S1135C500B0F0BD0002D08BF002C0ED04FF47A7020
S1135C600021FBF7FDFC641E65F10005FFB2002F67
S1135C70BCD148460FB0BDE8F08F41F65A39F8E779
S1135C8058B9104901EB8001401C0428D1F8802048
S1135C9042F00042C1F88020F3D3704738B50C4677
S1135CA058B900F00BF824B1296841F40061296067
S1135CB031BD286820F40060286031BD014D2846BC
S1135CC00FE4000000802A4000E1F50500CA9A3B79
S1135CD00065CD1D04802A4000FFF0FC4643464287
S1135CE000822A40F05AF05AA0802A4080812A403B
S1135CF0E0802A40000100000001000038B54FF4A4
S1135D00C074DFF8DC53002221462A7405F1140024
S1135D10FCF766F9002321466B7405F5CA70FCF79D
S1135D205FF9012032BD0146002021B10968090F45
S1135D300E2908BF012070472DE9F04395B00646AF
S1135D40FFF7DCFF054630460424FFF7ECFF00288C
S1135D5008D03068000F0E2840F0CB803168C1F3C2
S1135D600340002800F0C58004281AD2C1F303526E
S1135D70022ABCBFC1F30332042A0ADA012803D978
S1135D80C1F30322042A04DA032804D3C1F3031061
S1135D90042880F2AE80C1F30360032824BF001FEF
S1135DA0032880F0A6800022C1F30367032FCC4BA5
S1135DB028BF0122002D1EBF03F11001885C0028BA
S1135DC071D14FF4C07111FB02F51D44143517F065
S1135DD0030703D0022F05D002D308E0C14802E034
S1135DE0C14800E0C14803F1080747F82200012038
S1135DF0103398542846FCF7F3F805F18007BC48A3
S1135E00BC49786039603268BB4806F10808B8605C
S1135E10C2F303410022F960337803F00F03FB61FE
S1135E203068C0F30350B86115E03368C3F303204E
S1135E3005EB421C0CF1D00306EBC20CDCF804E0C9
S1135E40C3F800E0DCF804C058F832909860521CA3
S1135E50CC44C3F804C08A4209D2012AE5D0306890
S1135E60022A0CBFC0F30310C0F30330E0E701299A
S1135E70386D7A6D0ED9012305EB431656F8D0CF51
S1135E808445766838BF6046B24238BF32465B1CF0
S1135E908B42F1D3994988422BD3386168467A61A1
S1135EA000F0EEF9040024D10020954E8DF8030093
S1135EB06946304600F0EEFA04001AD1B8690128A8
S1135EC009D1102205F1A001304600F0A5FB0446DB
S1135ED0002038626CB910222946304600F09CFB41
S1135EE0040006D1102205F11001304600F094FBA5
S1135EF00446204615B0BDE8F083F0B50022002426
S1135F00774B4FF4C075002665431D44143500E0FB
S1135F10761CD5F88C70BE4210D205EB461C0CF1F1
S1135F20D007D7F804E0AEF1010E8645F0D33F6800
S1135F3001EB000C6745EBD2012202E0641C012C4A
S1135F40DFD91046F0BD2DE9F0470D460421002DA0
S1135F5086B018BF5FEA020838D00646022E35D252
S1135F605F4CA3191A7C8AB302A84FF4C07900F0DD
S1135F70A3FB09FB06F18022601800F1140A00F566
S1135F804577514602A800F0ABFB4FF4807007F14F
S1135F90800101900AF1800300910AF110020121AD
S1135FA002A800F0BBFC04EB86008022816802A8F2
S1135FB000F096FB20203B4600905246012102A8A7
S1135FC000F0D6FC2F600021C8F80090084606B007
S1135FD0BDE8F0872DE9F84706460C46042015462F
S1135FE0002C89B018BF002D53D04FF000094FF496
S1135FF0C077DFF8EC8007FB09F208F114011144C3
S113600090314B685B1EB34203D30968A2199142D5
S113601004D309F10109B9F1010FECD9B9F1010F68
S113602037D808EB890105A8D1F808A000F044FB93
S1136030802205A8514600F053FB07FB09F108F143
S113604014000844D0F8981001291AD1A03001AAEC
S113605090E88A1082E88A1036090020019601A986
S113606001AB464233440A5CDF7B0F54401C0828D2
S1136070DA73F5D300942B462A4605A800F09EFC5B
S113608006E000942B462A46012105A800F070FC86
S113609000200AB0BDE8F0872DE9F04105460E4620
S11360A000274FF4C07404FB07F10D48014401F1CB
S11360B0140001F54578134901EB8721A94209D35E
S11360C07219914206D22146FBF78AFF21464046C7
S11360D0FBF786FF7F1C012FE5D9BDE8F0810000A6
S11360E0DC24010089ABDCFEDCEFDCFE1234DCFED8
