S01200006C65645F626C696E6B792E73726563F5
S3156000A000000001208DB80060FBB000602FB10060D9
S3156000A01067B1006025B900604BB9006000000000C0
S3156000A02000000000000000000000000057B900605A
S3156000A030E9BA006000000000EBBA0060BFB70060DC
S3156000A04071B9006079B9006081B9006089B9006052
S3156000A05091B9006099B90060A1B90060A9B90060C2
S3156000A060B1B90060B9B90060C1B90060C9B9006032
S3156000A070D1B90060D9B90060E1B90060E9B90060A2
S3156000A080F1B90060E1BA0060E1BA0060E1BA00606F
S3156000A090F9B9006001BA006009BA006011BA0060DF
S3156000A0A019BA006021BA006029BA006031BA00604E
S3156000A0B039BA006041BA006049BA006051BA0060BE
S3156000A0C059BA006061BA006069BA006071BA00602E
S3156000A0D079BA006081BA0060E1BA0060E1BA0060F6
S3156000A0E0E1BA0060E1BA0060E1BA0060E1BA00601E
S3156000A0F0E1BA0060E1BA0060E1BA0060E1BA00600E
S3156000A100E1BA0060E1BA0060E1BA0060E1BA0060FD
S3156000A110E1BA0060E1BA0060E1BA0060E1BA0060ED
S3156000A12089BA006091BA006099BA0060A1BA00600D
S3156000A130A9BA0060E1BA0060E1BA0060E1BA006005
S3156000A140E1BA0060E1BA0060E1BA0060E1BA0060BD
S3156000A150E1BA0060E1BA0060E1BA0060E1BA0060AD
S3156000A160E1BA0060E1BA0060E1BA0060E1BA00609D
S3156000A170E1BA0060E1BA0060E1BA0060E1BA00608D
S3156000A180E1BA0060E1BA0060E1BA0060E1BA00607D
S3156000A190E1BA0060E1BA0060E1BA0060E1BA00606D
S3156000A1A0E1BA0060E1BA0060B1BA0060E1BA00608D
S3156000A1B0E1BA0060E1BA0060E1BA0060E1BA00604D
S3156000A1C0E1BA0060E1BA0060E1BA0060E1BA00603D
S3156000A1D0E1BA0060E1BA0060E1BA0060E1BA00602D
S3156000A1E0E1BA0060E1BA0060E1BA0060E1BA00601D
S3156000A1F0B9BA0060E1BA0060C1BA0060C9BA00606D
S3156000A200E1BA0060E1BA0060D1BA0060D9BA006014
S3156000A210E1BA0060E1BA0060E1BA0060E1BA0060EC
S3156000A220E1BA0060E1BA0060E1BA0060E1BA0060DC
S3156000A230E1BA0060E1BA0060E1BA0060E1BA0060CC
S3156000A240E1BA0060E1BA0060E1BA0060E1BA0060BC
S3156000A250E1BA0060E1BA0060E1BA0060E1BA0060AC
S3156000A260E1BA0060E1BA0060E1BA0060E1BA00609C
S3156000A270E1BA0060E1BA0060E1BA0060E1BA00608C
S3156000A280E1BA0060E1BA0060E1BA0060E1BA00607C
S3156000A290E1BA0060E1BA0060E1BA0060E1BA00606C
S3156000A2A0E1BA0060E1BA0060E1BA0060E1BA00605C
S3156000A2B0E1BA0060E1BA0060E1BA0060E1BA00604C
S3156000A2C0E1BA0060E1BA0060E1BA0060E1BA00603C
S3156000A2D0E1BA0060E1BA0060E1BA0060E1BA00602C
S3156000A2E0E1BA0060E1BA0060E1BA0060E1BA00601C
S3156000A2F0E1BA0060E1BA0060E1BA0060E1BA00600C
S3156000A300E1BA0060E1BA0060E1BA0060E1BA0060FB
S3156000A310E1BA0060E1BA0060E1BA0060E1BA0060EB
S3156000A320E1BA0060E1BA0060E1BA0060E1BA0060DB
S3156000A330E1BA0060E1BA0060E1BA0060E1BA0060CB
S3156000A340E1BA0060E1BA0060E1BA0060E1BA0060BB
S3156000A350E1BA0060E1BA0060E1BA0060E1BA0060AB
S3156000A360E1BA0060E1BA0060E1BA0060E1BA00609B
S3156000A370E1BA0060E1BA0060E1BA0060E1BA00608B
S3156000A380E1BA0060E1BA0060E1BA0060E1BA00607B
S3156000A390E1BA0060E1BA0060E1BA0060E1BA00606B
S3156000A3A0E1BA0060E1BA0060E1BA0060E1BA00605B
S3156000A3B0E1BA0060E1BA0060E1BA0060E1BA00604B
S3156000A3C0E1BA0060E1BA0060E1BA0060E1BA00603B
S3156000A3D0E1BA0060E1BA0060E1BA0060E1BA00602B
S3156000A3E0E1BA0060E1BA0060E1BA0060E1BA00601B
S3156000A3F0E1BA0060E1BA0060E1BA0060FFFFFFFF0A
S3156000A40070B50446A40E0246120A02F01F0200F05E
S3156000A410FF0303F1804303F57C231D68C0F34C36CC
S3156000A4209640B54301EA5031C1F30C01914029438E
S3156000A4301960202C40F209804FF450720FF20031FF
S3156000A440B9A000F0B7F9AFF30080202C04D088489B
S3156000A4500068E040C007FAD470BD000070B50446DD
S3156000A460A40E0246120A02F01F0200F0FF0303F177
S3156000A470804303F57C231D68C0F34C369640B54394
S3156000A48001EA5031C1F30C01914029431960202C37
S3156000A49040F2098040F265320FF2A421A2A000F0DA
S3156000A4A089F9AFF30080202C04D071480068E04041
S3156000A4B0C007FAD470BD6F49086070476E4908607E
S3156000A4C07047000038B54FF40040FFF7F7FF6B4860
S3156000A4D0FFF7F1FF6A4C01212046FFF791FF694DB6
S3156000A4E001212846FFF78CFF674801684909490141
S3156000A4F041F01201016000BFAAA000F07BF91221B1
S3156000A500022000F0C4F91221032000F0C0F900BF58
S3156000A510A2A000F08FF900215C48FFF79FFF0021A1
S3156000A5205B48FFF79BFF03215A48FFF797FF03211C
S3156000A5305948FFF765FF00212846FFF761FF0021B4
S3156000A5405648FFF78BFF00212046FFF759FF012190
S3156000A5505348FFF783FF00215248FFF751FF02215E
S3156000A5605148FFF77BFF00215048FFF749FF022162
S3156000A5704F48FFF773FF00214E48FFF741FF002168
S3156000A5804D48FFF73DFF07214FF21400FFF766FFC6
S3156000A59000214A48FFF734FF04214948FFF75EFF70
S3156000A5A002214848FFF72CFF02214748FFF756FF74
S3156000A5B002214648FFF724FF03214548FFF74EFF77
S3156000A5C001214448FFF74AFF00214348FFF718FF7F
S3156000A5D003214248FFF742FF01214148FFF73EFF52
S3156000A5E000214048FFF70CFF03213F48FFF736FF85
S3156000A5F001213E48FFF732FF00213D48FFF700FF8B
S3156000A60000213C48FFF72AFF00213B48FFF7F8FE90
S3156000A61001213A48FFF722FF02213948FFF7F0FE91
S3156000A62001213848FFF71AFF07213748FFF716FF61
S3156000A63003213648FFF7E4FE01213548FFF70EFF98
S3156000A64007213448FFF70AFF03213348FFF7D8FE96
S3156000A65000213248FFF7D4FE00213148FFF7FEFEA5
S3156000A66000213048FFF7CCFEBDE8314000F0AAB9C2
S3156000A67048C00F40040000200800002000366E012C
S3156000A680186C0080143900140C00084014EA0004A9
S3156000A69010E00040146800801872008014FB00808F
S3156000A6A01CE007801C26008024EB00801C300080A4
S3156000A6B024F000801C31008014270080142600805E
S3156000A6C018FA00801864008024790080186E008073
S3156000A6D028E6008028E007801C6A00802CE600805F
S3156000A6E02CE007801C6C008028F6008028F007802C
S3156000A6F01C6E008038F307803832008020E20780C5
S3156000A7002068008030F9008030F600803074008068
S3156000A71028E9008028F90080207300800C200080E2
S3156000A72024E0078024260080627573795368696621
S3156000A73074203C3D202830783230552900000000D6
S3156000A740443A5C7265735F692E6D7872745C5344CB
S3156000A7504B5F322E342E305F45564B2D4D494D584A
S3156000A7605254313032305F4941525F46554C4C5FEE
S3156000A7704556425C646576696365735C4D494D58C0
S3156000A7805254313032315C647269766572735C66DC
S3156000A790736C5F636C6F636B2E6800000001000072
S3156000A7A00000000001000000000000000000000042
S3156000A7B00000000080B513460A46014602A000F07C
S3156000A7C0A7F900BEFDE700004153534552542045AA
S3156000A7D052524F52202220257320223A2066696CFD
S3156000A7E0652022257322204C696E6520222564220D
S3156000A7F0200A0000DFF8BC20116821F44041037B89
S3156000A8009B0303F44043194341F48031116013689C
S3156000A810DFF8A4100B40007800F00100034343F416
S3156000A8200053136010680028FCD5106820F480304F
S3156000A8301060704710B4C27802F003021F4B1968AB
S3156000A84021F440410479A40304F44044214341F4D3
S3156000A850803119600178002901D042F40052817874
S3156000A860002901D042F400124078002801D042F459
S3156000A87080021968124801400A431A601868002865
S3156000A880FCD5186820F48030186010BC704710B48E
S3156000A890C0000C4A1468BF23834024EA0303802463
S3156000A8A084401C43146001F03F01814019431160EC
S3156000A8B010BC704730800D40FEEFFFFFE0800D401A
S3156000A8C0FCEFFFFF00810D40BFF34F8FBFF36F8F2B
S3156000A8D0002072490860BFF34F8FBFF36F8F7048D7
S3156000A8E0016841F400310160BFF34F8FBFF36F8F92
S3156000A8F0704730B46A4900200867BFF34F8FCA6E4D
S3156000A900C2F34E33674DC2F3C90443F6E07000EA02
S3156000A910431040EA847028602046441E0028F4D123
S3156000A9201846431E0028EED1BFF34F8F086840F4E7
S3156000A93080300860BFF34F8FBFF36F8F30BC7047B6
S3156000A94010B5574C606F40F47000606756490A89CD
S3156000A9504FF6FE7002400A81544A13890340138100
S3156000A9600888400704D50B884FF6FB7003400B80C0
S3156000A9701088400704D511884FF6FB70014011809E
S3156000A9804B484C4941604FF6FF718160016821F088
S3156000A990800141F02001016047480168C90703D57D
S3156000A9A001684908490001602068800301D4FFF707
S3156000A9B08BFF2068C00301D4FFF79BFFBDE8104002
S3156000A9C000F088B870B53D4E3D4C306AC00301D585
S3156000A9D0254606E0306AC00701D5162500E0142535
S3156000A9E06543306C2146A1FB0001326D002300F007
S3156000A9F0C5F845193068C00301D5214606E03068C0
S3156000AA00800701D5162100E0142161432D48426874
S3156000AA10920182680FD512F4405205D0B2F5805F7C
S3156000AA2001D1214600E000214268C2F3C262521C95
S3156000AA30B1FBF2F529E012F4402226D0B2F5802F60
S3156000AA4006D0B2F5002F0DD0B2F5402F14D01BE022
S3156000AA501D4A1268C2F30562B1FBF2F101EBC10255
S3156000AA60550012E018490969C1F30561B5FBF1F1BA
S3156000AA7001EBC102550008E01449026802F00702C2
S3156000AA80521CB1FBF2F500E000254068C0F382205D
S3156000AA90401CB5FBF0F00E49086070BD50EF00E059
S3156000AAA014ED00E060EF00E000800B4000000D4018
S3156000AAB000C00B4020C528D910E000E010800D4092
S3156000AAC000366E0110C00F40F0800D400065CD1D50
S3156000AAD000000020704730B4002513E050F8042BC6
S3156000AAE0D30744BFA9F101039A18091F042942F844
S3156000AAF0045BFAD213468C0744BF15809B1CC907BA
S3156000AB0048BF1D7050F8041B0029E7D130BC704760
S3156000AB100EB418B5A0B004466846802100F046F928
S3156000AB2023A90FF21D036A46204600F081F901460B
S3156000AB30684600F08BFA21B010BC5DF810FB00008F
S3156000AB402DE9F04104460D4616461F464FF00008B3
S3156000AB500FE02968481C802804D3204600F076FA66
S3156000AB6000202860286826542868401C286008F160
S3156000AB700108B845EDDBBDE8F0810000BBBBE1B183
S3156000AB80B2F5803F80F07E80022A1ED98C46B1FBEA
S3156000AB90F2F102FB11C31B0443EA1043B3FBF2FC60
S3156000ABA002FB1C3380B240EA0343B3FBF2F002FBC4
S3156000ABB0103240EA0C4000237047022A05D98446C9
S3156000ABC0B0FBF2F002FB10C270474AB105D100F04B
S3156000ABD0010249085FEA300070470022002370478F
S3156000ABE000F08ABA0B0002000021002070479042F4
S3156000ABF071EB030CF6D3B3F5803F2FD2F0B5B3FA01
S3156000AC0083F7B1FA81F4A7F10F0E3D1B5340CEF1E5
S3156000AC10200602FA0EF2F3415340B5F10F0746D80B
S3156000AC200F3C2C444140C4F12006A040F141414014
S3156000AC30B1FBF3F603FB1611A2FB0645001BA94107
S3156000AC4002D2761E8018594180EA010221FA0EF37B
S3156000AC5062FA0EF200215A403046F0BD30B4B1FBC4
S3156000AC60F3FC03FB1C11A2FB0C45001BA94103D29C
S3156000AC70ACF1010C8018594130BC02460B46604667
S3156000AC8000217047B2F1807F65D3F0B5B2FA82F7E2
S3156000AC90B1FA81F4C7F10F063D1B22FA06F307F1FC
S3156000ACA0110EF24120355A40B5F10F07B8D941402F
S3156000ACB0C4F12006A040F1414140B1FBF3FC03FB27
S3156000ACC01C11A2FB0C45001BA94103D2BCF1010C6F
S3156000ACD0801859410F2F12D30F3FC90341EA5041E3
S3156000ACE0B1FBF3F603FB1611A2FB0645D4EBC030AD
S3156000ACF0A94102D2761E8018594146EACC3C07B378
S3156000AD004140C7F12006B840F1414140B1FBF3F63E
S3156000AD1003FB1611A2FB0645001BA94102D2761E53
S3156000AD208018594180EA010221FA0EF3C7F1200426
S3156000AD3062FA0EF20CFA07F05A402CFA04F130432C
S3156000AD40F0BD80EA010221FA0EF3002162FA0EF2EA
S3156000AD5060465A40F0BD8C46B1FBF2F102FB11C36E
S3156000AD601B0243EA1063B3FBF2FC02FB1C331B02BB
S3156000AD704CEA002043EA1063B3FBF2FC02FB1C338F
S3156000AD801B024CEA002043EA1063B3FBF2FC02FBB1
S3156000AD901C331B024CEA002043EA1063B3FBF2FC4F
S3156000ADA002FB1C324CEA002000237047002200F0B0
S3156000ADB0A5B970B404460025284604F8010B002A9C
S3156000ADC0086814D0002815D000282ED090FBF3F226
S3156000ADD003FB1200002802D43030014602E0C04373
S3156000ADE031300146104604F8011B6D1CECE70399EF
S3156000ADF000280FD130202070012017E0612202E088
S3156000AE000A00FBD041220A3A10180246304604F87E
S3156000AE10012B6D1C002808D0B0FBF3F603FB16006F
S3156000AE200A28EDD230300246F0E7284670BC7047FB
S3156000AE302DE9F64F8DB00C469A46002100910D46DD
S3156000AE4001910291064605E00123424601A90E984A
S3156000AE50D047761C96F80080B8F1000F00F0E280CB
S3156000AE60B8F1250FF0D14FF0010B0027384605E009
S3156000AE7007EB8702303901EB42010F46002840F0AC
S3156000AE80D58016F8011FA1F130020A2AF0D3761E8A
S3156000AE905846F3E716F8011F30390A29C0F0CC800E
S3156000AEA0761E5846C8E0761E16F8018FB8F1640F14
S3156000AEB01AD0B8F1690F17D0B8F1660F14D0B8F18F
S3156000AEC0460F11D0B8F1780F0ED0B8F1580F0BD0ED
S3156000AED0B8F16F0F08D0B8F1620F05D0B8F1700FF6
S3156000AEE002D0B8F1750F70D1B8F1640F02D0B8F125
S3156000AEF0690F0ED154F8040B0390584600900A234C
S3156000AF00024603A904A8FFF754FF054604A828448F
S3156000AF100090B8F1580F02D0B8F1780F13D1B8F19C
S3156000AF20780F01D14FF0000B54F8040B029058468D
S3156000AF3000901023002202A904A8FFF73AFF0546F5
S3156000AF4004A828440090B8F16F0F08D0B8F1620FDA
S3156000AF5005D0B8F1700F02D0B8F1750F1DD154F855
S3156000AF60040B0290B8F16F0F01D108230AE0B8F123
S3156000AF70620F01D1022305E0B8F1700F01D11023F1
S3156000AF8000E00A23CDF800B0002202A904A8FFF76A
S3156000AF9010FF054604A8284400907F1B3B462022EC
S3156000AFA001A90E98D047009800283FF452AF0E9F33
S3156000AFB0D046814699F80000002841D0012319F84F
S3156000AFC0012901A93846C047F4E7B8F1630F08D1F3
S3156000AFD054F8040BC0B25B46024601A90E98D047EE
S3156000AFE037E7B8F1730F7FF42FAF54F8049BB9F1CC
S3156000AFF0000F3FF42EAF484600F09AF805467F1BD7
S3156000B0003B46202201A90E98D0470E9FD04699F85C
S3156000B0100000002818D05B4619F8012B01A93846B4
S3156000B020C047F4E701980FB0BDE8F08F16F8010F3E
S3156000B0302E287FF438AF002000287FF435AF29E74B
S3156000B0400E97CDF8009004E70E9702E738B50446F0
S3156000B0500D46002C40F0098040F23F120FF2380195
S3156000B0600AA0FFF7A7FBAFF3008029462046BDE89C
S3156000B070344010B50C0007D0002805D0012200F03E
S3156000B08073F8002800D00024204610BD6275662043
S3156000B090213D203000000000443A5C7265735F69B0
S3156000B0A02E6D7872745C53444B5F322E342E305F53
S3156000B0B045564B2D4D494D585254313032305F49CB
S3156000B0C041525F46554C4C5F4556425C64657669B5
S3156000B0D06365735C4D494D585254313032315C75FD
S3156000B0E074696C69746965735C6C6F675C66736C54
S3156000B0F05F6C6F672E6300007047FEE700B500BFA8
S3156000B100130096469446103928BFA0E80C50FAD82A
S3156000B1105FEA417C28BF0CC048BF40F8042BC907D2
S3156000B12028BF20F8022B48BF00F8012B00BDFEE7C0
S3156000B13000F10103810704D010F8011B820781B179
S3156000B140FAD10268A2F10131914311F0803104BF56
S3156000B15050F8042FF6E709BAB1FA81F100EBD10095
S3156000B160401CC01A7047FEE738B5034600240A48FB
S3156000B1700579022D0BD10068002A0A46194602D0CD
S3156000B18000F032F804E000F04BF8044600E00124D9
S3156000B190204632BD000000000C00002001464869D0
S3156000B1A0896A090C01F0C3010843704710B50C4663
S3156000B1B0816A21F44031220402F4403211438162F3
S3156000B1C04269DFF870110A40DFF8641121400A43D2
S3156000B1D04261FFF7E3FF044202D040F21A5010BD0D
S3156000B1E0002010BD0000000070B505460C461646EE
S3156000B1F0002C0FD140F2A9220FF2601135A0FFF7A3
S3156000B200D9FAAFF3008005E068690002FCD514F84E
S3156000B210010BE8613046461E0028F5D170BD00007E
S3156000B220F8B506460D461746002D08D14FF42E7226
S3156000B2300FF2281127A0FFF7BDFAAFF30080B069BF
S3156000B240010503D400F01200022801D1012405E0B3
S3156000B250002403E000F07F0005F8010B3846471E26
S3156000B26000282FD0F06AC0F3026000282CD1304647
S3156000B270FFF794FF01030DD4410313D4810319D45E
S3156000B280C003EFD54FF480313046FFF78FFF4FF4A0
S3156000B290A460F2BD4FF400213046FFF787FF40F20D
S3156000B2A01D50F2BD4FF480213046FFF77FFF40F21C
S3156000B2B01E50F2BD4FF400313046FFF777FF40F283
S3156000B2C01F50F2BD0020F2BD002CF069C2D105F816
S3156000B2D0010BC3E76461746100000000164A51689F
S3156000B2E01648526A1047144A91681548526A1047C0
S3156000B2F0114AD1681348526A10470F4A11691248B9
S3156000B300526A10470C4A51691048526A10470A4AF5
S3156000B31091690F48526A1047074AD1690D48526AC7
S3156000B32010470000044A116A0B48526A1047000031
S3156000B33000C01FC0FF3FE03F1400002000401840DF
S3156000B3400080184000C018400000194000401940B5
S3156000B3500080194000C0194000001A40443A5C72EF
S3156000B36065735F692E6D7872745C53444B5F322EE1
S3156000B370342E305F45564B2D4D494D585254313021
S3156000B38032305F4941525F46554C4C5F4556425C90
S3156000B390646576696365735C4D494D5852543130C6
S3156000B3A032315C647269766572735C66736C5F6C0D
S3156000B3B070756172742E630070B504460D4626463C
S3156000B3C0360A04F01F04072EC0F0098040F2873267
S3156000B3D00FF26C1157A0FFF7EDF9AFF30080064846
S3156000B3E000EB860001680322A240914305FA04F44B
S3156000B3F00C43046070BD000068C00F400321DBE7AA
S3156000B4005AE0000010B50024062C06D28CA151F833
S3156000B4102410814201D0641CF6E7062C07D354221F
S3156000B4200FF2B4115DA0FFF7C5F9AFF300802046B7
S3156000B43010BD0000F8B504460D461646FFF7E2FF5C
S3156000B44085A131F91000FFF7D9FF0127AF40F94315
S3156000B4506069084060613078002803D16068014007
S3156000B460616007E072782946204600F009F8606856
S3156000B47007436760B27829462046BDE8F840BFE7D3
S3156000B48070B504460D461646202D08D35FF074024B
S3156000B4900FF2441167A0FFF78DF9AFF3008001202A
S3156000B4A000FA05F5002E206803D120EA050525601F
S3156000B4B070BD0543256070BD30B4012404FA01F502
S3156000B4C0C369AB43C361102902D200F10C0302E0E9
S3156000B4D000F110031039521E042A29D8DFE802F061
S3156000B4E0030A131E25001A68032448008440A243F9
S3156000B4F01A601DE048001968032282409143844027
S3156000B5000C431C6014E04800196803228240914392
S3156000B510022202FA00F00843186009E01A68032460
S3156000B5204800844022431A6002E0C1690D43C56148
S3156000B53030BC7047696E646578203C3D20360000FB
S3156000B540443A5C7265735F692E6D7872745C5344BD
S3156000B5504B5F322E342E305F45564B2D4D494D583C
S3156000B5605254313032305F4941525F46554C4C5FE0
S3156000B5704556425C646576696365735C4D494D58B2
S3156000B5805254313032315C647269766572735C66CE
S3156000B590736C5F636C6F636B2E680000696E7374A7
S3156000B5A0616E6365203C202873697A656F662873CF
S3156000B5B05F6770696F426173657329202F207369B5
S3156000B5C07A656F662828735F6770696F4261736515
S3156000B5D073295B305D292900443A5C7265735F6943
S3156000B5E02E6D7872745C53444B5F322E342E305F0E
S3156000B5F045564B2D4D494D585254313032305F4986
S3156000B60041525F46554C4C5F4556425C646576696F
S3156000B6106365735C4D494D585254313032315C64C8
S3156000B6207269766572735C66736C5F6770696F2E3C
S3156000B6306300000070696E203C2033320000000019
S3156000B6400000000000801B4000C01B4000001C4042
S3156000B6500000000000000C40FFFF1A011E001A02E5
S3156000B660FFFF1E0170B504460D462646360A04F0F5
S3156000B6701F04072EC0F0098040F287320FF2A00146
S3156000B68024A0FFF797F8AFF300801F4800EB860011
S3156000B69001680322A240914305FA04F40C43046056
S3156000B6A070BD0321DEE710B4029C01F0070124019E
S3156000B6B004F0100421430160002A00D0136010BC1E
S3156000B6C070470098002801D001990160704700001A
S3156000B6D03EB540F20240FFF7E4FF0C4C0C4D0020F3
S3156000B6E0019000950346024605212046FFF7DBFFE1
S3156000B6F041F2B0000190009500231A4605212046CC
S3156000B700FFF7DFFF37BD000068C00F40D0801F40E5
S3156000B71044821F40696E646578203C3D2036000097
S3156000B720443A5C7265735F692E6D7872745C5344DB
S3156000B7304B5F322E342E305F45564B2D4D494D585A
S3156000B7405254313032305F4941525F46554C4C5FFE
S3156000B7504556425C646576696365735C4D494D58D0
S3156000B7605254313032315C647269766572735C66EC
S3156000B770736C5F636C6F636B2E6800000901020077
S3156000B78002D42F48815470472E4802F00F021044AD
S3156000B79000F8041C704710B5401EB0F1807F01D3DD
S3156000B7A0012010BD284C60600F214FF0FF30FFF77D
S3156000B7B0E5FF0020A06007202060002010BD23491F
S3156000B7C00868002802D00868401E086070471F4954
S3156000B7D0086008680028FCD17047000038B500BFD3
S3156000B7E01EA000680090FFF773FFFEF76BFE184C13
S3156000B7F06A461A212046FFF71DFE164800684FF478
S3156000B8007A71B0FBF1F0FFF7C6FF0028124D07D042
S3156000B810FEE700221A212046FFF732FE002028703C
S3156000B8204FF47A70FFF7D3FF28780028F1D1012210
S3156000B8301A212046FFF724FE01202870F0E7000059
S3156000B84000E400E018ED00E010E000E03C000020BD
S3156000B85000801B4000000020400000200100000026
S3156000B86030B450F8041B79B102684368024408306A
S3156000B870DC0744BFA9F10104E31852F8045B43F8FE
S3156000B880045B091FF9D1ECE730BC704772B6054816
S3156000B890054901600A6882F308880448804762B6F1
S3156000B8A00348004708ED00E000A0006041A9006081
S3156000B8B065B9006010B5074979441831064C7C4477
S3156000B8C0163404E00A68081D114488470146A142FF
S3156000B8D0F8D110BD2C0000004C0000004EF68851D7
S3156000B8E0CEF20001086840F470000860BFF34F8F25
S3156000B8F0BFF36F8F4FF00070E1EE100A70470000E3
S3156000B900D7F1FFFF400000000400002000000000A7
S3156000B91051FFFFFF04000000CC0100000000002082
S3156000B92000000000FEE700000120C046002801D0AC
S3156000B930FFF7C0FFAFF300800020AFF30080FFF792
S3156000B9404DFF00F000F800F001B8FEE70746384604
S3156000B95000F002F8FBE7FEE72021090326311820F4
S3156000B960ABBEF9E7AFF30080FFF7B8FFFFF7DCFF88
S3156000B97000480047E1BA006000480047E1BA00604D
S3156000B98000480047E1BA006000480047E1BA00603D
S3156000B99000480047E1BA006000480047E1BA00602D
S3156000B9A000480047E1BA006000480047E1BA00601D
S3156000B9B000480047E1BA006000480047E1BA00600D
S3156000B9C000480047E1BA006000480047E1BA0060FD
S3156000B9D000480047E1BA006000480047E1BA0060ED
S3156000B9E000480047E1BA006000480047E1BA0060DD
S3156000B9F000480047E1BA006000480047DDB20060D9
S3156000BA0000480047E7B2006000480047F1B20060B6
S3156000BA1000480047FBB200600048004705B300607D
S3156000BA20004800470FB300600048004719B3006044
S3156000BA300048004725B3006000480047E1BA00604F
S3156000BA4000480047E1BA006000480047E1BA00607C
S3156000BA5000480047E1BA006000480047E1BA00606C
S3156000BA6000480047E1BA006000480047E1BA00605C
S3156000BA7000480047E1BA006000480047E1BA00604C
S3156000BA8000480047E1BA006000480047E1BA00603C
S3156000BA9000480047E1BA006000480047E1BA00602C
S3156000BAA000480047E1BA006000480047E1BA00601C
S3156000BAB000480047E1BA006000480047E1BA00600C
S3156000BAC000480047E1BA006000480047E1BA0060FC
S3156000BAD000480047E1BA006000480047E1BA0060EC
S3116000BAE0FFF7FEBF40DCB311FEE7FEE797
S7056000B9657C
