S01200006C65645F626C696E6B792E73726563F5
S3157000000000000220ED1900708315007053190070FE
S31570000010831A00708F1A0070511C00700000000067
S31570000020000000000000000000000000531C00707B
S31570000030551C007000000000571C007023170070DC
S31570000040A91A0070B11A0070B91A0070C11A00703E
S31570000050C91A0070D11A0070D91A0070E11A0070AE
S31570000060E91A0070F11A0070F91A0070011B00701D
S31570000070091B0070111B0070191B0070211B00708A
S31570000080291B0070491C0070491C0070491C0070C7
S31570000090311B0070391B0070411B0070491B0070CA
S315700000A0511B0070591B0070611B0070691B00703A
S315700000B0711B0070791B0070811B0070891B0070AA
S315700000C0911B0070991B0070A11B0070A91B00701A
S315700000D0B11B0070B91B0070491C0070491C007080
S315700000E0491C0070491C0070491C0070491C007046
S315700000F0491C0070491C0070491C0070491C007036
S31570000100491C0070491C0070491C0070491C007025
S31570000110491C0070491C0070491C0070491C007015
S31570000120C11B0070C91B0070D11B0070D91B0070F9
S31570000130E11B0070491C0070491C0070491C00705E
S31570000140491C0070491C0070491C0070491C0070E5
S31570000150491C0070491C0070491C0070491C0070D5
S31570000160491C0070491C0070491C0070491C0070C5
S31570000170491C0070491C0070491C0070491C0070B5
S31570000180491C0070491C0070491C0070491C0070A5
S31570000190491C0070491C0070491C0070491C007095
S315700001A0491C0070491C0070E91B0070F11B00703F
S315700001B0491C0070491C0070491C0070491C007075
S315700001C0491C0070491C0070491C0070491C007065
S315700001D0491C0070491C0070491C0070491C007055
S315700001E0491C0070491C0070491C0070F91B007096
S315700001F0011C0070491C0070091C0070111C0070F5
S31570000200491C0070491C0070191C0070211C00707C
S31570000210491C0070491C0070491C0070491C007014
S31570000220491C0070491C0070491C0070491C007004
S31570000230491C0070491C0070491C0070491C0070F4
S31570000240491C0070491C0070491C0070491C0070E4
S31570000250491C0070491C0070491C0070491C0070D4
S31570000260491C0070491C0070491C0070491C0070C4
S31570000270491C0070491C0070491C0070491C0070B4
S31570000280491C0070491C0070491C0070491C0070A4
S31570000290491C0070491C0070491C0070491C007094
S315700002A0291C0070311C0070391C0070491C0070CC
S315700002B0411C0070491C0070491C0070491C00707C
S315700002C0491C0070491C0070491C0070491C007064
S315700002D0491C0070491C0070491C0070491C007054
S315700002E0491C0070491C0070491C0070491C007044
S315700002F0491C0070491C0070491C0070491C007034
S31570000300491C0070491C0070491C0070491C007023
S31570000310491C0070491C0070491C0070491C007013
S31570000320491C0070491C0070491C0070491C007003
S31570000330491C0070491C0070491C0070491C0070F3
S31570000340491C0070491C0070491C0070491C0070E3
S31570000350491C0070491C0070491C0070491C0070D3
S31570000360491C0070491C0070491C0070491C0070C3
S31570000370491C0070491C0070491C0070491C0070B3
S31570000380491C0070491C0070491C0070491C0070A3
S31570000390491C0070491C0070491C0070491C007093
S315700003A0491C0070491C0070491C0070491C007083
S315700003B0491C0070491C0070491C0070491C007073
S315700003C0491C0070491C0070491C0070491C007063
S315700003D0491C0070491C0070491C0070491C007053
S315700003E0491C0070491C0070491C0070491C007043
S315700003F0491C0070491C0070491C0070FFFFFFFF0C
S3157000040070B40246920E03461B0A03F01F0300F0F7
S31570000410FF0404F1804404F57C242568C0F34C364F
S315700004209E40B54301EA5031C1F30C01994029430E
S315700004302160202A05D0DFF85C050068D040C0072F
S31570000440F9D470BC704770B40246920E03461B0A0C
S3157000045003F01F0300F0FF0404F1804404F57C24CC
S315700004602568C0F34C369E40B54301EA5031C1F35E
S315700004700C01994029432160202A05D0DFF8140524
S315700004800068D040C007F9D470BC704710B400F053
S315700004901F02DFF80435000A03EB800003680324AB
S315700004A09440A34391401943016010BC70470021EA
S315700004B0ECE7DFF8E81408607047DFF8E4140860CA
S315700004C070474FF48033002AC1F30B4103D00818EC
S315700004D0001D0360704708180830036070470000FD
S315700004E02DE9F8434FF40040FFF7E7FFDFF8B40457
S315700004F0016841F480310160016821F400310160C6
S31570000500DFF8A404FFF7D5FF002000F0FFFA00F033
S3157000051019FB012000F00CFBDFF890442068000AFC
S31570000520000240F07F002060DFF8845401212846E5
S31570000530FFF766FFDFF87C6401213046FFF760FF46
S31570000540DFF87404C1684909490141F01301C160BB
S3157000055001680029FCD50FF2485000F0FAFA0FF244
S31570000560485000F016FB1B21002000F004FC1021FF
S31570000570012000F000FC1821022000F0FCFB102185
S31570000580032000F0F8FB00F029FBDFF8307401223D
S31570000590DFF82C143846FFF794FFDFF82884D8F874
S315700005A0100020F40040C8F81000D8F8100020F4AD
S315700005B00000C8F81000386F40F40050386700F03B
S315700005C013FBDFF80494D9F8000040F48030C9F8C2
S315700005D00000D8F8100020F04040C8F81000D9F894
S315700005E0000040F40050C9F8000000F003FB01223F
S315700005F0DFF8D8133846FFF764FFD9F84000800853
S31570000600800040F00100C9F84000D9F8400040F47D
S315700006100050C9F84000D9F8400020F00C00C9F825
S315700006204000D9F8400040F48010C9F84000D9F86D
S31570000630400040F40010C9F8400000F0CAFA0122E8
S31570000640DFF88C133846FFF73CFF386A40F40050E9
S3157000065038620021DF48FFF7F6FE4FF48870FFF727
S3157000066026FF4FF48470FFF722FF40F21620FFF743
S315700006701EFF4FF40670FFF71AFF0321D648FFF7E7
S31570000680E2FE0121D548FFF7DEFE0321D448FFF7CD
S31570000690B7FE00213046FFF7B3FE0021D148FFF7C1
S315700006A0D2FE00212846FFF7ABFE4FF48A70FFF7A3
S315700006B0FEFE4FF48B70FFF7FAFE1820FFF7F7FE79
S315700006C01A20FFF7F4FE4FF48670FFF7F0FE012153
S315700006D0C548FFF7B8FE0021C448FFF791FE40F207
S315700006E00260FFF7E4FE0121C148FFF7ACFE00216E
S315700006F0C048FFF785FE40F20460FFF7D8FE01217F
S31570000700BD48FFF7A0FE0021BC48FFF779FE4FF405
S315700007104170FFF7CCFE07214FF21400FFF793FEEE
S315700007200021B748FFF76CFE0021B648FFF768FE58
S3157000073040F20A60FFF7BBFE0021B348FFF783FE65
S315700007400321B248FFF75CFE40F20220FFF7AFFECE
S315700007500121AF48FFF777FE0021AE48FFF750FE44
S315700007604FF48070FFF7A3FE4FF48170FFF79FFE82
S315700007704FF48270FFF79BFE4FF48370FFF797FE7E
S315700007800421A548FFF75FFE0221A448FFF738FE53
S315700007901620FFF78CFE0221A148FFF754FE0221B6
S315700007A0A048FFF72DFE40F21250FFF780FE03219E
S315700007B09D48FFF748FE01219C48FFF744FE002143
S315700007C09B48FFF71DFE40F21450FFF770FE0321A1
S315700007D09848FFF738FE01219748FFF734FE00214D
S315700007E09648FFF70DFE40F21650FFF760FE0321A4
S315700007F09348FFF728FE01219248FFF724FE002157
S315700008009148FFF7FDFD40F20620FFF750FE4FF4CA
S315700008100270FFF74CFE40F20A20FFF748FE0021F7
S315700008208A48FFF710FE00218948FFF7E9FD0E2080
S31570000830FFF73DFE1220FFF73AFE40F20670FFF713
S3157000084036FE1020FFF733FE1420FFF730FE4FF40C
S31570000850E160FFF72CFE01217E48FFF7F4FD0221CF
S315700008607D48FFF7CDFD4FF4A360FFF720FE1C20F7
S31570000870FFF71DFE0C20FFF71AFE4FF48C70FFF782
S3157000088016FE40F20230FFF712FE40F20630FFF716
S315700008900EFE40F21A50FFF70AFE40F20E60FFF7A6
S315700008A006FE00216D48FFF7CEFD00216C48FFF76C
S315700008B0A7FD40F20A30FFF7FAFD01216948FFF7FC
S315700008C0C2FD03216848FFF7BEFD05216748FFF7A3
S315700008D097FD40F20E50FFF7EAFD01216448FFF7DD
S315700008E0B2FD07216348FFF7AEFD03216248FFF7AB
S315700008F087FD40F20250FFF7DAFD01215F48FFF7EE
S31570000900A2FD07215E48FFF79EFD03215D48FFF7B4
S3157000091077FD4FF44070FFF7CAFD01215A48FFF783
S3157000092092FD07215948FFF78EFD03215848FFF7BE
S3157000093067FD00215748FFF763FDD8F800004009AE
S315700009404001C8F80000206E20F070002066206E0E
S315700009500009000140F001002066206E20F460005E
S315700009602066206E20F4F81040F490102066206EF9
S3157000097020F480702066206E20F080002066206E45
S3157000098020F080702066444844490860BDE8F183D1
S315700009900000000048C00F4068C00F4004000020EF
S315700009A008000020C0820D4000366E0100C00F4066
S315700009B0186C0080143900140000084000800D4047
S315700009C00D00700060810D40A0800D400D00E000AC
S315700009D00D00200014EA00041468008010E0004046
S315700009E01872008014FB00801CE007801C260080B3
S315700009F024EB00801C30008024F000801C310080C5
S31570000A0014270080142600801CF700801C7D00804F
S31570000A103CEB00803C69008018FA00801864008006
S31570000A2024790080186E008028E6008028E0078010
S31570000A301C6A00802CE600802CE007801C6C00800D
S31570000A4028F6008028F007801C6E008038F3078037
S31570000A503832008020E207802068008024E007801A
S31570000A602426008038EC008018F7008038EF00806C
S31570000A7030F9008030F600803074008030EC0080F1
S31570000A8030E900803067008028E9008028F900800E
S31570000A90207300800C2000800046C32300000020D5
S31570000AA0640000000000000001000000000000006B
S31570000AB00100000000000000DFF8E0020068C006D8
S31570000AC002D5DFF8DC027047DFF8D802006870479D
S31570000AD0090110EB11500068000C00F0010070471E
S31570000AE00A46120110EB1250006801F01F01C8404F
S31570000AF000F001007047090110EB11500068C0F357
S31570000B008130002800D1D7E700207047DFF89802BF
S31570000B104FF080418160DFF884120968C903FAD505
S31570000B204FF48031416002681204FCD581607047D1
S31570000B30DFF87812002802D1102008607047102064
S31570000B4048607047DFF85402016841F001010160A6
S31570000B507047DFF85C22116821F4404103799B03EA
S31570000B6003F44043194341F4803111601368DFF890
S31570000B7044120B40007800F07F00034343F40053A7
S31570000B80136010680028FCD5106820F4803010605F
S31570000B907047DFF82422116821F44041037B9B03E0
S31570000BA003F44043194341F4803111601368DFF850
S31570000BB00C120B40007800F00100034343F400531D
S31570000BC0136010680028FCD5106820F4803010601F
S31570000BD070470020DFF8E811086070474FF48050C6
S31570000BE0DFF8E011086070474FF48050DFF8E011CD
S31570000BF0086070474FF48050DFF8D811086070476E
S31570000C000000000070B50646DFF8A451314628464C
S31570000C10FFF766FF002801D1002070BD31462846D7
S31570000C20FFF769FF044631462846FFF751FF002853
S31570000C3040F09F800D3E19D04FF48010361A2DD09B
S31570000C40361A00F08D80361A16D04FF48000361A98
S31570000C502CD04FF44010361A4CD04FF48000361A10
S31570000C606CD0F61F72D0761E78D081E0286800F0BE
S31570000C707F00444364087CE0286DA0FB04012A6E63
S31570000C80002300F0B7F82A6BD20702D51622544318
S31570000C9002E004EB8402940004196AE02869800774
S31570000CA001D5162000E01420444362E02E6F06F052
S31570000CB07F06494A1068A0FB04011269002300F000
S31570000CC099F806FB0404286F10F4C01003D0B0F531
S31570000CD0002F02D002E0A40800E064083B480168D7
S31570000CE039480140B1F5004F02D0814224D040E02E
S31570000CF064083EE0384E356A05F07F05306BA0FB20
S31570000D000401326C002300F075F805FB0404306AA8
S31570000D1010F4C01003D0B0F5002F02D002E0A40882
S31570000D2000E064082948006800F04040B0F1804F48
S31570000D30DED0B0F1404F1CD1A4081AE02648006EF0
S31570000D4000F0030027A151F8204012E02248006EFF
S31570000D50C0F3810023A151F820400AE01F4C08E03F
S31570000D60286A800701D5162000E01420444300E06D
S31570000D700024204670BD10B4C000194A1468BF2301
S31570000D80834024EA0303802484401C43146001F0EA
S31570000D903F0181401943116010BC704770820D404D
S31570000DA000366E010400002050810D4074820D40A3
S31570000DB000800D4080EFFFFF30800D40FEEFFFFF9B
S31570000DC020800D4070800D400080800070810D4045
S31570000DD0A0800D40E0800D4080800D4040787D0100
S31570000DE000810D4040787D0180F0FA0200E1F50542
S31570000DF040597307BBBBE1B1B2F5803F80F07E808E
S31570000E00022A1ED98C46B1FBF2F102FB11C31B04F8
S31570000E1043EA1043B3FBF2FC02FB1C3380B240EA98
S31570000E200343B3FBF2F002FB103240EA0C4000239E
S31570000E307047022A05D98446B0FBF2F002FB10C255
S31570000E4070474AB105D100F0010249085FEA3000E7
S31570000E50704700220023704700F0E4B80B000200D0
S31570000E60002100207047904271EB030CF6D3B3F566
S31570000E70803F2FD2F0B5B3FA83F7B1FA81F4A7F1B8
S31570000E800F0E3D1B5340CEF1200602FA0EF2F341CF
S31570000E905340B5F10F0746D80F3C2C444140C4F17E
S31570000EA02006A040F1414140B1FBF3F603FB161159
S31570000EB0A2FB0645001BA94102D2761E8018594135
S31570000EC080EA010221FA0EF362FA0EF200215A400C
S31570000ED03046F0BD30B4B1FBF3FC03FB1C11A2FB32
S31570000EE00C45001BA94103D2ACF1010C8018594185
S31570000EF030BC02460B46604600217047B2F1807FD7
S31570000F0065D3F0B5B2FA82F7B1FA81F4C7F10F067C
S31570000F103D1B22FA06F307F1110EF24120355A40B5
S31570000F20B5F10F07B8D94140C4F12006A040F14190
S31570000F304140B1FBF3FC03FB1C11A2FB0C45001BEB
S31570000F40A94103D2BCF1010C801859410F2F12D35D
S31570000F500F3FC90341EA5041B1FBF3F603FB16118B
S31570000F60A2FB0645D4EBC030A94102D2761E80188A
S31570000F70594146EACC3C07B34140C7F12006B84018
S31570000F80F1414140B1FBF3F603FB1611A2FB064596
S31570000F90001BA94102D2761E8018594180EA0102CF
S31570000FA021FA0EF3C7F1200462FA0EF20CFA07F07A
S31570000FB05A402CFA04F13043F0BD80EA010221FA5E
S31570000FC00EF3002162FA0EF260465A40F0BD8C466E
S31570000FD0B1FBF2F102FB11C31B0243EA1063B3FBD0
S31570000FE0F2FC02FB1C331B024CEA002043EA10633E
S31570000FF0B3FBF2FC02FB1C331B024CEA002043EAF3
S315700010001063B3FBF2FC02FB1C331B024CEA00209C
S3157000101043EA1063B3FBF2FC02FB1C324CEA00207D
S3157000102000237047704730B4002513E050F8042B46
S31570001030D30744BFA9F101039A18091F042942F87E
S31570001040045BFAD213468C0744BF15809B1CC907F4
S3157000105048BF1D7050F8041B0029E7D130BC70479B
S3157000106010B400F01F02DFF85C32000A03EB800058
S31570001070036803249440A34391401943016010BC54
S3157000108070470321ECE7816841F002018160816855
S3157000109021F002018160704701460020092807D2BD
S315700010A00FF2582252F820208A4201D0401CF5E7F0
S315700010B070472DE9F0410B680026354604242AE076
S315700010C004FB07FCB2FBFCFCE6461FFA8EFEBEF183
S315700010D0000F01D14FF0010CE6461FFA8EFE0EFB93
S315700010E004FEB2FBFEFEAEEB070EE0461FFA88F872
S315700010F008F1010808FB04F8B2FBF8F8A7EB08073B
S31570001100774502D2BE460CF1010C734502D3734685
S3157000111026466546641C0F68202CD1D90C4664217E
S31570001120B7FBF1F101EB4101994202D240F2215035
S315700011308AE00746FFF7B0FF0FF2E41131F91000AD
S31570001140FFF79FFF3846FFF79EFF3969301F042867
S3157000115001D241F40031DFF870010140761E360687
S3157000116006F0F8560E43ADB2C5F30C052E433E613C
S31570001170386920F000503861B969DFF850010140D4
S3157000118020790246E37B1B0203F4E0631A43A37BD8
S315700011909B0003F004031A4311436279012A07D1B5
S315700011A0002802D021F4006106E041F4006103E0FA
S315700011B0002801D041F01001B961386920F400505F
S315700011C0E179490301F4005108433861607A217A64
S315700011D041EA0041F962B86A40F08800B862B86ABC
S315700011E040F44040B862DFF8E810786A627B12011A
S315700011F002F01002237B5B0103F020031A431043B5
S315700012007862A07A002803D0786A40F00800786285
S31570001210E07A002803D0786A40F001007862A079FD
S31570001220002801D0DFF8AC10786901437961B9699B
S31570001230207C002801D041F40021607C002801D078
S3157000124041F48021B9610020BDE8F0814FF4E131AD
S3157000125001600021017141718171C1710172417228
S315700012608172C172417301738173C1730174417468
S315700012707047194A51681948526A1047164A916858
S315700012801748526A1047144AD1681648526A10476E
S31570001290114A11691448526A10470F4A5169134826
S315700012A0526A10470C4A91691148526A10470A4AA5
S315700012B0D1691048526A1047074A116A0E48526A35
S315700012C01047000068C00F4000E0FFE0E8F8FFFF3D
S315700012D000C01FC000C01FE014000020004018406E
S315700012E00080184000C018400000194000401940A6
S315700012F00080194000C0194000001A40000000002C
S31570001300004018400080184000C018400000194086
S31570001310004019400080194000C0194000001A4072
S31570001320FFFF18051C000C001801020306031A05BE
S315700013300E060000BFF34F8FBFF36F8F00208349F7
S315700013400860BFF34F8FBFF36F8F8148016841F418
S3157000135000310160BFF34F8FBFF36F8F704730B4AA
S315700013607B4900200867BFF34F8FCA6EC2F34E33B6
S31570001370784DC2F3C90443F6E07000EA431040EAC0
S31570001380847028602046441E0028F4D11846431EF7
S315700013900028EED1BFF34F8F086840F480300860A4
S315700013A0BFF34F8FBFF36F8F30BC704710B56A496C
S315700013B00A894FF6FE7002400A81684A1389034013
S315700013C013810888400704D50B884FF6FB700340DD
S315700013D00B801088400704D511884FF6FB700140CA
S315700013E011805F485F4941604FF6FF718160016807
S315700013F021F0800141F0200101605B480168C90756
S3157000140003D50168490849000160514C2068800382
S3157000141001D4FFF78FFF2068C00301D4FFF79FFF49
S31570001420BDE8104000F0ACB870B5504C504A6068DA
S31570001430800129D5A06810F4405006D0B0F5805FC1
S3157000144017D0B0F5005F16D016E01069C0031069AA
S3157000145007D5C0F38130002801D146490DE000213F
S315700014600BE0800701D5162100E014214148414365
S3157000147003E0404901E0106B00216068C0F3C26070
S31570001480401CB1FBF0F657E01068C00308D5106831
S31570001490C0F38130002801D1364D07E0002505E004
S315700014A0156805F07F05334845436D08106BC0031A
S315700014B0106B07D5C0F38130002801D12D4E08E09E
S315700014C0002606E0C00701D5162600E01426294836
S315700014D04643106D2749A1FB0001126E0023FFF7EA
S315700014E089FC8619A06810F4402025D0B0F5802FAD
S315700014F006D0B0F5002F0DD0B0F5402F14D01AE0FD
S315700015001D480068C0F30540B6FBF0F000EBC00163
S315700015104E0011E01848006800F03F00B6FBF0F08E
S3157000152000EBC0014E0007E0206800F00700401C89
S31570001530B5FBF0F600E000266068C0F38220401C20
S31570001540B6FBF0F00D49086070BD000050EF00E08A
S3157000155014ED00E060EF00E000800B4000000D40ED
S3157000156000C00B4020C528D910E000E010C00F4025
S3157000157000800D4000366E0100810D400000002095
S315700015807047FEE710B400F01F02064B000A03EB2B
S315700015908000036803249440A3439140194301607B
S315700015A010BC704768C00F400321EBE740E00000B5
S315700015B0014600200A2806D23CA252F820208A4210
S315700015C001D0401CF6E77047F8B504460D4616463E
S315700015D0FFF7EEFF3FA131F91000FFF7E5FF012796
S315700015E0AF40F9436069084060613078002803D1E4
S315700015F060680140616007E072782946204600F015
S3157000160009F8606807436760B27829462046BDE8E6
S31570001610F840CBE7012303FA01F1002A026803D1EF
S3157000162022EA0101016070471143016070470000B2
S3157000163030B4012404FA01F5C369AB43C3611029C0
S3157000164002D200F10C0302E000F110031039521EB1
S31570001650042A29D8DFE802F0030A131E25001A6847
S31570001660032448008440A2431A601DE048001968AC
S3157000167003228240914384400C431C6014E048006E
S315700016801968032282409143022202FA00F008434D
S31570001690186009E01A6803244800844022431A60DF
S315700016A002E0C1690D43C56130BC7047000000009F
S315700016B000801B4000C01B4000001C4000401C40C6
S315700016C000000C40000000420040004200800042D2
S315700016D000C00042FFFF1A011E001A020C031E0111
S315700016E00901020002D4314881547047304802F033
S315700016F00F02104400F8041C704710B5401EB0F17C
S31570001700807F01D3012010BD2A4C60600F214FF0FD
S31570001710FF30FFF7E5FF0020A06007202060002063
S3157000172010BD25490868002802D00868401E086068
S3157000173070472149086008680028FCD1704700008E
S3157000174038B500BF20A00068009000F065F8FEF77D
S31570001750C7FE00F0CEF8FFF767FE184C6A460921FF
S315700017602046FFF731FF164800684FF47A71B0FBD8
S31570001770F1F0FFF7C2FF0028124D07D0FEE70022F6
S3157000178009212046FFF746FF002028704FF47A7033
S31570001790FFF7CFFF28780028F1D1012209212046D2
S315700017A0FFF738FF01202870F0E7000000E400E042
S315700017B018ED00E010E000E03C00002000C01B4087
S315700017C000000020400000200100000010B400F06E
S315700017D01F021F4B000A03EB80000368032494402A
S315700017E0A34391401943016010BC70470321EDE794
S315700017F010B4029C01F00F01240104F0100421437F
S315700018000160002A00D0136010BC70470098002851
S3157000181001D00199016070473EB540F20240FFF772
S31570001820E5FF0C4C0C4D00200190009503460246D6
S3157000183005212046FFF7DCFF41F2B00001900095CC
S3157000184000231A4605212046FFF7E0FF37BD00004A
S3157000185068C00F4060811F4050831F4001460A4692
S31570001860120A02F01F0201F0FF0000F1804000F53D
S315700018707C200068C1F34C3191400840D0407047DD
S3157000188001460A46120A02F01F0201F0FF0000F13B
S31570001890804000F57C200068C1F34C3191400840CF
S315700018A0D040704719480068C00601D5184870477F
S315700018B018480068704738B5174C1848FFF7CEFFC0
S315700018C000280CD11648FFF79DF90621B0FBF1F5FB
S315700018D02046FFF7D5FF401CB5FBF0F032BDFFF791
S315700018E0E1FF05462046FFF7CBFF401CB5FBF0F045
S315700018F032BD80B5FFF7DFFF034602224FF4E131B8
S315700019000848BDE8005000F00FB8000070820D4026
S3157000191000366E010400002024E007802426008033
S315700019200D0010000040184018B414460A462146AF
S3157000193001B010BC00F000B81CB514461A460090F1
S315700019408DF8041000232146684600F019F800202F
S3157000195016BDFEE70029816903D041F4002181613B
S31570001960704721F40021816170470029816903D095
S3157000197041F480218161704721F480218161704733
S3157000198078B585B00C46154601790C4E31710068F4
S315700019903060022910D16846FFF758FC00942A4639
S315700019A069463068FFF785FB01213068FFF7D2FF83
S315700019B001213068FFF7D9FF06B070BD0C0000201A
S315700019C030B450F8041B79B1026843680244083099
S315700019D0DC0744BFA9F10104E31852F8045B43F82D
S315700019E0045B091FF9D1ECE730BC704772B6054845
S315700019F0054901600A6882F308880448804762B620
S31570001A000348004708ED00E000000070AD13007059
S31570001A109D1A007010B5074979441831064C7C44FC
S31570001A20163404E00A68081D114488470146A1422D
S31570001A30F8D110BD0800000028000000EBF5FFFF8C
S31570001A4040000000040000200000000075FFFFFF4A
S31570001A5004000000F80100000000002000000000F3
S31570001A600120C046002801D0FFF7D4FFAFF30080F5
S31570001A700020AFF30080FFF763FE00F000F800F07F
S31570001A8001B8FEE70746384600F002F8FBE7FEE7C6
S31570001A902021090326311820ABBEF9E7AFF3008089
S31570001AA0AFF30080FFF7DCFF00480047491C007069
S31570001AB000480047491C007000480047491C0070E8
S31570001AC000480047491C007000480047491C0070D8
S31570001AD000480047491C007000480047491C0070C8
S31570001AE000480047491C007000480047491C0070B8
S31570001AF000480047491C007000480047491C0070A8
S31570001B0000480047491C007000480047491C007097
S31570001B1000480047491C007000480047491C007087
S31570001B2000480047491C007000480047491C007077
S31570001B300048004773120070004800477D1200701D
S31570001B4000480047871200700048004791120070E5
S31570001B50004800479B12007000480047A5120070AD
S31570001B6000480047AF12007000480047B912007075
S31570001B7000480047491C007000480047491C007027
S31570001B8000480047491C007000480047491C007017
S31570001B9000480047491C007000480047491C007007
S31570001BA000480047491C007000480047491C0070F7
S31570001BB000480047491C007000480047491C0070E7
S31570001BC000480047491C007000480047491C0070D7
S31570001BD000480047491C007000480047491C0070C7
S31570001BE000480047491C007000480047491C0070B7
S31570001BF000480047491C007000480047491C0070A7
S31570001C0000480047491C007000480047491C007096
S31570001C1000480047491C007000480047491C007086
S31570001C2000480047491C007000480047491C007076
S31570001C3000480047491C007000480047491C007066
S31570001C4000480047491C0070FFF7FEBF00A4781FCC
S30D70001C50FEE7FEE7FEE7FEE782
S70570001A9DD3
