:1020000000000220C1320000672900004F2B0000B1
:10201000E72B00008B2E000047330000000000007B
:10202000000000000000000000000000533300002A
:102030009D350000000000009F350000A135000024
:102040009935000099350000993500009935000058
:102050009935000099350000993500009935000048
:102060009935000099350000993500009935000038
:102070009935000099350000993500009935000028
:102080009935000099350000993500009935000018
:102090000D340000153400001D340000253400000C
:1020A0002D340000353400003D340000453400007C
:1020B0004D340000553400005D34000065340000EC
:1020C0006D340000753400007D340000853400005C
:1020D0008D340000953400009D340000A5340000CC
:1020E000AD340000B5340000BD340000C53400003C
:1020F000CD340000D5340000DD340000E5340000AC
:10210000ED340000F53400009935000099350000E9
:102110009935000099350000993500009935000087
:102120009935000099350000993500009935000077
:102130009935000099350000993500009935000067
:102140009935000099350000993500009935000057
:102150009935000099350000993500009935000047
:102160009935000099350000993500009935000037
:10217000FD340000053500000D3500001535000068
:102180001D350000253500002D3500009935000073
:102190009935000099350000993500009935000007
:1021A00099350000993500009935000099350000F7
:1021B00099350000993500009935000099350000E7
:1021C00099350000993500009935000099350000D7
:1021D00099350000993500009935000099350000C7
:1021E00099350000993500009935000099350000B7
:1021F0009935000099350000353500003D35000067
:102200009935000099350000993500009935000096
:102210009935000099350000993500009935000086
:102220009935000099350000993500009935000076
:102230009935000099350000993500009935000066
:102240009935000099350000453500004D350000F6
:1022500099350000553500005D35000099350000C6
:1022600099350000653500006D3500009935000096
:102270009935000099350000993500009935000026
:102280009935000099350000993500009935000016
:102290009935000099350000993500009935000006
:1022A00099350000993500009935000099350000F6
:1022B00099350000993500009935000099350000E6
:1022C00099350000993500009935000099350000D6
:1022D00099350000993500009935000099350000C6
:1022E00099350000993500009935000099350000B6
:1022F00099350000993500009935000099350000A6
:102300009935000099350000993500009935000095
:102310009935000099350000993500009935000085
:102320009935000099350000993500009935000075
:102330009935000099350000993500009935000065
:102340009935000099350000993500009935000055
:102350009935000099350000993500009935000045
:102360009935000099350000993500009935000035
:102370009935000099350000993500009935000025
:102380009935000099350000753500007D35000055
:10239000853500008D350000993500009935000025
:1023A00099350000993500009935000099350000F5
:1023B00099350000993500009935000099350000E5
:1023C00099350000993500009935000099350000D5
:1023D00099350000993500009935000099350000C5
:1023E00099350000993500009935000099350000B5
:1023F000993500009935000099350000FFFFFFFF77
:102400002DE9F04F84460D001400099E0020E2469D
:102410005FF0000B8AF800B01AF1010A002C24D0FA
:10242000D5F800B05946002905D15FF0300B8AF885
:1024300000B0401C42E0002940D091FBF3FBDE4697
:1024400003FB1E1BBBF1000F05D55F467FEA0709A2
:1024500019F1310902E0D94619F1300971468AF8BB
:1024600000901AF1010A401CE5E7D5F800B05A4681
:10247000002A05D15FF0300B8AF800B0401C1DE047
:10248000002A1BD0B2FBF3FBD84603FB182BBBF191
:102490000A0F02D25F46303709E03700FFB2002F43
:1024A00001D0412700E061270A3F17EB0B074246A6
:1024B0008AF800701AF1010A401CE1E7BDE8F08FCC
:1024C0002DE9F54F91B08B461F0000265FF0000804
:1024D0000020029000208DF8040000200490DDF818
:1024E00044A09AF800000500002D00F00D81252D74
:1024F00007D0012328000200D2B202A91298B847DF
:10250000FFE001208DF805000020814600200390A7
:102510000398002813D11AF1010A9AF80000050067
:10252000302D07DB3A2D05DA0A21B5F1300001FB29
:102530000909EDE7BAF1010A01200390E8E7062056
:1025400005901AF1010108782E2819D10020059074
:10255000002003900398002813D1491C0878050037
:10256000302D09DB3A2D07DA059A0A23B5F1300040
:1025700003FB02020592EDE7491E01200390E9E703
:10258000491E11F1010A9AF800000500642D11D0CE
:10259000692D0FD0662D0DD0462D0BD0782D09D08A
:1025A000582D07D06F2D05D0622D03D0702D01D08E
:1025B000752D72D1642D01D0692D11D1DBF8000089
:1025C0001BF1040B06909DF8050000900A230122E0
:1025D00006A908A8FFF714FF804608A84044060093
:1025E000582D01D0782D16D1782D02D100208DF8EC
:1025F0000500DBF800001BF1040B04909DF80500BA
:1026000000901023002204A908A8FFF7F9FE8046D5
:1026100008A8404406006F2D05D0622D03D0702D10
:1026200001D0752D27D1DBF800001BF1040B0490BD
:102630006F2D03D108208DF804000EE0622D03D128
:1026400002208DF8040008E0702D03D110208DF8D1
:10265000040002E00A208DF804009DF805000090B7
:102660009DF80430002204A908A8FFF7C9FE80469F
:1026700008A840440600B9EB0803202202A91298DA
:10268000B847002E3DD0307800283AD00123327868
:1026900002A91298B847761EF5E7632D0DD1DBF835
:1026A00000001BF1040BC0B2079001230798020041
:1026B000D2B202A91298B84723E0732D1AD1DBF8E1
:1026C00000001BF1040B0400002C1AD0200000F0C5
:1026D0001FF88046B9EB0803202202A91298B847D8
:1026E000207800280DD00123227802A91298B8473B
:1026F000641CF5E7012328000200D2B202A9129857
:10270000B8471AF1010AECE6029813B0BDE8F08F61
:1027100000F10103810704D010F8011B820781B189
:10272000FAD10268A2F10131914311F0803104BF66
:1027300050F8042FF6E709BAB1FA81F100EBD100A5
:10274000401CC01A704730B4002513E050F8042B29
:10275000D30744BFA9F101039A18091F042942F8BD
:10276000045BFAD213468C0744BF15809B1CC90733
:1027700048BF1D7050F8041B0029E7D130BC7047DA
:1027800010B4484A11F001030400E4B26401145982
:1027900014F00104A34205D011F001030400E4B2D7
:1027A0006401135110BC704710B5040001212000D2
:1027B000C0B2FFF7E5FF10BD70B504000D001600B4
:1027C0003200D2B22900200000F078F870BD38B590
:1027D000040000250F2D06D2334850F82500A042F2
:1027E00001D06D1CF6E70F2D06D339222F49304852
:1027F00000F0BAF8AFF30080280032BD2DE9F041B7
:1028000004000D0016002000FFF7E1FF07000E2F67
:1028100006D22848C15D8A2902D0C05DFFF7C4FFF7
:102820005FF00108616918FA05F081436161307851
:10283000002807D1606818FA05F830EA0808C4F8DB
:1028400004800BE072782900200000F00EF8606828
:1028500018FA05F858EA0008C4F80480B27829008C
:102860002000FFF7A9FFBDE8F08170B504000D005E
:102870001600202D06D371220C490F4800F074F881
:10288000AFF300803000C0B2002805D120680121DC
:10289000A9408843206004E020680121A940084342
:1028A000206070BD0060CC4024320000C4300000C5
:1028B000E83100006833000094330000F0B40C00ED
:1028C0000126C56916FA01F39D43C561102902D29C
:1028D00010F10C0502E010F11005103C1300DBB202
:1028E000012B07D03DD3032B1ED00CD3052B33D0A7
:1028F00029D336E02E6803272300DBB25B009F401C
:10290000BE432E602DE02F685FF0030C2300DBB286
:102910005B001CFA03FC37EA0C072300DBB25B0008
:102920009E403E432E601CE02E6803272300DBB24E
:102930005B009F40BE4302272300DBB25B009F4049
:102940003E432E600DE02E6803272300DBB25B00C0
:102950009F403E432E6004E0C3698E401E43C66123
:10296000FFE7F0BC7047FEE770B504000D001600ED
:1029700033002A002100024800F047F800BEFDE7BE
:102980009432000070B505000C0043F22156002D72
:1029900007D140F2D1122E492E48FFF7E5FFAFF3E1
:1029A0000080002C07D14FF4E97229492A48FFF72B
:1029B000DBFFAFF3008022002900284800F0AFF8C9
:1029C000002801D05FF0FF34200070BD2DE9F041F8
:1029D00004000D0016001F0000205FF00008B8453D
:1029E00011DA2868401C802805D329682000FFF7E9
:1029F000C9FF00202860286826542868401C2860E9
:102A000018F10108EBE7BDE8F0810EB42DE9F841BB
:102A1000A0B00400002500266846802100F094F84C
:102A20000F480068002801D100200BE027AF0D4BB4
:102A30006A4639002000FFF743FD8046414668465C
:102A4000FFF7A0FF21B0BDE8F0015DF810FB00002A
:102A5000782F0000C4330000883300001C000020E1
:102A600024000020CD2900002DE9F04105000C00D4
:102A700016001F0043F221508046002C0BD0297B0A
:102A8000012907D13A00310015F1080000F060F883
:102A9000804600E08046404600B2BDE8F0812DE966
:102AA000F04107000E001500002F09D140F20E3250
:102AB000DFF88010DFF88000FFF756FFAFF30080EB
:102AC000002E09D140F20F32DFF86810DFF86C00F9
:102AD000FFF74AFFAFF30080002D09D14FF4447295
:102AE000DFF85010DFF85800FFF73EFFAFF300802B
:102AF000B846D8F80040002C09D140F21532DFF872
:102B00003410DFF84000FFF72FFFAFF300802B00F9
:102B1000320041462000FFF7A7FFBDE8F08170B505
:102B200004000D001600320029002000FFF7B7FF57
:102B300070BD0000F42F0000AC330000E43300004F
:102B4000EC330000F4330000002200F033B8FEE75D
:102B5000F8B506000D001400002E07D140F20B124C
:102B600010491148FFF700FFAFF30080002D07D197
:102B70004FF486720B490D48FFF7F6FEAFF3008065
:102B8000002C07D140F20D1206490948FFF7ECFE70
:102B9000AFF30080370022002900380000F024F84D
:102BA000F2BD00005C30000078330000FC33000010
:102BB0000434000000B500BF130096469446103957
:102BC00028BFA0E80C50FAD85FEA417C28BF0CC0AF
:102BD00048BF40F8042BC90728BF20F8022B48BF84
:102BE00000F8012B00BDFEE7F8B506000D0014004B
:102BF000002E07D140F2551212491348FFF7B4FED8
:102C0000AFF30080002D07D14FF4AB720D4910488F
:102C1000FFF7AAFEAFF30080002C07D140F2571255
:102C200008490C48FFF7A0FEAFF3008037002200F0
:102C3000290006483B7850F8230000F00DF80020EA
:102C4000F2BD00008C310000CC3300006032000087
:102C5000D4330000DC33000070B505000C00160012
:102C6000002C09D140F24132DFF82810DFF82800AB
:102C7000FFF77AFEAFF3008021003000002807D074
:102C80006A691202FCD50A78EA61491C401EF5E720
:102C900070BD000028310000A033000080B520483E
:102CA000416821481F4A1268904701BD80B51C4801
:102CB00081681E481B4A1268904701BD000080B51C
:102CC0001748C1681A48174A1268904701BD80B575
:102CD000134801691748134A1268904701BD80B52F
:102CE0000F48416914480F4A1268904701BD80B5EA
:102CF0000B48816911480B4A1268904701BD80B5A5
:102D00000748C1690E48074A1268904701BD80B55F
:102D10000348016A0B48034A1268904701BD00004E
:102D2000280000205C00002000C007400000084090
:102D3000004008400080084000C0084000000940F2
:102D40000040094000800940BFF34F8FBFF36F8FF1
:102D500000203E490860BFF34F8FBFF36F8F3C48A0
:102D6000016851F400310160BFF34F8FBFF36F8FE3
:102D7000704710B4002037490860BFF34F8F3648C2
:102D80000168C1F34E32C1F3C900030043F6E0709D
:102D900010EA421050EA8370304C20601800431E45
:102DA0000028F3D11000421E0028ECD1BFF34F8F52
:102DB0002748046854F480340460BFF34F8FBFF396
:102DC0006F8F10BC704710B525490888400704D59F
:102DD0000A884FF6FB7002400A80224908884007A3
:102DE00004D50A884FF6FB7002400A801E481F492E
:102DF00008604FF6FF711E4A11601E4A136833F0D7
:102E0000800353F0200313601B4A10601B480160CD
:102E10001B48016831F0800151F020010160194820
:102E20000168C90703D50168490849000160084CD9
:102E30002068800301D4FFF787FF2068C00301D416
:102E4000FFF797FF00F020F810BD000050EF00E002
:102E500014ED00E084ED00E080ED00E060EF00E0C4
:102E6000000003400040034020C528D904800340EF
:102E700008800340008003400400C1400800C140B6
:102E80000000C14010E000E07047FEE71D494EF62B
:102E9000602202FB00F20023C1E90023D1E90023F4
:102EA000002B01D1002A08D000BFD1E90023521E17
:102EB00073F10003C1E90023F0E7704738B5124809
:102EC0000068009000F03CF8104C6A460221200097
:102ED000FFF794FCC820FFF7D9FF0D4D2878002894
:102EE00007D0002202212000FFF7BFFC002028703D
:102EF000F0E7012202212000FFF7B7FC0120287033
:102F0000E8E7000000000020943500000040C640C3
:102F10006000002070B4049C11F00F05260116F02B
:102F2000100635430560002A00D0136070BC70475E
:102F300030B4029C039D002C00D0256030BC70474B
:102F40003EB50B4C0B4D0020019000950023002254
:102F50000A212000FFF7DEFF4FF485500190009515
:102F6000002300220A212000FFF7E2FF37BD000006
:102F700018810E405C830E40443A5C7265735F6357
:102F80006869705F692E6D7872745F636D375C532A
:102F9000444B5F65766B6D696D7274313137305FAC
:102FA00068656C6C6F5F776F726C645F3139303558
:102FB00033315C646576696365735C4D494D585285
:102FC00054313137355C7574696C69746965735C4B
:102FD00064656275675F636F6E736F6C655C667363
:102FE0006C5F64656275675F636F6E736F6C652E8F
:102FF00063000000443A5C7265735F636869705FE8
:10300000692E6D7872745F636D375C53444B5F65F6
:10301000766B6D696D7274313137305F68656C6CD9
:103020006F5F776F726C645F3139303533315C6359
:103030006F6D706F6E656E74735C73657269616CD1
:103040005F6D616E616765725C73657269616C5F0B
:103050006D616E616765722E63000000443A5C72B8
:1030600065735F636869705F692E6D7872745F6302
:103070006D375C53444B5F65766B6D696D7274316F
:103080003137305F68656C6C6F5F776F726C645F4F
:103090003139303533315C636F6D706F6E656E74CE
:1030A000735C73657269616C5F6D616E6167657297
:1030B0005C73657269616C5F706F72745F75617269
:1030C000742E6300443A5C7265735F636869705F75
:1030D000692E6D7872745F636D375C53444B5F6526
:1030E000766B6D696D7274313137305F68656C6C09
:1030F0006F5F776F726C645F3139303533315C6488
:103100006576696365735C4D494D5852543131376A
:10311000355C647269766572735C66736C5F677048
:10312000696F2E6300000000443A5C7265735F6350
:103130006869705F692E6D7872745F636D375C5378
:10314000444B5F65766B6D696D7274313137305FFA
:1031500068656C6C6F5F776F726C645F31393035A6
:1031600033315C646576696365735C4D494D5852D3
:1031700054313137355C647269766572735C66739D
:103180006C5F6C70756172742E630000443A5C72FF
:1031900065735F636869705F692E6D7872745F63D1
:1031A0006D375C53444B5F65766B6D696D7274313E
:1031B0003137305F68656C6C6F5F776F726C645F1E
:1031C0003139303533315C636F6D706F6E656E749D
:1031D000735C756172745C6C70756172745F61644C
:1031E00061707465722E6300696E7374616E6365DD
:1031F000203C202873697A656F6628735F67706961
:103200006F426173657329202F2073697A656F6639
:103210002828735F6770696F4261736573295B303B
:103220005D2929000080004200C0004200C0124019
:1032300000001340004013400080134000C01340C2
:103240000000144000C0C5400000C6400040C64019
:103250000080C64000C0C6400000C7400000CA4011
:103260000000000000C00740000008400040084087
:103270000080084000C008400000094000400940AC
:103280000080094000C0094000000A400040C240E0
:103290000080C240415353455254204552524F5230
:1032A000202220257320223A2066696C6520222581
:1032B0007322204C696E652022256422200A0000BA
:1032C00072B60548054901600A6882F30888044817
:1032D000804762B60348004708ED00E00020000088
:1032E000C72D0000B933000010B5074979441831E3
:1032F000064C7C44163404E00A68081D11448847D3
:103300000146A142F8D110BD0800000014000000E1
:1033100037F4FFFF64000000000000200000000000
:1033200000F00DF8002801D0FFF7DEFFAFF30080BA
:103330000020AFF30080FFF7C1FD00F002F801208C
:10334000704700F001B8FEE70746384600F002F883
:10335000FBE7FEE780B5AFF30080024A11001820BA
:10336000ABBEFBE7260002008A33333333333333FB
:10337000333333333333000073657269616C4861F2
:103380006E646C65000000003020213D2073697A76
:103390006500000070696E203C20333200000000A0
:1033A0003020213D206461746100000077726974EF
:1033B0006548616E646C6500AFF30080AFF3008018
:1033C000FFF7AEFF3020213D2063680068616E6426
:1033D0006C65000064617461000000006C656E67DC
:1033E0007468000062756666657200006C656E67E1
:1033F0007468000068616E646C65000062756666E2
:10340000657200006C656E677468000000480047D4
:103410009D2C000000480047AD2C000000480047EC
:10342000BF2C000000480047CF2C00000048004798
:10343000DF2C000000480047EF2C00000048004748
:10344000FF2C0000004800470F2D000000480047F7
:1034500099350000004800479935000000480047B2
:1034600099350000004800479935000000480047A2
:103470009935000000480047993500000048004792
:103480009935000000480047993500000048004782
:103490009935000000480047993500000048004772
:1034A0009935000000480047993500000048004762
:1034B0009935000000480047993500000048004752
:1034C0009935000000480047993500000048004742
:1034D0009935000000480047993500000048004732
:1034E0009935000000480047993500000048004722
:1034F0009935000000480047993500000048004712
:103500009935000000480047993500000048004701
:1035100099350000004800479935000000480047F1
:1035200099350000004800479935000000480047E1
:1035300099350000004800479935000000480047D1
:1035400099350000004800479935000000480047C1
:1035500099350000004800479935000000480047B1
:1035600099350000004800479935000000480047A1
:103570009935000000480047993500000048004791
:103580009935000000480047993500000048004781
:103590009935000001000000FFF7FEBFFEE7FEE7DF
:0235A000FEE744
:04000005000033B90B
:00000001FF
