S0170000696C65645F626C696E6B795F636D372E7372656321
S3156000200000000420856600602B370060A7380060FA
S315600020104B3A00603B4000608B440060000000006B
S31560002020000000000000000000000000C3440060E3
S315600020301F670060000000002B6700606B5E006039
S315600020406968006071680060796800608168006036
S31560002050896800609168006099680060A1680060A6
S31560002060A9680060B1680060B9680060C168006016
S31560002070C9680060D1680060D9680060E168006086
S31560002080E9680060CD6A0060CD6A0060CD6A006074
S31560002090F1680060F96800600169006009690060C4
S315600020A01169006019690060216900602969006032
S315600020B031690060396900604169006049690060A2
S315600020C05169006059690060616900606969006012
S315600020D07169006079690060816900608969006082
S315600020E09169006099690060A1690060A9690060F2
S315600020F0B1690060B9690060C1690060C969006062
S31560002100D1690060D9690060CD6A0060CD6A0060FF
S31560002110CD6A0060CD6A0060CD6A0060CD6A0060FD
S31560002120CD6A0060CD6A0060CD6A0060CD6A0060ED
S31560002130CD6A0060CD6A0060CD6A0060CD6A0060DD
S31560002140CD6A0060CD6A0060CD6A0060CD6A0060CD
S31560002150CD6A0060CD6A0060CD6A0060CD6A0060BD
S31560002160CD6A0060CD6A0060CD6A0060E16900609A
S31560002170E9690060F1690060F9690060016A006000
S31560002180096A0060116A0060196A0060CD6A0060C1
S31560002190CD6A0060CD6A0060CD6A0060CD6A00607D
S315600021A0CD6A0060CD6A0060CD6A0060CD6A00606D
S315600021B0CD6A0060CD6A0060CD6A0060CD6A00605D
S315600021C0CD6A0060216A0060CD6A0060CD6A0060F9
S315600021D0CD6A0060CD6A0060CD6A0060CD6A00603D
S315600021E0CD6A0060CD6A0060CD6A0060CD6A00602D
S315600021F0CD6A0060CD6A0060296A0060316A00605D
S31560002200CD6A0060CD6A0060CD6A0060CD6A00600C
S31560002210CD6A0060CD6A0060CD6A0060CD6A0060FC
S31560002220CD6A0060CD6A0060CD6A0060CD6A0060EC
S31560002230CD6A0060CD6A0060CD6A0060CD6A0060DC
S31560002240CD6A0060CD6A0060396A0060416A0060EC
S31560002250CD6A0060496A0060516A0060CD6A0060BC
S31560002260CD6A0060596A0060616A0060696A0060F0
S31560002270716A0060796A0060816A0060CD6A006098
S31560002280CD6A0060CD6A0060CD6A0060CD6A00608C
S31560002290CD6A0060CD6A0060CD6A0060CD6A00607C
S315600022A0CD6A0060CD6A0060CD6A0060CD6A00606C
S315600022B0CD6A0060CD6A0060CD6A0060CD6A00605C
S315600022C0CD6A0060CD6A0060CD6A0060CD6A00604C
S315600022D0CD6A0060CD6A0060CD6A0060CD6A00603C
S315600022E0CD6A0060CD6A0060CD6A0060CD6A00602C
S315600022F0CD6A0060CD6A0060CD6A0060CD6A00601C
S31560002300CD6A0060CD6A0060CD6A0060CD6A00600B
S31560002310CD6A0060CD6A0060CD6A0060CD6A0060FB
S31560002320CD6A0060CD6A0060CD6A0060CD6A0060EB
S31560002330CD6A0060CD6A0060CD6A0060CD6A0060DB
S31560002340CD6A0060CD6A0060CD6A0060CD6A0060CB
S31560002350CD6A0060CD6A0060CD6A0060CD6A0060BB
S31560002360896A0060916A0060996A0060A16A00608B
S31560002370CD6A0060CD6A0060CD6A0060CD6A00609B
S31560002380CD6A0060CD6A0060A96A0060B16A0060CB
S31560002390B96A0060C16A0060CD6A0060CD6A00609B
S315600023A0CD6A0060CD6A0060CD6A0060CD6A00606B
S315600023B0CD6A0060CD6A0060CD6A0060CD6A00605B
S315600023C0CD6A0060CD6A0060CD6A0060CD6A00604B
S315600023D0CD6A0060CD6A0060CD6A0060CD6A00603B
S315600023E0CD6A0060CD6A0060CD6A0060CD6A00602B
S315600023F0CD6A0060CD6A0060CD6A0060FFFFFFFFB6
S31560002400DFF84817C0010858C0F302207047DFF8AC
S315600024103C17C001085800F0FF00401C704738B5F3
S315600024200446FFF7EDFFDFF82016224601EBC201F6
S31560002430085C00F0ABFC05462046FFF7E8FFB5FBFD
S31560002440F0F4002C09D140F69102DFF80016DFF8AF
S315600024501C0700F07BFDAFF30080204632BD0020F4
S31560002460DDE770B5044660686838692808D3782265
S31560002470DFF87816DFF8780600F068FDAFF30080C5
S31560002480DFF870562868800421D5296860680140A5
S3156000249001F0FF012079814219D12868217800EA8C
S315600024A0C13000F4C030C90301F4C03188420ED196
S315600024B02868400403D4286840F48040286028686F
S315600024C040002FD5286820F08040286070BDDFF876
S315600024D0440600F047FD2E6826F0005616F4C04FFD
S315600024E004D026F4C04646F080462E60606860F3ED
S315600024F00706207860F3D03646F0804646F40056EC
S315600025002E60BFF34F8FBFF36F8FDFF8BC161E20B0
S3156000251000F0D5FD28688000FCD526F0804646F49C
S3156000252080462E6070BD70B50446DFF84456286854
S31560002530000226D5002C15D0DFF83816086800048E
S3156000254002D4207A00280DD0207A6268128812049C
S3156000255042EAC03260684088C0F30E0002430868F1
S3156000256082420ED12868800403D4286840F4005063
S3156000257028602868400052D5286820F0804028608E
S3156000258070BDDFF8900500F0EDFCDFF8EC653068B3
S3156000259060F07F3030602968DFF8E005014205D0E1
S315600025A0DFF8DC05014041F080412960002C16D03F
S315600025B0207A002813D06068002810D0206820F0A8
S315600025C04040DFF8C0150860606800886168498827
S315600025D041EA004141F40041DFF898050160DFF807
S315600025E0A8052860DFF8E04521461E2000F067FD5B
S315600025F0DFF8D80528602146FA2000F060FDDFF894
S31560002600D005286028688000FCD5DFF8C8052860FA
S31560002610DFF8C8052860306820F08030306070BD13
S315600026202DE9FC4180460D46164600242746304675
S315600026300C38182809D340F22312DFF8B014DFF8FB
S31560002640980500F083FCAFF30080B8F1020F03D069
S31560002650B8F1030F05D009E0DFF81C45DFF8807597
S315600026600DE0DFF88045DFF8807508E04FF498727A
S31560002670DFF87814A1A000F069FCAFF30080402178
S315600026802068EA0001FA02F2104000908022206879
S31560002690EB0002FA03F31843206023684FF03F0C07
S315600026A0E8000CFA00FC23EA0C032360236806F0BA
S315600026B03F0686401E43266038680223AB4058407A
S315600026C038602368E800824023EA020222600098AC
S315600026D02268EB0001FA03F31A409042F7D0BDE896
S315600026E0F381F8B506460D4600273C4602280BD016
S315600026F0032809D04FF4A372DFF8F013DFF8EC0477
S3156000270000F024FCAFF30080022E02D0032E0AD024
S3156000271013E0DFF8640404683F21E80081400C4060
S31560002720DFF8CC7412E0DFF8BC0404683F21E800EF
S3156000273081400C40DFF8BC7408E040F25512DFF8C7
S31560002740AC136EA000F002FCAFF30080ED00EC402D
S31560002750A4F10C00182809D34FF4AD72DFF88C137E
S31560002760DFF8200600F0F2FBAFF30080002C05D006
S31560002770B7FBF4F000EBC0014800F2BD0020F2BDEB
S3156000278038B5DFF87444206880020ED5206880046E
S3156000279003D4206840F400502060206840002AD5A9
S315600027A0206820F08040206031BDDFF8680300F0CB
S315600027B0D9FBDFF83004016861F07F310160DFF832
S315600027C028052060DFF8005429461E2000F077FCBB
S315600027D0DFF81805206029461E2000F070FCDFF83F
S315600027E01005206020688000FCD5DFF808052060B1
S315600027F0DFF89405206031BD80B505283AD8DFE85A
S3156000280000F00311152331350029DFF8E80200686E
S3156000281002D040F4003001E020F40030DFF8D4123A
S31560002820086001BD0120BDE804403CE00029DFF8F6
S315600028304003006802D040F4803001E020F480302C
S31560002840DFF82C13086001BD0029DFF8AC030068CF
S3156000285002D040F4803001E020F48030DFF8981335
S31560002860086001BD0220BDE804401CE00320BDE80D
S31560002870044018E04FF4EA72DFF8701251A000F0DD
S3156000288065FBAFF3008001BD0A0002D04FF4005231
S3156000289000E00022002901D0042100E0082142F472
S315600028A0804200F0C1BD002901D0042100E008216A
S315600028B04FF4803200F0B8BD002901D0042100E059
S315600028C008214FF4800200F0AFBD002901D0042139
S315600028D000E008214FF4005200F0A6BD38B504466A
S315600028E00D460121FFF7F1FFDFF8DC12284600F004
S315600028F0E6FB00212046BDE83440E6E730000000F4
S31560002900002901D0042100E008214FF4004200F0C4
S315600029108BBD002901D0042100E008214FF400425C
S3156000292000F082BDF8B504460E4617461D460128DE
S3156000293002D00021FFF7A8FF0798002809D0428837
S31560002940008842EA004242F400421021204600F02C
S315600029506BFD069A3021204600F066FD3A4620213E
S31560002960204600F061FD002000907F23324601463C
S31560002970204600F061FD2046012808D0192000900D
S315600029804FF060632A460021204600F055FD012184
S315600029902046FFF791FFDFF83012642000F08FFBCE
S315600029A001212046BDE8F4406EE70028DFF85005B7
S315600029B0016803D121F480410160704741F4804190
S315600029C001607047300000000028DFF834050168B8
S315600029D003D121F400510160704741F40051016058
S315600029E0704780B50020FFF7EFFF0120FFF7DDFF9E
S315600029F000210220FFF78DFF00210220FFF744FF30
S31560002A0000210220FFF77CFF00210220BDE8044080
S31560002A1052E70028DFF8F004016803D121F4804111
S31560002A200160704741F48041016070470028DFF81B
S31560002A30D804016803D121F400510160704741F464
S31560002A4000510160704700009C5800606C61006036
S31560002A507CB5054600262F4800F084FADFF8A844C6
S31560002A60206800F02020B0F1202F00D1012601213E
S31560002A700320FFF718FF002E11D00020FFF7D6FFC6
S31560002A800120FFF7C6FF00210320FFF742FF002168
S31560002A900320FFF7F9FE00210320FFF70DFF012059
S31560002AA0FFF7C4FF287C002802D0E868002800D120
S31560002AB000200190A86800906B786A6829780320E6
S31560002AC0FFF730FFE1210320FFF708FF2068800051
S31560002AD0FCD501210320FFF71CFF0020FFF799FFBB
S31560002AE000210320BDE87C40DDE60000CC6100608B
S31560002AF04C6300600042C8400028DFF81404016897
S31560002B0003D121F480410160704741F48041016046
S31560002B10704700000040C8400028DFF8F4030168F1
S31560002B2003D121F000710160704741F000710160CE
S31560002B3070470028DFF8D803016803D121F080616F
S31560002B400160704741F08061016070470000CC40D1
S31560002B500028DFF8BC03016803D121F4005101604D
S31560002B60704741F400510160704700006068006082
S31560002B704042C8406042C8407042C8400020800061
S31560002B80FFDF7FFFA042C8400800004080B50020FC
S31560002B90FFF7DEFF0020FFF7BFFF0020FFF7C9FF4A
S31560002BA00120FFF7A9FF00210120FFF7B2FE0021F7
S31560002BB00120FFF769FE00210120FFF7A1FE002139
S31560002BC00120BDE8044077E60046C323080880403C
S31560002BD00800804008208040B065006008208000C2
S31560002BE05042C8403042C8402042C8401465006028
S31560002BF000A4781F00389C1C1042C84010B50446DB
S31560002C003021042000F014FC20F4A060210002D1E1
S31560002C1040F4807003E0012C01D140F480600246EC
S31560002C2030210420BDE8104000F0FEBB2DE9F84FCE
S31560002C30064604280BD0052809D040F23152DFF849
S31560002C40CC12DFF8D00200F081F9AFF30080304695
S31560002C50042801D1022000E00320002100F0E8FBF7
S31560002C60C0F3426800F07F0081463046042801D1F7
S31560002C70022000E00320302100F0DAFB00F00EFCB9
S31560002C8004460D46042E01D1022000E003202021D7
S31560002C9000F0CEFB00F002FC06460F46484600F008
S31560002CA0FDFB82468B463046394622462B4600F06F
S31560002CB019FC52465B4600F039FD0022DFF85832B7
S31560002CC000F0F2FD04460D46012000FA08F8404681
S31560002CD000F0E4FB02460B462046294600F002FC63
S31560002CE0BDE8F44F00F0B2BE10000040100820406E
S31560002CF0100020401820204010B5002405282AD84E
S31560002D00DFE800F00316191C1F24DFF810020168C3
S31560002D1001F0FF010068C0F3C130DFF8042201232F
S31560002D20401C03FA00F04000B2FBF0F44C431BE099
S31560002D30DFF8F04118E0DFF8F04115E0DFF8EC412C
S31560002D4012E00420FFF772FF04460DE00520FFF74E
S31560002D506DFF044608E040F27A52DFF8B01169A0D0
S31560002D6000F0F4F8AFF30080002C09D140F27D52F8
S31560002D70DFF89811DFF8B80100F0E8F8AFF30080EB
S31560002D80204610BD486500601820200038B505460D
S31560002D900024FF2809D140F28552DFF87011DFF870
S31560002DA0940100F0D3F8AFF300801E2D00F283800B
S31560002DB0DFE805F01013191619191C1C2121262CA1
S31560002DC032383E3E43494F555B6161666C7373783A
S31560002DD0787D7D00DFF8604176E0DFF8604173E082
S31560002DE0DFF85C4170E0DFF838416DE02046FFF7C0
S31560002DF083FF044668E00220FFF77EFF044663E037
S31560002E0021460220FFF76DFC04465DE001210220A9
S31560002E10FFF767FC044657E002210846FFF761FCAE
S31560002E20044651E003210220FFF75BFC04464BE0B9
S31560002E300320FFF761FF044646E00320FFF75CFFCF
S31560002E400446640840E021460320FFF74AFC044636
S31560002E503AE001210320FFF744FC044634E00221F6
S31560002E600320FFF73EFC04462EE003210846FFF7E9
S31560002E7038FC044628E00120FFF73EFF044623E0C5
S31560002E800120FFF739FF044664081DE00120FFF7C3
S31560002E9033FF0521B0FBF1F416E00420FFF72CFFA9
S31560002EA0044611E00520FFF727FF04460CE0FFF714
S31560002EB0D6FA044608E040F2EB52DFF8501011A053
S31560002EC000F044F8AFF30080002C09D140F2EE52D6
S31560002ED0DFF83810DFF8580000F038F8AFF30080FC
S31560002EE0204632BDDFF85C00016849084900016090
S31560002EF0DFF85400016841F001010160704700008D
S31560002F000043C840300000005043C840CC610060B8
S31560002F10C042C840A864006060E376410042C84091
S31560002F2000366E0100CA9A3B00A4781F00389C1CCC
S31560002F30606800605C6700600024F400006CDC027E
S31560002F400084D7175040C8406040C84080B51346DB
S31560002F500A460146024800F00FFE00BEFDE700BFCC
S31560002F60E065006038B5044640F205150021084664
S31560002F7000F05EFAA8420FD02A460021084600F00B
S31560002F8053FADFF82C11012000F099F8D4F8700597
S31560002F9040F01000C4F8700531BD38B5044600290C
S31560002FA0D4F810051CD120F00500C4F81005DFF830
S31560002FB0005129464FF47A7000F081F8D4F8100574
S31560002FC020F02000C4F8100529464FF47A7000F00E
S31560002FD076F8D4F8100520F40020C4F8100531BD49
S31560002FE040084000C4F81005DFF8C45029464FF485
S31560002FF07A7000F064F8D4F8100540F40020C4F844
S31560003000100529464FF47A7000F059F8D4F8100587
S3156000301040F02000C4F8100529464FF47A7000F09D
S315600030204EF8D4F8100540F00400C4F8100531BD20
S3156000303038B504460029D4F830051CD040F4003079
S31560003040C4F83005DFF8685029464FF47A7000F00E
S3156000305036F8D4F8300540F48020C4F830052946A7
S315600030604FF47A7000F02BF8D4F8300520F00400A5
S31560003070C4F8300531BD40F00400C4F83005DFF80F
S31560003080305029464FF47A7000F019F8D4F83005BC
S3156000309020F48020C4F8300529464FF47A7000F099
S315600030A00EF8D4F8300520F40030C4F8300531BD90
S315600030B00046C3230046401E0028FCD1704738B541
S315600030C004460D46002C07D14FF489721349144803
S315600030D0FFF73CFFAFF30080A5FB0401114A002314
S315600030E000F074FD04460D46002001218D420AD38E
S315600030F001D8844207D34FF48A7208490A48FFF719
S3156000310025FFAFF30080204629460322002300F006
S315600031105DFD4000BDE83240CCE700002C620060F7
S31560003120A067006040420F007467006010B4062814
S315600031301BD8DFE810F007002D0060009800D00073
S31560003140040128010029A248016811D021F48031C8
S3156000315001600168090A52EA012202609D48036023
S315600031609D48016881F480310160002010BC704781
S3156000317041F4803101600168090A52EA0122026065
S315600031809548016881F48031016094480068EDE7F4
S315600031900029934917D00C6804F40074086820F479
S315600031A0803008600868000A52EA00220A608D488A
S315600031B00360086880F480700860086800F4007036
S315600031C0A042FAD0D1E70B6803F40073086840F4B4
S315600031D0803008600868000A52EA00220A600868BF
S315600031E080F480700860086800F400709842FAD035
S315600031F07D480068BAE700291CD07C4C216801F440
S315600032000071206820F4803020602068000A52EA4D
S315600032100022226076480360206880F48070206017
S31560003220206800F400708842FAD0206820F480306C
S3156000323020609AE76D4B196801F40071186840F4D4
S31560003240803018601868000A52EA00221A6018680E
S3156000325080F480701860186800F400708842FAD0B4
S315600032606448006882E700291CD0634C216801F439
S315600032700071206820F4803020602068000A52EADD
S31560003280002222605D480360206880F480702060C0
S31560003290206800F400708842FAD0206820F48030FC
S315600032A0206062E7544B196801F40071186840F4B5
S315600032B0803018601868000A52EA00221A6018689E
S315600032C080F480701860186800F400708842FAD044
S315600032D04B4800684AE7002918D04A4C216801F437
S315600032E00071206820F4803020602068000A52EA6D
S315600032F00022226044480360206880F48070206069
S31560003300206800F400708842FAD02EE73D4B1968B9
S3156000331001F40071186840F4803018601868000A7B
S3156000332052EA00221A60186880F480701860186883
S3156000333000F400708842FAD03448006816E7002925
S31560003340334908680FD020F4803008600868000AA6
S3156000335052EA00220A602F4803602F48016881F410
S315600033600041016001E740F4803008600868000AA7
S3156000337052EA00220A602848016881F4004101602F
S3156000338026480068F2E60029214908680FD020F433
S31560003390803008600868000A52EA00220A601D4808
S315600033A003601F48016881F001010160DDE640F4B9
S315600033B0803008600868000A52EA00220A601848ED
S315600033C0016881F00101016016480068CEE60000E0
S315600033D02048C8403048C8400045C8404048C840BA
S315600033E05048C8406048C8407048C8408048C84097
S315600033F09048C840A048C840B048C840C048C84087
S31560003400D048C8402049C8403049C8404049C840B3
S31560003410E048C840F048C8400044C8401049C84029
S315600034207045C8400049C84013460A4601217DE6FA
S315600034300A460023194679E62DE9F04104460D4611
S3156000344016461F46DDF81880FFF7F2FFB84306FA06
S3156000345008F63E400643324629462046BDE8F0411E
S31560003460E2E730B4002513E050F8042BD30744BFDD
S31560003470A9F101039A18091F042942F8045BFAD2DC
S3156000348013468C0744BF15809B1CC90748BF1D7037
S3156000349050F8041B0029E7D130BC7047014648B19B
S315600034A0B0FA80F18840C91CC1F58461090501EB59
S315600034B0D0214005704730B40EE00268436802448C
S315600034C00830DC0744BFA9F10104E31852F8045B35
S315600034D043F8045B091FF9D150F8041B0029ECD1AD
S315600034E030BC7047F0B540F2FF7581EA030C0CF012
S315600034F0004C15EA11541DBF15EA1357AC42AF4292
S31560003500E5E0BC41C1F31301C3F31303801A99418B
S3156000351043F4801304D2641E400049418018594127
S31560003520C90241EA5051B1FBF3F603FB1611A2FB47
S315600035300675D7EBC020A94102D2761E8018594184
S31560003540C90241EA5051B1FBF3FE03FB1E11A2FB17
S315600035500E75D7EBC020A94103D2AEF1010E8018DB
S315600035605941890241EA9051760546EA8E2EB1FBB1
S31560003570F3F603FB1611A2FB0675D7EB8020A94173
S3156000358002D2761E80185941C90241EA50514EEA6C
S31560003590060EB1FBF3F603FB1611A2FB0675D7EB1D
S315600035A0C020A94102D2761E80185941C90241EA5B
S315600035B05051B1FBF3F703FB1711A2FB0735D3EBB1
S315600035C0C020A94167F100070CBF004247F0010720
S315600035D066F3D5274FEA1E31B80814F5806412DD0C
S315600035E0BD0775F1004250EB0E5051EB045111F5D9
S315600035F0801F5CBF41EA0C01F0BD4CF07F6141F079
S31560003600E0410020F0BDBD076D0840EA0E5041F470
S315600036108011D4F10104B4F120060ADAC4F120065F
S315600036200200E04001FA06F3E1401843B240154358
S315600036300EE0342C13DCC6F1200445EA40056D0823
S3156000364020FA06F2154321FA06F0A1400D43002147
S3156000365075F1004250F1000051EB0C01F0BD002005
S315600036605FEA0C01F0BDCFB992185B41B3FA83F7FC
S3156000367004BFB2FA82F6BF190B3FB7F120062FBF1F
S3156000368002FA06F3BB40C7F1200622FA06F638BFF7
S315600036903343BA401CB1E419641E33E77F4231F00C
S315600036A00041B1FA81F404BFB0FA80F6A4190B3C6C
S315600036B0B4F120062FBF00FA06F1A140C4F120063E
S315600036C020FA06F638BF3143A0403C1B1AE7AC42ED
S315600036D01ABF05EA1357AF4212E050EA41061CBF13
S315600036E052EA4306BFE750EA4107304661461CBFCF
S315600036F041EA0551F0BD52EA430C08BFC143F0BD33
S3156000370000204FF4001616EB410F98BF16EB430FDF
S3156000371008BF16EB410F24BFC14305E016EB430F0C
S315600037200CBF61464CEA0551F0BDFEE770B44FF040
S31560003730004591EA030F40F161836B40841A71EB97
S31560003740030604D26E40001BB141121973414FF457
S31560003750001C1CEB410F34BF7CEB430683E00C0D71
S31560003760A4EB1356362E00F37C80012E45EAC32364
S3156000377041DC43EA525312BFD20292025B0824052F
S3156000378045EAC12141EA5051D2EBC020994125D486
S3156000379007D1B0FA80F610FA06F162D00020203622
S315600037A008E0B1FA81F6B140C6F1200220FA02F2D1
S315600037B01143B0404FEAF474B4EB465434F001065A
S315600037C04FEA74040AD8D6F50016760D04F0004464
S315600037D0F04061FA06F25040F1404840C00A40EAC3
S315600037E0415021F0004128BF5FEA500550F10000CA
S315600037F044EBD12135E0DB0A45EAC121C90AB6F1BD
S3156000380020050EDD42EA0242120CC5F1200603FADB
S3156000381006F6EB4042EA06056D42984161F1000109
S315600038200DE062FA06F5F240554063FA06FC82EA5C
S315600038300C02F3405A406D42904161EB030111F472
S31560003840801F05D1641E620502D06D00404149416A
S3156000385021F48011430875F1004350F1000041EBFB
S31560003860045170BC70471CEB410F15D223F0004326
S3156000387052EA43060BD04FEA4C0CBCEB410F04D81E
S315600038800C0D661E342EB7DDEBE7801A994150EABF
S31560003890410608BF0021E4E708BF1CEB430F28BFC1
S315600038A06FF00001DDE7FEE7B0B581EA030C0CF0CE
S315600038B0004C40F2FF7515EA11541DBF15EA135707
S315600038C0AC42AF4239E0E41923EA455343F480132E
S315600038D0C90241F0004141EA505EC7021100A7FBF0
S315600038E0020200284FF00000EEFB01204FF00001BD
S315600038F0E3FB072118BF42F001024018002149414D
S31560003900E3FB0E01A4F580640F0302D2520040412E
S31560003910494154F101046CDD470872F1004250F1EF
S31560003920000051EB0451A1F580115CBF41EA0C0126
S31560003930B0BD4CEA05510020B0BD05EA1357AC4254
S3156000394014BFAF4241E050EA410E1CBF52EA430E3B
S3156000395002E061460020B0BD24423C441BD15FEAD0
S31560003960070EF6D0090302BF01460020AEF1140E21
S31560003970B1FA81F7AEEB070401FA07FE0C37C7F11F
S31560003980200100FA07F7C8404EEA000E23EA4553C5
S3156000399043F48013A2E733F00043B3FA83F704BF1E
S315600039A0B2FA82FE77440B3FE41BB7F1200E2FBFBD
S315600039B002FA0EF3BB40C7F1200E22FA0EFE38BFA4
S315600039C043EA0E03BA40641C82E750EA410E14BF14
S315600039D052EA430E6FF000014FF4001717EB430FE6
S315600039E08ABF194617EB410FB5E74CEA055100202F
S315600039F0B0BDD4F10104B4F120070FDAC4F1200799
S31560003A00520828BF42F0010210FA07F501FA07F7DB
S31560003A10E1BF2A43E0403843E1400FE0352C98DCB3
S31560003A20C7F1200452EA400220FA07F218BF42F0BA
S31560003A30010231FA07F0A1400A43002172F1004207
S31560003A4050F1000051EB0C01B0BDFEE7400D491886
S31560003A5040EA81200CD2490DA1F58061491C40F0F5
S31560003A60004005DBD1F11F0154BFC840C017704745
S31560003A700020704710B50C460028FDD0002CFDD004
S31560003A804E490968002901D1002010BD2246014631
S31560003A90494800F08EFA002801D04FF0FF342046E6
S31560003AA010BD2DE9F04104460D4616461F464FF0FF
S31560003AB0000810E02868401C802805D32968204645
S31560003AC0FFF7D8FF00202860286826542868401C25
S31560003AD0286008F10108B845ECDBBDE8F0812DE906
S31560003AE0F04188B006460F4615469846002468465B
S31560003AF03349102200F05EFACDF8008001978DF808
S31560003B000E608DF8185048F64170ADF81A002846D8
S31560003B10012802D16846079006E0022802D143F2E6
S31560003B20215401E043F2215443F2215084421FD0D4
S31560003B30244D00222021284600F080FA281D2860A6
S31560003B4004A900F0EAF90028FDD11A48007805F1C9
S31560003B501801286800F0FAF90028FDD105F11C016A
S31560003B60286800F009FA0400FED128681349086045
S31560003B70204608B0BDE8F0810EB430B5A0B004466A
S31560003B8000252A468021684600F058FA0B480068EE
S31560003B9000280AD023A90C4B6A46204600F053FB46
S31560003BA001466846FFF766FF0546284620B030BCEA
S31560003BB05DF810FB640000201C000020240000203B
S31560003BC0B467006004000020A33A0060BBBBE1B1AB
S31560003BD0B2F5803F80F07E80022A1ED98C46B1FB0A
S31560003BE0F2F102FB11C31B0443EA1043B3FBF2FC80
S31560003BF002FB1C3380B240EA0343B3FBF2F002FBE4
S31560003C00103240EA0C4000237047022A05D98446E8
S31560003C10B0FBF2F002FB10C270474AB105D100F06A
S31560003C20010249085FEA30007047002200237047AE
S31560003C3000F0E4BB0B0002000021002070479042B8
S31560003C4071EB030CF6D3B3F5803F2FD2F0B5B3FA20
S31560003C5083F7B1FA81F4A7F10F0E3D1B5340CEF105
S31560003C60200602FA0EF2F3415340B5F10F0746D82B
S31560003C700F3C2C444140C4F12006A040F141414034
S31560003C80B1FBF3F603FB1611A2FB0645001BA94127
S31560003C9002D2761E8018594180EA010221FA0EF39B
S31560003CA062FA0EF200215A403046F0BD30B4B1FBE4
S31560003CB0F3FC03FB1C11A2FB0C45001BA94103D2BC
S31560003CC0ACF1010C8018594130BC02460B46604687
S31560003CD000217047B2F1807F65D3F0B5B2FA82F702
S31560003CE0B1FA81F4C7F10F063D1B22FA06F307F11C
S31560003CF0110EF24120355A40B5F10F07B8D941404F
S31560003D00C4F12006A040F1414140B1FBF3FC03FB46
S31560003D101C11A2FB0C45001BA94103D2BCF1010C8E
S31560003D20801859410F2F12D30F3FC90341EA504102
S31560003D30B1FBF3F603FB1611A2FB0645D4EBC030CC
S31560003D40A94102D2761E8018594146EACC3C07B397
S31560003D504140C7F12006B840F1414140B1FBF3F65E
S31560003D6003FB1611A2FB0645001BA94102D2761E73
S31560003D708018594180EA010221FA0EF3C7F1200446
S31560003D8062FA0EF20CFA07F05A402CFA04F130434C
S31560003D90F0BD80EA010221FA0EF3002162FA0EF20A
S31560003DA060465A40F0BD8C46B1FBF2F102FB11C38E
S31560003DB01B0243EA1063B3FBF2FC02FB1C331B02DB
S31560003DC04CEA002043EA1063B3FBF2FC02FB1C33AF
S31560003DD01B024CEA002043EA1063B3FBF2FC02FBD1
S31560003DE01C331B024CEA002043EA1063B3FBF2FC6F
S31560003DF002FB1C324CEA002000237047841A71EBE8
S31560003E00030603D2001BB141121973414FF4001C23
S31560003E101CEB410F34BF7CEB430442E00C0DA4EB7A
S31560003E201356352E4FDC45EAC323DB0A45EAC1212A
S31560003E30C912B6F120050DDD63FA05F6EB4086EA98
S31560003E400305124218BF45F00105C01851F1000183
S31560003E500CD213E062FA06F5F2405540F3415A403F
S31560003E60B340F3405A408018594107D349085FEA86
S31560003E7030005FEA350528BF45F0010501F5801180
S31560003E80420875F1004250F1000041EB04514E00CA
S31560003E9016F5001F70BC38BF70470020090D090574
S31560003EA070471CEB410F10D252EA43060BD0BCEBB5
S31560003EB0410F05D80C0DAB43661E342EB6DD02E00D
S31560003EC0AB438018594170BC704770BC7047EFF3C4
S31560003ED0108072B6704780F31088704710B511462F
S31560003EE01A4643F221530478012C03D10C3000F0BA
S31560003EF091FA0346184610BD18B413460028FDD043
S31560003F000029FDD0002BFDD00468002CFDD00A46A8
S31560003F100146204601B010BCE0E770B505460C00CE
S31560003F2043F22156FED0002DFDD00022142100F070
S31560003F3079FA207A2870207A012805D1E16805F19E
S31560003F400C0000F05CFA0646304670BD38B5054692
S31560003F500C46002DFDD0002CFDD0FFF7B8FFA968F8
S31560003F60491CA960FFF7B7FF00220421204600F034
S31560003F7059FA2560002032BDF8B505460C46002684
S31560003F80002DFDD0002CFDD0FFF7A1FF0746686825
S31560003F90002802D043F2225606E06C6032460421C5
S31560003FA0204600F03FFA25603846FFF794FF30461A
S31560003FB0F2BDA1E7103A07D330B4B1E83810103A31
S31560003FC0A0E83810F9D230BC530724BFB1E8081016
S31560003FD0A0E8081044BF51F8043B40F8043BD20700
S31560003FE024BF31F8022B20F8022B44BF0B780370F4
S31560003FF07047121F17D35B0009D151F8043B20F8B4
S31560004000023B1B0C121F20F8023BF6D20BE051F864
S31560004010043B00F8013B1B0A20F8023B1B0C121FF5
S3156000402000F8013BF3D238BF121D521E24BF11F8AF
S31560004030013B00F8013BF8D87047FEE762F30F22B8
S3156000404062F31F4200B500BF1300964694461039CE
S3156000405028BFA0E80C50FAD85FEA417C28BF0CC0A4
S3156000406048BF40F8042BC90728BF20F8022B48BF79
S3156000407000F8012B00BD10B401460020024605E0A1
S3156000408000EB8004184600EB4400303813000CD176
S315600040900B685B1C0B601B78A3F130040A2CEFD312
S315600040A00A68521E0A600122F0E710BC704730B4FD
S315600040B00146062000220B685B1C1C782E2C12D150
S315600040C0104605E000EB8005204600EB45003038E1
S315600040D0140009D113F8014FA4F130050A2DF1D36C
S315600040E05B1E0122F4E75B1E0B6030BC7047014625
S315600040F000200A466F2A05D0622A03D0702A01D0B2
S31560004100752900D101207047014600200A46642ABD
S3156000411001D0692900D101207047F8B50B46069C8D
S31560004120079D089E099F9B1A202239463046A8475C
S3156000413005E0012314F8012939463046A84720785E
S315600041400028F6D1F1BDF8B50B46069C079D089E82
S31560004150099F9B1A202239463046A84705E001236D
S3156000416014F8012939463046A84720780028F6D148
S31560004170F1BD014600200A46662A01D0462900D1D3
S3156000418001207047014600200A46782A01D0582946
S3156000419000D101207047016811F8012F682AFBD011
S315600041A06C2AF9D0491E0160704701466F2901D11A
S315600041B008207047622901D102207047702801D11A
S315600041C0102070470A20704770B4044600252846C0
S315600041D004F8010B002A086814D0002815D00028BE
S315600041E02ED090FBF3F203FB1200002802D430308D
S315600041F0014602E0C0F130000146104604F8011B9A
S315600042006D1CECE7039900280FD130202070012047
S3156000421017E0612202E00A00FBD041220A3A101838
S315600042200246304604F8012B6D1C002808D0B0FB0E
S31560004230F3F603FB16000A28EDD230300246F0E7AB
S31560004240284670BC70472DE9F24191B015461E466E
S31560004250002105910691049006E0012305A92846F0
S31560004260B0470498401C04900498007800283BD01E
S315600042700498027810462528EFD1012411A904A8D4
S31560004280FFF7F9FE0746002211A904A8FFF70FFF02
S3156000429004A8FFF780FF0498401C049090F8008003
S315600042A04046FFF731FF012822D111980068119925
S315600042B0091D11910790204600900A23024607A91E
S315600042C008A8FFF781FF05A903910295019608A941
S315600042D0014400910023024639461846FFF71DFF48
S315600042E00498401C0490BFE7059812B0BDE8F081C1
S315600042F04046FFF73EFF012806D11198C01D20F009
S31560004300070008301190EBE74046FFF73BFF0128B6
S315600043101FD1B8F1780F00D1002411980068119967
S31560004320091D11910690204600901023002206A9CF
S3156000433008A8FFF749FF05A903910295019608A908
S31560004340014400912346024639460020FFF7FBFEF2
S31560004350C6E74046FFF7CBFE01281ED111980068DC
S315600043601199091D119106904046FFF71EFF2146DF
S3156000437000910346002206A908A8FFF725FF05A9B4
S3156000438003910295019608A9014400910023024613
S3156000439039461846FFF7C1FEA2E7404663280BD1AF
S315600043A0119800681199091D119123460246D2B2EF
S315600043B005A92846B04793E7732819D11198046870
S315600043C0001D1190002C8BD0204600F05FF83F1A3C
S315600043D03B46202205A92846B047207800283FF4AE
S315600043E07FAF012314F8012B05A92846B047F4E7EF
S315600043F02346424605A92846B04771E7704780B50F
S315600044000029FDD00028FDD000F063F80028FDD11A
S31560004410002002BD0028FDD00029FDD0002AFDD075
S3156000442000F0C2B862F30F2262F31F42401810F028
S31560004430030308D0C91A1FD3DB0748BF00F8012D54
S3156000444028BF20F8022D130030B4144615461039E3
S3156000445028BF20E93C00FAD8490728BF20E90C00AC
S3156000446048BF40F8042D890028BF20F8022D48BFB8
S3156000447000F8012D30BC7047C91818BF00F8012D2F
S31560004480CB0728BF00F8012D7047FEE700F1010356
S31560004490810704D010F8011B820781B1FAD1026846
S315600044A0A2F10131914311F0803104BF50F8042F1D
S315600044B0F6E709BAB1FA81F100EBD100401CC01AE7
S315600044C07047FEE7002801D10020704742F6AF70C2
S315600044D07047F0B585B004460D460026002C07D11E
S315600044E04FF4A07246494748FEF730FDAFF30080AF
S315600044F0002D07D140F2411241494348FEF726FD9F
S31560004500AFF30080A87B0D2807D34FF4A1723C4916
S315600045103E48FEF71BFDAFF300803D4FA87B57F882
S315600045202000002807D140F2431235493948FEF78A
S315600045300DFDAFF30080684600F0C0F96868009032
S31560004540287A8DF80400687A8DF80700A87A401EEC
S315600045508041C043C00F8DF81100E87A401E80414B
S31560004560C043C00F8DF81000287B401E8041C043B9
S31560004570C00F8DF80A00687B401E8041C043C00FA3
S315600045808DF80B002A686946A87B57F8200000F072
S3156000459082F8002803D0FFF795FF064601E0A87B66
S315600045A02070304605B0F0BD70B506460D4614461F
S315600045B0002E07D14FF4DA7211491248FEF7C6FC95
S315600045C0AFF30080002D07D140F2B5120C491248B6
S315600045D0FEF7BCFCAFF30080002C07D14FF4DB7212
S315600045E007490E48FEF7B2FCAFF300802246294623
S315600045F00748337850F8230000F085F9002070BD35
S315600046000C6100604068006048680060A0630060FC
S31560004610E06400600C660060506800605868006086
S3156000462010B4DFF820230B4603F00103044664014F
S31560004630145904F00104A34207D001F001014001BE
S315600046401150BFF34F8FBFF36F8F10BC70470121BE
S31560004650E6E7816841F002018160816821F002012C
S315600046608160704710B5002400E0641C0D2C05D2F3
S31560004670DFF8D41251F824108142F6D10D2C08D3FC
S315600046807E22DFF8C812DFF8C802FEF75FFCAFF3E0
S315600046900080204610BD2DE9F04106460C461546C1
S315600046A0002C08D1F522DFF8A412DFF8AC02FEF781
S315600046B04DFCAFF300802068002808D1F622DFF8B1
S315600046C08C12DFF89802FEF741FCAFF30080207A87
S315600046D0052808DBF822DFF87412DFF88402FEF79B
S315600046E035FCAFF30080607A052808DBF922DFF835
S315600046F05C12DFF87002FEF729FCAFF3008000273A
S315600047002268B8463946042333E0AEEB0C0C2AE047
S3156000471005EB85004000D4F800C09E465FFA8EFE29
S315600047200EFB0CFCB0FBFCF0401D4FF00A0CB0FB1E
S31560004730FCF084461FFA8CFCBCF1000F00D101200E
S315600047409C465FFA8CFC86461FFA8EFE0EFB0CFCBE
S31560004750B5FBFCFCD4F800E0E645D6D2E646D4F8D4
S3156000476000C0AEEB0C0C624502D362469846014629
S315600047705B1C1846C0B22128CAD30D462068642146
S31560004780B0FBF1F000EB4000904202D240F22157BC
S3156000479091E03046FFF766FFDFF8CC11085CFFF763
S315600047A056FF3046FFF755FF31694046C0B2001FDD
S315600047B0042801D241F40031DFF8B00101405FFA0C
S315600047C088F8A8F101084FEA086808F0F85848EA3E
S315600047D00108ADB2C5F30C0545EA0808C6F81080B5
S315600047E0306920F000503061B169DFF88401014022
S315600047F02079E27B120202F4E0621043A27B92000F
S3156000480002F004021043014360790128207907D140
S31560004810002802D021F4006106E041F4006103E063
S31560004820002801D041F01001B161306920F40050D8
S31560004830E179490301F4005108433061607A217AD5
S3156000484041EA0041F162B06A40F08800B062B06A45
S3156000485040F44040B062DFF85C01716A627B12012D
S3156000486002F01002237B5B0103F020031A4311431D
S315600048707162A17A012903D1716A41F008017162FE
S31560004880E17A012903D1716A41F001017162A1796E
S31560004890012901D1DFF8C001716908437061B0690F
S315600048A0217C012901D140F40020617C012901D1DC
S315600048B040F48020B0613846BDE8F08110B5040050
S315600048C009D140F20922DFF88410DFF88C00FEF788
S315600048D03DFBAFF30080002214212046FFF7AEFBBC
S315600048E04FF4E1302060002020716071A071E071AA
S315600048F020726072A072E07260732073A073E073BE
S315600049002074607410BD70B506460D461446002DC1
S3156000491011D140F26E32DFF83410DFF83800FEF75E
S3156000492015FBAFF3008006E070690002FCD515F850
S31560004930010BF061641E002CF6D170694002FCD553
S31560004940002070BD0060CC407C650060EC62006059
S315600049502C640060FC670060086800604067006067
S31560004960346600605C660060D467006000E0FFE06B
S31560004970E8F8FFFF80B5394841683A48384A126816
S315600049809047BFF34F8F01BD80B534488168364884
S31560004990334A12689047BFF34F8F01BD80B52F48E9
S315600049A0C16832482E4A12689047BFF34F8F01BDE7
S315600049B00000000000C01FC080B5284801692C486F
S315600049C0274A12689047BFF34F8F01BD80B52348D1
S315600049D041692848224A12689047BFF34F8F01BD4C
S315600049E080B51E48816924481D4A12689047BFF306
S315600049F04F8F01BD80B51948C1692048184A1268B1
S31560004A009047BFF34F8F01BD80B51448016A1C48BB
S31560004A10134A12689047BFF34F8F01BD80B50F48A8
S31560004A20416A18480E4A12689047BFF34F8F01BD1E
S31560004A3080B50A48816A1448094A12689047BFF3EC
S31560004A404F8F01BD80B50548C16A1048044A126897
S31560004A509047BFF34F8F01BD00C01FE028000020C4
S31560004A605C00002000C0074000000840004008408D
S31560004A700080084000C0084000000940004009402E
S31560004A800080094000C0094000000A400040C24062
S31560004A90DFF8B818C0010858C0F302207047DFF885
S31560004AA0AC18C001085800F0FF00401C704738B5CC
S31560004AB005460C0009D140F63C02DFF89418DFF891
S31560004AC09408FEF743FAAFF300802078002801D0FF
S31560004AD0000600E000206178090201F4E061A27836
S31560004AE0521E02F0FF0211430843DFF86018ED0121
S31560004AF04851BFF34F8FBFF36F8F31BD38B5044652
S31560004B00FFF7C6FFDFF85018224601EBC201085CCA
S31560004B10FEF73CF905462046FFF7C1FFB5FBF0F40A
S31560004B20002C09D140F69102DFF82418DFF82C0832
S31560004B30FEF70CFAAFF30080204632BD0028DFF89E
S31560004B402008016803D041F002010160704721F03E
S31560004B500201016070470028DFF80408016803D08D
S31560004B6041F080710160704721F08071016070478B
S31560004B700028DFF8F007016803D041F00201016008
S31560004B80704721F002010160704710B40B46092B93
S31560004B9007DB8168890802F0030252EA81028260BB
S31560004BA021E0072B07DB4168890802F0030252EA1D
S31560004BB08102426017E0042B04680ADB03238B4002
S31560004BC024EA030302F0030202FA01F119430160C9
S31560004BD009E007238B4024EA030302F0070202FA86
S31560004BE001F11943016010BC704710B4C468DFF866
S31560004BF078371C40890201F4806121431143C1600A
S31560004C0010BC70471CB5002203216846FFF716FAF0
S31560004C10DFF8584701212046FEF7BFF901212046FB
S31560004C20FEF706FA0220FDF7E9FFDFF844070168A0
S31560004C3041F002010160FEF755F90120FFF798FF88
S31560004C400120FFF77BFF0120FFF785FFDFF82407D0
S31560004C50016841F01401016001684900FCD500203B
S31560004C608DF8010001208DF8020069460020FFF7EB
S31560004C701EFF69460820FFF71AFFDFF8FC06FDF7FE
S31560004C80F0FB01210846FDF7B7FDFDF77FFFDFF872
S31560004C90EC06FDF748FC1B2200210220FDF7C0FC54
S31560004CA0102201210220FDF7BBFC182202210846D2
S31560004CB0FDF7B6FC182203210220FDF7B1FCFDF7D3
S31560004CC05FFD0D2200210320FDF7AAFC11220121C0
S31560004CD00320FDF7A5FC202202210320FDF7A0FC9E
S31560004CE0162203210846FDF79BFC01210420FDF7EF
S31560004CF083FDFDF776FEDFF88806FDF7A9FE042042
S31560004D008DF8010001208DF8020069460020FFF74A
S31560004D10CEFE07208DF8010002208DF8020069465C
S31560004D20FFF7C5FE06208DF8010003208DF802000E
S31560004D3069460420FFF7BBFE00208DF801000120C4
S31560004D408DF8020069460520FFF7B1FE07208DF851
S31560004D50010004208DF8020069460620FFF7A7FED1
S31560004D6000208DF80100F0208DF8020069460820C9
S31560004D70FFF79DFE00208DF8010001208DF80200EE
S31560004D8069460920FFF793FE00208DF80100012097
S31560004D908DF8020069460A20FFF789FE00208DF82B
S31560004DA0010001208DF8020069460B20FFF77FFEA7
S31560004DB000208DF8010001208DF8020069460C2064
S31560004DC0FFF775FE00208DF8010001208DF80200C6
S31560004DD069460D20FFF76BFE00208DF8010001206B
S31560004DE08DF8020069460E20FFF761FE00208DF8FF
S31560004DF0010001208DF8020069460F20FFF757FE7B
S31560004E0000208DF8010001208DF80200694610200F
S31560004E10FFF74DFE00208DF8010001208DF802009D
S31560004E2069461120FFF743FE00208DF8010001203E
S31560004E308DF8020069461220FFF739FE00208DF8D2
S31560004E40010001208DF8020069461320FFF72FFE4E
S31560004E5000208DF8010001208DF8020069461520BA
S31560004E60FFF725FE00208DF8010001208DF8020075
S31560004E7069461620FFF71BFE00208DF80100012011
S31560004E808DF8020069461720FFF711FE00208DF8A5
S31560004E90010001208DF8020069461820FFF707FE21
S31560004EA006208DF8010016208DF80200694619204B
S31560004EB0FFF7FDFD06208DF8010016208DF8020033
S31560004EC069461A20FFF7F3FD00208DF801000120E6
S31560004ED08DF8020069461B20FFF7E9FD00208DF87A
S31560004EE0010001208DF8020069461C20FFF7DFFDF6
S31560004EF000208DF8010001208DF8020069461D2012
S31560004F00FFF7D5FD00208DF8010001208DF8020025
S31560004F1069461E20FFF7CBFD00208DF801000120B9
S31560004F208DF8020069461F20FFF7C1FD00208DF84D
S31560004F30010001208DF8020069462020FFF7B7FDC9
S31560004F4000208DF8010001208DF8020069462120BD
S31560004F50FFF7ADFD00208DF8010001208DF80200FD
S31560004F6069462220FFF7A3FD00208DF8010001208D
S31560004F708DF8020069462320FFF799FD00208DF821
S31560004F80010001208DF8020069462420FFF78FFD9D
S31560004F9000208DF8010001208DF802006946252069
S31560004FA0FFF785FD00208DF8010001208DF80200D5
S31560004FB069462620FFF77BFD00208DF80100012061
S31560004FC08DF8020069462720FFF771FD00208DF8F5
S31560004FD0010001208DF8020069462820FFF767FD71
S31560004FE000208DF8010001208DF802006946292015
S31560004FF0FFF75DFD00208DF8010001208DF80200AD
S3156000500069462A20FFF753FD00208DF80100012034
S315600050108DF8020069462B20FFF749FD00208DF8C8
S31560005020010001208DF8020069462C20FFF73FFD44
S3156000503000208DF8010001208DF8020069462D20C0
S31560005040FFF735FD00208DF8010001208DF8020084
S3156000505069462E20FFF72BFD00208DF80100012008
S315600050608DF8020069462F20FFF721FD00208DF89C
S31560005070010001208DF8020069463020FFF717FD18
S3156000508000208DF8010001208DF80200694631206C
S31560005090FFF70DFD00208DF8010001208DF802005C
S315600050A069463220FFF703FD00208DF801000120DC
S315600050B08DF8020069463320FFF7F9FC00208DF871
S315600050C0010001208DF8020069463420FFF7EFFCED
S315600050D000208DF8010001208DF802006946362017
S315600050E0FFF7E5FC00208DF8010001208DF8020035
S315600050F069463720FFF7DBFC00208DF801000120B0
S315600051008DF8020069463820FFF7D1FC00208DF843
S31560005110010001208DF8020069463A20FFF7C7FCBE
S3156000512000208DF8010001208DF8020069463B20C1
S31560005130FFF7BDFC00208DF8010001208DF802000C
S3156000514069463C20FFF7B3FC00208DF80100012082
S315600051508DF8020069463D20FFF7A9FC00208DF816
S31560005160010001208DF8020069463E20FFF79FFC92
S3156000517000208DF8010001208DF8020069463F206D
S31560005180FFF795FC00208DF8010001208DF80200E4
S3156000519069464020FFF78BFC00208DF80100012056
S315600051A08DF8020069464120FFF781FC00208DF8EA
S315600051B0010001208DF8020069464220FFF777FC66
S315600051C000208DF8010001208DF802006946432019
S315600051D0FFF76DFC07208DF8010002208DF80200B4
S315600051E069464420FFF763FC00208DF8010001202A
S315600051F08DF8020069464520FFF759FC00208DF8BE
S31560005200010001208DF8020069464620FFF74FFC39
S3156000521000208DF8010001208DF8020069464720C4
S31560005220FFF745FC00208DF8010001208DF8020093
S3156000523069464820FFF73BFC00208DF801000120FD
S315600052408DF8020069464920FFF731FC00208DF891
S31560005250010001208DF8020069464A20FFF727FC0D
S3156000526000208DF8010001208DF8020069464B2070
S31560005270FFF71DFC00208DF8010001208DF802006B
S3156000528069464C20FFF713FC00208DF801000120D1
S315600052908DF8020069464D20FFF709FC00208DF865
S315600052A0010001208DF8020069464E20FFF7FFFBE2
S315600052B0344C002211462046FFF767FC0322114654
S315600052C02046FFF762FC002206212046FFF75DFCC0
S315600052D0002208212046FFF758FC00220A212046BA
S315600052E0FFF753FC002211462046FFF77EFC264856
S315600052F00168490849000160244801684908490075
S315600053000160234801684908490001602148016835
S315600053104908490001602048016849084900016060
S315600053201E4801684908490001601D48016849082E
S31560005330490001601B480168490849000160002076
S31560005340FFF7DCFB1849086013BD00000000CC4085
S31560005350AC600060286800602456006030680060B9
S315600053601040C8405040C84000FBFFFF0040C840A6
S31560005370C040C8402040C84038680060E4670060AC
S315600053808C67006000400E4010400E4014400E4096
S3156000539058400E405C400E4060400E4064400E40F7
S315600053A068400E406C400E4000000020020503007D
S315600053B007FF0FFF02050300140F0918020503001B
S315600053C00F18090D02050300140F091802050300E2
S315600053D018090B11020503001018090D02050300D8
S315600053E010180B0902050300140F0A1802050300C2
S315600053F00910180A020503001018090D02050300BA
S315600054001018090D020503000F181A0D0205030096
S315600054101018090D020503001018090D0205030096
S31560005420101813140205030010181A1C0205030055
S3156000543010181A1C02050300101813140205030045
S315600054401018131402050300101813140205030044
S3156000545011090C0F0205030011090C0F0205030068
S315600054601018090D020503001018090D0205030046
S31560005470140F0D18020503001018090D020503002C
S315600054801018090D020503001018090D0205030026
S315600054901018090D020503001018090D0205030016
S315600054A01018090D020503001018090D0205030006
S315600054B01018090D020503001018090D02050300F6
S315600054C01018090D02050300140F0D1802050300DC
S315600054D0140F0D18020503001018090D02050300CC
S315600054E01018090D020503001018090D02050300C6
S315600054F01018090D02050300140F0D1802050300AC
S31560005500140F0D18020503001318090D0205030098
S315600055101318090D020503001318090D020503008F
S315600055201318090D02050300140F13180205030072
S31560005530140F1318020503001018090D0205030065
S315600055401018090D02050300171A180B020503004F
S31560005550171A180BFFFFFFFFFFFFFFFF020503008F
S31560005560171A180B02050300171A180B0205030019
S31560005570171A180BFFFFFFFFFFFFFFFF020503006F
S315600055800C0A1807020503000C0A18070205030037
S3156000559018101A0D0205030018101A0D02050300F3
S315600055A0140F1A18020503001A0F130D02050300E3
S315600055B01A13180D020503001A13180D02050300CD
S315600055C01A13180D02050300140F1A1802050300BA
S315600055D0090B0F1C02050300090C111C02050300D0
S315600055E0090C111C02050300090A111C02050300BF
S315600055F0090A111C020503000C0F0A1C02050300B0
S315600056000C0F0A1C020503000C0F0A1C020503009E
S315600056100C0F121C020503000C0912180205030088
S315600056200D01121A0205030007FF0FFF02050300B2
S31560005630140F0918020503000F18090D020503006F
S31560005640140F09180205030018090B11020503005F
S315600056501018090D0205030010180B090205030056
S31560005660140F0A18020503000910180A0205030040
S315600056701018090D020503001018090D0205030034
S315600056800F181A0D020503001018090D0205030014
S315600056901018090D02050300101813140205030003
S315600056A010181A1C0205030010181A1C02050300C4
S315600056B010181314020503001018131402050300D2
S315600056C0101813140205030011090C0F02050300DC
S315600056D011090C0F020503001018090D02050300DD
S315600056E01018090D02050300140F0D1802050300BA
S315600056F01018090D020503001018090D02050300B4
S315600057001018090D020503001018090D02050300A3
S315600057101018090D020503001018090D0205030093
S315600057201018090D020503001018090D0205030083
S315600057301018090D020503001018090D0205030073
S31560005740140F0D1802050300140F0D18020503004F
S315600057501018090D020503001018090D0205030053
S315600057601018090D020503001018090D0205030043
S31560005770140F0D1802050300140F0D18020503001F
S315600057801318090D020503001318090D020503001D
S315600057901318090D020503001318090D020503000D
S315600057A0140F131802050300140F131802050300E3
S315600057B01018090D020503001018090D02050300F3
S315600057C0171A180B02050300171A180BFFFFFFFFC5
S315600057D0FFFFFFFF02050300171A180B02050300FF
S315600057E0171A180B02050300171A180BFFFFFFFFA5
S315600057F0FFFFFFFF020503000C0A180702050300FE
S315600058000C0A18070205030018101A0D020503009A
S3156000581018101A0D02050300140F1A18020503006A
S315600058201A0F130D020503001A13180D0205030063
S315600058301A13180D020503001A13180D020503004A
S31560005840140F1A1802050300090B0F1C020503004A
S31560005850090C111C02050300090C111C020503004A
S31560005860090A111C02050300090A111C020503003E
S315600058700C0F0A1C020503000C0F0A1C020503002C
S315600058800C0F0A1C020503000C0F121C0205030014
S315600058900C091218020503000D01121A0205030015
S315600058A007FF0FFF02050300140F09180205030026
S315600058B00F18090D02050300140F091802050300ED
S315600058C018090B11020503001018090D02050300E3
S315600058D010180B0902050300140F0A1802050300CD
S315600058E00910180A020503001018090D02050300C5
S315600058F01018090D020503000F181A0D02050300A2
S315600059001018090D020503001018090D02050300A1
S31560005910101813140205030010181A1C0205030060
S3156000592010181A1C02050300101813140205030050
S31560005930101813140205030010181314020503004F
S3156000594011090C0F0205030011090C0F0205030073
S315600059501018090D020503001018090D0205030051
S31560005960140F0D18020503001018090D0205030037
S315600059701018090D020503001018090D0205030031
S315600059801018090D020503001018090D0205030021
S315600059901018090D020503001018090D0205030011
S315600059A01018090D020503001018090D0205030001
S315600059B01018090D02050300140F0D1802050300E7
S315600059C0140F0D18020503001018090D02050300D7
S315600059D01018090D020503001018090D02050300D1
S315600059E01018090D02050300140F0D1802050300B7
S315600059F0140F0D18020503001318090D02050300A4
S31560005A001318090D020503001318090D020503009A
S31560005A101318090D02050300140F1318020503007D
S31560005A20140F1318020503001018090D0205030070
S31560005A301018090D02050300171A180B020503005A
S31560005A40171A180BFFFFFFFFFFFFFFFF020503009A
S31560005A50171A180B02050300171A180B0205030024
S31560005A60171A180BFFFFFFFFFFFFFFFF020503007A
S31560005A700C0A1807020503000C0A18070205030042
S31560005A8018101A0D0205030018101A0D02050300FE
S31560005A90140F1A18020503001A0F130D02050300EE
S31560005AA01A13180D020503001A13180D02050300D8
S31560005AB01A13180D02050300140F1A1802050300C5
S31560005AC0090B0F1C02050300090C111C02050300DB
S31560005AD0090C111C02050300090A111C02050300CA
S31560005AE0090A111C020503000C0F0A1C02050300BB
S31560005AF00C0F0A1C020503000C0F0A1C02050300AA
S31560005B000C0F121C020503000C0912180205030093
S31560005B100D01121A10B43B4A0B4603F0010304460A
S31560005B206401145904F00104A34207D001F0010195
S31560005B3040011150BFF34F8FBFF36F8F10BC70479A
S31560005B400121E7E76AE010B5002400E0641C102C30
S31560005B5004D22D4951F824108142F7D1102C06D376
S31560005B6039222A492A48FDF7F1F9AFF30080204629
S31560005B7010BDF8B504460D461646FFF7E4FF0E283D
S31560005B8006D224490A5C8A2A02D01046FFF7D8FF5B
S31560005B900127616907FA05F0814361613078002861
S31560005BA005D16068AF4020EA0707676008E0727851
S31560005BB02946204600F00AF86068AF4007436760F0
S31560005BC0B27829462046BDE8F840BBE770B5044682
S31560005BD00D461646202D06D371220C490E48FDF758
S31560005BE0B5F9AFF30080002E05D1012000FA05F566
S31560005BF0C4F8885070BD012000FA05F5C4F88450D9
S31560005C0070BD00000060CC40EC6300608C62006098
S31560005C106C640060C4670060F067006070B40C4636
S31560005C200125C66905FA01F39E43C661102902D2B1
S31560005C3000F10C0302E000F11003103C521E042A2E
S31560005C402AD8DFE802F0030A131D2400196803222C
S31560005C5060008240914319601EE01968032260006B
S31560005C608240914385400D431D6015E0196803220B
S31560005C7060008240914302228240114319600BE02A
S31560005C8019680322600082401143196004E0C2690A
S31560005C9005FA01F11143C16170BC704738B54F49CF
S31560005CA00888400704D50A884FF6FB7002400A80D0
S31560005CB04B490888400704D50A884FF6FB700240B6
S31560005CC00A8048480168890403D54749474A1160F4
S31560005CD006E046494CF220520A604DF628120A60E8
S31560005CE04FF6FF71424A1160026822F0800242F06C
S31560005CF0200202603F480268920403D53A4A3E4B4E
S31560005D001A6006E03C4A4CF2205313604DF62813A5
S31560005D1013603A4A1160016821F0800141F0200168
S31560005D20016037480168C90703D501684908490019
S31560005D30016000F074F833490868800315D4086878
S31560005D40800312D4BFF34F8FBFF36F8F00202E4AAC
S31560005D501060BFF34F8FBFF36F8F086840F4003059
S31560005D600860BFF34F8FBFF36F8F0868C00327D4F7
S31560005D700868C00324D40020244A1060BFF34F8F04
S31560005D8023480268C2F34E33224DC2F3C90443F678
S31560005D90E07000EA431040EA847028602046441EA2
S31560005DA00028F4D11846431E0028EED1BFF34F8F6A
S31560005DB0086840F480300860BFF34F8FBFF36F8F81
S31560005DC01548026822F400520260086840F010002C
S31560005DD00860BFF34F8FBFF36F8F31BD0000034084
S31560005DE0004003400080034020C528D9048003405A
S31560005DF0088003400000C1400400C1400800C14063
S31560005E0010E000E014ED00E050EF00E084ED00E00B
S31560005E1080ED00E060EF00E070400E407047704734
S31560005E20020003D409012D4A1154704709012C4A16
S31560005E3000F00F00104400F8041C704780B5411E46
S31560005E40B1F1807F01D3012002BD401E2549086063
S31560005E500F214FF0FF30FFF7E3FF00202249086073
S31560005E60072022490860002002BD214908680028F1
S31560005E7002D00868401E086070471D4908600868BF
S31560005E800028FCD1704710B500F066F8FEF7BAFE40
S31560005E9000F0C8F8FFF7C2FF164800684FF47A7141
S31560005EA0B0FBF1F0FFF7CAFF0028134C07D0FEE7FE
S31560005EB0002203211148FFF789FE00202070C820C8
S31560005EC0FFF7DBFF20780028F2D1012203210B487F
S31560005ED0FFF77CFE01202070F1E7000000E400E09F
S31560005EE018ED00E014E000E018E000E010E000E0EB
S31560005EF06000002000000020650000200040C640D1
S31560005F0010B42B4A0B4603F001030446640114598E
S31560005F1004F00104A34207D001F0010140011150D1
S31560005F20BFF34F8FBFF36F8F10BC70470121E7E758
S31560005F3010B4029C01F00F01240104F01004214307
S31560005F400160002A00D0136010BC704700980028DA
S31560005F5001D00199016070473EB53120FFF7E6FF39
S31560005F6014480068029002AA03211348FFF701FE55
S31560005F70002001901148009000231A460A2110481B
S31560005F80FFF7D6FF0F4C104D002001900095034699
S31560005F90024603212046FFF7CBFF022001900095C1
S31560005FA000231A4603212046FFF7D0FF37BD0000C5
S31560005FB00060CC40C86A00600040C64060830E4006
S31560005FC01C810E4030820E4074840E401B49C00115
S31560005FD00858C0F3022070471849C001085800F0FD
S31560005FE0FF00401C704738B50446FFF7EFFF1449C1
S31560005FF0224601EBC201085CFCF7C8FE0546204656
S31560006000FFF7EAFFB5FBF0F4002C07D140F69102EA
S315600060100C490D48FCF79AFFAFF30080204632BD6D
S315600060201920E0E780B5FFF7FBFF034601224FF436
S31560006030E1311046BDE80050FDF751BD0000CC408F
S31560006040AC5300604C60006020680060443A5C724B
S3156000605065735F636869705F692E6D7872745F637C
S315600060606D375C53444B5F322E392E305F4D494D50
S31560006070585254313136302D45564B5F4944455F51
S31560006080414C4C5C646576696365735C4D494D58FB
S315600060905254313136365C647269766572735C6609
S315600060A0736C5F636C6F636B2E680000443A5C725E
S315600060B065735F636869705F692E6D7872745F631C
S315600060C06D375C53444B5F322E392E305F4D494DF0
S315600060D0585254313136302D45564B5F4944455FF1
S315600060E0414C4C5C646576696365735C4D494D589B
S315600060F05254313136365C647269766572735C66A9
S31560006100736C5F636C6F636B2E680000443A5C72FD
S3156000611065735F636869705F692E6D7872745F63BB
S315600061206D375C53444B5F322E392E305F4D494D8F
S31560006130585254313136302D45564B5F4944455F90
S31560006140414C4C5C636F6D706F6E656E74735C759D
S315600061506172745C66736C5F616461707465725F52
S315600061606C70756172742E6300000000443A5C7254
S3156000617065735F636869705F692E6D7872745F635B
S315600061806D375C53444B5F322E392E305F4D494D2F
S31560006190585254313136302D45564B5F4944455F30
S315600061A0414C4C5C646576696365735C4D494D58DA
S315600061B05254313136365C647269766572735C66E8
S315600061C0736C5F636C6F636B2E680000443A5C723D
S315600061D065735F636869705F692E6D7872745F63FB
S315600061E06D375C53444B5F322E392E305F4D494DCF
S315600061F0585254313136302D45564B5F4944455FD0
S31560006200414C4C5C646576696365735C4D494D5879
S315600062105254313136365C647269766572735C6687
S31560006220736C5F636C6F636B2E630000443A5C72E1
S3156000623065735F636869705F692E6D7872745F639A
S315600062406D375C53444B5F322E392E305F4D494D6E
S31560006250585254313136302D45564B5F4944455F6F
S31560006260414C4C5C646576696365735C4D494D5819
S315600062705254313136365C647269766572735C6627
S31560006280736C5F636F6D6D6F6E2E6300443A5C7204
S3156000629065735F636869705F692E6D7872745F633A
S315600062A06D375C53444B5F322E392E305F4D494D0E
S315600062B0585254313136302D45564B5F4944455F0F
S315600062C0414C4C5C646576696365735C4D494D58B9
S315600062D05254313136365C647269766572735C66C7
S315600062E0736C5F6770696F2E63000000443A5C727E
S315600062F065735F636869705F692E6D7872745F63DA
S315600063006D375C53444B5F322E392E305F4D494DAD
S31560006310585254313136302D45564B5F4944455FAE
S31560006320414C4C5C646576696365735C4D494D5858
S315600063305254313136365C647269766572735C6666
S31560006340736C5F6C70756172742E630028636F6E18
S315600063506669672D3E6C6F6F7044697669646572B5
S31560006360203C3D202875696E7433325F7429323063
S3156000637038292026262028636F6E6669672D3E6C55
S315600063806F6F7044697669646572203E3D2028753A
S31560006390696E7433325F742931303429000000002D
S315600063A0636F6E6669672D3E696E7374616E636551
S315600063B0203C202873697A656F6628735F4C707518
S315600063C0617274416461707465724261736529209B
S315600063D02F2073697A656F66284C50554152545F19
S315600063E054797065202A2929000000000000000009
S315600063F000C012400000134000401340008013406C
S3156000640000C013400000144000C0C5400000C640F4
S315600064100040C6400080C64000C0C6400000C7407D
S315600064200000CA400080004200C00042696E73747A
S31560006430616E6365203C202873697A656F66287390
S315600064405F6C7075617274426173657329202F2069
S3156000645073697A656F662828735F6C70756172748C
S315600064604261736573295B305D292900696E7374B7
S31560006470616E6365203C202873697A656F66287350
S315600064805F6770696F426173657329202F20736936
S315600064907A656F662828735F6770696F4261736596
S315600064A073295B305D29290028706C6C203D3D2086
S315600064B06B434C4F434B5F506C6C417564696F29FD
S315600064C0207C7C2028706C6C203D3D206B434C4FBB
S315600064D0434B5F506C6C566964656F290000000021
S315600064E00000000000C0074000000840004008406F
S315600064F00080084000C00840000009400040094094
S315600065000080094000C0094000000A400040C240C7
S315600065100080C24028706C6C203D3D206B434C4F20
S31560006520434B5F506C6C5379733229207C7C2028F6
S31560006530706C6C203D3D206B434C4F434B5F506C01
S315600065406C537973332900002866726163203E3D7F
S31560006550202875696E7433325F742931325529206B
S315600065602626202866726163203C3D202875696E68
S315600065707433325F742933355529000000000000FA
S3156000658000C0074000000840004008400080084006
S3156000659000C00840000009400040094000800940F2
S315600065A000C0094000000A400040C2400080C2406E
S315600065B066726163203C3D202875696E74385F742D
S315600065C0293335552026262066726163203E3D209C
S315600065D02875696E74385F74293132550000000081
S315600065E0415353455254204552524F522022202542
S315600065F07320223A2066696C652022257322204C1E
S31560006600696E652022256422200A0000735F4C7043
S315600066107561727441646170746572426173655BC1
S31560006620636F6E6669672D3E696E7374616E6365CE
S315600066305D0000002875696E74385F7429283429F6
S31560006640203E3D20636F6E6669672D3E74784669AD
S31560006650666F57617465726D61726B002875696EDD
S3156000666074385F7429283429203E3D20636F6E6636
S3156000667069672D3E72784669666F57617465726D9B
S3156000668061726B0072B60548054901600A6882F35B
S3156000669008880448804762B60348004708ED00E072
S315600066A0002000609D5C00601568006010B50749B9
S315600066B079441831064C7C44163404E00A68081D97
S315600066C0114488470146A142F8D110BD0800000078
S315600066D0280000008FCDFFFF64000000040000204A
S315600066E000000000D3CDFFFF04000000E4030000BB
S315600066F0000000200000000000F00DF8002801D026
S31560006700FFF7D4FFAFF300800020AFF30080FFF700
S31560006710BAFB00F002F80120704700F001B8FEE70E
S315600067200746384600F002F8FBE7FEE780B5AFF3B0
S315600067300080024A11001820ABBEFBE7260002006B
S315600067403055203C20636F6E6669672D3E626175C9
S3156000675064526174655F4270730000006E616D65BE
S3156000676020213D206B434C4F434B5F5265736572EE
S3156000677076656400636F756E74203C3D2030786684
S31560006780666666666666665500000000290000005B
S315600067900100000000A60E000000000000000000DE
S315600067A0305520213D2064656C617954696D655F63
S315600067B07573000000000000000000000000010189
S315600067C0000000008A3333333333333333333333A8
S315600067D0333300008A565758595A5B5C5D5E5F607A
S315600067E061000000FFFFFF0F0000000000000000D6
S315600067F070696E203C203332550000003020213D08
S3156000680020646174610000003020213D20636F6E5A
S3156000681066696700AFF30080AFF30080FFF76CFF37
S315600068206672657100000000636F6E6669670000DE
S31560006830667265710000000001000000C80000007B
S3156000684068616E646C650000636F6E666967000000
S3156000685064617461000000006C656E6774680000B6
S31560006860667265710000000000480047CD6A0060EE
S3156000687000480047CD6A006000480047CD6A006066
S3156000688000480047CD6A006000480047CD6A006056
S3156000689000480047CD6A006000480047CD6A006046
S315600068A000480047CD6A006000480047CD6A006036
S315600068B000480047CD6A006000480047CD6A006026
S315600068C000480047CD6A006000480047CD6A006016
S315600068D000480047CD6A006000480047CD6A006006
S315600068E000480047CD6A006000480047CD6A0060F6
S315600068F000480047754900600048004789490060C4
S31560006900004800479D49006000480047B94900605B
S3156000691000480047CD49006000480047E1490060F3
S3156000692000480047F549006000480047094A006092
S31560006930004800471D4A006000480047314A006031
S3156000694000480047454A006000480047CD6A00603D
S3156000695000480047CD6A006000480047CD6A006085
S3156000696000480047CD6A006000480047CD6A006075
S3156000697000480047CD6A006000480047CD6A006065
S3156000698000480047CD6A006000480047CD6A006055
S3156000699000480047CD6A006000480047CD6A006045
S315600069A000480047CD6A006000480047CD6A006035
S315600069B000480047CD6A006000480047CD6A006025
S315600069C000480047CD6A006000480047CD6A006015
S315600069D000480047CD6A006000480047CD6A006005
S315600069E000480047CD6A006000480047CD6A0060F5
S315600069F000480047CD6A006000480047CD6A0060E5
S31560006A0000480047CD6A006000480047CD6A0060D4
S31560006A1000480047CD6A006000480047CD6A0060C4
S31560006A2000480047CD6A006000480047CD6A0060B4
S31560006A3000480047CD6A006000480047CD6A0060A4
S31560006A4000480047CD6A006000480047CD6A006094
S31560006A5000480047CD6A006000480047CD6A006084
S31560006A6000480047CD6A006000480047CD6A006074
S31560006A7000480047CD6A006000480047CD6A006064
S31560006A8000480047CD6A006000480047CD6A006054
S31560006A9000480047CD6A006000480047CD6A006044
S31560006AA000480047CD6A006000480047CD6A006034
S31560006AB000480047CD6A006000480047CD6A006024
S31560006AC000480047CD6A006001000000FFF7FEBF86
S30960006AD000A4781F21
S70560006685AF
