:020000040008F2
:10A0000000003020CDD608006BBF0800A3BF0800B9
:10A0100053CA080047CE080061D80800CBD8080012
:10A02000000028000000000000000000D7D8080051
:10A0300025DE080000A0080027DE0800D5CE0800B5
:10A04000D1DB0800D9DB0800E1DB0800E9DB080010
:10A05000F1DB0800F9DB080001DC080009DC08007E
:10A0600011DC080019DC080021DC080029DC0800EC
:10A0700031DC080039DC080041DC080049DC08005C
:10A0800051DC080059DC080061DC080069DC0800CC
:10A0900071DC080079DC080081DC080089DC08003C
:10A0A00091DC080099DC0800A1DC0800A9DC0800AC
:10A0B000B1DC0800B9DC0800C1DC0800C9DC08001C
:10A0C000D1DC0800D9DC0800E1DC0800E9DC08008C
:10A0D000F1DC0800F9DC080001DD080009DD0800FA
:10A0E00011DD080019DD080021DD080029DD080068
:10A0F00031DD080039DD080041DD080049DD0800D8
:10A1000051DD080059DD080061DD080069DD080047
:10A1100071DD080079DD080081DD080089DD0800B7
:10A1200091DD080099DD0800A1DD0800A9DD080027
:10A13000B1DD0800B9DD0800C1DD0800C9DD080097
:10A14000D1DD0800D9DD0800E1DD0800E9DD080007
:10A15000F1DD0800F9DD080001DE080009DE080075
:08A1600011DE080059DB0800C4
:10A18000DFF860090068002803D1DFF86C0A006876
:10A1900000E000207047DFF8640A00687047DFF8CD
:10A1A000600A7047DFF85C0A0068C00702D54FF408
:10A1B000004000E00020704780B5DFF884090068A7
:10A1C00010F0070F0AD0FFF7EAFFDFF8B41A0968AA
:10A1D00001F0FF01491CB0FBF1F001E0FFF7E2FFE5
:10A1E00002BD70B4010000240025022D28D22000F9
:10A1F000C0B2002824D10E2000FB05F00E00C6409E
:10A200003200002909D541F6FC7010EA820000F105
:10A21000804010F50430030008E041F6FC7010EABD
:10A22000820000F1804010F580500300500503D0FB
:10A23000C2F3C220186001E0012004006D1CD4E7C5
:10A24000480004D5C1F30170DFF8906A306070BC3B
:10A250007047002808D541F6FC7212EA800202F12C
:10A26000804212F5043207E041F6FC7212EA8002E5
:10A2700002F1804212F58052136853F000531360CC
:10A28000002904D1136853F08043136001E04B1E92
:10A2900013601368002BFCD47047F8B50026DFF874
:10A2A0006809006810F00700002802D0012804D0D7
:10A2B00007E0DFF85809060003E0FFF761FF06003A
:10A2C000FFE7DFF84C793868C00711D4DFF8B4092C
:10A2D0000068A0FB0601DFF8582A1268002301F08D
:10A2E0006DF804000D003868C0F307404643A61916
:10A2F0003000F2BD10B50400FFF7CFFF01002000D1
:10A30000C0B2002805D002281BD00ED3032824D0C9
:10A310002FE01220A0FB0101DFF8182A126812F0CA
:10A320003F02002301F04AF824E01220A0FB0101C3
:10A33000DFF8002A1268C2F30522002301F03EF87C
:10A3400018E01220A0FB0101DFF8E8291268C2F32F
:10A350000542002301F032F80CE01220A0FB0101BD
:10A36000DFF8D0291268C2F30562002301F026F855
:10A3700000E0002010BDF8B50026DFF8980900685D
:10A3800010F00700002802D0012804D007E0DFF811
:10A390007C08060003E0FFF7F3FE0600FFE7DFF8A6
:10A3A00098793868C00711D4DFF890090068A0FBDD
:10A3B0000601DFF88C291268002300F0FFFF04007B
:10A3C0000D003868C0F307404643A6193000F2BDBF
:10A3D00010B50400FFF7CFFF01002000C0B2002835
:10A3E00005D002281BD00ED3032824D02FE0122042
:10A3F000A0FB0101DFF84C29126812F03F02002394
:10A4000000F0DCFF24E01220A0FB0101DFF834297A
:10A410001268C2F30522002300F0D0FF18E01220DA
:10A42000A0FB0101DFF81C291268C2F305420023DA
:10A4300000F0C4FF0CE01220A0FB0101DFF80429AA
:10A440001268C2F30562002300F0B8FF00E00020AC
:10A4500010BD80B50020FFF7BBFFDFF8EC180968DE
:10A4600001F0FF01491CB0FBF1F002BD0020DFF854
:10A470006C18096811F00301002905D002290BD0DE
:10A4800006D303290CD00FE0DFF8C01808000BE05A
:10A49000DFF8BC18080007E0DFF87017080003E0D9
:10A4A000DFF8B0180800FFE7704710B50024DFF8A8
:10A4B000A808006810F00300002803D0022824D068
:10A4C0001ED326E0DFF89408006810F0030000288F
:10A4D00005D002280BD006D303280CD00FE0FFF7DD
:10A4E0005EFE04000BE0FFF7C1FF040007E0FFF78A
:10A4F00047FE040003E0DFF868080400FFE708E017
:10A500000020FFF7F7FE040003E0FFF74BFE040016
:10A51000FFE7200010BD10B50024DFF848080068F0
:10A5200010F00300002805D0022820D01AD30328F9
:10A5300022D025E0DFF83008006810F00300002882
:10A5400003D0022809D004D30BE0DFF8B40A0400DA
:10A5500007E0FFF715FE040003E0FFF720FE04000C
:10A56000FFE70DE00020FFF7C5FE040008E0012032
:10A57000FFF7C0FE040003E0FFF714FE0400FFE74E
:10A58000200010BD10B50024DFF8E007006810F0CF
:10A590000700002805D0022820D01AD3032822D093
:10A5A00026E0DFF8CC07006810F00700002803D091
:10A5B000022809D004D30BE0FFF7E2FD040007E016
:10A5C000FFF7EDFD040003E0DFF884070400FFE778
:10A5D0000EE00020FFF78EFE040009E00220FFF7E6
:10A5E00089FE040004E00320FFF784FE0400FFE777
:10A5F000DFF8100A006800F0FF00401CB4FBF0F028
:10A6000010BD10B50024DFF8000A006810F0070044
:10A61000002809D002282FD029D3042836D030D3DF
:10A6200006283CD037D33EE0DFF8E009006810F0A0
:10A630000700002806D002280CD007D3042811D028
:10A640000CD313E0FFF79CFD04000FE0FFF7A7FD1C
:10A6500004000BE0DFF80807040007E0FFF725FF20
:10A66000040003E0FFF757FF0400FFE71BE00020B2
:10A67000FFF740FE040016E00220FFF73BFE040057
:10A6800011E00120FFF736FE04000CE00320FFF785
:10A6900031FE040007E0FFF7DCFE040003E0FFF7F3
:10A6A00081FD0400FFE7DFF8DC0A006800F0FF002E
:10A6B000401CB4FBF0F010BD2DE9FE4F04005FF02C
:10A6C000000B012500200290002001900020009046
:10A6D000DFF83CA9DFF83C69122C09D34FF4F9727A
:10A6E000DFF83419DFF8340900F080FFAFF30080A1
:10A6F00060015AF8007017F0070760013058C0F386
:10A700000728600156F8009009F0FF09002F03D0D8
:10A71000022F13D004D315E0FFF7C7FE834611E0E4
:10A72000DFF8F809006800F0FF00401C0500002079
:10A73000FFF7E0FDB0FBF5F0834603E0DFF810061D
:10A740008346FFE719F10100A0FB0B0119EB080993
:10A7500019F10102002300F031FEBDE8FE8FF8B5CB
:10A76000040000250026112C09D34FF40672DFF8EF
:10A77000A818DFF8140A00F039FFAFF30080DFF803
:10A780000C0A6101475817F00700002805D002287D
:10A790000BD006D303280DD011E0DFF8B405050077
:10A7A0000DE0FFF756FE050009E0DFF850040068F1
:10A7B000050004E02000FFF77FFF0500FFE7280009
:10A7C000F2BD10B50024DFF8C809006810F00700DA
:10A7D000002805D002280BD006D303280CD010E0A7
:10A7E000DFF8680504000CE0FFF733FE040008E022
:10A7F000FFF7D1FC040004E01120FFF75DFF040027
:10A80000FFE7DFF8E40A006800F0FF00401CB4FB3B
:10A81000F0F010BDF8B504000025022C09D340F279
:10A820008622DFF8F417DFF8540A00F0DFFEAFF3FA
:10A830000080002C0AD1DFF8480A066816F00706E7
:10A84000DFF8400A076807F0FF0709E0DFF89C0A15
:10A85000066816F00706DFF8980A076807F0FF0792
:10A86000002E06D0022E0DD007D3042E13D00ED307
:10A8700016E0FFF71AFE050012E00020FFF73AFD90
:10A8800005000DE00220FFF735FD050008E0DFF8C8
:10A890007007050004E00320FFF72CFD0500FFE72B
:10A8A0007F1CB5FBF7F0F2BD10B50024DFF8440AB9
:10A8B000006810F00700002808D002280FD009D344
:10A8C000042815D010D3052817D01AE0FFF7EDFDA6
:10A8D000040016E00020FFF70DFD040011E0022047
:10A8E000FFF708FD04000CE0DFF87404040008E042
:10A8F0000320FFF7FFFC040003E0FFF7AAFD0400BC
:10A90000FFE7DFF8040A006800F0FF00401CB4FB1A
:10A91000F0F010BD10B50024DFF8DC09016811F07B
:10A92000070F03D1DFF8E402040007E0006810F02D
:10A930000700012802D1FFF78CFD0400DFF8CC09E5
:10A94000006800F0FF00401CB4FBF0F010BD38B50B
:10A9500004000025022C09D340F2F722DFF8B816D4
:10A96000DFF8980900F042FEAFF30080002C09D117
:10A97000DFF88C09006810F0070F0CD1FFF70FFC0F
:10A98000050008E0DFF88809006810F0070F02D121
:10A99000FFF705FC0500280032BD10B50024DFF8E4
:10A9A0006409006810F00700002803D0022811D0C5
:10A9B0000CD313E0FFF779FDDFF85819096801F0AF
:10A9C000FF01491CB0FBF1F0040007E0FFF7E7FBD3
:10A9D000040003E0FFF7E6FB0400FFE7200010BDE2
:10A9E000F8B504000025022C09D340F23732DFF815
:10A9F0002816DFF8880800F0F9FDAFF30080002C7E
:10AA000004D1DFF81469DFF8147903E0DFF8106986
:10AA1000DFF81079306810F00700002806D002280F
:10AA20000DD007D3042813D00ED316E0FFF73DFD59
:10AA3000050012E00020FFF75DFC05000DE002209C
:10AA4000FFF758FC050008E0DFF80003050004E00C
:10AA50000320FFF74FFC0500FFE7386800F0FF0018
:10AA6000401CB5FBF0F0F2BD10B50024DFF8B808CB
:10AA7000006810F00700002802D0012804D006E08A
:10AA8000FFF713FD040002E060480400FFE7DFF871
:10AA90009C08006800F0FF00401CB4FBF0F010BD03
:10AAA00010B50024DFF88808006810F007000028BF
:10AAB00003D0022809D004D30AE0FFF761FB0400A9
:10AAC00006E0FFF7F2FC040002E050480400FFE754
:10AAD000DFF86008006800F0FF00401CB4FBF0F0F5
:10AAE00010BD00006811004010B50024DFF84808D0
:10AAF000006810F00700002806D002280BD006D30B
:10AB0000042810D00BD312E0914804000FE0FFF7A7
:10AB1000A0FC04000BE0FFF73EFB040007E0FFF79A
:10AB20003EFB040003E0FFF747FB0400FFE7DFF80C
:10AB30000C08006800F0FF00401CB4FBF0F010BDF2
:10AB40003017004010B50024DFF8F407006810F05B
:10AB50000700002805D002280AD006D303280CD00D
:10AB600010E0FFF7A2FC04000CE07948040009E0C3
:10AB70000220FFF7BFFB040004E00320FFF7BAFB4D
:10AB80000400FFE7DFF8BC07006800F0FF00401C8E
:10AB9000B4FBF0F010BD000010B50024DFF8A807EA
:10ABA000006810F00700002806D002280BD007D359
:10ABB000042812D00CD315E0FFF777FC040011E055
:10ABC000674804000EE00020FFF794FB040009E052
:10ABD0000220FFF78FFB040004E00320FFF78AFB4D
:10ABE0000400FFE7DFF86407006800F0FF00401C86
:10ABF000B4FBF0F010BD000004001C2008001C2075
:10AC000040420F00C01100400012004000366E01AB
:10AC10000412004010B50024DFF83407006810F07B
:10AC20000700002808D002280ED009D3042813D02A
:10AC30000DD3052815D019E000F026F8040015E022
:10AC4000FFF733FC040011E0454804000EE000204B
:10AC5000FFF750FB040009E00220FFF74BFB040064
:10AC600004E00320FFF746FB0400FFE7DFF8E406FB
:10AC7000006800F0FF00401CB4FBF0F010BD0000C5
:10AC8000341700401012004010B50024DFF8C80649
:10AC9000006810F00700002805D002280BD005D36B
:10ACA00003280DD011E02E4804000EE00020FFF72D
:10ACB00021FB040009E00220FFF71CFB040004E074
:10ACC0000320FFF717FB0400FFE7DFF8900600689A
:10ACD00000F0FF00401CB4FBF0F010BD0811004074
:10ACE0000020DFF87C16096811F00701002902D066
:10ACF000012903D005E01A49080002E015490800BF
:10AD0000FFE7DFF86016096801F0FF01491CB0FB9E
:10AD1000F1F070470012024080B5FFF7E1FFDFF865
:10AD20004816096801F0FF01491CB0FBF1F002BDB3
:10AD30001412004018120040041202401012024087
:10AD400014120240181202404012024000D8B80506
:10AD5000006CDC02001BB7003414004030140040CB
:10AD600000B0710B3414024030140240D41600407D
:10AD7000D016004038B5040000252000C0B20028DD
:10AD800059D0022863D056D3042868D063D306284C
:10AD90006ED068D3082874D06FD30A287BD075D3BF
:10ADA0000C2800F081807AD30E2800F08680C0F055
:10ADB0008080102800F08980C0F08380122800F085
:10ADC0009480C0F08E80142800F09980C0F09280AA
:10ADD000162800F09E80C0F09780182800F0A3800D
:10ADE000C0F09C801A2800F0A880C0F0A1801C2828
:10ADF00000F0AD80C0F0A6801E2800F0B280C0F048
:10AE0000AB80202800F0B780C0F0B080222800F08E
:10AE1000BC80C0F0B580242800F0C080C0F0BA80AB
:10AE2000262800F0C380C0F0BD80282800F0C6802E
:10AE3000C0F0C080C6E0FFF738FBDFF830150968C6
:10AE400001F0FF01491CB0FBF1F00500BAE0FFF78B
:10AE500061FD0500B6E0FFF7D4FB0500B2E0FFF7A7
:10AE600091FB0500AEE00020FFF7D4FC0500A9E04F
:10AE70000120FFF7CFFC0500A4E0FFF715FD05005A
:10AE8000A0E00020FFF763FD05009BE00120FFF735
:10AE90005EFD050096E0FFF780FD050092E00020D2
:10AEA000FFF79EFD05008DE00120FFF799FD0500ED
:10AEB00088E0FFF7D9FD050084E0FFF7F1FD05000C
:10AEC00080E0FFF711FE05007CE0FFF724FBDFF8D0
:10AED000A014096801F0FF01491CB0FBF1F0050066
:10AEE00070E0FFF72FFE05006CE00020FFF737FC55
:10AEF000050067E00120FFF732FC050062E0022058
:10AF0000FFF72DFC05005DE00320FFF728FC05009E
:10AF100058E00420FFF723FC050053E00520FFF76D
:10AF20001EFC05004EE00620FFF719FC050049E075
:10AF30000720FFF714FC050044E00820FFF70FFC92
:10AF400005003FE00920FFF70AFC05003AE00A206F
:10AF5000FFF705FC050035E00B20FFF700FC0500BE
:10AF600030E00C20FFF7FBFB05002BE00D20FFF786
:10AF7000F6FB050026E00E20FFF7F1FB050021E0BF
:10AF80000F20FFF7ECFB05001CE01020FFF7E7FBAC
:10AF9000050017E0FFF715FC050013E0FFF7FCFDC7
:10AFA00005000FE0FFF736FE05000BE0FFF76CFE33
:10AFB000050007E0FFF794FE050003E0FFF7ACFE95
:10AFC0000500FFE7280032BDF8B504002578104ED3
:10AFD000104F122D08D340F2F3420F49DFF89403CB
:10AFE00000F004FBAFF30080607810F00700690107
:10AFF0007050E078A17851EA002168013950F1BD24
:10B0000000B0710BD8160040E4170240E017024070
:10B01000001502400415024044D30800F8DA080085
:10B0200038B505005FF4C024DFF84C0304602878CD
:10B03000DFF8481308606868DFF844130860A86800
:10B04000DFF840130860287B002808D0022818D0B9
:10B050000ED3042827D01DD305282DD035E0DFF8E6
:10B060002803016831F47F0151F48011016036E05A
:10B07000DFF81403016831F47F0151F48811016095
:10B080002DE0DFF80403016831F47F0151F4A011D1
:10B09000016024E0DFF8F002016831F47F0151F42F
:10B0A000B01101601BE0DFF8E002016831F47F01BC
:10B0B00051F4D811016012E0DFF8CC02016831F4DC
:10B0C0007F0151F40411016009E040F22452DFF8DD
:10B0D000BC12DFF8BC0200F089FAAFF30080DFF8A1
:10B0E000A802016831F002010160DFF8A8020460E3
:10B0F0000020FFF73FFE0400DFF89C02006880B2EA
:10B10000A0FB0401DFF89422002300F057F900218E
:10B11000814202D200BF491CFAE731BD60170240EC
:10B12000F0B40300DBB2DFF878422268BF261D00CE
:10B13000EDB2ED0016FA05F532EA050580261A0093
:10B14000D2B2D20096402E4326600E00F6B216F020
:10B150003F061A00D2B2D20096402E432660402607
:10B1600022681F00FFB2FF0016FA07F73A42F6D036
:10B1700027681A00D2B2D20096403E432660F0BC47
:10B1800070470000E817024004DB08000815024081
:10B190002817024038B505005FF4C014DFF8D80165
:10B1A00004602878DFF8FC1108606868DFF8F8119F
:10B1B0000860A868DFF8F4110860287B002808D030
:10B1C000022818D00ED3042825D01CD305282AD055
:10B1D00031E0DFF8DC01016831F47F0151F48011C6
:10B1E000016030E0DFF8C801016831F47F0151F4FB
:10B1F0008811016027E06E48016831F47F0151F445
:10B20000A01101601FE06A48016831F47F0151F428
:10B21000B011016017E06648016831F47F0151F414
:10B22000D81101600FE06248016831F47F0151F4E8
:10B230000411016007E040F27D525449544800F087
:10B24000D5F9AFF300805A48016831F0020101607E
:10B25000504804600020FFF78DFD04005548006849
:10B2600080B2A0FB04014D4A002300F0A7F80021A2
:10B27000814202D200BF491CFAE731BD10DB080051
:10B280002016004024160040F0B40300DBB24A4C04
:10B290002268BF261D00EDB2ED0016FA05F532EA70
:10B2A000050580261A00D2B2D20096402E432660B1
:10B2B0000E00F6B216F03F061A00D2B2D200964047
:10B2C0002E432660402622681F00FFB2FF0016FAB8
:10B2D00007F73A42F6D027681A00D2B2D200964059
:10B2E0003E432660F0BC70474017024030160040D5
:10B2F0003416004040160040C017024070DB0800C2
:10B30000201700406017004044160040C417024058
:10B310002018024064170040801600408416004048
:10B320009016004094160040001802401018024089
:10B3300060160040641600408017024084170240E7
:10B340003018024034180240901700409417004013
:10B35000A0170040A4170040701700407417004069
:10B36000781700407C170040801700400014004010
:10B37000001402401CDB08002026004000120040A0
:10B3800010120040141200400412004044D3080080
:10B39000E2BA0800302600400C120040C0C62D0062
:10B3A0001812004000120240101202401412024013
:10B3B000041202400C12024018120240BBBBE1B161
:10B3C000B2F5803F80F07E80022A1ED98C46B1FB08
:10B3D000F2F102FB11C31B0443EA1043B3FBF2FC7E
:10B3E00002FB1C3380B240EA0343B3FBF2F002FBE2
:10B3F000103240EA0C4000237047022A05D98446E7
:10B40000B0FBF2F002FB10C270474AB105D100F068
:10B41000010249085FEA30007047002200237047AC
:10B4200000F0F2B80B0002000021002070479042AB
:10B4300071EB030CF6D3B3F5803F2FD2F0B5B3FA1E
:10B4400083F7B1FA81F4A7F10F0E3D1B5340CEF103
:10B45000200602FA0EF2F3415340B5F10F0746D829
:10B460000F3C2C444140C4F12006A040F141414032
:10B47000B1FBF3F603FB1611A2FB0645001BA94125
:10B4800002D2761E8018594180EA010221FA0EF399
:10B4900062FA0EF200215A403046F0BD30B4B1FBE2
:10B4A000F3FC03FB1C11A2FB0C45001BA94103D2BA
:10B4B000ACF1010C8018594130BC02460B46604685
:10B4C00000217047B2F1807F65D3F0B5B2FA82F700
:10B4D000B1FA81F4C7F10F063D1B22FA06F307F11A
:10B4E000110EF24120355A40B5F10F07B8D941404D
:10B4F000C4F12006A040F1414140B1FBF3FC03FB45
:10B500001C11A2FB0C45001BA94103D2BCF1010C8C
:10B51000801859410F2F12D30F3FC90341EA504100
:10B52000B1FBF3F603FB1611A2FB0645D4EBC030CA
:10B53000A94102D2761E8018594146EACC3C07B395
:10B540004140C7F12006B840F1414140B1FBF3F65C
:10B5500003FB1611A2FB0645001BA94102D2761E71
:10B560008018594180EA010221FA0EF3C7F1200444
:10B5700062FA0EF20CFA07F05A402CFA04F130434A
:10B58000F0BD80EA010221FA0EF3002162FA0EF208
:10B5900060465A40F0BD8C46B1FBF2F102FB11C38C
:10B5A0001B0243EA1063B3FBF2FC02FB1C331B02D9
:10B5B0004CEA002043EA1063B3FBF2FC02FB1C33AD
:10B5C0001B024CEA002043EA1063B3FBF2FC02FBCF
:10B5D0001C331B024CEA002043EA1063B3FBF2FC6D
:10B5E00002FB1C324CEA00200023704770B50400B7
:10B5F0000D00160033002A002100024800F0DEF89A
:10B6000000BEFDE700D70800704730B4002513E006
:10B6100050F8042BD30744BFA9F101039A18091F5E
:10B62000042942F8045BFAD213468C0744BF158004
:10B630009B1CC90748BF1D7050F8041B0029E7D1A7
:10B6400030BC704770B505000C0043F22156002D48
:10B6500007D140F2D1126B496B48FFF7C7FFAFF338
:10B660000080002C07D14FF4E97266496748FFF764
:10B67000BDFFAFF3008022002900654800F0D4F937
:10B68000002801D05FF0FF34200070BD2DE9F041AB
:10B6900004000D0016001F0000205FF00008B845F0
:10B6A00011DA2868401C802805D329682000FFF79C
:10B6B000C9FF00202860286826542868401C28609C
:10B6C00018F10108EBE7BDE8F0812DE9F14F88B0F2
:10B6D0000E001700984643F2215568464D49102246
:10B6E00000F0BCF9CDF8008001969DF820008DF89F
:10B6F0000A008DF818703800C0B2012818D16846C9
:10B7000007905FF01C0A5FF0000BDFF80C914C46CD
:10B710005A465146200000F0E5F9C9F8109004A9F6
:10B72000D9F8100000F0E2F80400002C14D11BE05E
:10B730003800C0B2022801D128003CE03800C0B275
:10B74000032801D1280036E03800C0B2042801D116
:10B75000280030E028002EE04FF4337229492F48AA
:10B76000FFF744FFAFF3008019F11401D9F810007E
:10B7700000F0F1F80500002D07D040F2D622214953
:10B780002648FFF733FFAFF3008019F11801D9F80D
:10B79000100000F011F90400002C07D040F2E12263
:10B7A00018491E48FFF722FFAFF30080D9F81000B8
:10B7B0001B490860002009B0BDE8F08F0EB42DE9E8
:10B7C000F841A0B00400002500266846802100F062
:10B7D000BDF913480068002801D100200BE027AF15
:10B7E000104B6A463900200000F013FA80464146AB
:10B7F0006846FFF727FF21B0BDE8F0015DF810FBB8
:10B80000000000009CD1080078DB080028DB08005D
:10B8100020001C2088DA08000C001C2058D70800E3
:10B8200028001C208DB60800EFF3108072B6704718
:10B8300080F3108870472DE9F04105000C001600D8
:10B840001F0043F221508046002C0BD0297B012998
:10B8500007D13A00310015F1080000F03AFB8046AC
:10B8600000E08046404600B2BDE8F0812DE9F0419D
:10B8700007000E001500002F09D140F20E32DFF84C
:10B88000BC11DFF8BC01FFF7B1FEAFF30080002E62
:10B8900009D140F20F32DFF8A411DFF8A801FFF759
:10B8A000A5FEAFF30080002D09D14FF44472DFF8FC
:10B8B0008C11DFF89401FFF799FEAFF30080B846D2
:10B8C000D8F80040002C09D140F21532DFF86C1195
:10B8D000DFF87801FFF78AFEAFF300802B0032001B
:10B8E00041462000FFF7A7FFBDE8F0812DE9F047B2
:10B8F00004000D0043F22156002D07D140F23132F1
:10B900004E495448FFF772FEAFF30080002C07D178
:10B9100040F2363249495048FFF768FEAFF30080E5
:10B9200027005FF010085FF00009BA464A4641461A
:10B93000504600F0D7F8287A3873287A012806D1C3
:10B94000E96817F1080000F08DFA0600FFE7300003
:10B9500000B2BDE8F0872DE9F04704000D00002C8F
:10B9600007D140F2E73235493B48FFF73FFEAFF3DE
:10B970000080002D07D14FF47A7230493048FFF72C
:10B9800035FEAFF3008026002F005FF004085FF063
:10B990000009AA464A464146504600F0A3F8FFF780
:10B9A00043FF82467068401C70605046FFF740FFBE
:10B9B0003E600020BDE8F0872DE9F84F04000D003F
:10B9C000002C07D140F221421C492348FFF70EFE0C
:10B9D000AFF30080002D07D140F2224217491C48E6
:10B9E000FFF704FEAFF3008026002F00FFF71CFFD7
:10B9F00080463068002805D04046FFF719FF43F223
:10BA000022500FE037604046FFF712FF5FF0040955
:10BA10005FF0000AAB4652464946584600F062F8CD
:10BA20003E600020BDE8F28F70B504000D001600E6
:10BA3000320029002000FFF719FF70BDE0D2080096
:10BA400040DB080080DB080088DB080090DB080092
:10BA50004CDB080098DB0800C8DA0800103A07D36E
:10BA600030B4B1E83810103AA0E83810F9D230BC40
:10BA7000530724BFB1E80810A0E8081044BF51F8EC
:10BA8000043B40F8043BD20724BF31F8022B20F8D6
:10BA9000022B44BF0B7803707047121F17D35B0053
:10BAA00009D151F8043B20F8023B1B0C121F20F86F
:10BAB000023BF6D20BE051F8043B00F8013B1B0AB5
:10BAC00020F8023B1B0C121F00F8013BF3D238BFD9
:10BAD000121D521E24BF11F8013B00F8013BF8D89B
:10BAE0007047300062F30F2262F31F42401810F0DB
:10BAF000030308D0C91A1FD3DB0748BF00F8012D84
:10BB000028BF20F8022D130030B414461546103912
:10BB100028BF20E93C00FAD8490728BF20E90C00DB
:10BB200048BF40F8042D890028BF20F8022D48BFE7
:10BB300000F8012D30BC7047C91818BF00F8012D5E
:10BB4000CB0728BF00F8012D70473000002200F01D
:10BB5000F3B92DE9F04F84460D001400099E002032
:10BB6000E2465FF0000B8AF800B01AF1010A002CDF
:10BB700024D0D5F800B05946002905D15FF0300B2C
:10BB80008AF800B0401C42E0002940D091FBF3FB52
:10BB9000DE4603FB1E1BBBF1000F05D55F467FEAA7
:10BBA000070919F1310902E0D94619F13009714646
:10BBB0008AF800901AF1010A401CE5E7D5F800B0B8
:10BBC0005A46002A05D15FF0300B8AF800B0401CBD
:10BBD0001DE0002A1BD0B2FBF3FBD84603FB182B59
:10BBE000BBF10A0F02D25F46303709E03700FFB2DF
:10BBF000002F01D0412700E061270A3F17EB0B0718
:10BC000042468AF800701AF1010A401CE1E7BDE8DB
:10BC1000F08F2DE9F54F91B08B461F0000265FF0A5
:10BC200000080020029000208DF8040000200490FD
:10BC3000DDF844A09AF800000500002D00F00D8109
:10BC4000252D07D0012328000200D2B202A91298A4
:10BC5000B847FFE001208DF8050000208146002054
:10BC600003900398002813D11AF1010A9AF80000F2
:10BC70000500302D07DB3A2D05DA0A21B5F1300039
:10BC800001FB0909EDE7BAF1010A01200390E8E799
:10BC9000062005901AF1010108782E2819D10020FC
:10BCA0000590002003900398002813D1491C0878C0
:10BCB0000500302D09DB3A2D07DA059A0A23B5F184
:10BCC000300003FB02020592EDE7491E01200390BC
:10BCD000E9E7491E11F1010A9AF800000500642DF8
:10BCE00011D0692D0FD0662D0DD0462D0BD0782D9B
:10BCF00009D0582D07D06F2D05D0622D03D0702D9F
:10BD000001D0752D72D1642D01D0692D11D1DBF8D0
:10BD100000001BF1040B06909DF8050000900A231B
:10BD2000012206A908A8FFF714FF804608A840448E
:10BD30000600582D01D0782D16D1782D02D1002083
:10BD40008DF80500DBF800001BF1040B04909DF852
:10BD5000050000901023002204A908A8FFF7F9FEAF
:10BD6000804608A8404406006F2D05D0622D03D000
:10BD7000702D01D0752D27D1DBF800001BF1040BCD
:10BD800004906F2D03D108208DF804000EE0622D81
:10BD900003D102208DF8040008E0702D03D110209B
:10BDA0008DF8040002E00A208DF804009DF80500DB
:10BDB00000909DF80430002204A908A8FFF7C9FEEE
:10BDC000804608A840440600B9EB0803202202A9D7
:10BDD0001298B847002E3DD0307800283AD0012381
:10BDE000327802A91298B847761EF5E7632D0DD177
:10BDF000DBF800001BF1040BC0B207900123079889
:10BE00000200D2B202A91298B84723E0732D1AD1CA
:10BE1000DBF800001BF1040B0400002C1AD02000FA
:10BE200000F0A4F88046B9EB0803202202A912987A
:10BE3000B847207800280DD00123227802A9129853
:10BE4000B847641CF5E7012328000200D2B202A91A
:10BE50001298B8471AF1010AECE6029813B0BDE84F
:10BE6000F08F0100F8B584B004000D00002D06D15C
:10BE70008B222C492C48FFF7B9FBAFF30080002C34
:10BE800006D18C2227492948FFF7B0FBAFF3008089
:10BE90002E00270070680190307A8DF80800707AC3
:10BEA0008DF80900F07A8DF80A00307B8DF80B00D0
:10BEB00030680090B07A8DF80C006946380000F0C8
:10BEC00079F8002802D043F2215000E0002005B0AC
:10BED000F0BDF8B506000D001400002E07D140F2A9
:10BEE0000B1210491148FFF781FBAFF30080002DC2
:10BEF00007D14FF486720B490D48FFF777FBAFF37C
:10BF00000080002C07D140F20D1206490948FFF7C6
:10BF10006DFBAFF30080370022002900380000F0ED
:10BF2000BFF8F2BD14D20800D8DA0800E8DA080039
:10BF3000A0DB0800A8DB080000B500BF1300964690
:10BF40009446103928BFA0E80C50FAD85FEA417C2B
:10BF500028BF0CC048BF40F8042BC90728BF20F8F1
:10BF6000022B48BF00F8012B00BDFEE700F10103E2
:10BF7000810704D010F8011B820781B1FAD1026851
:10BF8000A2F10131914311F0803104BF50F8042F28
:10BF9000F6E709BAB1FA81F100EBD100401CC01AF2
:10BFA0007047FEE70100002901D1002001E042F6C0
:10BFB000AF7070477FB504000D00002C06D1DC2265
:10BFC0004E494F48FFF712FBAFF30080002D06D11A
:10BFD000DD224A494B48FFF709FBAFF30080287B7D
:10BFE0000E2806D3DE2245494748FFF7FFFAAFF394
:10BFF0000080464E287B56F82000002806D1DF221C
:10C000003E494348FFF7F2FAAFF30080684600F07C
:10C010002CF968680090287A012803D102208DF855
:10C02000040009E0287A022803D103208DF80400D7
:10C0300002E000208DF80400687A012803D1012075
:10C040008DF8050002E000208DF80500A87A002890
:10C0500001D0012000E000208DF80800E87A0028D7
:10C0600001D0012000E000208DF8090000208DF8AB
:10C070000B0000208DF80C002A686946287B56F8D2
:10C08000200000F059F80600002E03D03000FFF722
:10C0900089FF03E02100287B0870002004B070BDF8
:10C0A000F8B506000D001400002E07D140F245122D
:10C0B00012491348FFF79AFAAFF30080002D07D119
:10C0C0004FF4A3720D491348FFF790FAAFF30080C5
:10C0D000002C07D140F2471208490F48FFF786FAB3
:10C0E000AFF3008037002200290008483B7850F861
:10C0F000230000F04FF90020F2BD0000C4D4080076
:10C10000B0DB0800B8DB08001CD508005CD60800CE
:10C1100080D70800C0DB0800C8DB08000A00D2B2E4
:10C12000002A04D0426852F48072426003E0426800
:10C1300032F48072426070472DE9F04104000D0036
:10C140001600002C03D0002D01D0002E08D1B722FC
:10C15000DFF89812DFF89802FFF748FAAFF3008093
:10C16000002C03D0002D01D0002E01D104207AE054
:10C170000121200000F0DAF90700002F01D038007B
:10C1800071E0687A00281AD0D4F8000E50F001103F
:10C19000C4F8000ED4F8080E30F47060C4F8080E2D
:10C1A000D4F8080EE97A090211F470610843C4F862
:10C1B000080ED4F8080E50F00100C4F8080E287AD2
:10C1C00000281AD0D4F8000E50F00210C4F8000E67
:10C1D000D4F8080E30F47020C4F8080ED4F8080E15
:10C1E000297B090411F470210843C4F8080ED4F81F
:10C1F000080E50F00200C4F8080E2879000110F073
:10C2000030006979890111F040010843A97989005A
:10C2100011F00C010843E97950EAC130697BC9B2D9
:10C220004908C9B2C90211F400610843697B890356
:10C2300011F480410843A97B090311F4805108439C
:10C2400050F00100206032002968200000F03DF825
:10C250008046B8F1000F01D0404604E0A97A2000E2
:10C26000FFF75CFF0020BDE8F081F8B50400002C6A
:10C2700009D14FF48972DFF87411DFF87801FFF704
:10C28000B5F9AFF300801025002627003200290001
:10C290003800FFF727FC5FF4E130206000202071B8
:10C2A000002060710120A0710020E0710020207248
:10C2B000002060720020E072002020730020607374
:10C2C0000020A0720020A073F1BD2DE9FE4F0400F4
:10C2D0000D0016005FF0FF3ACDF804A05FF00F09E3
:10C2E000002C03D0002D01D0002E09D14FF49E72F6
:10C2F000DFF8F810DFF80001FFF778F9AFF30080FE
:10C30000002C03D0002D01D0002E01D104203FE0ED
:10C310002068000509D52068400438D5B6FBF5F043
:10C320008046B8F10100206231E04F46082F24D347
:10C33000781C6843B6FBF0F0401E8046B8F5803F9D
:10C3400019D2791C18F101004143B6FBF1F00090BD
:10C350000098854204D2DDF800B0BBEB050B03E08A
:10C36000DDF800B0B5EB0B0B0198834503D2CDF897
:10C3700004B0B946C2467F1ED8E7BAF5803F02D363
:10C3800041F2516004E0C4F82890C4F820A00020D5
:10C39000BDE8FE8F70B504000D001600002C01D022
:10C3A000002D09D14FF4BE72DFF84010DFF84C00C9
:10C3B000FFF71CF9AFF30080002C01D0002D00D155
:10C3C00012E0D4F8000EC0070ED5002E09D0D4F824
:10C3D000040E8006FBD52878C4F8200E6D1C761E4E
:10C3E000F3E7A0680007FCD570BD000064D4080026
:10C3F00024D6080034DB0800E8D5080084D80800FB
:10C40000010009B2C1F30721002908D0022912D086
:10C410000BD304291BD014D305291ED023E00122FD
:10C420008240DFF814341A601DE001228240DFF8F8
:10C430000C341A6017E001228240DFF804341A60DD
:10C4400011E001228240DFF8FC331A600BE0012288
:10C450008240DFF8F4331A6005E001228240DFF801
:10C46000EC331A60FFE7704702000800C0B20028F2
:10C4700001D1012015E00800C0B2052806DAD2F883
:10C48000F80FC91CC84010F001000AE00800C0B253
:10C49000052805D1D2F8F80FC00910F0010000E01E
:10C4A0000020704738B504000025112D09DADFF8A7
:10C4B000A00350F82500844201D128000BE06D1C38
:10C4C000F3E75F22DFF88C13DFF88C03FFF78EF8B9
:10C4D000AFF30080002032BD70B505000E001400DF
:10C4E0003100C9B22800FFF7BFFF002801D10320A7
:10C4F0001BE0D5F8F80F000709D5D5F8F80F10F0B4
:10C5000007003100C9B2884201D001200DE0002CA3
:10C5100006D03000C0B250F00800C5F8F80F03E0B4
:10C520003000C0B2C5F8F80F002070BD70B504002F
:10C530000D002000FFF7B6FF0600002E01D50420F5
:10C5400011E0DFF8180330F91600FFF759FFDFF8A4
:10C55000100330F9160000F071FA00222900C9B268
:10C560002000FFF7B9FF70BD10B5DFF8F842206872
:10C57000002806D1AF22B749BC48FFF737F8AFF320
:10C580000080B9480168B24800682268904710BD31
:10C5900010B5B44C6068002806D1BC22AD49B4483F
:10C5A000FFF724F8AFF30080AF484168A84840681F
:10C5B0006268904710BD10B5AA4CA068002806D14B
:10C5C000C922A449AB48FFF711F8AFF30080A64891
:10C5D00081689F488068A268904710BD10B5A14C43
:10C5E000E068002806D1D6229A49A348FEF7FEFF4C
:10C5F000AFF300809C48C1689548C068E2689047E6
:10C6000010BD10B5974C2069002806D1E32291494E
:10C610009A48FEF7EBFFAFF30080934801698C481E
:10C6200000692269904710BD10B58E4C60690028E2
:10C6300006D1F12287499248FEF7D8FFAFF3008078
:10C6400089484169824840696269904710BD10B5C8
:10C65000844CA069002806D1FE227E498948FEF755
:10C66000C5FFAFF300808048816979488069A2697D
:10C67000904710BD10B57B4CE069002807D140F20F
:10C680000B1274498048FEF7B1FFAFF30080764883
:10C69000C1696F48C069E269904710BD10B5714C1F
:10C6A000206A002807D14FF48C726A497748FEF758
:10C6B0009DFFAFF300806C48016A6548006A226AFA
:10C6C000904710BD10B5674C606A002807D140F252
:10C6D000251260496E48FEF789FFAFF3008062487B
:10C6E000416A5B48406A626A904710BD10B55D4C74
:10C6F000A06A002807D14FF4997256496548FEF7A1
:10C7000075FFAFF300805848816A5148806AA26A79
:10C71000904710BD10B5534CE06A002807D140F295
:10C720003F124C495C48FEF761FFAFF300804E4872
:10C73000C16A4748C06AE26A904710BD10B5494CCB
:10C74000206B002807D14FF4A67242495348FEF7E8
:10C750004DFFAFF300804448016B3D48006B226BF6
:10C76000904710BD10B53F4C606B002807D140F2D8
:10C77000591238494A48FEF739FFAFF300803A486A
:10C78000416B3348406B626B904710BD38B54548EC
:10C79000FFF788FE0400334D55F82400002807D128
:10C7A0004FF4B5722B494048FEF720FFAFF30080ED
:10C7B0002D4850F82410264850F8240055F824201D
:10C7C000904731BD38B53948FFF76CFE0400254D60
:10C7D00055F82400002807D140F27B121D49324849
:10C7E000FEF704FFAFF300801F4850F824101848EC
:10C7F00050F8240055F82420904731BD38B52C4816
:10C80000FFF750FE0400174D55F82400002807D10B
:10C810004FF4C6720F492448FEF7E8FEAFF30080DC
:10C82000114850F824100A4850F8240055F82420E4
:10C83000904731BD0000000040100040441000400F
:10C84000481000404010024044100240481002408E
:10C8500064D508007CD208004ABB0800D0D7080085
:10C86000F4D708002C001C2070001C2078D9080088
:10C8700090D90800A8D90800C0D90800D8D9080064
:10C88000F0D9080008DA080020DA080038DA0800D1
:10C8900050DA0800ECD8080008D9080024D90800AC
:10C8A00040D908000060124064D8080000701240AF
:10C8B00000801240F8B50400200000B2C0F3072544
:10C8C000260036B206F0FF060127B740202E06D319
:10C8D0002E2246494648FEF789FEAFF30080002D20
:10C8E00008D0022D14D00CD3042D1FD017D3052D42
:10C8F00023D029E03F4807603F4800683842FBD01A
:10C9000022E03E4807603E4800683842FBD01BE00A
:10C910003C4807603C4800683842FBD014E03B4884
:10C9200007603B4800683842FBD00DE0394807609B
:10C93000394800683842FBD006E03848076038487C
:10C9400000683842FBD0FFE7F1BDF8B504002000D5
:10C9500000B2C0F30725260036B206F0FF06012715
:10C96000B740202E06D3692220492148FEF73EFE1B
:10C97000AFF30080002D08D0022D16D00DD3042D6A
:10C9800023D01AD3052D28D02FE0264807601A4857
:10C99000006838408742FAD027E0234807601848EB
:10C9A000006838408742FAD01FE0204807601648E8
:10C9B000006838408742FAD017E01D4807601448E5
:10C9C000006838408742FAD00FE01A4807601248E2
:10C9D000006838408742FAD007E0174807601048DF
:10C9E000006838408742FAD0FFE7F1BD04D4080060
:10C9F000B8DA080040000040100000404400004049
:10CA00001400004048000040180000404000024070
:10CA1000100002404400024014000240480002405E
:10CA20001800024070000040740000407800004090
:10CA300070000240740002407800024010B504000B
:10CA4000200000B2FFF736FF200000B2FFF77DFFA5
:10CA500010BDFEE70100C9B2002906D00121704ACD
:10CA6000116000216F4A116004E06D490A6852F0BC
:10CA700002020A6070470100C9B2002905D06A4964
:10CA80000A6852F001020A6004E067490A68520825
:10CA900052000A60704765490860704730B400284A
:10CAA00034D0634B1C688C4206D1624C246804F07D
:10CAB000FF04551EAC4229D0D0F8E040A40703D4AF
:10CAC000D0F8E040E407F7D4046854F002040460AE
:10CAD0005FF48034584D2C601960564B1D6855F03A
:10CAE00000551D60551E05F0FF051D601D68002DD9
:10CAF000FCD4524B1C60036833F0020303600368EC
:10CB000053F0010303600368DB07FCD430BC7047BB
:10CB100070B500264A48FFF7BEFF4A484FF48041EF
:10CB200001605FF4803101604FF400510160012029
:10CB3000FFF790FF0120FFF79EFF1F20424908608A
:10CB400042F2107041490860414908604148B0F123
:10CB5000006F02D3B0F1805F05D3B0F1C05F04D3A2
:10CB6000B0F1005F01D23C480600012203213000F1
:10CB7000FFF794FF02214FF48070FDF76AFB3748FE
:10CB8000FDF72FFB364D002D02D000BF6D1EFAE7DA
:10CB90003448FEF745FA18210020FEF7C1FA1821A3
:10CBA0000120FEF7BDFA18210220FEF7B9FA2E483F
:10CBB000FEF7F0FA1A210020FEF766FB0F212B4842
:10CBC000FDF747FB40F60D10FDF70BFB284C002C42
:10CBD00002D000BF641EFAE74FF4EC70FDF701FBD2
:10CBE000022140F2D910FDF734FB0222002130006F
:10CBF000FFF754FF1F48FDF7F4FA02211E48FDF726
:10CC000028FB0B211D48FDF724FB1D48FDF7E9FA21
:10CC100064211C48FDF71DFB00F051F870BD0000B9
:10CC20006011004068110040C011004004001C2049
:10CC300020160040241600407010004040100040B4
:10CC400000366E0130260040101100400C120040EA
:10CC50000C12024011CB0800004013400C59430055
:10CC600040420F0068DA080078DA0800900000807F
:10CC700080841E000D11008000010080D80100801A
:10CC8000F8517E80FA0100804048704740490968A9
:10CC900011F00301002905D0022909D005D3032989
:10CCA00009D00BE03B49080008E03B49080005E0DB
:10CCB0003649080002E039490800FFE77047F8B537
:10CCC0000026002400253648006810F003000028E4
:10CCD00003D002284CD01BD34EE03248006810F03D
:10CCE0000300002805D002280AD005D303280BD062
:10CCF0000DE02D4806000AE0FFF7C8FF060006E039
:10CD0000FFF7C2FF060002E028480600FFE733E015
:10CD10002748006810F00700002802D0012803D03F
:10CD200006E01A48060003E0FFF7AEFF0600FFE743
:10CD3000204F3868C0070FD41F480068A0FB0601C9
:10CD40001E4A12680023FEF739FB04000D00386804
:10CD5000C0F307404643A6191220A0FB0601184A5B
:10CD6000126812F03F020023FEF728FB060003E0E2
:10CD70004FF400400600FFE71248006800F0FF0093
:10CD8000401CB6FBF0F010490860F1BD00366E01A2
:10CD90000811004000D8B805006CDC02001BB70089
:10CDA000341400403014004040420F0000B0710BBA
:10CDB0000012004004120040101200401412004003
:10CDC000181200400014004000001C2080B51648D6
:10CDD000016851F470010160016851F00F010160B8
:10CDE00012490A6840F6034002430A6010485FF0A7
:10CDF000A0610160016851F00041016001680029F3
:10CE0000FCD4032101600B480B49086000200B494A
:10CE1000086001200A490860BFF36F8FBFF34F8F8E
:10CE200000F010F801BD00BF88ED00E08CED00E0DF
:10CE30000038034000FCFF07143003401830034063
:10CE40001C3003407047FEE710B4020052B2002AC3
:10CE500005D44A01554B040064B21A5508E04A0152
:10CE6000534B040064B214F00F04234403F8042C61
:10CE700010BC704710B50400601EB0F1807F01D374
:10CE800001200EE0601E4B49086007215FF0FF3073
:10CE9000FFF7DAFF0020484908600720474908608B
:10CEA000002010BD10B44C010444A35410BC7047C2
:10CEB00000EB810313F50C531A60704700EB8103FC
:10CEC00013F502531A60704700EB810313F5065304
:10CED0001A6070473A490868002802D00868401E66
:10CEE00008607047364A106011680029FCD170470D
:10CEF0007CB504000D0033480088ADF80000324EC8
:10CF00002100300000F094F86B462A002100300028
:10CF100000F0BAF801232A0021003000FFF7C2FF19
:10CF20004FF6FF7221003000FFF7C8FF5FF0FF32BD
:10CF300021003000FFF7C8FF73BD10B500F0E0F826
:10CF4000FFF7E6FD00F00CF92048FEF737FC0E2154
:10CF50000020FFF7CDFF00210120FFF7C9FF1F21AF
:10CF60000020FFF7C5FF1A4800684FF47A71B0FB44
:10CF7000F1F0FFF77FFF002800D0FEE74FF47A7052
:10CF8000FFF7B0FF104C4FF4804200212000FFF764
:10CF90008FFF012201212000FFF78AFF5FF000428E
:10CFA00000212000FFF784FFE8E7000000E400E034
:10CFB00018ED00E014E000E018E000E010E000E010
:10CFC000C0001C2062BE0800000010405CD90800B0
:10CFD00000001C20010009B2C1F30721002908D07C
:10CFE000022910D00AD3042917D011D3052919D04A
:10CFF0001DE0012282401A4B1A6018E00122824093
:10D00000184B1A6013E001228240174B1A600EE0A1
:10D0100001228240154B1A6009E001228240144B24
:10D020001A6004E001228240124B1A60FFE7704749
:10D0300038B504000D00082D06D32E220E490F48E6
:10D04000FEF7D4FAAFF300800D4830F91500FFF772
:10D05000C1FF0C4830F91500FFF7F0FC31BD0000AE
:10D060004010004044100040481000404010024072
:10D070004410024048100240A4D30800A8D508007C
:10D0800098DA0800A8DA080070B41C78002C0BD1DC
:10D090004FF4005400EB81052D5901269640B5430D
:10D0A00000EB810635511CE05C78002C07D101248F
:10D0B000944000EB810515F50A552C6006E001242B
:10D0C000944000EB810515F508552C604FF4005491
:10D0D00000EB81052D5901269640354300EB810672
:10D0E000355170BC704730B40D00EDB280246543FB
:10D0F00000EB05041500EDB244F8253030BC704754
:10D10000F8B501242300012200215FF04020FFF741
:10D11000EAFF40252B000A2200215FF04020FFF7A4
:10D12000E2FF002633000E2200215FF04020FFF7CF
:10D13000DAFF33001F2200215FF04020FFF7D3FF0A
:10D140003300002201215FF04020FFF7CCFF412790
:10D150003B00022200215FF04020FFF7C4FFF1BD39
:10D160001CB54FF44270FFF7F0FB0A4800680090CE
:10D170006846FDF729FF0848FDF733F80020FDF762
:10D18000EEFA0400230001225FF4E1310020FEF7F3
:10D190009CFA13BD1CDE080042190080443A5C7200
:10D1A00065735F636869705F692E6D7872745F6321
:10D1B0006D33335C53444B5F322E352E305F455612
:10D1C0004B2D4D494D5852543539355F4541525FCD
:10D1D000322E305C646576696365735C4D494D58E9
:10D1E0005254353935535C7574696C69746965736B
:10D1F0005C64656275675F636F6E736F6C655C66B8
:10D20000736C5F64656275675F636F6E736F6C6587
:10D210002E630000443A5C7265735F636869705FF7
:10D22000692E6D7872745F636D33335C53444B5F6A
:10D23000322E352E305F45564B2D4D494D585254A8
:10D240003539355F4541525F322E305C636F6D700A
:10D250006F6E656E74735C73657269616C5F6D612E
:10D260006E616765725C73657269616C5F706F7225
:10D27000745F756172742E6300000000443A5C7242
:10D2800065735F636869705F692E6D7872745F6340
:10D290006D33335C53444B5F322E352E305F455631
:10D2A0004B2D4D494D5852543539355F4541525FEC
:10D2B000322E305C646576696365735C4D494D5808
:10D2C0005254353935535C647269766572735C66A5
:10D2D000736C5F666C6578636F6D6D2E6300000024
:10D2E000443A5C7265735F636869705F692E6D783C
:10D2F00072745F636D33335C53444B5F322E352E53
:10D30000305F45564B2D4D494D5852543539355F98
:10D310004541525F322E305C636F6D706F6E656E8B
:10D3200074735C73657269616C5F6D616E61676572
:10D33000725C73657269616C5F6D616E6167657265
:10D340002E630000443A5C7265735F636869705FC6
:10D35000692E6D7872745F636D33335C53444B5F39
:10D36000322E352E305F45564B2D4D494D58525477
:10D370003539355F4541525F322E305C64657669E0
:10D380006365735C4D494D585254353935535C646F
:10D390007269766572735C66736C5F636C6F636BE6
:10D3A0002E630000443A5C7265735F636869705F66
:10D3B000692E6D7872745F636D33335C53444B5FD9
:10D3C000322E352E305F45564B2D4D494D58525417
:10D3D0003539355F4541525F322E305C6465766980
:10D3E0006365735C4D494D585254353935535C640F
:10D3F0007269766572735C66736C5F6770696F2EB5
:10D4000063000000443A5C7265735F636869705F33
:10D41000692E6D7872745F636D33335C53444B5F78
:10D42000322E352E305F45564B2D4D494D585254B6
:10D430003539355F4541525F322E305C646576691F
:10D440006365735C4D494D585254353935535C64AE
:10D450007269766572735C66736C5F72657365740E
:10D460002E630000443A5C7265735F636869705FA5
:10D47000692E6D7872745F636D33335C53444B5F18
:10D48000322E352E305F45564B2D4D494D58525456
:10D490003539355F4541525F322E305C64657669BF
:10D4A0006365735C4D494D585254353935535C644E
:10D4B0007269766572735C66736C5F7573617274A2
:10D4C0002E630000443A5C7265735F636869705F45
:10D4D000692E6D7872745F636D33335C53444B5FB8
:10D4E000322E352E305F45564B2D4D494D585254F6
:10D4F0003539355F4541525F322E305C636F6D7058
:10D500006F6E656E74735C756172745C7573617255
:10D51000745F616461707465722E6300636F6E6620
:10D5200069672D3E696E7374616E6365203C2028C7
:10D5300073697A656F6628735F55736172744164AD
:10D5400061707465724261736529202F2073697A56
:10D55000656F662855534152545F54797065202A8F
:10D560002929000000601040007010400080104029
:10D570000090104000201240003012400040124045
:10D58000005012400090204000A0204000B02040F9
:10D5900000C0204000D0204000E020400060124049
:10D5A0000070124000801240706F7274203C20287E
:10D5B00073697A656F6628735F6770696F436C6F14
:10D5C000636B4E616D6529202F2073697A656F66E4
:10D5D0002828735F6770696F436C6F636B4E616D72
:10D5E00065295B305D29290021282830203D3D2018
:10D5F0006261736529207C7C202830203D3D2062BB
:10D60000617564726174655F42707329207C7C204F
:10D610002830203D3D20737263436C6F636B5F481D
:10D620007A29290021282830203D3D206261736538
:10D6300029207C7C202830203D3D20636F6E666968
:10D640006729207C7C202830203D3D207372634375
:10D650006C6F636B5F487A292900000000601040FE
:10D6600000701040008010400090104000201240D8
:10D670000030124000401240005012400090204004
:10D6800000A0204000B0204000C0204000D020403A
:10D6900000E0204010B5094C2068002804D0216823
:10D6A0000848074A126890476068002804D06168FB
:10D6B0000548034A1268904710BD0000B4001C20C2
:10D6C000BC001C200040134000C0134072B6074845
:10D6D000074901600A6882F30888064880F30A88CF
:10D6E00062B60548804705480047000008ED00E0A5
:10D6F00000A0080000FC2F20CDCD080065DB08004D
:10D70000415353455254204552524F522022202516
:10D710007320223A2066696C652022257322204CF2
:10D72000696E652022256422200A000030B450F87A
:10D73000041B79B10268436802440830DC0744BF27
:10D74000A9F10104E31852F8045B43F8045B091FD4
:10D75000F9D1ECE730BC70476B5374617475735F3B
:10D7600053657269616C4D616E616765725F537577
:10D770006363657373203D3D20737461747573003A
:10D78000735F557361727441646170746572426154
:10D7900073655B636F6E6669672D3E696E73746156
:10D7A0006E63655D0000000010B5074979441831CB
:10D7B000064C7C44163404E00A68081D114488476E
:10D7C0000146A142F8D110BD740000009400000091
:10D7D000080309030A030B030C030D030E030F03D5
:10D7E0001003110312031303140315031603170385
:10D7F00019030000080309030A030B030C030D03BC
:10D800000E030F0310031103120313031403150374
:10D8100016031703190300004EF68851CEF20001DB
:10D82000086840F470000860BFF34F8FBFF36F8F3C
:10D830004FF00070E1EE100A70470000CFDDFFFFEF
:10D84000C000000004001C2000000000E1FEFFFFFB
:10D8500004000000CC05000000001C2000000000B7
:10D86000FEE70000735F666C6578636F6D6D4972EB
:10D870007148616E646C65725B696E7374616E632E
:10D88000655D000021282830203D3D2062617365E0
:10D8900029207C7C202830203D3D20646174612952
:10D8A0002900000000F00DF8002801D0FFF77CFFF0
:10D8B000AFF300800020AFF30080FFF73EFB00F0E5
:10D8C00002F80120704700F001B8FEE7074638462D
:10D8D00000F002F8FBE7FEE780B5AFF30080024AF4
:10D8E00011001820ABBEFBE726000200735F666CD8
:10D8F0006578636F6D6D49727148616E646C6572B5
:10D900005B31305D00000000735F666C6578636FAB
:10D910006D6D49727148616E646C65725B31315D29
:10D9200000000000735F666C6578636F6D6D49720F
:10D930007148616E646C65725B31325D000000009D
:10D94000735F666C6578636F6D6D49727148616E67
:10D95000646C65725B31335D000000000D0A204786
:10D9600050494F20447269766572206578616D7008
:10D970006C650D0A00000000735F666C6578636F6C
:10D980006D6D49727148616E646C65725B305D00EB
:10D99000735F666C6578636F6D6D49727148616E17
:10D9A000646C65725B315D00735F666C6578636F94
:10D9B0006D6D49727148616E646C65725B325D00B9
:10D9C000735F666C6578636F6D6D49727148616EE7
:10D9D000646C65725B335D00735F666C6578636F62
:10D9E0006D6D49727148616E646C65725B345D0087
:10D9F000735F666C6578636F6D6D49727148616EB7
:10DA0000646C65725B355D00735F666C6578636F2F
:10DA10006D6D49727148616E646C65725B365D0054
:10DA2000735F666C6578636F6D6D49727148616E86
:10DA3000646C65725B375D00735F666C6578636FFD
:10DA40006D6D49727148616E646C65725B385D0022
:10DA5000735F666C6578636F6D6D49727148616E56
:10DA6000646C65725B395D0001000000000000001D
:10DA7000010000000300000001000000B0130000DE
:10DA800078690000030000000000000000000000B2
:10DA9000000000010100000000040104020403046E
:10DAA000040405040604070400040104020403043A
:10DAB0000404050406040704626974506F73203C73
:10DAC000203332750000000073657269616C486133
:10DAD0006E646C650000000073657269616C436F71
:10DAE0006E6669670000000073657269616C486169
:10DAF0006E646C65000000006964203C3D20313795
:10DB0000550000006964203C3D203136550000007E
:10DB10006964203C3D2031550000000069203C3DF7
:10DB200020313755000000003020213D2073697AF4
:10DB3000650000003020213D20636F6E666967003C
:10DB4000777269746548616E646C650072656164C2
:10DB500048616E646C65000001480047FEE7000004
:10DB60005DDB0800AFF30080FFF756FEFFF79AFE7B
:10DB70006964203C3D2031003020213D2063680055
:10DB800062756666657200006C656E677468000099
:10DB900068616E646C650000636F6E6669670000A3
:10DBA00062756666657200006C656E677468000079
:10DBB00068616E646C650000636F6E666967000083
:10DBC00064617461000000006C656E677468000039
:10DBD000004800475DDB0800004800475DDB0800A7
:10DBE000004800475DDB0800004800475DDB080097
:10DBF000004800475DDB0800004800475DDB080087
:10DC0000004800475DDB0800004800475DDB080076
:10DC1000004800475DDB0800004800475DDB080066
:10DC2000004800475DDB0800004800475DDB080056
:10DC3000004800475DDB0800004800475DDB080046
:10DC40000048004769C508000048004791C5080022
:10DC500000480047B7C5080000480047DDC5080078
:10DC60000048004703C608000048004729C60800CE
:10DC7000004800478DC7080000480047C5C7080096
:10DC8000004800475DDB0800004800475DDB0800F6
:10DC9000004800475DDB0800004800475DDB0800E6
:10DCA000004800475DDB0800004800475DDB0800D6
:10DCB000004800475DDB0800004800475DDB0800C6
:10DCC000004800475DDB0800004800475DDB0800B6
:10DCD000004800475DDB0800004800475DDB0800A6
:10DCE000004800475DDB0800004800475DDB080096
:10DCF000004800475DDB0800004800475DDB080086
:10DD0000004800475DDB0800004800475DDB080075
:10DD1000004800475DDB0800004800475DDB080065
:10DD20000048004795D60800004800474FC6080045
:10DD30000048004775C60800004800475DDB080042
:10DD4000004800475DDB0800004800475DDB080035
:10DD5000004800475DDB0800004800475DDB080025
:10DD6000004800475DDB0800004800475DDB080015
:10DD7000004800475DDB0800004800475DDB080005
:10DD8000004800475DDB0800004800475DDB0800F5
:10DD9000004800475DDB0800004800475DDB0800E5
:10DDA000004800475DDB0800004800475DDB0800D5
:10DDB000004800479DC6080000480047C5C6080047
:10DDC00000480047EDC608000048004715C7080096
:10DDD000004800473DC708000048004765C70800E5
:10DDE00000480047FDC70800004800475DDB080009
:10DDF000004800475DDB0800004800475DDB080085
:10DE0000004800475DDB0800004800475DDB080074
:10DE1000004800475DDB0800FFFFFFFF0001000036
:08DE200040420F00FEE7FEE79F
:040000050008DB65AF
:00000001FF
